:100000000C947B000C94A3000C94A3000C94A3000C
:100010000C94A3000C94A3000C94A3000C94A300D4
:100020000C94A3000C94A3000C94A3000C94A300C4
:100030000C94A3000C94A3000C94A3000C94A300B4
:100040000C9404120C94A3000C9439140C946A14AC
:100050000C94A3000C94A3000C94A3000C94A30094
:100060000C94AE100C94A300084AD73B3BCE016E13
:1000700084BCBFFDC12F3D6C74319ABD56833DDAFF
:100080003D00C77F11BED9E4BB4C3E916BAAAABE0E
:10009000000000803F00000000240027002A00002C
:1000A000000000250028002B00000000002300268F
:1000B00000290004040404040404040202020202ED
:1000C000020303030303030102040810204080011C
:1000D000020408102001020408102000000007009C
:1000E0000201000003040600000000000000000000
:1000F0008E09D60F2F1511241FBECFEFD8E0DEBF1B
:10010000CDBF11E0A0E0B1E0E2E3F6E302C005906C
:100110000D92A63BB107D9F716E0A6EBB1E001C0FE
:100120001D92A534B107E1F710E0C6EFD0E004C09E
:100130002297FE010E94D518C03FD107C9F70E943F
:1001400047130C94171B0C940000FC01DB01328157
:100150002381948185813C9311962C93119712965B
:100160009C93129713968C931397368127819085D1
:10017000818514963C93149715962C931597169693
:100180009C93169717968C93179788E090E00895A4
:10019000FC01DB0111962C91119730E040E050E01A
:1001A000542F432F322F222712966C91129770E012
:1001B00080E090E0CB0177276627262B372B482B52
:1001C000592B6C9170E080E090E0262B372B482B68
:1001D000592B13966C91139770E080E090E0962F66
:1001E000882777276627262B372B482B592B2283E6
:1001F00033834483558315962C91159730E040E066
:1002000050E0542F432F322F222716966C911697C9
:1002100070E080E090E0CB0177276627262B372B14
:10022000482B592B14966C91149770E080E090E065
:10023000262B372B482B592B17968C9190E0A0E05A
:10024000B0E0B82FAA2799278827282B392B4A2BCB
:100250005B2B268337834087518788E090E00895A1
:1002600080E091E00895AF92BF92CF92DF92EF923B
:10027000FF920F931F93CF93DF935C01FB013181BA
:1002800020E0808190E0822B932BD50113969C93E4
:100290008E93129782819381A481B5818B010B5F2C
:1002A0001F4FE80166E070E026E0C22ED12CE12C61
:1002B000F12CC80ED91EEA1EFB1E04C02981299309
:1002C0006F5F7F4F9B0140E050E02C153D054E05D0
:1002D0005F05A0F3AC014A5F5F4F4E0F5F1F9A01AD
:1002E00021503040E9011882E5011D830C83EA01A9
:1002F000C880D980EA80FB80BC01665F7F4FEC013B
:100300002996CE0FDF1F8B01CB01AA2797FDA09561
:10031000BA2F8C0D9D1DAE1DBF1D04C029812993D0
:100320000F5F1F4F980140E050E0281739074A0738
:100330005B07A0F3C60ED71EDF01AC0DBD1D1197E4
:100340001C92615070406E0F7F1FF50177836683AA
:10035000C601DF91CF911F910F91FF90EF90DF9039
:10036000CF90BF90AF9008958EE091E008958FE612
:1003700091E00895FC01DB01928183819C931196A9
:100380008C93119782E090E00895FB01518140E049
:10039000208130E0242B352BFC013383228382E043
:1003A00090E0089587E291E00895CF92DF92EF9276
:1003B000FF920F931F93CF93DF93EC01E62ECA01B8
:1003C0002C81222309F448C0DA01ED91FC919E01B1
:1003D000255F3F4F0190F081E02DB90109952FEF86
:1003E0002D832E83EF82188689871A86FE01379621
:1003F00042E050E020E030E0BC016B5F7F4F05C081
:10040000A1912A0F311D4F5F5F4F64177507C4F725
:10041000FE01E80FF91F209523878C01095F1F4F0C
:10042000CA80DB8035E0E32EF12CEC0EFD1EC0E02F
:10043000D0E00EC0F60180819181D7016D917D01E0
:10044000DC01ED91FC910190F081E02D0995219660
:10045000C017D1077CF302C000E010E0C801DF91B3
:10046000CF911F910F91FF90EF90DF90CF90089563
:10047000AF92BF92CF92DF92EF92FF920F931F93B2
:10048000CF93DF938C01EB01DC0112969C911297C4
:1004900013968C9113979883898314966C91149773
:1004A00015967C91DB01FD0101900020E9F7319761
:1004B000EA1BFB0BCF01A0E0B0E08A839B83AC83F7
:1004C000BD839E012A5F3F4FC901AF010E94D71A29
:1004D0002A813B8146E0E42EF12CE20EF31EEC0E65
:1004E000FD1EF80166817781DB01FD01019000208E
:1004F000E9F73197EA1BFB0B5F01CC24DD24D70120
:10050000AD92BD92CD92DC9213978901065F1F4F89
:10051000C00FD11FCE01AF010E94D71AD7012D9174
:100520003C911197200F311FC901DF91CF911F918D
:100530000F91FF90EF90DF90CF90BF90AF90089514
:100540006F927F928F929F92AF92BF92CF92DF92E3
:10055000FF920F931F93CF93DF938C01EB01DC018C
:1005600012968C911297888319821A821B826B01D2
:1005700040E024E030E021C0842F90E0880F991FF4
:10058000880F991FF801A781B085A80FB91F6C913A
:1005900011965C91119712969C91129713968C91DB
:1005A000D6016C9311965C93119712969C931297B7
:1005B00013968C932C5F3F4F4F5FE4E0F0E0CE0E3C
:1005C000DF1ED80112968C9112974817A8F2FE01EF
:1005D000E20FF31F19968C9180832F5F3F4FDE014E
:1005E000A20FB31F1C922F5F3F4FDE01A20FB31F5C
:1005F0001C922F5F3F4FDE01A20FB31F1C922F5F93
:100600003F4F6F0140E021C0842F90E0880F991F79
:10061000880F991FF801A685B785A80FB91F6C919F
:1006200011965C91119712969C91129713968C914A
:10063000D6016C9311965C93119712969C93129726
:1006400013968C932C5F3F4F4F5FE4E0F0E0CE0EAB
:10065000DF1ED80119968C9119974817A8F2FE0150
:10066000E20FF31F50968C91509780832F5F3F4F7E
:10067000FE01E20FF31F10822F5F3F4FFE01E20FDA
:10068000F31F10822F5F3F4FFE01E20FF31F108216
:100690002F5F3F4FFF2433C05E01A20EB31E8F2D8C
:1006A00090E0880F991FD8015396ED91FC915497D3
:1006B000E80FF91F60817181DB01FD0101900020CD
:1006C000E9F73197EA1BFB0B3F0188249924D501F8
:1006D0006D927D928D929C92139754E0C52ED12CF1
:1006E000C20ED31E9E012C0D3D1DC901AF010E94FB
:1006F000D71AF501208131812C0D3D1DF394D801CD
:1007000050968C915097F81638F2C901DF91CF912D
:100710001F910F91FF90DF90CF90BF90AF909F906F
:100720008F907F906F9008956F927F928F929F929B
:10073000AF92BF92CF92DF92EF92FF920F931F93EF
:10074000CF93DF93EC015B01DB010C918A81801771
:1007500060F4602F70E0660F771F660F771F8F8140
:1007600098850E940C1A8F8398870A83F50160E0B0
:1007700034E0C32ED12C8E010D5F1F4F45C0818107
:1007800090E0A0E0B0E0BA2FA92F982F882722810F
:1007900030E040E050E0A90133272227822B932B41
:1007A000A42BB52B208130E040E050E0822B932B2E
:1007B000A42BB52B238130E040E050E0522F44279A
:1007C00033272227822B932BA42BB52B8B839C833F
:1007D000AD83BE8384E090E0C80ED91E862F90E0E2
:1007E000880F991F880F991F2F813885280F391F6F
:1007F000D8016D907D908D909C90D9016D927D92E5
:100800008D929C9213976F5F34968A81681708F4D3
:10081000B6CF85010C0D1D1DF801808089858815D6
:1008200060F4682D70E0660F771F660F771F8E8566
:100830009F850E940C1A8E879F8784E090E0C80EE7
:10084000D91E8986F80160E08E01065F1F4F45C002
:10085000818190E0A0E0B0E0BA2FA92F982F8827DF
:10086000228130E040E050E0A90133272227822B8B
:10087000932BA42BB52B208130E040E050E0822B5D
:10088000932BA42BB52B238130E040E050E0522F76
:10089000442733272227822B932BA42BB52B8A871F
:1008A0009B87AC87BD87A4E0B0E0CA0EDB1E862F15
:1008B00090E0880F991F880F991F2E853F85280F7C
:1008C000391FD8016D907D908D909C90D9016D92CB
:1008D0007D928D929C9213976F5F349689856817ED
:1008E00008F4B6CFF501EC0DFD1D00818889801755
:1008F00050F4602F70E0660F771F8B899C890E94EF
:100900000C1A8B8B9C8BF6013496088B7724B1E103
:100910008B2E912C8C0E9D1E41C0D501AE0FBF1F9A
:10092000CD90DD90ED90FC90DF0114963396EA0DAA
:10093000FB1D8D019D01442737FD4095542F2C0D43
:100940003D1D4E1D5F1D04C0818181930F5F1F4FB0
:10095000B80180E090E06217730784079507A0F361
:10096000CA0EDB1EC5018C0D9D1D0197FC01108276
:100970001197AA0DBB1DBA8BA98BF601872D90E0AC
:10098000880F991F2B893C89280F391FD4018D911D
:100990009C91D90111969C938E93739488897816B3
:1009A00008F4BBCFCF01DF91CF911F910F91FF9042
:1009B000EF90DF90CF90BF90AF909F908F907F90FF
:1009C0006F900895FC01428153816481758180811B
:1009D00091810E94B1140895DB01FC01E75BFD4F9A
:1009E00020E030E04191519141155105B1F4F901F8
:1009F000EE0FFF1FE80FF91FE75BFD4FB183A083E8
:100A000023583F4F15963C932E93149708961796AC
:100A10009C938E93169781E008952F5F3F4F293165
:100A2000310501F780E00895CF93DF93C8EBD1E063
:100A3000CE010E94E20410926404109263041092AA
:100A400066041092650410926A0410926904109270
:100A500068041092670410926E0410926D04CE0127
:100A6000029765E974E00E94EC0489E195E00E9438
:100A70009E0FCDE9D4E0CE0163E042E00E94E00E9B
:100A8000CE010E94930A80E090E0A2E0B4EC809353
:100A9000C1049093C204A093C304B093C40480E043
:100AA00090E8AEE0B4EC8093C5049093C604A093A4
:100AB000C704B093C80480E090E8A0E4B4EC80934D
:100AC000C9049093CA04A093CB04B093CC0480E0F3
:100AD00090E0A7E0B4E48093B5049093B604A093AB
:100AE000B704B093B80480E090E0AAEFB3E4809339
:100AF000B9049093BA04A093BB04B093BC0480E003
:100B000090E0A4E3B3E48093BD049093BE04A0936B
:100B1000BF04B093C004DF91CF9108950F931F934A
:100B2000DF93CF93CDB7DEB72A970FB6F894DEBF29
:100B30000FBECDBF8C0189E591E09A8389831B822A
:100B40001C821D821E821F82188619861A86C80181
:100B500008966AE070E0AE014F5F5F4F0E94D501DA
:100B60000E944C12F801EB5DFE4F6083718382831B
:100B700093832A960FB6F894DEBF0FBECDBFCF91F8
:100B8000DF911F910F9108958F929F92AF92BF9224
:100B9000CF92DF92EF92FF920F931F93DF93CF9349
:100BA000CDB7DEB728970FB6F894DEBF0FBECDBF26
:100BB0008C0181E0D8011C968C938FE491E09A839C
:100BC0008983B9E4EB2EB2E0FB2EE00EF11EABE719
:100BD000AA2EA2E0BA2EA00EB11EF8E08F2E912C04
:100BE000800E911E6E010894C11CD11CD701ED919D
:100BF000FD917D013097C9F0848195819C838B8321
:100C0000808191819E838D8382819381DC01ED912E
:100C1000FC910480F581E02D099598878F83C401AC
:100C200060E070E0A6010E94D501EA14FB04F1F631
:100C3000EBE7EE2EE2E0FE2EE00EF11E7DEAA72E9F
:100C400072E0B72EA00EB11E68E0C62ED12CC00EE9
:100C5000D11E8E010F5F1F4FF701A191B1917F014E
:100C60001097E1F012968D919C9113979C838B8342
:100C700014968D919C9115979E838D83ED91FC9197
:100C800011970480F581E02DCD01099598878F8318
:100C9000C60161E070E0A8010E94D501EA14FB04DE
:100CA000D9F628960FB6F894DEBF0FBECDBFCF9110
:100CB000DF911F910F91FF90EF90DF90CF90BF9049
:100CC000AF909F908F900895AF92BF92CF92DF9296
:100CD000EF92FF920F931F93CF93DF93EC015B0191
:100CE0000E944C1219E2C12E11E0D12ECC0EDD1E55
:100CF000F501E080F180028113810894E108F10898
:100D00000109110928EE33E040E050E00E949D18EF
:100D1000E21AF30A040B150BF601E082F18202835A
:100D20001383C35DDE4FF501E480F58006811781F2
:100D300020E03AEC4AE95BE3E20EF31E041F151FC4
:100D400020E432E44FE050E00E946B18E61AF70A04
:100D5000080B190BE882F9820A831B83C601BE01C6
:100D60000E94D109DF91CF911F910F91FF90EF90D9
:100D7000DF90CF90BF90AF900895AF92BF92CF9287
:100D8000DF92EF92FF920F931F93DF93CF93CDB734
:100D9000DEB72A970FB6F894DEBF0FBECDBF5C0159
:100DA0006B0189E591E09A8389831B821C821D82F5
:100DB0001E821F82188619861A860E944C127B0199
:100DC0008C01F501EB5DFE4F80819181A281B381A1
:100DD000E81AF90A0A0B1B0BCE010196B6010E9414
:100DE000C800C801B70128EE33E040E050E00E949F
:100DF0009D187B018C018B819C81AD81BE81820F0E
:100E0000931FA41FB51F8B839C83AD83BE83C80132
:100E1000B70120E432E44FE050E00E946B189B01E0
:100E2000AC018F819885A985BA85820F931FA41F75
:100E3000B51F8F839887A987BA87C501BE016D5FEB
:100E40007F4F0E9464060E944C12F501E354FD4F4F
:100E500060837183828393832A960FB6F894DEBFF2
:100E60000FBECDBFCF91DF911F910F91FF90EF90FB
:100E7000DF90CF90BF90AF9008952F923F924F9206
:100E80005F926F927F928F929F92AF92BF92CF921A
:100E9000DF92EF92FF920F931F93DF93CF93CDB723
:100EA000DEB760970FB6F894DEBF0FBECDBF988B4C
:100EB0008F870E944C126B017C01EF85F889E35407
:100EC000FD4F80819181A281B381A7019601281BEA
:100ED000390B4A0B5B0BDA01C901893F3AE29307F0
:100EE00030E0A30730E0B30728F0AF85B8891C963F
:100EF0001C921C97EF85F889E355FD4F8081918105
:100F0000009781F0AF85B889AF53BD4F8D919D910A
:100F10000D90BC91A02D8C159D05AE05BF0510F45C
:100F200011821082B5EB6B2EB2E07B2EEF85F88933
:100F30006E0E7F1E8F0103551D4FA1EB8A2EA2E07E
:100F40009A2E8E0E9F1E71E3472E71E0572E4E0E85
:100F50005F1EEA53FD4FFA83E9832F8538892B53AF
:100F60003D4F3C832B834F85588947545D4F5E83AB
:100F70004D838F85988983549D4F98878F836FEA1F
:100F8000A62E62E0B62EAF85B889AA0EBB1E53EB23
:100F9000252E52E0352E2A0E3B1EAF53BD4FBA8789
:100FA000A987A70196012C5E3F4F4F4F5F4F2B87BC
:100FB0003C874D875E87C8010F851889988B8F877E
:100FC000D80112968D919C911397DC01ED91FC91C3
:100FD0000680F781E02D09959C0197FDF6C0F3018D
:100FE00080819181820F931F91838083AF85B8891F
:100FF0004D915C91119746305105C9F4F101808102
:101000009181F801E80FF91FEF5CFE4F20830196F4
:10101000D10111969C938E93F50180819181019766
:1010200091838083009761F6E7E0F0E04AC04115C4
:101030005105A9F42F3F310519F6E1E0F0E0AF8545
:10104000B889ED93FC932B853C854D855E85A985FC
:10105000BA852D933D934D935C931397B1CF413057
:10106000510581F42F3F310539F422E030E0EF855E
:10107000F88931832083A4CFAF85B88911961C925B
:101080001E929ECF4230510571F4F40131832083CA
:10109000E3E0F0E0AF85B889ED93FC93D3011196BE
:1010A0003C932E938DCF4330510589F4322F222764
:1010B000F40180819181280F391F31832083E4E07E
:1010C000F0E0AF85B8891196FC93EE9379CF443068
:1010D000510551F4D50111963C932E93F1011182E3
:1010E0001082E5E0F0E0EDCF45305105D1F4322F2C
:1010F0002227D5018D919C911197280F391F1196A8
:101100003C932E9346E050E0EF85F889518340836D
:101110002115310509F054CF87E090E09183808359
:101120004FCF4730510509F04BCF60E071E00E948E
:101130008A188F3F910509F043C0D401ED91FC91CD
:1011400011973097A1F4C8010E948E05C8010E9432
:10115000C405ED81FE81C082D182E282F382AF813B
:10116000B885CD92DD92ED92FC92139729C0EA30BA
:10117000F10529F4C801B2010E94BD0621C0E43086
:10118000F10551F489819A81B2010E94940321E012
:10119000EB81FC81208314C0E456F040EE0FFF1F6A
:1011A000E00FF11FE558FD4F80819181009741F0DC
:1011B000DC01ED91FC910190F081E02DB2010995E7
:1011C000EF85F88911821082FBCE188B0F87D8012A
:1011D0001C968C911C97882309F107541D4FF80128
:1011E00080819181A281B381A7019601281B390BCF
:1011F0004A0B5B0BDA01C901853C39E0930730E00B
:10120000A30730E0B30750F08F8598890E948E05C0
:10121000D801CD92DD92ED92FC92139760960FB6B5
:10122000F894DEBF0FBECDBFCF91DF911F910F911C
:10123000FF90EF90DF90CF90BF90AF909F908F90F6
:101240007F906F905F904F903F902F900895CF9236
:10125000DF92EF92FF920F931F93DF93CF93CDB75F
:10126000DEB72C970FB6F894DEBF0FBECDBF0DE9E9
:1012700014E0C8010E94520C80E090E0DC018983F8
:101280009A83AB83BC8320E030E040E85FEB2D83A2
:101290003E834F83588789879A87AB87BC87C8016D
:1012A000CC24DA80EB80FC8000E01E812F81388521
:1012B00040E05A856B857C850E948C0D9093940448
:1012C0008093930480919B0490919C04DC01ED91A8
:1012D000FC916091990470919A0440919704509107
:1012E00098040190F081E02D099586EB91E00E9431
:1012F0003D0761E070E080E090E00E9480122C9653
:101300000FB6F894DEBF0FBECDBFCF91DF911F9116
:101310000F91FF90EF90DF90CF90089589E491E0D6
:101320009093B7018093B60182E296E09093B90161
:101330008093B80180E091EEA0E0B0E08093BA0124
:101340009093BB01A093BC01B093BD0183E691E0F3
:101350009093BF018093BE0188EB91E09093C1010F
:101360008093C0011092C20189E691E090937D04C0
:1013700080937C048FE891E0909392048093910491
:1013800087E391E0909396048093950481E994E03B
:1013900090939804809397048DE994E00E94020A48
:1013A0000895CF92DF92EF92FF920F931F93CF9306
:1013B000DF93EC016B01FB0160817181828193817C
:1013C00020E03AEC4AE95BE30E949D187B018C0126
:1013D00088819981AA81BB81820F931FA41FB51FA9
:1013E00088839983AA83BB83F601E082F18202831A
:1013F0001383DF91CF911F910F91FF90EF90DF90BA
:10140000CF900895FC0180E090E0A7E0B4E4808FE5
:10141000918FA28FB38F80E090E0AAEFB3E4848F26
:10142000958FA68FB78F80E090E0A4E3B3E480A30C
:1014300091A3A2A3B3A320E030E042E054EC24A3A4
:1014400035A346A357A320E030E84EE054EC20A794
:1014500031A742A753A720E030E840E454EC24A78A
:1014600035A746A757A783E081AB88E182AB14AAD2
:1014700013AA15AA0895CF92DF92FF920F931F939C
:10148000DF93CF930F92CDB7DEB76C01F62E09E153
:1014900015E0C801F60162A949830E94B90FC8018D
:1014A0006F2D0E946E0FC8014981642F0E946E0F3C
:1014B000C8010E94C60FF60180AB0F90CF91DF915B
:1014C0001F910F91FF90DF90CF900895CF92DF9200
:1014D000FF920F931F93DF93CF930F92CDB7DEB799
:1014E0008C01F62E89E1C82E85E0D82EC6016EE16A
:1014F00070E049830E94C30FC6016F2D0E946E0FDA
:10150000C6014981642F0E946E0FC6010E94C60F5A
:10151000F80180AB0F90CF91DF911F910F91FF9059
:10152000DF90CF900895CF93DF93EC0160E247E224
:101530000E943B0ACE0162E040E00E94660ADF9111
:10154000CF9108950F931F93CF93DF938C01EB01FD
:1015500077FF34C02FEF6D3F7207D9F03FEF6E3F3A
:1015600073072CF48FEF6C3F780741F517C0EFEF4E
:101570006E3F7E0749F0FFEF6F3F7F07F9F4FC01F4
:1015800081A9882381F415C0FC0181A9882371F405
:1015900013C0FC0181A9882361F405C0F80181A969
:1015A000882351F403C0C7E0D0E008C0C8E0D0E011
:1015B00005C0C5E0D0E002C0C6E0D0E089E195E01A
:1015C0006EE170E00E94C30F89E195E06C2F0E94EC
:1015D0006E0F89E195E00E94C60FF80180AB89E1AA
:1015E00095E06EE170E041E050E00E94B60F89E1C5
:1015F00095E00E94170F082F89E195E00E94C60F21
:10160000802FDF91CF911F910F910895CF92DF929C
:10161000EF92FF920F931F93CF93DF93EC0189E139
:1016200095E06AA90E94B90F89E195E068EA0E94F5
:101630006E0F89E195E00E94C60F88AB89E195E0C5
:101640006AA946E00E94A90F0E944C128B011DAAB4
:1016500010C08BA99CA9009761F00E944C12601BDE
:10166000710B8BA99CA98617970718F481E08DABA5
:1016700064C089E195E00E940E0F863091054CF31D
:1016800089E195E00E94170FD82E89E195E00E942C
:10169000170FC82E89E195E00E94170FF82E89E1F7
:1016A00095E00E94170FE82E89E195E00E94170F40
:1016B000082F89E195E00E94170F182F3C2D20E09C
:1016C0006D2D70E0622B732B34E0759567953A951C
:1016D000E1F7882777FD8095982F0E94CE166883C2
:1016E00079838A839B839E2D80E06F2D70E0682B29
:1016F000792B24E0759567952A95E1F7882777FD82
:101700008095982F0E94CE166C837D838E839F8355
:10171000912F80E0602F70E0682B792B94E0759515
:1017200067959A95E1F7882777FD8095982F0E9415
:10173000CE16688779878A879B87DF91CF911F9123
:101740000F91FF90EF90DF90CF900895CF92DF92AE
:10175000EF92FF920F931F93CF93DF93EC0189E1F8
:1017600095E06EE170E00E94C30F89E195E063E0CF
:101770000E946E0F89E195E00E94C60F88AB89E157
:1017800095E06EE170E046E050E00E94B60F0E94E6
:101790004C128B011DAA10C08BA99CA9009761F067
:1017A0000E944C12601B710B8BA99CA9861797078E
:1017B00018F481E08DAB6DC089E195E00E940E0FB9
:1017C000863091054CF389E195E00E94170FC82EF1
:1017D00089E195E00E94170FD82E89A98823A9F4E2
:1017E00089E195E00E94170FE82E89E195E00E94BB
:1017F000170FF82E89E195E00E94170F182F89E145
:1018000095E00E94170F082F14C089E195E00E940F
:10181000170F182F89E195E00E94170F082F89E113
:1018200095E00E94170FE82E89E195E00E94170FBE
:10183000F82E3C2D20E06D2D70E0622B732B882755
:1018400077FD8095982F0E94CE166C877D878E87B6
:101850009F879E2D80E06F2D70E0682B792B882765
:1018600077FD8095982F0E94CE16688B798B8A8B96
:101870009B8B912F80E0602F70E0682B792B88275D
:1018800077FD8095982F0E94CE166C8B7D8B8E8B6A
:101890009F8BDF91CF911F910F91FF90EF90DF9081
:1018A000CF900895CF93DF93EC010E94060BCE01F9
:1018B0000E94A60BDF91CF9108952F923F924F92F5
:1018C0005F926F927F928F929F92AF92BF92CF92D0
:1018D000DF92EF92FF920F931F93DF93CF9300D08D
:1018E00000D000D0CDB7DEB78C017E836D831A01A6
:1018F000DB0118964D905D906D907C901B97FC01DC
:10190000C084D184E284F384C301B201248135818F
:10191000468157810E94AE174B015C01C701B60199
:10192000AD81BE8114962D913D914D915C9117979B
:101930000E94AE179B01AC01C501B4010E946C1559
:10194000F1016083718382839383AD81BE818D9128
:101950009D910D90BC91A02D89839A83AB83BC830C
:10196000F80180809180A280B380C701B6012981EF
:101970003A814B815C810E94AE176B017C01C501ED
:10198000B401A30192010E94AE179B01AC01C701F3
:10199000B6010E946C15D10114966D937D938D93C1
:1019A0009C931797C501B401ED81FE812481358197
:1019B000468157810E94AE176B017C0169817A8153
:1019C0008B819C81D80114962D913D914D915C9114
:1019D00017970E94AE179B01AC01C701B6010E9488
:1019E0006C15F101608771878287938726960FB601
:1019F000F894DEBF0FBECDBFCF91DF911F910F9145
:101A0000FF90EF90DF90CF90BF90AF909F908F901E
:101A10007F906F905F904F903F902F900895CF925E
:101A2000DF92EF92FF920F931F93CF93DF93EC011E
:101A30008B01688179818A819B81F80120813181C4
:101A4000428153810E94AE176B017C016C817D81C4
:101A50008E819F81F80124813581468157810E94C2
:101A6000AE179B01AC01C701B6010E946D156B0159
:101A70007C01688579858A859B85F801208531857B
:101A8000428553850E94AE179B01AC01C701B60188
:101A90000E946D15DF91CF911F910F91FF90EF90F4
:101AA000DF90CF900895EF92FF920F931F93CF9303
:101AB000DF93EC01BE010E940F0D0E9415187B01FF
:101AC0008C01688179818A819B81A80197010E949C
:101AD0003316688379838A839B836C817D818E81B1
:101AE0009F81A80197010E9433166C837D838E83AA
:101AF0009F83688579858A859B85A80197010E94C7
:101B00003316688779878A879B87DF91CF911F91EA
:101B10000F91FF90EF9008956F927F928F929F9216
:101B2000AF92BF92CF92DF92EF92FF920F931F93EB
:101B3000DF93CF93CDB7DEB7E0970FB6F894DEBF53
:101B40000FBECDBF5C01CDA2DEA2EFA2F8A609A711
:101B50001AA72BA73CA74DA75EA76FA778ABFC01E0
:101B6000E4A0F5A006A117A16485758586859785F3
:101B7000A80197010E946C153B014C01F501608D95
:101B8000718D828D938DA80197010E946C159B0128
:101B9000AC01C401B3010E9433169B01AC010E9449
:101BA0006D1520E030E040E85FE30E946C15F50120
:101BB0006487758786879787E0A4F1A402A513A59B
:101BC0006089718982899389A80197010E946C15A7
:101BD0003B014C01F501648D758D868D978DA801B3
:101BE00097010E946C159B01AC01C401B3010E94D6
:101BF00033169B01AC010E946D1520E030E040E8F7
:101C00005FE30E946C15F501608B718B828B938B67
:101C1000E4A4F5A406A517A5648975898689978922
:101C2000A80197010E946C153B014C01F50160A1D0
:101C300071A182A193A1A80197010E946C159B013B
:101C4000AC01C401B3010E9433169B01AC010E9498
:101C50006D1520E030E040E85FE30E946C15F5016F
:101C6000648B758B868B978BDE0111968CE00190CF
:101C70000D928150E1F77E010894E11CF11CC7012F
:101C80000E94530D8E01035F1F4FC5010C96B701D3
:101C9000A8010E945D0CC8010E94530D59E1C52E98
:101CA000D12CCC0EDD1EC701B801A6010E945D0C2F
:101CB00045E2A42EB12CAC0EBD1EC801B5010E9498
:101CC0000F0D7B018C01C601B5010E940F0D9B0118
:101CD000AC01C801B7010E94E01520E030E044E308
:101CE00053E40E94AE172BED3FE049E450E40E941C
:101CF0003316A62EC72EE82E092F20E030E0A901CA
:101D00000E94A31787FD0BC06A2D7C2D8E2D902F6E
:101D100020E030E040E05FE30E946D150AC06A2DCC
:101D20007C2D8E2D902F20E030E040E05FE30E947C
:101D30006C150E949B1677FF02C068597E4FCB013D
:101D4000E0960FB6F894DEBF0FBECDBFCF91DF9106
:101D50001F910F91FF90EF90DF90CF90BF90AF90C9
:101D60009F908F907F906F900895CF93DF93EC01B9
:101D700089E195E068E170E00E94C30F89E195E098
:101D800060E20E946E0F89E195E00E94C60F88AB69
:101D900089E195E068E170E041E050E00E94B60F13
:101DA00089E195E00E940E0F009731F089E195E0FE
:101DB0000E94170F80E001C081E0DF91CF9108956C
:101DC000CF93DF93EC0169AB623018F0623071F4AD
:101DD0000AC0442331F0413031F00E94B50E813009
:101DE00011F088E101C089E18AAB15C00E94B50EEF
:101DF000813029F489E18AAB82E089AB0CC088E1AB
:101E00008AABCE016FE070E00E94A20A91E08C33B1
:101E100009F090E099ABDF91CF9108952091F404FF
:101E200030E08091F304281B3109C90108958091A5
:101E3000F3049091F404891750F4E82FF0E0ED5288
:101E4000FB4F208130E08F5F8093F30402C02FEFBF
:101E50003FEFC9010895E091F3048091F404E8177D
:101E600030F4F0E0ED52FB4F208130E002C02FEF64
:101E70003FEFC90108950895CF92DF92EF92FF924C
:101E80000F931F93CF93DF936C01CB01EA01209155
:101E900018052223B1F0E62EF92E00E010E00DC067
:101EA000D7016D917D01D601ED91FC910190F081FA
:101EB000E02DC60109950F5F1F4F0C171D0780F31A
:101EC00003C0642F0E947C10CE01DF91CF911F913F
:101ED0000F91FF90EF90DF90CF900895DF93CF9315
:101EE0000F92CDB7DEB76983209118052223D1F078
:101EF00020911705203240F021E030E0FC013383CF
:101F0000228320E030E015C080911605E82FF0E034
:101F1000EA50FB4F998190838F5F809316058093E1
:101F2000170505C0CE01019661E00E947C1021E0FA
:101F300030E0C9010F90CF91DF9108951092F30422
:101F40001092F40410921605109217050E94ED0FDE
:101F50000895862F413208F040E263ED74E00E945C
:101F600006101092F3048093F40408950E94A90FC0
:101F7000089581E0809318056093F504109216058A
:101F80001092170508950E94B90F08958091F504E5
:101F900066EF74E04091170521E00E943C1010921A
:101FA00016051092170510921805089510921C0539
:101FB00010921B0588EE93E0A0E0B0E080931D0531
:101FC00090931E05A0931F05B093200589E991E029
:101FD00090931A058093190508951092490582E19E
:101FE00061E00E940F1383E161E00E940F13E9EBAF
:101FF000F0E080818E7F808380818D7F808388E484
:102000008093B80085E48093BC000895413288F540
:10201000909149059923E1F791E0909349059FEF4D
:102020009093480510922605942F91509093270580
:10203000880F81608093250585EE8093BC00809198
:1020400049058130E1F380912605841710F4409111
:102050002605E8E2F5E0262F372FD901242F30E0BE
:102060002E0F3F1F02C081918D93E217F307D9F71E
:1020700001C040E0842F08954132B0F590914905A8
:102080009923E1F792E0909349059FEF90934805DB
:102090001092260540932705DB01E8E2F5E050E0C9
:1020A0004E0F5F1F02C09D919193E417F507D9F77A
:1020B00090E0880F991F8093250585EE8093BC00E2
:1020C000222321F0809149058230E1F38091480577
:1020D0008F3F61F080914805803251F08091480532
:1020E000803341F483E0089581E0089580E008950D
:1020F00082E0089584E008956132A0F420914905BA
:10210000243091F460936E05DC01E1E7F5E070E0C6
:102110006E0F7F1F02C08D918193E617F707D9F7E5
:1021200080E0089581E0089582E00895882311F009
:1021300085EC01C085E88093BC00089585ED80930F
:10214000BC008091BC0084FDFCCF1092490508952D
:1021500085EC8093BC001092490508951F920F9260
:102160000FB60F9211242F933F934F935F936F936A
:102170007F938F939F93AF93BF93EF93FF93809140
:10218000B90090E0887F90708036910509F4C2C054
:1021900081369105E4F58832910509F47EC08932D3
:1021A0009105C4F48031910509F472C08131910523
:1021B00044F4009709F413C18830910509F013C164
:1021C00067C08831910509F468C08032910509F033
:1021D0000AC178C08034910509F48AC08134910520
:1021E0004CF48033910509F46FC08833910509F0F0
:1021F000FAC06EC08035910509F46EC0883591052E
:1022000009F47BC08834910509F0EDC0EAC0883933
:10221000910509F4DAC089399105ECF48837910504
:1022200009F478C0893791054CF48836910509F492
:1022300071C08037910509F0D6C06CC0883891050F
:1022400009F4C3C08039910509F46AC0803891054A
:1022500009F0C9C065C0803B910509F48EC0813B7F
:1022600091054CF4803A910509F46CC0883A9105C7
:1022700009F0B9C082C0803C910509F4AAC0883C2D
:10228000910509F4A6C0883B910509F0ACC08AC04D
:10229000809125058093BB0013C090912605809105
:1022A0002705981708F09DC080912605E82FF0E0DB
:1022B000E85DFA4F90819093BB008F5F8093260575
:1022C00081E084C080E201C080E38093480589C03A
:1022D00088E3809348054EC0809126059091BB000D
:1022E000E82FF0E0E85DFA4F90838F5F809326053A
:1022F000909126058091270565C0809126059091D3
:10230000BB00E82FF0E0E85DFA4F90838F5F809389
:10231000260567C083E08093490510924A05D0CF17
:1023200080914A05803208F050C080914A05909112
:10233000BB00E82FF0E0E55BFA4F90838F5F80935E
:102340004A05BECF80914A05803230F4E0914A05BB
:10235000F0E0E55BFA4F10820E949E1060914A0502
:10236000E0916B05F0916C058BE495E070E00995C8
:1023700010924A050E94A81036C084E08093490557
:1023800010926D0510926E05E0916F05F091700549
:10239000099580916E05882329F481E080936E056C
:1023A0001092710580916D05E82FF0E0EF58FA4F1B
:1023B00090819093BB008F5F80936D0590916D0528
:1023C00080916E05981708F47BCF80E00E949610EC
:1023D0000AC081E00E9496101092490504C0109234
:1023E00048050E949E10FF91EF91BF91AF919F9180
:1023F0008F917F916F915F914F913F912F910F90AE
:102400000FBE0F901F9018951F920F920FB60F924C
:1024100011242F933F938F939F93AF93BF938091FA
:10242000950590919605A0919705B09198053091EA
:1024300099050196A11DB11D232F2D5F2D3720F089
:102440002D570196A11DB11D2093990580939505E7
:1024500090939605A0939705B09398058091910568
:1024600090919205A0919305B09194050196A11DBC
:10247000B11D8093910590939205A0939305B0931D
:102480009405BF91AF919F918F913F912F910F90A4
:102490000FBE0F901F9018958FB7F8942091950557
:1024A0003091960540919705509198058FBFB901DD
:1024B000CA0108959FB7F894209191053091920533
:1024C000409193055091940586B5A89B06C08F3F17
:1024D00021F02F5F3F4F4F4F5F4F9FBF542F432F30
:1024E000322F2227280F311D411D511D82E0220F5E
:1024F000331F441F551F8A95D1F7B901CA010895AA
:10250000EF92FF920F931F93CF93DF937B018C0188
:102510000E945A12EB010FC00E945A126C1B7D0BD5
:1025200083E0683E780738F00894E108F108010973
:102530001109C851DC4FE114F1040105110561F7DF
:10254000DF91CF911F910F91FF90EF9008957894B4
:1025500084B5826084BD84B5816084BD85B58260A8
:1025600085BD85B5816085BDEEE6F0E08081816046
:102570008083E1E8F0E01082808182608083808146
:1025800081608083E0E8F0E0808181608083E1EB1E
:10259000F0E0808184608083E0EBF0E08081816006
:1025A0008083EAE7F0E080818460808380818260BC
:1025B00080838081816080838081806880831092A5
:1025C000C1000895833071F0843028F48130A1F087
:1025D000823021F514C08630B1F08730D1F08430DC
:1025E000E9F404C0809180008F7703C0809180005F
:1025F0008F7D80938000089584B58F7702C084B565
:102600008F7D84BD08958091B0008F778093B00056
:1026100008958091B0008F7D8093B00008950F934E
:102620001F93DF93CF930F92CDB7DEB7282F30E003
:10263000F901E552FF4F8491F901E953FF4F1491DD
:102640002D543F4FF90104910023D9F0882321F044
:1026500069830E94E2126981E02FF0E0EE0FFF1F14
:10266000E156FF4F85919491DC019FB7F894662362
:1026700021F48C911095812302C08C91812B8C9335
:102680009FBF0F90CF91DF911F910F910895CF932E
:10269000DF930E94A7120E941405C1E6D4E10E94B4
:1026A00027092097E1F30E946114F9CFCF92DF92BE
:1026B000EF92FF920F931F93CF93DF936C017B01F7
:1026C0008A01C0E0D0E00FC0D7016D917D01D60135
:1026D000ED91FC910190F081E02DC6010995C80FA4
:1026E000D91F015010400115110571F7CE01DF917E
:1026F000CF911F910F91FF90EF90DF90CF900895B1
:10270000FC0184859585FC01E05CFF4F20813181CF
:102710008E5B9F4FFC0180819181281B390B2F73A9
:102720003070C9010895FC0184859585FC01E05C49
:10273000FF4F40815181FC01EE5BFF4F20813181D1
:102740004217530741F00190F081E02DE80FF91F87
:10275000208130E002C02FEF3FEFC9010895FC0156
:1027600084859585FC01E05CFF4F40815181FC012F
:10277000EE5BFF4F208131814217530771F0A0813A
:10278000B181A80FB91F2C918081918101968F731F
:1027900090709183808330E002C02FEF3FEFC9013A
:1027A0000895DC011E968D919C911F97FC01E05CC1
:1027B000FF4F8E5B9F4F40815181DC012D913C91F9
:1027C000119742175307B9F708951F93FC01162F6D
:1027D00026853785D901A05CBF4F8D919C910196CC
:1027E00060E470E00E948A18D901AE5BBF4F4D9142
:1027F0005C91119784179507D1F3D901A05CBF4F65
:102800000D90BC91A02DA20FB31F1C93A685B78578
:10281000A05CBF4F11969C938E93A689B7892C918B
:1028200081E090E0058C02C0880F991F0A94E2F7BE
:10283000282B2C9381E090E01F910895FB01E05C30
:10284000FF4F208131812F5F3F4F2F733070DB01AD
:10285000AE5BBF4F4D915C9111972417350739F04E
:10286000A081B181A60FB71F8C9331832083089577
:1028700008951F920F920FB60F9211242F933F933A
:102880004F935F936F937F938F939F93AF93BF9378
:10289000EF93FF938091C6006AE975E00E941E14D1
:1028A000FF91EF91BF91AF919F918F917F916F9128
:1028B0005F914F913F912F910F900FBE0F901F90FE
:1028C000189582E296E00E948013009711F00E9412
:1028D000381408951F920F920FB60F9211242F9360
:1028E0003F935F936F937F938F939F93AF93BF9328
:1028F000EF93FF9320911E0630911F0680912006D2
:10290000909121062817390731F48091C1008F7DFD
:102910008093C10016C0E0912006F0912106E2529A
:10292000FA4F20818091200690912106019660E463
:1029300070E00E948A1890932106809320062093CD
:10294000C600FF91EF91BF91AF919F918F917F91C1
:102950006F915F913F912F910F900FBE0F901F903D
:102960001895DF92EF92FF920F931F93CF93DF930F
:10297000EC017A018B01DD24D394403081EE5807BD
:1029800080E0680780E0780749F4DD24EC89FD8960
:10299000108260E874E88EE190E00FC0EC89FD8958
:1029A00081E090E00E8C02C0880F991F0A94E2F734
:1029B000808360E079E08DE390E0A80197010E94B8
:1029C0009D182150304040405040569547953795CE
:1029D000279580E12030380710F0DD20B1F6E88936
:1029E000F9893083EA89FB892083EE89FF89408158
:1029F00081E090E09C010A8C02C0220F331F0A94F0
:102A0000E2F7422B4083EE89FF8940819C010B8CC9
:102A100002C0220F331F0A94E2F7422B4083EE8953
:102A2000FF8940819C010C8C02C0220F331F0A9445
:102A3000E2F7422B4083EE89FF8920810D8C02C092
:102A4000880F991F0A94E2F7809582238083DF9193
:102A5000CF911F910F91FF90EF90DF90089510920A
:102A600025061092240688EE93E0A0E0B0E0809363
:102A7000260690932706A0932806B0932906E4E241
:102A8000F6E089EA91E0929382938AE995E095874E
:102A900084878EED95E09787868785EC90E0918B13
:102AA000808B84EC90E0938B828B80EC90E0958B14
:102AB000848B81EC90E0978B868B86EC90E0918FF5
:102AC000808F84E0828F83E0838F87E0848F85E02E
:102AD000858F81E0868F08955058BB27AA270ED096
:102AE000F8C1E9D130F0EED120F031F49F3F11F47C
:102AF0001EF4B9C10EF4E095E7FBAFC1E92FFAD19E
:102B000080F3BA17620773078407950718F071F40A
:102B10009EF512C20EF4E0950B2EBA2FA02D0B01DC
:102B2000B90190010C01CA01A0011124FF27591B12
:102B300099F0593F50F4503E68F11A16F040A22F18
:102B4000232F342F4427585FF3CF46953795279589
:102B5000A795F0405395C9F77EF41F16BA0B620B88
:102B6000730B840BBAF09150A1F0FF0FBB1F661FCF
:102B7000771F881FC2F70EC0BA0F621F731F841F12
:102B800048F4879577956795B795F7959E3F08F038
:102B9000B3CF9395880F08F09927EE0F97958795F7
:102BA000089589D158F080E891E009F49EEF8AD128
:102BB00028F040E851E059F45EEF09C054C1BCC1AF
:102BC000E92FE07897D168F3092E052AC1F326177B
:102BD00037074807590738F00E2E07F8E02569F047
:102BE000E025E0640AC0EF6307F8009407FADB0110
:102BF000B9019D01DC01CA01AD01EF9343D069D158
:102C00000AD05F91552331F02BED3FE049E450FDB0
:102C100049EC63CF0895DF93DD27B92FBF7740E8F4
:102C20005FE31616170648075B0710F4D92F8FD1FC
:102C30009F938F937F936F9336D2E8E6F0E016D19F
:102C400048D12F913F914F915F9194D1DD2349F06D
:102C50009058A2EA2AED3FE049EC5FE3D0785D2787
:102C60004DDFDF9136C10CD034C12CD140F023D1DF
:102C700030F021F45F3F19F0F0C051115EC1F3C094
:102C800039D198F39923C9F35523B1F3951B550B0B
:102C9000BB27AA2762177307840738F09F5F5F4F2F
:102CA000220F331F441FAA1FA9F333D00E2E3AF070
:102CB000E0E830D091505040E695001CCAF729D08A
:102CC000FE2F27D0660F771F881FBB1F26173707D9
:102CD0004807AB07B0E809F0BB0B802DBF01FF2709
:102CE00093585F4F2AF09E3F510568F0B6C025C14A
:102CF0005F3FECF3983EDCF3869577956795B79543
:102D0000F7959F5FC9F7880F911D9695879597F95D
:102D10000895E1E0660F771F881FBB1F62177307D6
:102D20008407BA0720F0621B730B840BBA0BEE1FEB
:102D300088F7E095089504D06894B111FEC0089515
:102D4000E1D088F09F5790F0B92F9927B751A0F0A4
:102D5000D1F0660F771F881F991F1AF0BA95C9F72F
:102D600012C0B13081F0E8D0B1E00895E5C0672F1E
:102D7000782F8827B85F39F0B93FCCF386957795DF
:102D80006795B395D9F73EF49095809570956195C8
:102D90007F4F8F4F9F4F0895E89409C097FB3EF4F3
:102DA00090958095709561957F4F8F4F9F4F992398
:102DB000A9F0F92F96E9BB279395F6958795779516
:102DC0006795B795F111F8CFFAF4BB0F11F460FFD6
:102DD0001BC06F5F7F4F8F4F9F4F16C0882311F02E
:102DE00096E911C0772321F09EE8872F762F05C042
:102DF000662371F096E8862F70E060E02AF09A95DD
:102E0000660F771F881FDAF7880F9695879597F9D1
:102E10000895990F0008550FAA0BE0E8FEEF16166B
:102E20001706E807F907C0F012161306E407F507BE
:102E300098F0621B730B840B950B39F40A2661F032
:102E4000232B242B252B21F408950A2609F4A140D5
:102E5000A6958FEF811D811D089597F99F6780E8E2
:102E600070E060E008959FEF80EC0895DF93CF93CA
:102E70001F930F93FF92EF92DF927B018C01689476
:102E800005C0DA2EEF0176D0FE01E894A5912591D8
:102E9000359145915591AEF3EF0130DEFE0197017A
:102EA000A801DA9479F7DF90EF90FF900F911F91CE
:102EB000CF91DF91089500240A941616170618067C
:102EC0000906089500240A9412161306140605062E
:102ED0000895092E0394000C11F4882352F0BB0FBF
:102EE00040F4BF2B11F460FF04C06F5F7F4F8F4F22
:102EF0009F4F089557FD9058440F551F59F05F3F5D
:102F000071F04795880F97FB991F61F09F3F79F00B
:102F100087950895121613061406551FF2CF46958D
:102F2000F1DF08C0161617061806991FF1CF86950F
:102F30007105610508940895E894BB2766277727F3
:102F4000CB0197F9089565DF08F48FEF08959B0191
:102F5000AC0160E070E080E89FE385CE0BD0B9CF94
:102F6000AADF28F0AFDF18F0952309F076CF7BCFEA
:102F70001124E3CFBFDFA0F3959FD1F3950F50E06D
:102F8000551F629FF001729FBB27F00DB11D639F1B
:102F9000AA27F00DB11DAA1F649F6627B00DA11DC1
:102FA000661F829F2227B00DA11D621F739FB00D67
:102FB000A11D621F839FA00D611D221F749F3327D7
:102FC000A00D611D231F849F600D211D822F762F70
:102FD0006A2F11249F5750408AF0E1F088234AF06D
:102FE000EE0FFF1FBB1F661F771F881F91505040B9
:102FF000A9F79E3F510570F030CF9FCF5F3FECF3B4
:10300000983EDCF3869577956795B795F795E795A4
:103010009F5FC1F7FE2B880F911D9695879597F9B5
:10302000089511F40EF41FCF41C06CDFD0F3992343
:10303000D9F3CEF39F57550B87FF46D00024A0E667
:1030400040EA900180585695979528F4805C660F69
:10305000771F881F20F026173707480730F4621BB8
:10306000730B840B202931294A2BA69517940794BA
:10307000202531254A2758F7660F771F881F20F033
:1030800026173707480730F4620B730B840B200DAB
:10309000311D411DA09581F7B901842F9158880FEA
:1030A0009695879508959B01AC0158CF9F3F31F0CD
:1030B000915020F4879577956795B795880F911D66
:1030C0009695879597F9089591505040660F771F10
:1030D000881FD2F70895629FD001739FF001829FED
:1030E000E00DF11D649FE00DF11D929FF00D839F97
:1030F000F00D749FF00D659FF00D9927729FB00D34
:10310000E11DF91F639FB00DE11DF91FBD01CF0146
:103110001124089597FB092E07260AD077FD04D0C5
:103120002ED006D000201AF4709561957F4F089537
:10313000F6F7909581959F4F0895A1E21A2EAA1B4C
:10314000BB1BFD010DC0AA1FBB1FEE1FFF1FA21757
:10315000B307E407F50720F0A21BB30BE40BF50B54
:10316000661F771F881F991F1A9469F760957095DD
:10317000809590959B01AC01BD01CF010895AA1BDC
:10318000BB1B51E107C0AA1FBB1FA617B70710F052
:10319000A61BB70B881F991F5A95A9F78095909584
:1031A000BC01CD010895EE0FFF1F0590F491E02DB5
:1031B0000994CF93DF938230910510F482E090E080
:1031C000E0914306F091440640E050E020E030E01A
:1031D00026C06081718168177907E0F06817790768
:1031E00081F4828193812115310531F0D901139643
:1031F0009C938E9312972BC0909344068093430622
:1032000026C04115510519F06417750718F4AB0174
:10321000E901DF019F0172816381E72FF62F30976B
:10322000C1F64115510501F1481B590B44305105B8
:1032300080F412968D919C911397209719F09B839F
:103240008A8304C09093440680934306FD0132961E
:1032500046C0FD01E40FF51F819391934250504009
:1032600011965C934E933BC02091410630914206EB
:103270002115310541F420914101309142013093F3
:1032800042062093410620914301309144012115CB
:10329000310541F42DB73EB740913F0150914001B7
:1032A000241B350BE0914106F0914206E217F3072B
:1032B000A0F42E1B3F0B2817390778F0AC014E5FA6
:1032C0005F4F2417350748F04E0F5F1F509342069B
:1032D000409341068193919302C0E0E0F0E0CF017A
:1032E000DF91CF910895CF93DF93009709F491C0B8
:1032F000FC0132971382128260914306709144065A
:103300006115710581F420813181280F391F809169
:103310004106909142068217930799F5F093420671
:10332000E093410676C0DB0180E090E002C0CD0171
:10333000D901AE17BF0748F412962D913C9113970F
:1033400021153105A1F7CD0121C0B383A283EF017F
:10335000499159919E01240F351FA217B30779F4A3
:103360002D913C911197240F351F2E5F3F4F3183D4
:10337000208312962D913C911397338322830097DB
:1033800029F4F0934406E093430643C0DC0113960E
:10339000FC93EE9312974D915D91A40FB51FEA1720
:1033A000FB0769F420813181240F351F2E5F3F4FC9
:1033B000EC0139832883228133813B832A83E0E037
:1033C000F0E002C0FB01BC01DB0112968D919C91E3
:1033D00013970097B9F79B012E5F3F4F8D919C91FA
:1033E0001197820F931F4091410650914206481752
:1033F000590779F4309729F4109244061092430645
:1034000002C0138212822250304030934206209331
:103410004106DF91CF910895A0E0B0E0E2E1FAE14A
:103420000C94E61A8C01CB010115110529F40E94B8
:10343000D918082F192FB5C0D80112979801260F57
:10344000371F2A173B0708F4AAC0ED90FC9011978C
:10345000E616F706D0F045E0E416F10408F4A1C042
:10346000A701445050404617570708F49AC0A701D7
:1034700042505040461B570BF901419351936D93B5
:103480007C93CF010E9473198CC05B01AE18BF08FA
:1034900048018E0C9F1CE0914306F0914406CC2419
:1034A000DD24C0E0D0E041C0E815F90599F5608160
:1034B0007181AB014E5F5F4F4A155B0558F1AB015F
:1034C0004A195B09CC24DD246894C1F8C40ED51ECA
:1034D0008280A380E5E0CE16D10448F0F901828213
:1034E000A3825183408311969C938E9309C0C70198
:1034F0000296860F971F11969C938E93E82DFA2DB6
:10350000209719F0FB83EA834CC0F0934406E093C4
:10351000430647C040815181C416D50608F46A01AC
:10352000EF0152814381E52FF42F309709F0BCCF92
:10353000409141065091420648155905E9F4C816D4
:10354000D906D0F4409143015091440141155105F1
:1035500041F44DB75EB760913F0170914001461B49
:10356000570B24173507D8F43093420620934106B1
:1035700011969C938E9315C00E94D918C82EE6010F
:103580006E01D92EE601209751F08C2DB801A701CC
:103590000E94D71AC8010E947319860102C000E078
:1035A00010E0C801CDB7DEB7ECE00C94021BFB01C4
:1035B000DC0102C001900D9241505040D8F70895AF
:1035C0002F923F924F925F926F927F928F929F9233
:1035D000AF92BF92CF92DF92EF92FF920F931F9321
:1035E000CF93DF93CDB7DEB7CA1BDB0B0FB6F894D2
:1035F000DEBF0FBECDBF09942A88398848885F8412
:103600006E847D848C849B84AA84B984C884DF8082
:10361000EE80FD800C811B81AA81B981CE0FD11D66
:103620000FB6F894DEBF0FBECDBFED010895F8943C
:02363000FFCFCA
:103632007374645F6D7367732F54696D6500726F85
:103642007373657269616C5F6D7367732F546F700A
:103652006963496E666F007374645F6D7367732F7D
:1036620055496E7431360068656164696E67002081
:103672000045060000000000003D07000000003881
:10368200023301B40100000000A500C800300100AF
:10369200000000D50100000000A0029403B70172EF
:1036A2006F7373657269616C5F6D7367732F5265B7
:1036B2007175657374506172616D0000000000BA2B
:1036C20001C501D201000000006E0F3C0F0E0F1762
:1036D2000F2B0F3B0F00000000E51356138013AFB2
:0636E200139313D1130045
:00000001FF
