:100000000C94A5000C94CD000C94CD000C9411160A
:100010000C9435160C9459160C94CD000C94CD000C
:100020000C94CD000C94CD000C94CD000C943117A1
:100030000C94CD000C94CD000C94CD000C94CD000C
:100040000C946D1D0C94CD000C94651F0C94A11F95
:100050000C94CD000C94CD000C94CD000C94CD00EC
:100060000C940F1B0C94CD00D20DE50DF50D080E70
:10007000100E3E0E460E510E590E630E630E630EA9
:10008000630E630E630E630E630E630E630E630EE8
:10009000630E630E630E630E630E630E630E630ED8
:1000A000630E630E630E630ED20DDE0DE50DF50DCE
:1000B000080E100E230E2B0E330E084AD73B3BCEF4
:1000C000016E84BCBFFDC12F3D6C74319ABD568357
:1000D0003DDA3D00C77F11BED9E4BB4C3E916BAA0F
:1000E000AABE000000803F000000070002010000DF
:1000F00003040600000000000000000102040810D4
:10010000204080010204081020010204081020048D
:1001100004040404040404020202020202030303AE
:100120000303030000000023002600290000000054
:1001300000250028002B0000000000240027002AD2
:100140000000660A2C1A5C202D0B11241FBECFEF75
:10015000D8E0DEBFCDBF12E0A0E0B1E0E0EEFDE40C
:1001600002C005900D92A437B107D9F718E0A4E7B3
:10017000B2E001C01D92A036B107E1F711E0C8E47A
:10018000D1E004C02297FE010E945A24C234D10754
:10019000C9F70E94BC1E0C94E3260C940000FC01DD
:1001A000DB0132812381948185813C9311962C93CC
:1001B000119712969C93129713968C9313973681EE
:1001C00027819085818514963C93149715962C93DE
:1001D000159716969C93169717968C9388E090E047
:1001E0000895FB012181428150E060E070E0BA0196
:1001F00055274427522B2081422B2381722BDC016F
:1002000012964D935D936D937C931597258146814E
:1002100050E060E070E0BA0155274427522B24815A
:10022000422B2781722BFC0146835783608771879D
:1002300088E090E008958FE091E00895AF92BF923A
:10024000CF92DF92EF92FF920F931F93CF93DF93A2
:100250005C01DB0111969C91119780E02C91822B1F
:10026000F5019383828312964D915D916D917C91FE
:100270001597ED0126968A019B010A5F1F4F2F4FAC
:100280003F4F05C0F990CE010297FC01F0826E014C
:10029000CA1ADB0AE12CF12CC016D106E206F306DD
:1002A00088F3ED01C40FD51F1D82CD010596F50120
:1002B00095838483ED01C40FD51F0E811F8128858E
:1002C0003985EA012A96CD018C0F9D1FAE01662764
:1002D00057FD6095762F400F511F621F731F09C095
:1002E000FC01D190CF017F01F2E0EF1AF108F70194
:1002F000D0826C01CA1ADB0AE12CF12CC416D50697
:10030000E606F70668F30C0F1D1FCD01800F911F45
:100310000197FC0110822197CA0FDB1FF501D783DB
:10032000C683C801DF91CF911F910F91FF90EF908D
:10033000DF90CF90BF90AF9008958DE191E0089548
:10034000AF92BF92CF92DF92EF92FF920F931F93E3
:10035000CF93DF935C01FB018081D50112968C93D2
:100360004181528163817481DF0115968A019B016D
:100370000B5F1F4F2F4F3F4F05C0FD90CD010297E0
:10038000EC01F8826D01CE1ADF0AE12CF12CC016C7
:10039000D106E206F30688F3DF01A40FB51F149619
:1003A0001C923496D5011496FC93EE9313974B5FF1
:1003B0005F4FCA01DF91CF911F910F91FF90EF9096
:1003C000DF90CF90BF90AF90089586E391E00895BD
:1003D0008CEA91E00895FC0122818381FB01208356
:1003E000818382E090E00895FB01318120E040812B
:1003F000242BFC013383228382E090E0089589E47A
:1004000091E008950F931F93CF93DF93EC018C013C
:100410000A5F1F4FC8010E94F401EA85FB85C801ED
:10042000DF91CF911F910F91099481E090E00895A1
:1004300089E491E00895FC016281738187EB95E086
:100440000C94C518FC01628173818AEB95E00C94D1
:10045000C518BF92CF92DF92EF92FF920F931F9336
:10046000CF93DF93EC017B018A81FB0180831182B2
:1004700012821382379620E084E090E01DC0AF81A5
:10048000B88534E0239FA00DB11D11246C91119605
:100490005C91119712964C91129713963C91DF0143
:1004A00013976C93DF0112975C93DF0111974C93C4
:1004B000308304962F5F34963A81231700F3298501
:1004C000F701E80FF91F208311821282138204962C
:1004D00020E016C0AE85BF8534E0239FA00DB11D7E
:1004E00011246C9111965C91119712964C91129770
:1004F00013963C91608351834283338304962F5F2C
:100500003985F701E80FF91F231720F32889208385
:10051000118212821382DC011496B12C2EC0670165
:10052000CA0EDB1E9B898C89E92FF82FEB0DF11D7C
:10053000EB0DF11D60817181CB01FC010190002068
:10054000E9F7AF0141505109481B590B8A0120E0DE
:1005500030E0F60100831183228333838D010C5F29
:100560001F4F9701200F311FC9010E949B26F601E2
:10057000A081B181A00FB11FB3948889B81678F219
:10058000CD01DF91CF911F910F91FF90EF90DF9000
:10059000CF90BF900895CF93DF93FC01EB01828150
:1005A000888363817481DB01FD0101900020E9F7FC
:1005B0003197EA1BFB0BCF01A0E0B0E089839A835F
:1005C000AB83BC839E012B5F3F4FAF01C9010E94EB
:1005D0009B2629813A812B5F3F4FC901DF91CF9143
:1005E0000895CF92DF92EF92FF920F931F93CF93D4
:1005F000DF937C01EB01DC0112969C91129713961C
:100600008C9113979883898314966C9114971596FF
:100610007C91DB01FD0101900020E9F73197EA1B95
:10062000FB0B8F0120E030E00A831B832C833D838A
:100630009E012A5F3F4FAF01C9010E949B268A811C
:100640009B816C01B6E0CB0ED11CCC0EDD1EF701F8
:1006500066817781DB01FD0101900020E9F7319788
:10066000EA1BFB0B8F0120E030E0D6010D931D93B8
:100670002D933C9313978C01065F1F4FC00FD11F22
:10068000AF01CE010E949B26F60120813181200F0F
:10069000311FC901DF91CF911F910F91FF90EF9012
:1006A000DF90CF9008954F925F927F928F929F92AA
:1006B000AF92BF92CF92DF92EF92FF920F931F9370
:1006C000CF93DF93EC018B01DB01FC908A818F15C6
:1006D00050F4B4E0FB9EB00111248F8198850E94F4
:1006E000B5258F839887FA82F8013796F12CB4E00C
:1006F000CB2ED12C9E012D5F3F4F2FC0408150E06B
:1007000060E070E0742F662755274427DF011397B8
:100710008C91482BDF0112978C91582BDF01119798
:100720008C91682B4B835C836D837E8384E0C80E41
:10073000D11C4F815885A4E0FA9E400D511D112413
:10074000D9018D909D90AD90BC90DA018D929D92D3
:10075000AD92BC921397F39434968A81F81670F296
:10076000F801EC0DFD1DF08089858F1550F4B4E083
:10077000FB9EB00111248E859F850E94B5258E8732
:100780009F87E4E0CE0ED11CF986F12C5E01FAE0E1
:10079000AF0EB11C2BC011968C91119712964C91F3
:1007A000129750E060E070E0BA0155274427582BBB
:1007B0008C91482B13968C91782B4A875B876C879A
:1007C0007D8784E0C80ED11C2E853F85A4E0FA9E6B
:1007D000200D311D1124F50180819181A281B38109
:1007E000F90180839183A283B383F3948985D8012F
:1007F000AC0DBD1DF81678F2FC9088898F1550F469
:100800006F2D70E0660F771F8B899C890E94B5253C
:100810008B8B9C8B96012C5F3F4FF88A712C2E019D
:10082000F1E14F0E511C44C0F801E20FF31FC080EC
:10083000D180E280F380C9010496F801E80FF91F26
:10084000AC01662757FD6095762F4C0D5D1D6E1D22
:100850007F1D06C0B1909F0122503109D901BC9281
:100860009F01201B310B4901A12CB12C8416950648
:10087000A606B70678F3C80ED91EF801EC0DFD1DCB
:1008800031971082AC0141505109400F511F5A8BD2
:10089000498B96019B898C89E92FF82FE70DF11D73
:1008A000E70DF11DD2018D919C919183808373940A
:1008B0008889781608F4B8CFC901DF91CF911F91CC
:1008C0000F91FF90EF90DF90CF90BF90AF909F90EF
:1008D0008F907F905F904F900895CF93DF93FC01AE
:1008E00086819781EC01A881B9814281538164811D
:1008F0007581ED91FC91DF91CF910994CF92DF92B8
:10090000EF92FF920F931F93CF93DF93EC01162F7B
:100910008C81882309F446C0DA01ED91FC91BE0177
:10092000655F7F4F0190F081E02DCA0109952FEF9F
:100930002D832E831F83188689871A8622E030E054
:1009400040E050E0BC016B5F7F4F07C0E20FF31F38
:10095000E5814E0F511D2F5F3F4FFE016217730758
:10096000ACF7E80FF91F409543878C01095F1F4FD3
:10097000CA80DB807E01B5E0EB0EF11CE7010BC005
:10098000F601808191816991DC01ED91FC910190EA
:10099000F081E02D0995CE018E199F0980179107EE
:1009A0007CF302C000E010E0C801DF91CF911F91FD
:1009B0000F91FF90EF90DF90CF900895AC0120E071
:1009C00030E0FA01E75BFD4F0190F081E02DEF2B65
:1009D000A1F4A901440F551F480F591FFA01E75B05
:1009E000FD4F7183608323583F4FFB013583248380
:1009F00008969783868381E008952F5F3F4F4E5F6F
:100A00005F4F29313105E9F680E008954091E00219
:100A10005091E1026091E2027091E3028091DE0266
:100A20009091DF020E94DC1F10928A0510928905C6
:100A300010928C0510928B051092900510928F05E4
:100A400010928E0510928D051092940510929305C8
:100A500060E080910C010E94691C60E080910601B9
:100A60000E94691C61E08DE00E94691C60910A018E
:100A700070910B018AEB95E00E948C18609108013F
:100A80007091090187EB95E00E948C188CEE96E03E
:100A90000E94ED1942E063E08DEB95E00E948B141B
:100AA0008DEB95E00E94431080E090E0A2E0B4EC72
:100AB0008093E1059093E205A093E305B093E405EC
:100AC00080E090E8AEE0B4EC8093E5059093E60515
:100AD000A093E705B093E80580E090E8A0E4B4ECCB
:100AE0008093E9059093EA05A093EB05B093EC059C
:100AF00080E090E0A7E0B4E48093D5059093D6051C
:100B0000A093D705B093D80580E090E0AAEFB3E4B6
:100B10008093D9059093DA05A093DB05B093DC05AB
:100B200080E090E0A4E3B3E48093DD059093DE05DC
:100B3000A093DF05B093E00564E972E08CED92E0EC
:100B40000E94DE0464E872E08CED92E00E94DE0414
:100B50006CE872E08CED92E00E94DE046CE772E0DB
:100B60008CED92E00E94DE0464E772E08CED92E08E
:100B70000E94DE048091930590919405893191053E
:100B8000ACF4FC01EE0FFF1FE95AFA4F28EA32E0FD
:100B9000318320839C012C593F4F3093AB0220932B
:100BA000AA020196909394058093930580919305F2
:100BB0009091940589319105ACF4FC01EE0FFF1F73
:100BC000E95AFA4F2CE932E0318320839C012C59F9
:100BD0003F4F30939F0220939E020196909394057D
:100BE0008093930562E370E080E090E00C94F31D45
:100BF0000F931F93CF93DF93CDB7DEB72A970FB62E
:100C0000F894DEBF0FBECDBF8C0180EE91E09A83D9
:100C100089831B821C821D821E821F821886198670
:100C20001A86AE014F5F5F4F6AE070E0C801089618
:100C30000E947E040E94B71DF801EB5DFE4F6083A9
:100C40007183828393832A960FB6F894DEBF0FBE1A
:100C5000CDBFDF91CF911F910F9108958F929F92F9
:100C6000AF92BF92CF92DF92EF92FF920F931F93BA
:100C7000CF93DF93CDB7DEB728970FB6F894DEBFDA
:100C80000FBECDBF8C0181E0D8011C968C9386ED00
:100C900091E09A83898378015801B2E3AB0EB11CCD
:100CA00068014801E8E08E0E911CF601E75BFD4FFC
:100CB0000190F081E02D3097D9F0848195819C835B
:100CC0008B83808191819E838D8382819381DC01DE
:100CD000ED91FC910480F581E02D099598878F8333
:100CE000AE014F5F5F4F60E070E0C4010E947E0480
:100CF000B2E0CB0ED11CCA14DB04B9F6085F1F4F5B
:100D0000F701E558FD4FA081B1811097F1F01296DF
:100D10008D919C9113979C838B8314968D919C91BC
:100D200015979E838D83ED91FC9111970480F58139
:100D3000E02DCD01099598878F83AE014F5F5F4FFE
:100D400061E070E0C8010E947E04E2E0EE0EF11C5A
:100D5000EA14FB04A9F628960FB6F894DEBF0FBE7E
:100D6000CDBFDF91CF911F910F91FF90EF90DF905A
:100D7000CF90BF90AF909F908F9008954F925F92C9
:100D80006F927F92AF92BF92CF92DF92EF92FF92DB
:100D90000F931F93CF93DF93CDB7DEB72A970FB68C
:100DA000F894DEBF0FBECDBF8C015B0180EE91E0F9
:100DB0009A8389831B821C821D821E821F82188651
:100DC00019861A860E94B71D6B017C01F801EB5D44
:100DD000FE4F80819181A281B381C81AD90AEA0AA3
:100DE000FB0AB501CE0101960E94F10088EE482E63
:100DF00083E0582E612C712CC701B601A30192012A
:100E00000E941A2469017A019B01AC018B819C81AB
:100E1000AD81BE818C0D9D1DAE1DBF1D8B839C833E
:100E2000AD83BE8360E472E48FE090E00E94EA2329
:100E3000CF80D884E984FA84C60ED71EE81EF91E36
:100E4000CF82D886E986FA860E94B71D580127ED21
:100E5000A21A2EEFB20ACB80DC80ED80FE80E1E0AA
:100E6000CE1AD108E108F108A30192010E941A24C8
:100E700029013A019B01AC01C418D508E608F7081E
:100E8000F501C082D182E282F382F801E35DFE4F78
:100E9000CF80D884E984FA8486E3D81A85E6E80A04
:100EA00084ECF80A60E472E48FE090E00E94EA23A8
:100EB000C61AD70AE80AF90AC082D182E282F3820E
:100EC000BF01C5010E9423190E94B71DF801E35418
:100ED000FD4F60837183828393832A960FB6F894C3
:100EE000DEBF0FBECDBFDF91CF911F910F91FF905D
:100EF000EF90DF90CF90BF90AF907F906F905F901A
:100F00004F9008952F923F924F925F926F927F92EF
:100F10008F929F92AF92BF92CF92DF92EF92FF9209
:100F20000F931F93CF93DF93CDB7DEB760970FB6C4
:100F3000F894DEBF0FBECDBF988B8F870E94B71D80
:100F40002B013C01EF85F889E354FD4F80819181AD
:100F5000A281B381A3019201281B390B4A0B5B0BC1
:100F6000DA01C901893F9A42A105B10520F0AF8598
:100F7000B8891C961C92EF85F889E355FD4F808156
:100F80009181892B81F0AF85B889AF53BD4F8D9189
:100F90009D910D90BC91A02D84159505A605B705D2
:100FA00010F4118210822F843888BBE42B1ABDEF15
:100FB0003B0A0F85188903551D4FCF84D888EFE46D
:100FC000CE1AEDEFDE0A8F849888FFEC8F1AFEEFC1
:100FD0009F0A2F8538892A533D4F3A8329834F85AD
:100FE00058894B535D4F5C834B832F853889275439
:100FF0003D4F3E832D834F85588943545D4F58871D
:101000004F83EF84F88851E5E51A5DEFF50AAF8468
:10101000B8888DE4A81A8DEFB80A2F8538892F5328
:101020003D4F3A872987A30192012C5E3F4F4F4FD6
:101030005F4F2B873C874D875E87AF85B8891296B7
:101040008D919C911397DC01ED91FC910680F781C5
:10105000E02D099597FDEBC0F10140815181480FCA
:10106000591F51834083D8012D913C912630310581
:10107000D1F4F50120813181EF85F889E20FF31F6A
:10108000EF5CFE4F80832F5F3F4FD5012D933C9344
:10109000F70180819181019791838083892B69F683
:1010A00087E090E04FC021153105A1F48F3F9105F5
:1010B00021F681E090E0F801918380832B853C85C7
:1010C0004D855E85A985BA852D933D934D935C939F
:1010D0001397B3CF2130310551F48F3F910519F4A7
:1010E00082E090E022C0D8011D921C92A6CF22304F
:1010F000310561F4F6019183808323E030E0D8016B
:101100002D933C93F1019183808397CF2330310558
:1011100071F4982F8827D6012D913C911197280FB3
:10112000391F2D933C9384E090E0F801ECCF2430FC
:10113000310551F4D7018D939C93F50111821082F2
:1011400085E090E0D80117C025303105B9F4982F1B
:101150008827F70120813181820F931F918380833B
:1011600026E030E0D80111963C932E93892B09F0AC
:1011700064CF87E090E08D939C935FCF273031055B
:1011800009F05BCFCA0160E071E00E9406248F3F46
:10119000910509F048C0F601808191810097B1F472
:1011A0008F8598890E94F8058F8598890E942E0660
:1011B000AD81BE814D925D926D927C921397EF81CD
:1011C000F88540825182628273822DC08A309105F7
:1011D00031F4B4018F8598890E94BE0624C0843002
:1011E000910551F4B40189819A810E94530381E0F1
:1011F000AB81BC818C9317C084569109880F991FCD
:101200002F853889820F931FFC01E558FD4F80819F
:101210009181009741F0DC01ED91FC910190F0810A
:10122000E02DB4010995F8011182108206CFAF8537
:10123000B8891C968C911C978823F9F08D0107546E
:101240001D4FF80180819181A281B381A301920198
:10125000281B390B4A0B5B0BDA01C901853C99400D
:10126000A105B10550F08F8598890E94F805D80135
:101270004D925D926D927C92139760960FB6F894A2
:10128000DEBF0FBECDBFDF91CF911F910F91FF90B9
:10129000EF90DF90CF90BF90AF909F908F907F9016
:1012A0006F905F904F903F902F9008957F928F9214
:1012B0009F92AF92BF92CF92DF92EF92FF920F93E5
:1012C0001F93CF93DF93CDB7DEB761970FB6F89436
:1012D000DEBF0FBECDBF0E94B71D4B015C01D12CFC
:1012E0000CEC11E0CC24C39459E5E52E51E0F52E29
:1012F00022C086E696E00E94BC14782E1E870D87D9
:10130000CF86F98AE88AAE01435F5F4F65E070E0FF
:1013100084EE92E00E947E04672D83EF95E00E94A8
:101320006B0E882311F0DD24D39486E696E00E94AC
:101330000915892BF1F60E94B71D681979098A09E8
:101340009B09683E73408105910578F3DD2009F41F
:1013500049C024EB32E048EB52E06CEB72E083EFE3
:1013600095E00E94380F20E030E0A9016091400232
:101370007091410280914202909143020E949B2110
:10138000811109C06091BC027091BD028091BE02C2
:101390009091BF0203C060E070E0CB016093BC029B
:1013A0007093BD028093BE029093BF020E940C22F4
:1013B0007093C7026093C6026091B8027091B9023F
:1013C0008091BA029091BB020E940C227093C302DA
:1013D0006093C2028CE792E00E946D0484E792E081
:1013E0000E946D0420E432E44FE050E061E080911F
:1013F0000C010E94D81C7093D3026093D20280919A
:1014000006010E94541E9093D7028093D6028DEB62
:1014100095E00E94021219821A821B821C8280E0CF
:1014200090E0A0E8BFEB8D839E83AF83B8871986D9
:101430001A861B861C86C12CDA80EB80FC8000E0BB
:101440001E812F81388540E05A856B857C858DEB28
:1014500095E00E9438139093D3028093D20284E9DE
:1014600092E00E946D048CE892E00E946D0484E892
:1014700092E00E946D048CEC91E09E878D8781E064
:101480008F8786E691E0998B888BAE01435F5F4F33
:1014900065E070E084EE92E00E947E048CED92E0C4
:1014A0000E94820761960FB6F894DEBF0FBECDBFD3
:1014B000DF91CF911F910F91FF90EF90DF90CF9030
:1014C000BF90AF909F908F907F9008950F931F9340
:1014D000CF93DF9320E042E063E086E696E00E944F
:1014E000CB1683EF95E00E94310B8DEB95E00E94C7
:1014F000B80F8AEB95E00E94EF1787EB95E00E940A
:10150000EF178EEF91E09093DD028093DC02EEED19
:10151000F2E085EB97E09183808380E091EEA0E09C
:10152000B0E08093E0029093E102A093E202B093D6
:10153000E30284E092E09093E5028093E402F0936A
:10154000E702E093E6021092E8028AE092E09093CC
:10155000A3058093A20548ED52E08AEE91E0FA01DE
:101560009183808324ED32E0F90191838083C0ED83
:10157000D2E0998388839093CD028093CC0290939C
:10158000C9028093C802A4ECB2E011969C938E939A
:10159000E0ECF2E09183808364EF71E07093A90244
:1015A0006093A8029093AF028093AE0204E711E02B
:1015B0001093AD020093AC0202E212E01093B3026A
:1015C0000093B20270939D0260939C029093A302D9
:1015D0008093A2028BE791E09093A1028093A002F6
:1015E0008BE192E09093A7028093A60282E891E0BB
:1015F00090939502809394025093970240939602A1
:101600008FE891E090938D0280938C0230938F024B
:1016100020938E0284E991E0909385028093840266
:10162000D0938702C09386028CE991E090937D026B
:1016300080937C02B0937F02A0937E0284EA91E0C3
:101640009093750280937402F0937702E093760290
:10165000DF91CF911F910F91089586E696E00C944B
:101660002A170F931F93FC010FEF1FEF98010083C0
:1016700011832283338310861186128613864FEFDF
:1016800059EC6AE97BE3408B518B628B738B408F03
:10169000518F628F738F40A351A362A373A340A79E
:1016A00051A762A773A740AB51AB62AB73AB00AF5E
:1016B00011AF22AF33AFDC01A05CBF4F8FEF90E0E2
:1016C0008D939C93DF01AC5BBF4F0D931D932D93C6
:1016D0003C931397DF01A45BBF4F0D931D932D9394
:1016E0003C931397DF01AC5ABF4F1C92DF01AB5AFA
:1016F000BF4F1C92DF01AB59BF4F82E08C93DF01DB
:10170000AA59BF4F1C92DF01A959BF4F1C92DF019C
:10171000A859BF4F1C92DF01A759BF4F1D921D92C0
:101720001D921C921397DF01A359BF4F1D921C926B
:10173000DF01A159BF4F1D921C92EA5AFF4F108240
:101740001F910F910895862F8154262F332727FD4F
:101750003095863018F42753310908C06156663039
:1017600018F42755310902C020533109C9010895E1
:10177000CF93FB0120E030E0A90114C0AAE0B0E063
:101780000E94D7239B01AC018C2F992787FD909550
:10179000A92FB92F280F391F4A1F5B1F205331096A
:1017A00041095109C1918C2F80538A3038F3B90116
:1017B000CA01CF9108952F923F924F925F926F92FC
:1017C0007F928F929F92AF92BF92CF92DF92EF92D1
:1017D000FF920F931F93CF93DF93EC01CA5ADF4F11
:1017E000BE010E94B80B3B018C0124E630E040E0D2
:1017F00050E00E941A249B01AC01A0E1B7E20E94D4
:10180000D7236B017C01FE018191982F90539A3070
:10181000D8F38E3231F5EF0188EE882E83E0982ED2
:10182000A12CB12C9AE0292E312C412C512C14C022
:10183000BB27A7FDB095D097A50194010E94E22394
:10184000C60ED71EE81EF91EC501B401A201910102
:101850000E941A2449015A01A9918A2F80538A3083
:1018600038F3C701B60126E030E040E050E00E94C6
:101870001A2469017A01B301C80124E630E040E08E
:1018800050E00E941A2460EA76E881E090E00E942D
:10189000EA23C60ED71EE81EF91EB601C701DF9166
:1018A000CF911F910F91FF90EF90DF90CF90BF905D
:1018B000AF909F908F907F906F905F904F903F90F0
:1018C0002F900895FF920F931F93CF93DF93EC0116
:1018D000CA5ADF4FFF24F39428812D3211F0F12CE6
:1018E00003C0EC01C95ADF4FBE010E94B80B9B0137
:1018F000AC01A4E6B0E00E94D7238B019C01FE015D
:101900008991982F90539A30D0F38E3221F58181AE
:10191000982F90539A30F8F44AE08402C0011124C1
:10192000805E9140AA2797FDA095BA2F080F191F36
:101930002A1F3B1F8281982F90539A3060F4992779
:1019400087FD9095C097AA2797FDA095BA2F080FFD
:10195000191F2A1F3B1FFF2039F030952095109545
:1019600001951F4F2F4F3F4FB801C901DF91CF9114
:101970001F910F91FF900895FB01DA018191882357
:1019800019F09D918917D1F3282F332727FD309522
:10199000932F0895EF92FF920F931F93CF93DF93AE
:1019A000EC01FC01EB5AFF4F8081FE01882309F412
:1019B000B8C0EA5AFF4F6081CE010E94A30B182FD6
:1019C000FE01E95AFF4F6081CE010E94A30B20E186
:1019D000129F800D1124FE01EC5AFF4F9081891354
:1019E0009AC0FE01E859FF4F8081882309F46BC13A
:1019F000FE01E359FF4F808191810196918380839D
:101A0000FE01EC5BFF4FDE01A85BBF4F8D919D9106
:101A10000D90BC91A02D80839183A283B383FE019E
:101A2000E45BFF4FDE01A05BBF4F8D919D910D9058
:101A3000BC91A02D80839183A283B383FE01EB59D7
:101A4000FF4F80818823A1F1813009F03AC18C8158
:101A50009D81AE81BF8188839983AA83BB838C8556
:101A60009D85AE85BF8588879987AA87BB878C8926
:101A70009D89AE89BF89888B998BAA8BBB8B8C8DF6
:101A80009D8DAE8DBF8D888F998FAA8FBB8F8CA5B2
:101A90009DA5AEA5BFA588A799A7AAA7BBA78CA9F6
:101AA0009DA9AEA9BFA988AB99ABAAABBBAB09C135
:101AB0008CA19DA1AEA1BFA188A399A3AAA3BBA3FA
:101AC0008C819D81AE81BF8188839983AA83BB83EA
:101AD0008C899D89AE89BF89888B998BAA8BBB8B9A
:101AE0008C8D9D8DAE8DBF8D888F998FAA8FBB8F6A
:101AF000FE01E05CFF4FDE01AE5BBF4F8D919C911C
:101B0000918380838CAD9DADAEADBFAD88AF99AFF5
:101B1000AAAFBBAFD6C0C159DF4F8881998101966A
:101B2000BDC0EA59FF4F9081911120C07E0186E52A
:101B3000E80EF11C40E152E0B701CE010E94BC0C5E
:101B40008E010B591F4F892B11F481E00CC046E127
:101B500052E0B701CE010E94BC0C892B19F4F801A8
:101B60001082B1C082E0F8018083ADC0FE01EB5964
:101B7000FF4FE081E23009F4A6C0DE01AA5ABF4F50
:101B80008C91882309F49FC020E2E29FF001112488
:101B9000E92B3197E932F10508F095C0EC5CFF4F75
:101BA0000C945824CE010E94620C6C837D838E833A
:101BB0009F830E94B71DC85BDF4F12C0C859DF4F1B
:101BC00091E0813409F460C05EC0CE010E94DB0B5D
:101BD0006C8B7D8B8E8B9F8B0E94B71DC05BDF4F04
:101BE000688379838A839B836EC0833509F06BC0D9
:101BF0008C899D89AE89BF89B095A0959095819576
:101C00009F4FAF4FBF4F8C8B9D8BAE8BBF8B5BC0FD
:101C1000CE010E94DB0B6C8F7D8F8E8F9F8F53C008
:101C2000873509F050C08C8D9D8DAE8DBF8DB095E0
:101C3000A095909581959F4FAF4FBF4F8C8F9D8FF3
:101C4000AE8FBF8F40C0CE010E94620C6CA77DA7F3
:101C50008EA79FA738C0CE010E94620C6CAB7DABF3
:101C60008EAB9FAB30C0BE016A5A7F4FCE010E943F
:101C7000B80B6C877D878E879F8725C0C859DF4F3B
:101C800091E081330CF490E098831DC0CE018A5A14
:101C90009F4F0E947D26CE5BDF4F992799838883D3
:101CA00012C0CE010E94620C6CAF7DAF8EAF9FAFB1
:101CB0000AC0CE010E94620C6CA37DA38EA39FA3D9
:101CC00002C081E001C080E0DF91CF911F910F91B0
:101CD000FF90EF9008951F93CF93DF93EC01162FA1
:101CE000FC01E759FF4F40815181628173814F5F51
:101CF0005F4F6F4F7F4F4083518362837383FC013B
:101D0000E959FF4F1432A9F134F41A3079F01D303B
:101D100009F045C00BC01A3249F01C3209F03FC02F
:101D2000FC01EC5AFF4F808181278083FE01E95935
:101D3000FF4F80818F3050F4FE01E80FF11DEA5A09
:101D4000FF4F1082CE010E94CA0C01C080E0FE014C
:101D5000EA59FF4F90819F5F9083FE01E959FF4F41
:101D60001082CB5ADF4F91E01A3209F090E098834D
:101D70002DC01082FC01EA59FF4F1082FC01EC5A81
:101D8000FF4F1082FC01EB59FF4F82E08083FE0180
:101D9000EB5AFF4F1082C859DF4F188216C080815E
:101DA0008E3040F4DE01A80FB11DAA5ABF4F1C931C
:101DB0008F5F8083FE01EB5AFF4F8081811105C048
:101DC000CC5ADF4F88818127888380E0DF91CF91D3
:101DD0001F910895CF92DF92EF92FF920F931F937E
:101DE000CF93DF93E9016115710551F0FC01C088C3
:101DF000D188E288F388FB01C082D182E282F3823B
:101E00004115510551F0FC01C08CD18CE28CF38C52
:101E1000FA01C082D182E282F382209701F18C0123
:101E2000045B1F4FF80180819181A281B3818F3FB4
:101E30009F4FAF4FBF4F61F00E94B71DF801008167
:101E4000118122813381601B710B820B930B03C0C4
:101E50006FEF7FEFCB01688379838A839B83DF9168
:101E6000CF911F910F91FF90EF90DF90CF90089549
:101E70008F929F92AF92BF92EF92FF920F931F9318
:101E8000CF93DF93CDB7DEB728970FB6F894DEBFB8
:101E90000FBECDBF7B018A01AE014F5F5F4FBE0118
:101EA0006B5F7F4F0E94EA0E8D809E80AF80B8846A
:101EB0008FEF881689EC98068AE9A8068BE3B806A6
:101EC00059F0C501B4010E943A2220E030E543EC0C
:101ED00057E40E949F2104C060E070E08AE794E428
:101EE000382F292F862F972FA32FB22FF70180830A
:101EF0009183A283B383FFEF8F16F9EC9F06FAE973
:101F0000AF06FBE3BF0669F069817A818B819C8112
:101F10000E943A2220E030E543EC57E40E949F21E2
:101F200004C060E070E08AE794E4382F292F862F00
:101F3000972FA32FB22FF80180839183A283B383BD
:101F400028960FB6F894DEBF0FBECDBFDF91CF91BC
:101F50001F910F91FF90EF90BF90AF909F908F9047
:101F60000895DC01ED91FC910190F081E02D099440
:101F7000FC0180E090E0A7E0B4E4808F918FA28F15
:101F8000B38F80E090E0AAEFB3E4848F958FA68FA3
:101F9000B78F80E090E0A4E3B3E480A391A3A2A371
:101FA000B3A340E050E062E074EC44A355A366A301
:101FB00077A340E050E86EE074EC40A751A762A719
:101FC00073A740E050E860E474EC44A755A766A707
:101FD00077A783E081AB88E182AB14AA13AA15AA84
:101FE0000895EF92FF921F93CF93DF931F92CDB787
:101FF000DEB77C01162FFC0162A98CEE96E04983C6
:102000000E940A1A612F8CEE96E00E94AD19498158
:10201000642F8CEE96E00E94AD198CEE96E00E9443
:10202000291AF70180AB0F90DF91CF911F91FF909C
:10203000EF900895EF92FF921F93CF93DF931F923B
:10204000CDB7DEB77C01162F6EE170E08CEE96E026
:1020500049830E94141A612F8CEE96E00E94AD19FC
:102060004981642F8CEE96E00E94AD198CEE96E0CB
:102070000E94291AF70180AB0F90DF91CF911F9139
:10208000FF90EF900895CF93DF93EC0147E260E279
:102090000E94F10F40E062E0CE01DF91CF910C94FD
:1020A0001A100F931F93CF93DF938C01EB0177FFEF
:1020B00031C06D3F8FEF7807C1F02CF46C3FFFEF1C
:1020C0007F0741F517C06E3F8FEF780749F06F3FEC
:1020D000EFEF7E07F9F4F80181A9811110C015C056
:1020E000F80181A981110EC013C0F80181A98111E5
:1020F0000CC005C0F80181A981110AC003C0C7E066
:10210000D0E008C0C8E0D0E005C0C5E0D0E002C023
:10211000C6E0D0E06EE170E08CEE96E00E94141A0A
:10212000BE018CEE96E00E94B10F8CEE96E00E940C
:10213000291AF80180AB41E050E06EE170E08CEECE
:1021400096E00E94071A8CEE96E00E945A19C82F5A
:102150008CEE96E00E94291A8C2FDF91CF911F916F
:102160000F9108956F927F928F929F92AF92BF923C
:10217000CF92DF92EF92FF920F931F93CF93DF9353
:10218000EC016AA98CEE96E00E940A1A68EA70E0F7
:102190008CEE96E00E94B10F8CEE96E00E94291A18
:1021A00088AB46E06AA98CEE96E00E94041A0E9471
:1021B000B71D6B011DAA0EC08BA99CA9892B51F0DC
:1021C0000E94B71D6C197D098BA99CA986179707DA
:1021D00008F45EC08CEE96E00E945119069764F3F5
:1021E0008CEE96E00E945A19782E8CEE96E00E94B2
:1021F0005A19682E8CEE96E00E945A19982E8CEE91
:1022000096E00E945A19882E8CEE96E00E945A1988
:10221000D82E8CEE96E00E945A19C82EB62CA12C0E
:10222000A72884E0B594A7948A95E1F7B50188279B
:1022300077FD8095982F0E943A22688379838A835C
:102240009B83F82CE12CE92894E0F594E7949A9587
:10225000E1F7B701882777FD8095982F0E943A22F1
:102260006C837D838E839F831C2D00E00D2924E0E9
:10227000159507952A95E1F7B801882777FD809590
:10228000982F0E943A22688779878A879B8702C0A5
:1022900081E08DABDF91CF911F910F91FF90EF9077
:1022A000DF90CF90BF90AF909F908F907F906F9076
:1022B0000895AF92BF92CF92DF92EF92FF920F9369
:1022C0001F93CF93DF93EC016EE170E08CEE96E00C
:1022D0000E94141A63E070E08CEE96E00E94B10F49
:1022E0008CEE96E00E94291A88AB46E050E06EE141
:1022F00070E08CEE96E00E94071A0E94B71D8B01D9
:102300001DAA0EC08BA99CA9892B51F00E94B71D54
:10231000601B710B8BA99CA98617970708F465C0F1
:102320008CEE96E00E945119069764F38CEE96E0CD
:102330000E945A19A82E8CEE96E00E945A19B82EC7
:1023400089A9811115C08CEE96E00E945A19C82EF9
:102350008CEE96E00E945A19D82E8CEE96E00E94E0
:102360005A19082F8CEE96E00E945A19182F14C0A3
:102370008CEE96E00E945A19082F8CEE96E00E948F
:102380005A19182F8CEE96E00E945A19C82E8CEE1E
:1023900096E00E945A19D82EFA2CE12CEB28B701AE
:1023A000882777FD8095982F0E943A226C877D8739
:1023B0008E879F877C2D60E06D29882777FD80952B
:1023C000982F0E943A22688B798B8A8B9B8B702F77
:1023D00060E0612B882777FD8095982F0E943A2234
:1023E0006C8B7D8B8E8B9F8B02C081E08DABDF91E0
:1023F000CF911F910F91FF90EF90DF90CF90BF9002
:10240000AF900895CF93DF93EC010E94B210CE01FC
:10241000DF91CF910C9459112F923F924F925F927E
:102420006F927F928F929F92AF92BF92CF92DF92E4
:10243000EF92FF920F931F93CF93DF9300D000D0C2
:1024400000D0CDB7DEB78C017E836D831A01DB012E
:1024500018968D919D910D90BC91A02D89839A83A2
:10246000AB83BC83F80180849184A284B3842481EB
:10247000358146815781BC01CD010E941A236B0131
:102480007C01AD81BE8114962D913D914D915C9161
:102490001797C501B4010E941A239B01AC01C70123
:1024A000B6010E94D420F1016083718382839383FB
:1024B000AD81BE814D905D906D907C90F801C080A3
:1024C000D180E280F380A3019201C501B4010E9492
:1024D0001A234B015C0129813A814B815C81C70140
:1024E000B6010E941A239B01AC01C501B4010E94F0
:1024F000D420D10114966D937D938D939C9317975F
:10250000ED81FE812481358146815781C701B60165
:102510000E941A236B017C01D80114962D913D91E4
:102520004D915C911797C301B2010E941A239B0140
:10253000AC01C701B6010E94D420F1016087718708
:102540008287938726960FB6F894DEBF0FBECDBF65
:10255000DF91CF911F910F91FF90EF90DF90CF907F
:10256000BF90AF909F908F907F906F905F904F90B3
:102570003F902F900895CF92DF92EF92FF920F93AA
:102580001F93CF93DF93EC018B01FB0120813181FD
:1025900042815381688179818A819B810E941A23BB
:1025A0006B017C01F80124813581468157816C8162
:1025B0007D818E819F810E941A239B01AC01C701FE
:1025C000B6010E94D5206B017C01F8012085318580
:1025D00042855385688579858A859B850E941A2363
:1025E0009B01AC01C701B6010E94D520DF91CF91BC
:1025F0001F910F91FF90EF90DF90CF900895CF92B1
:10260000DF92EF92FF92CF93DF93EC01BC010E9427
:10261000BB120E9481236B017C019B01AC0168818C
:1026200079818A819B810E949F21688379838A8333
:102630009B83A70196016C817D818E819F810E9481
:102640009F216C837D838E839F83A701960168857C
:1026500079858A859B850E949F21688779878A87EB
:102660009B87DF91CF91FF90EF90DF90CF900895FF
:102670004F925F926F927F92AF92BF92CF92DF9212
:10268000EF92FF920F931F93CF93DF93CDB7DEB7F7
:10269000E4970FB6F894DEBF0FBECDBF5C01CDA2AC
:1026A000DEA2EFA2F8A609A71AA72BA73CA74DA761
:1026B0005EA76FA778ABFC01C4A0D5A0E6A0F7A0E9
:1026C000A701960164857585868597850E94D4202B
:1026D0002B013C01A7019601F501608D718D828D62
:1026E000938D0E94D4209B01AC01C301B2010E94D2
:1026F0009F219B01AC010E94D52020E030E040E802
:102700005FE30E94D420F5016487758786879787E9
:10271000C0A4D1A4E2A4F3A4A701960160897189A1
:10272000828993890E94D4202B013C01A701960144
:10273000F501648D758D868D978D0E94D4209B0147
:10274000AC01C301B2010E949F219B01AC010E9418
:10275000D52020E030E040E85FE30E94D420F5017E
:10276000608B718B828B938BC4A4D5A4E6A4F7A451
:10277000A701960164897589868997890E94D4206A
:102780002B013C01A7019601F50160A171A182A175
:1027900093A10E94D4209B01AC01C301B2010E940D
:1027A0009F219B01AC010E94D52020E030E040E851
:1027B0005FE30E94D420F501648B758B868B978B29
:1027C0008CE0DE01599601900D928A95E1F7CE01D9
:1027D00049960E94FF12AE01435F5F4FBE01675EE4
:1027E0007F4FC5010C960E940C12CE010D960E94DF
:1027F000FF12AE014F5F5F4FBE01635F7F4FCE019F
:1028000049960E940C12BE016B5D7F4FCE0101966E
:102810000E94BB129B01AC01BE016B5D7F4FCE01DC
:102820000D9629AB3AAB4BAB5CAB0E94BB1229A90E
:102830003AA94BA95CA90E94482120E030E044E37A
:1028400053E40E941A232BED3FE049E450E40E9438
:102850009F216B017C0120E030E0A9017D2D9F2D9F
:102860000E940F2320E030E040E05FE36C2D7D2DDF
:1028700087FD05C08E2D9F2D0E94D52004C08E2D72
:102880009F2D0E94D4200E94072277FF02C0685922
:102890007E4FCB01E4960FB6F894DEBF0FBECDBFDE
:1028A000DF91CF911F910F91FF90EF90DF90CF902C
:1028B000BF90AF907F906F905F904F900895CF93AF
:1028C000DF93EC0168E170E08CEE96E00E94141A50
:1028D00060E270E08CEE96E00E94B10F8CEE96E024
:1028E0000E94291A88AB41E050E068E170E08CEE6C
:1028F00096E00E94071A8CEE96E00E945119892BEF
:1029000031F08CEE96E00E945A1980E001C081E01F
:10291000DF91CF910895CF93DF93EC0169AB6230E3
:1029200018F0623089F40DC0411101C008C0413077
:1029300009F407C00E945F14813009F402C088E1E5
:1029400001C089E18AAB15C00E945F14813029F46F
:1029500089E18AAB82E089AB0CC088E18AAB6FE089
:1029600070E0CE010E94511091E08C3309F090E0AC
:1029700099ABDF91CF9108952091C4063091C5069F
:1029800028173907C1F49091820680918306981721
:1029900091F0E0918206F0E0EC57F94F80812091B0
:1029A000820630E02F5F3F4F2F733327209382063C
:1029B000282F30E002C02FEF3FEFC901089520918A
:1029C000C4063091C5062817390781F49091820614
:1029D00080918306981751F0E0918206F0E0EC5761
:1029E000F94F2081332727FD309502C02FEF3FEFAD
:1029F000C90108952091C4063091C50628173907EA
:102A000039F48FB7F89410928306109282068FBF24
:102A100008952091C4063091C5062817390779F426
:102A2000809183062091820690E0805C9F4F821BFC
:102A3000910960E470E00E9406249C0102C020E03D
:102A400030E0C9010895DC015196ED91FC91529757
:102A5000208150968C91809582238083089520E078
:102A600001972FEF8F3F9207D9F70895EF92FF92CA
:102A70000F931F93CF93DF93EC018B8DEE85FF8532
:102A80009D8581FF04C08081892329F445C0808110
:102A9000892309F041C08B899C890E942F1508E089
:102AA00010E0EE24E394F12C8D899E890E942F156D
:102AB000EE85FF8580819D85892311F0FE2803C066
:102AC0008E2D8095F822EE0C0150110969F78F893F
:102AD000988D0E942F158B8D81FDF0948091830637
:102AE0002091820690E001968F73992730E082173B
:102AF000930779F0E0918306F0E0EC57F94FF0820C
:102B00008091830690E001968F73992780938306C6
:102B100003C08B8D81608B8FDF91CF911F910F91BF
:102B2000FF90EF900895611102C00C942315DC0111
:102B30005196ED91FC915297208150968C91282BC3
:102B400020830895DF92EF92FF920F931F93CF930C
:102B5000DF93EC01E62E898D9A8D892B39F481E083
:102B600090E09B838A8320E030E049C0DFB6F89490
:102B70006B8D66956170CE010E949315898D9A8D3B
:102B800005960E942F158B8D08E010E0FF24F3942A
:102B900081FF17C08F2D8E2121F0CE010E942315B9
:102BA00004C061E0CE010E949315898D9A8D0E9428
:102BB0002F15FF0C0150110969F7CE010E94231552
:102BC00017C08F2D8E2129F061E0CE010E94931550
:102BD00003C0CE010E942315898D9A8D0E942F1566
:102BE000FF0C0150110969F761E0CE010E949315B5
:102BF000DFBE898D9A8D0E942F1521E030E0C9013A
:102C0000DF91CF911F910F91FF90EF90DF9008958A
:102C10008091C4069091C506009711F00C9436156A
:102C200008951F920F920FB60F9211242F933F9386
:102C30004F935F936F937F938F939F93AF93BF93C4
:102C4000EF93FF930E940816FF91EF91BF91AF9110
:102C50009F918F917F916F915F914F913F912F91B4
:102C60000F900FBE0F901F9018951F920F920FB6E6
:102C70000F9211242F933F934F935F936F937F9302
:102C80008F939F93AF93BF93EF93FF930E94081688
:102C9000FF91EF91BF91AF919F918F917F916F9134
:102CA0005F914F913F912F910F900FBE0F901F900A
:102CB00018951F920F920FB60F9211242F933F93E6
:102CC0004F935F936F937F938F939F93AF93BF9334
:102CD000EF93FF930E940816FF91EF91BF91AF9180
:102CE0009F918F917F916F915F914F913F912F9124
:102CF0000F900FBE0F901F9018951F93CF93DF93E7
:102D0000EC01162F61E0812F0E94691C61E0812F88
:102D10000E94A11C812F90E0FC01E550FF4FE4913F
:102D2000E88BFC01E15FFE4FE491F0E0EE0FFF1F46
:102D3000E35DFE4F85919491898B9A8BDF91CF91C2
:102D40001F9108951F93CF93DF93EC01162F60E03E
:102D5000812F0E94691C8B8D81FD04C061E0812F51
:102D60000E94A11C1C87812F90E0FC01E550FF4FC1
:102D7000E491ED87FC01E15FFE4FE491F0E0EE0F9E
:102D8000FF1FED5DFE4F859194918E879F87DF91A8
:102D9000CF911F910895FF920F931F93CF93DF93CD
:102DA000EC01F62E522F1B821A8208EE13E020E06F
:102DB00030E00C831D832E833F8388E492E0998367
:102DC00088831C8A1B8A1E8A1D8A188E1F8A1A8E67
:102DD000198E8B8D8E7F50FB81F98B8F642FCE01E6
:102DE0000E947D166F2DCE01DF91CF911F910F9123
:102DF000FF900C94A216FC014485463150F54830F2
:102E000028F04E3030F4EBE6F0E005C0EDE6F0E0FF
:102E100002C0ECE6F0E05081483040F481E090E000
:102E2000042E01C0880F0A94EAF710C0242F30E066
:102E30004E3018F42850310902C02E50310981E07B
:102E400090E0022E01C0880F0A94EAF7809585234E
:102E50008083089528E432E0FC01318320830C94C0
:102E6000FB161F920F920FB60F9211242F933F93D0
:102E70004F935F936F937F938F939F93AF93BF9382
:102E8000EF93FF938091C70687FF05C010928500DE
:102E9000109284001AC02091C706332727FD309571
:102EA0008091C60690E0281739077CF48091C70608
:102EB000992787FD9095FC01EE0FFF1FE80FF91F82
:102EC000E853F94F808186FD37C08091C7068F5F38
:102ED0008093C7062091C706332727FD3095809140
:102EE000C60690E028173907CCF58091C7068C30CC
:102EF000F4F134C08091C706992787FD9095FC01B5
:102F0000EE0FFF1FE80FF91FE853F94F808161E0D2
:102F10008F730E94A11C52C080E49CE905C080917F
:102F20008400909185000496909389008093880096
:102F30008FEF8093C70642C08091C706992787FD0F
:102F40009095FC01EE0FFF1FE80FF91FE853F94FB2
:102F5000808160E08F730E94A11CB7CF80918400B4
:102F600090918500049680349C49B0F2D8CF80912E
:102F70008400909185002091C706332727FD309566
:102F8000F901EE0FFF1FE20FF31FE853F94F218104
:102F90003281820F931F90938900809388008091E3
:102FA000C706992787FD9095FC01EE0FFF1FE80FDC
:102FB000F91FE853F94F808186FD9CCFFF91EF9177
:102FC000BF91AF919F918F917F916F915F914F9141
:102FD0003F912F910F900FBE0F901F901895209149
:102FE000C6062C30A0F4FC012083822F8F5F8093D3
:102FF000C606822F90E0FC01EE0FFF1FE80FF91FBD
:10300000E853F94F88EB9BE09283818308952FEF7B
:10301000FC0120830895DF92EF92FF920F931F939C
:10302000CF93DF93EC01D62E7A01890188818C3011
:1030300008F065C061E08D2D0E94691C8881A82F71
:10304000B0E0FD01EE0FFF1FEA0FFB1FE853F94F41
:103050002D2D2F739081907C922B908360E272E0F3
:103060006E197F0977FF02C06D5F7F4F7595679579
:1030700075956795698340E659E0401B510B57FFF2
:1030800002C04D5F5F4F55954795559547954A83CB
:103090006CE00E94FA239CE0899FB001112420E09B
:1030A00030E0A901460F571FFA01EE0FFF1FE40F92
:1030B000F51FE853F94F908196FD15C02F5F3F4FE4
:1030C0002C30310571F71DC01092800082E0809392
:1030D00081001092850010928400B19A80916F0057
:1030E000826080936F00888190E0FC01EE0FFF1FEB
:1030F000E80FF91FE853F94F80818064808388814D
:1031000003C0882309F3EFCFDF91CF911F910F9177
:10311000FF90EF90DF90089520E639E040E252E022
:103120000C940B18FC0180818C3070F5918128E89B
:1031300030E0291B310997FD3395220F331F220FF1
:10314000331F621773077CF0928128E532E0291B58
:10315000310997FD3395220F331F220F331F62175A
:1031600073070CF49B014FB7F89490E0FC01EE0F4D
:10317000FF1FE80FF91FE853F94F22503109220FC2
:10318000331F328321834FBF0895AF92BF92CF92F6
:10319000DF92EF92FF920F931F93CF93DF93EC0197
:1031A000603282E078070CF041C077FD04C0653BD7
:1031B000710524F405C060E070E002C064EB70E0CB
:1031C000298188E890E0821B910927FD9395880F5B
:1031D000991F880F991F5C01CC24B7FCC094DC2C8C
:1031E000882777FD8095982F2A8148E552E0421B79
:1031F000510927FD5395440F551F440F551F8A0150
:10320000222717FD2095322F3F932F931F930F9363
:1032100014EBE12EF12C00E010E020E030E0A901F9
:103220000E94751E0F900F900F900F90CE01DF91AE
:10323000CF911F910F91FF90EF90DF90CF90BF90B3
:10324000AF900C949218CF92DF92EF92FF920F936F
:103250001F93CF93DF938C01EB01688179818A8181
:103260009B8120E03AEC4AE95BE30E941A24F801D2
:10327000C080D180E280F380C20ED31EE41EF51E12
:10328000C082D182E282F382688379838A839B83BE
:10329000DF91CF911F910F91FF90EF90DF90CF9032
:1032A000089520911C0730E080911D07281B3109EB
:1032B000C901089580911D0790911C07891750F44A
:1032C000E82FF0E0E25EF84F208130E08F5F8093DE
:1032D0001D0702C02FEF3FEFC9010895E0911D07C0
:1032E00080911C07E81730F4F0E0E25EF84F20818F
:1032F00030E002C02FEF3FEFC90108950895CF924B
:10330000DF92EF92FF920F931F93CF93DF937C0195
:10331000CB018A012091F806222391F0EB016B0189
:10332000C40ED51E09C06991D701ED91FC910190A1
:10333000F081E02DC7010995CC15DD05A1F703C08B
:10334000642F0E94E61AC801DF91CF911F910F915F
:10335000FF90EF90DF90CF900895CF93DF931F926F
:10336000CDB7DEB769832091F8062223D1F02091F2
:10337000F906203240F021E030E0FC013383228363
:1033800020E030E015C08091FA06E82FF0E0E5502B
:10339000F94F998190838F5F8093FA068093F906A5
:1033A00005C061E0CE0101960E94E61A21E030E0FE
:1033B000C9010F90DF91CF910895FC011382128211
:1033C00048EE53E060E070E0448355836683778382
:1033D00088E592E091838083089510921D071092F2
:1033E0001C071092FA061092F9060C94301A862FD8
:1033F000413208F040E26EE177E00E944E1A1092EE
:103400001D0780931C07089521E00C94F71921E013
:103410000C94F71981E08093F80660931B071092D3
:10342000FA061092F90608950C940A1A0F93062FC3
:1034300021E04091F9066BEF76E080911B070E9436
:10344000931A1092FA061092F9061092F8060F914C
:10345000089561E00C94161A8CEE96E00C94DD1938
:103460001092470781E0809345071092440761E07E
:1034700082E10E94A11C61E083E10E94A11CE9EBB2
:10348000F0E080818E7F808380818D7F808388E4DF
:103490008093B80085E48093BC000895413208F021
:1034A0003FC0909147079111FCCF91E0909347075F
:1034B000209345072FEF20933E0710924307242FB8
:1034C0002150209342079093460790914607880F1A
:1034D000892B8093460780914407813041F41092F4
:1034E0004407809146078093BB0085EC01C085EEC0
:1034F0008093BC00809147078130E1F380914307BE
:10350000841710F44091430728E437E0FB01D90108
:1035100002C08D9181938A2F821B8417D0F301C042
:1035200040E0842F08950F93413208F046C09091F7
:1035300047079111FCCF92E090934707009345070E
:103540009FEF90933E071092430740934207FB0181
:1035500068E477E0DB0102C091919D939A2F961B5E
:103560009417D0F31092460790914607880F892B45
:103570008093460780914407813041F410924407BC
:10358000809146078093BB0085EC01C085EE809357
:10359000BC00222321F0809147078230E1F3809123
:1035A0003E078F3F61F080913E07803251F080915D
:1035B0003E07803341F483E007C081E005C080E02E
:1035C00003C082E001C084E00F910895613298F455
:1035D00020914707243089F460934007FC0188E676
:1035E00097E0DC0102C021912D932A2F281B26177A
:1035F000D0F380E0089581E0089582E0089585ED9C
:103600008093BC008091BC0084FDFCCF10924707E2
:10361000089585EC8093BC001092470708951F928F
:103620000F920FB60F9211242F933F934F935F93F6
:103630006F937F938F939F93AF93BF93EF93FF937A
:103640008091B900887F803609F49FC058F5883290
:1036500009F45BC090F4803109F452C038F4882337
:1036600009F4F8C0883009F0F9C04AC0883109F47B
:103670004CC0803209F0F2C05CC0803409F46BC0E9
:1036800038F4803309F455C0883309F0E7C054C0DA
:10369000803509F454C0883509F462C0883409F0D3
:1036A000DDC0DAC0883909F4CBC0A8F4883709F442
:1036B0006CC038F4883609F468C0803709F0CEC091
:1036C00064C0883809F4BCC0803909F464C080380B
:1036D00009F0C4C060C0803B09F48AC038F4803A65
:1036E00009F46BC0883A09F0B9C082C0803C09F483
:1036F000ABC0883C09F4A8C0883B09F0AFC08DC0BE
:10370000809146078093BB0012C09091430780913F
:103710004207981788F580914307E82FF0E0E85BAF
:10372000F84F90819093BB008F5F8093430785ECA7
:1037300088C080933E0790C080933E0756C080911A
:1037400043079091BB00E82FF0E0E85BF84F9083CF
:103750008F5F8093430790914307809142076DC02C
:10376000809143079091BB00E82FF0E0E85BF84FB1
:1037700090838F5F809343078091450781116CC0D0
:1037800081E08093440784EA60C083E08093470728
:1037900010923F07CCCF80913F07803208F050C095
:1037A00080913F079091BB00E82FF0E0E457F84F7D
:1037B00090838F5F80933F07BACF80913F0780321D
:1037C00030F4E0913F07F0E0E457F84F10820E9498
:1037D000FF1A60913F07E0918807F091890770E038
:1037E0008CE897E0099510923F070E94091B36C0AC
:1037F00084E0809347071092410710924007E091C0
:103800008A07F0918B07099580914007811105C0C7
:1038100081E0809340071092680780914107E82F6C
:10382000F0E0E859F84F90819093BB008F5F809350
:1038300041079091410780914007981708F477CF8E
:1038400085E88093BC000AC085EC8093BC00109290
:10385000470704C010923E070E94FF1AFF91EF91A4
:10386000BF91AF919F918F917F916F915F914F9198
:103870003F912F910F900FBE0F901F90189583309E
:1038800069F028F48130A1F0823011F514C086303F
:10389000B1F08730C1F08430D9F404C08091800049
:1038A0008F7703C0809180008F7D80938000089582
:1038B00084B58F7702C084B58F7D84BD08958091D3
:1038C000B0008F7703C08091B0008F7D8093B000EF
:1038D0000895CF93DF9390E0FC01E550FF4F4491B2
:1038E000FC01E15FFE4F8491882341F190E0880F55
:1038F000991FFC01E95CFE4F25913491D901835D4C
:103900009E4FFC0185919491C82FD92F9FB7F894B1
:103910008C91611106C0409584238C938881842307
:1039200008C0623041F4242F209582238C93888133
:10393000842B888302C0842B8C939FBFDF91CF910F
:1039400008950F931F93CF93DF931F92CDB7DEB7E8
:10395000282F30E0F901E951FF4F8491F901E5503A
:10396000FF4F1491F901E15FFE4F04910023D1F064
:10397000882321F069830E943F1C6981E02FF0E0D9
:10398000EE0FFF1FE35DFE4F85919491DC019FB721
:10399000F8948C91611103C01095812301C0812B93
:1039A0008C939FBF0F90DF91CF911F910F9108953E
:1039B0008F929F92AF92BF92CF92DF92EF92FF923F
:1039C0000F931F93CF93DF9390E0FC01E550FF4FDF
:1039D000D491FC01E15FFE4F7491611102C0C0E01F
:1039E00001C0CD2FDA01C901BF70672F70E0660FEB
:1039F000771F6D5D7E4F812C912C5401FB01059149
:103A0000149110C0C12CD12C7601C394C80CD91CC0
:103A1000EA1CFB1C88169906AA06BB0609F44BC0D3
:103A200046015701F801E081ED23EC1759F310C06E
:103A3000C12CD12C7601C394C80CD91CEA1CFB1CE8
:103A400088169906AA06BB06B1F14601570103C0C4
:103A5000FB0105911491F801E081ED23EC13E8CF0F
:103A600088199909AA09BB0920E030E0A901FB01E6
:103A70006591749109C0281739074A075B07D9F087
:103A80002F5F3F4F4F4F5F4FFB01E081ED23EC175E
:103A900091F3A5E1B0E00E94D7238B019C01005F68
:103AA0001F4F2F4F3F4F84E0369527951795079569
:103AB0008A95D1F703C000E010E09801B801C90170
:103AC000DF91CF911F910F91FF90EF90DF90CF90FA
:103AD000BF90AF909F908F9008951F920F920FB656
:103AE0000F9211242F933F938F939F93AF93BF9384
:103AF0008091AC079091AD07A091AE07B091AF0750
:103B00003091B407232F2D5F2D3720F40196A11D8E
:103B1000B11D05C0232F2A570296A11DB11D209368
:103B2000B4078093AC079093AD07A093AE07B09312
:103B3000AF078091B0079091B107A091B207B09103
:103B4000B3070196A11DB11D8093B0079093B107F3
:103B5000A093B207B093B307BF91AF919F918F919C
:103B60003F912F910F900FBE0F901F9018950F93BC
:103B70001F938FB7F8940091AC071091AD07209177
:103B8000AE073091AF078FBFB801C9011F910F91E8
:103B900008950F931F939FB7F8940091B007109169
:103BA000B1072091B2073091B30786B5A89B06C034
:103BB0008F3F21F00F5F1F4F2F4F3F4F9FBF322F7F
:103BC000212F102F0027080F111D211D311D42E04C
:103BD000000F111F221F331F4A95D1F7B801C901E9
:103BE0001F910F910895CF92DF92EF92FF92CF93A2
:103BF000DF936B017C010E94C91DEB010EC00E9486
:103C0000C91D6C1B7D0B683E734038F081E0C81AFB
:103C1000D108E108F108C851DC4FC114D104E10416
:103C2000F10469F7DF91CF91FF90EF90DF90CF9093
:103C30000895789484B5826084BD84B5816084BD24
:103C400085B5826085BD85B5816085BDEEE6F0E015
:103C5000808181608083E1E8F0E010828081826071
:103C60008083808181608083E0E8F0E080818160F2
:103C70008083E1EBF0E0808184608083E0EBF0E022
:103C8000808181608083EAE7F0E0808184608083C6
:103C90008081826080838081816080838081806870
:103CA00080831092C10008958E3008F08E50877086
:103CB00020910E0140E4249F90011124822B8093D7
:103CC0007C0080917A00806480937A0080917A00F1
:103CD00086FDFCCF2091780030917900932F80E011
:103CE000AC01422B9A01C90108954F925F926F92E5
:103CF0007F92AF92BF92CF92DF92EF92FF920F939B
:103D00001F93CF93DF93CDB7DEB729013A01621B32
:103D1000730B840B950B29893A894B895C892A1985
:103D20003B094C095D09298B3A8B4B8B5C8B9B01C2
:103D3000AC0169897A898B899C890E94EA23E418FD
:103D4000F50806091709A80197010E943C242A0DCD
:103D50003B1D4C1D5D1DB901CA01DF91CF911F9123
:103D60000F91FF90EF90DF90CF90BF90AF907F903A
:103D70006F905F904F9008950E94191E0E94060553
:103D8000C8E9DFE10E9456092097E1F30E94981FDD
:103D9000F9CFFC0184859585FC01E05CFF4F208113
:103DA0003181FC01EE5BFF4F80819181281B390B33
:103DB0002F733327C9010895FC0184859585FC0183
:103DC000E05CFF4F40815181FC01EE5BFF4F2081A1
:103DD00031814217530741F00190F081E02DE80F47
:103DE000F91F208130E002C02FEF3FEFC901089595
:103DF000FC0184859585FC01E05CFF4F4081518189
:103E0000FC01EE5BFF4F208131814217530781F0A7
:103E1000A081B181A80FB91F8C91208131812F5FC2
:103E20003F4F2F73332731832083282F30E002C088
:103E30002FEF3FEFC9010895FC0186859785FC01AE
:103E4000E05CFF4FDC01AE5BBF4F408151812D91A3
:103E50003C91119742175307C1F70895CF93DF9311
:103E6000FC0186859785DC01A05CBF4F2D913C91BC
:103E700011972F5F3F4F2F733327EC01CE5BDF4F3E
:103E80004881598124173507D9F30D90BC91A02D95
:103E9000A80FB91F6C93A685B785A05CBF4F11967C
:103EA0003C932E93A689B7892C9181E090E0058CF4
:103EB00002C0880F991F0A94E2F7282B2C9381E007
:103EC00090E0DF91CF91089508951F920F920FB661
:103ED0000F9211242F933F934F938F939F93EF93C0
:103EE000FF934091C600809158089091590801961F
:103EF0008F73992720915A0830915B088217930796
:103F000059F0E0915808F0915908E85EF74F408366
:103F10009093590880935808FF91EF919F918F914A
:103F20004F913F912F910F900FBE0F901F901895BA
:103F300085EB97E00E94C91E892B11F00C94641F39
:103F400008951F920F920FB60F9211242F933F9353
:103F50008F939F93EF93FF9320911408309115084E
:103F600080911608909117082817390731F480912D
:103F7000C1008F7D8093C10014C0E0911608F091BC
:103F80001708EC52F84F208180911608909117087D
:103F900001968F73992790931708809316082093A2
:103FA000C600FF91EF919F918F913F912F910F90BC
:103FB0000FBE0F901F901895CF92DF92EF92FF9255
:103FC000CF93DF93EC016A017B01411581EE580725
:103FD00061057105F9F0EC89FD8981E090E00E8CB6
:103FE00002C0880F991F0A94E2F7808360E079E0AD
:103FF0008DE390E0A70196010E941A242150310917
:10400000410951095695479537952795211580E126
:10401000380798F0EC89FD89108260E874E88EE139
:1040200090E0A70196010E941A242150310941090C
:1040300051095695479537952795E889F989308331
:10404000EA89FB892083EE89FF89408181E090E045
:104050009C010A8C02C0220F331F0A94E2F7422B04
:104060004083EE89FF8940819C010B8C02C0220FA6
:10407000331F0A94E2F7422B4083EE89FF89408187
:104080009C010C8C02C0220F331F0A94E2F7422BD2
:104090004083EE89FF8920810D8C02C0880F991F13
:1040A0000A94E2F7809582238083DF91CF91FF907D
:1040B000EF90DF90CF9008951092B8071092B70755
:1040C00088EE93E0A0E0B0E08093B9079093BA0740
:1040D000A093BB07B093BC0788E692E09093B60725
:1040E0008093B50788E198E09093C2078093C10759
:1040F00084ED97E09093C4078093C30785EC90E02C
:104100009093C6078093C50784EC90E09093C8070E
:104110008093C70780EC90E09093CA078093C9070B
:1041200081EC90E09093CC078093CB0786EC90E0F5
:104130009093CE078093CD0784E08093CF0783E0F0
:104140008093D00787E08093D10785E08093D207E2
:1041500081E08093D3070895CF92DF92EF92FF9290
:104160000F931F93CF93DF936C01EB017A01E60E5F
:10417000F71E00E010E00BC06991D601ED91FC91B3
:104180000190F081E02DC6010995080F191FCE1589
:10419000DF0591F7C801DF91CF911F910F91FF903B
:1041A000EF90DF90CF9008955058BB27AA270ED0EC
:1041B000FCC1EDD130F0F2D120F031F49F3F11F489
:1041C0001EF4BDC10EF4E095E7FBB3C1E92FFED1AB
:1041D00080F3BA17620773078407950718F071F424
:1041E0009EF516C20EF4E0950B2EBA2FA02D0B01F2
:1041F000B90190010C01CA01A0011124FF27591B2C
:1042000099F0593F50F4503E68F11A16F040A22F31
:10421000232F342F4427585FF3CF469537952795A2
:10422000A795F0405395C9F77EF41F16BA0B620BA1
:10423000730B840BBAF09150A1F0FF0FBB1F661FE8
:10424000771F881FC2F70EC0BA0F621F731F841F2B
:1042500048F4879577956795B795F7959E3F08F051
:10426000B3CF9395880F08F09927EE0F9795879510
:1042700008958DD158F080E891E009F49EEF8ED139
:1042800028F040E851E059F45EEF09C058C1C0C1C0
:10429000E92FE0789BD168F3092E052AC1F3261790
:1042A00037074807590738F00E2E07F8E02569F060
:1042B000E025E0640AC0EF6307F8009407FADB0129
:1042C000B9019D01DC01CA01AD01EF9347D06DD169
:1042D0000AD05F91552331F02BED3FE049E450FDCA
:1042E00049EC63CF0895DF93DD27B92FBF7740E80E
:1042F0005FE31616170648075B0710F4D92F93D112
:104300009F938F937F936F933AD2EAEBF0E01AD1A9
:104310004CD12F913F914F915F9198D1DD2349F07E
:104320009058A2EA2AED3FE049EC5FE3D0785D27A0
:104330004DDFDF913AC1D9D008F481E008950CD067
:1043400034C12CD140F023D130F021F45F3F19F07B
:10435000F0C051115EC1F3C039D198F39923C9F36C
:104360005523B1F3951B550BBB27AA27621773077B
:10437000840738F09F5F5F4F220F331F441FAA1F2F
:10438000A9F333D00E2E3AF0E0E830D091505040EF
:10439000E695001CCAF729D0FE2F27D0660F771F9D
:1043A000881FBB1F261737074807AB07B0E809F07F
:1043B000BB0B802DBF01FF2793585F4F2AF09E3F14
:1043C000510568F0B6C025C15F3FECF3983EDCF3C1
:1043D000869577956795B795F7959F5FC9F7880F8D
:1043E000911D9695879597F90895E1E0660F771FDF
:1043F000881FBB1F621773078407BA0720F0621B70
:10440000730B840BBA0BEE1F88F7E095089504D068
:104410006894B111FEC00895E1D088F09F5790F0E4
:10442000B92F9927B751A0F0D1F0660F771F881FD9
:10443000991F1AF0BA95C9F712C0B13081F0E8D0CF
:10444000B1E00895E5C0672F782F8827B85F39F06D
:10445000B93FCCF3869577956795B395D9F73EF438
:1044600090958095709561957F4F8F4F9F4F0895E0
:10447000E89409C097FB3EF49095809570956195FE
:104480007F4F8F4F9F4F9923A9F0F92F96E9BB27B4
:104490009395F695879577956795B795F111F8CF30
:1044A000FAF4BB0F11F460FF1BC06F5F7F4F8F4F9B
:1044B0009F4F16C0882311F096E911C0772321F091
:1044C0009EE8872F762F05C0662371F096E8862F29
:1044D00070E060E02AF09A95660F771F881FDAF780
:1044E000880F9695879597F90895990F0008550FAD
:1044F000AA0BE0E8FEEF16161706E807F907C0F06A
:1045000012161306E407F50798F0621B730B840B71
:10451000950B39F40A2661F0232B242B252B21F44B
:1045200008950A2609F4A140A6958FEF811D811DEB
:10453000089597F99F6780E870E060E008959FEF25
:1045400080EC0895DF93CF931F930F93FF92EF9228
:10455000DF927B018C01689405C0DA2EEF0176D0E2
:10456000FE01E894A5912591359145915591AEF3C1
:10457000EF012CDEFE019701A801DA9479F7DF90B4
:10458000EF90FF900F911F91CF91DF91089500243C
:104590000A941616170618060906089500240A94A8
:1045A00012161306140605060895092E0394000C2E
:1045B00011F4882352F0BB0F40F4BF2B11F460FFBD
:1045C00004C06F5F7F4F8F4F9F4F089557FD9058E6
:1045D000440F551F59F05F3F71F04795880F97FBC7
:1045E000991F61F09F3F79F0879508951216130681
:1045F0001406551FF2CF4695F1DF08C016161706B0
:104600001806991FF1CF86957105610508940895E4
:10461000E894BB2766277727CB0197F9089565DFD4
:1046200008F48FEF08959B01AC0160E070E080E832
:104630009FE385CE0BD0B9CFAADF28F0AFDF18F00B
:10464000952309F076CF7BCF1124E3CFBFDFA0F312
:10465000959FD1F3950F50E0551F629FF001729F17
:10466000BB27F00DB11D639FAA27F00DB11DAA1F36
:10467000649F6627B00DA11D661F829F2227B00D83
:10468000A11D621F739FB00DA11D621F839FA00D0E
:10469000611D221F749F3327A00D611D231F849F5E
:1046A000600D211D822F762F6A2F11249F575040B5
:1046B0008AF0E1F088234AF0EE0FFF1FBB1F661F50
:1046C000771F881F91505040A9F79E3F510570F009
:1046D00030CF9FCF5F3FECF3983EDCF38695779524
:1046E0006795B795F795E7959F5FC1F7FE2B880F04
:1046F000911D9695879597F9089511F40EF41FCFA3
:1047000041C06CDFD0F39923D9F3CEF39F57550BFB
:1047100087FF46D00024A0E640EA900180585695D5
:10472000979528F4805C660F771F881F20F0261766
:104730003707480730F4621B730B840B202931299B
:104740004A2BA69517940794202531254A2758F718
:10475000660F771F881F20F026173707480730F4A9
:10476000620B730B840B200D311D411DA09581F749
:10477000B901842F9158880F9695879508959B01CC
:10478000AC0158CF9F3F31F0915020F48795779539
:104790006795B795880F911D9695879597F9089518
:1047A00091505040660F771F881FD2F708950E94DE
:1047B0005E24A59F900DB49F900DA49F800D911D28
:1047C00011240895B7FF0C94D7230E94D723821B8E
:1047D000930B0895DB018F939F930E94D723BF9182
:1047E000AF91A29F800D911DA39F900DB29F900D40
:1047F00011240895991B79E004C0991F961708F0B9
:10480000961B881F7A95C9F78095089597FB072E08
:1048100016F4009407D077FD09D00E946A2407FCA3
:1048200005D03EF4909581959F4F089570956195C0
:104830007F4F0895A1E21A2EAA1BBB1BFD010DC0DC
:10484000AA1FBB1FEE1FFF1FA217B307E407F50740
:1048500020F0A21BB30BE40BF50B661F771F881F1C
:10486000991F1A9469F760957095809590959B01B2
:10487000AC01BD01CF010895052E97FB16F40094FD
:1048800007D057FD0DD00E941A2407FC09D07EF4F2
:1048900090958095709561957F4F8F4F9F4F0895AC
:1048A00050954095309521953F4F4F4F5F4F08955C
:1048B000EE0FFF1F0590F491E02D0994A29FB00127
:1048C000B39FC001A39F01D0B29F700D811D112421
:1048D000911D0895AA1BBB1B51E107C0AA1FBB1F56
:1048E000A617B70710F0A61BB70B881F991F5A957C
:1048F000A9F780959095BC01CD0108950F931F9362
:10490000CF93DF938230910510F482E090E0E09144
:104910005E08F0915F0820E030E0C0E0D0E023C006
:104920004081518148175907A8F04817590761F489
:1049300082819381209719F09B838A832EC0909364
:104940005F0880935E0829C02115310529F04217C0
:10495000530710F0A90102C0BE01DF0102811381DB
:10496000EF019A01F8013097D9F62115310509F1C7
:10497000281B390B2430310590F412968D919C91AF
:1049800013976115710521F0FB019383828304C0A5
:1049900090935F0880935E08FD01329644C0FD014C
:1049A000E20FF31F81939193225031092D933C9391
:1049B0003AC020915C0830915D08232B41F420918E
:1049C00002013091030130935D0820935C0820912F
:1049D0000001309101012115310541F42DB73EB799
:1049E0004091040150910501241B350BE0915C08B6
:1049F000F0915D08E217F307A0F42E1B3F0B281778
:104A0000390778F0AC014E5F5F4F2417350748F047
:104A10004E0F5F1F50935D0840935C088193919304
:104A200002C0E0E0F0E0CF01DF91CF911F910F9144
:104A30000895EF92FF920F931F93CF93DF93009708
:104A400009F48EC0DC01129713961C921E921297E5
:104A5000E0905E08F0905F08E114F10489F42D9174
:104A60003C911197280F391F80915C0890915D0847
:104A70008217930789F5B0935D08A0935C0870C016
:104A8000E70120E030E001C0EA01CA17DB0738F493
:104A90004A815B819E0141155105B1F722C0AC01ED
:104AA00042505109FA01D383C28300811181BC01B4
:104AB000600F711F6C177D0761F468817981600F49
:104AC000711F6E5F7F4F718360836A817B81738307
:104AD00062832115310529F4B0935F08A0935E0825
:104AE0003FC0F901B383A283E90149915991C40FF1
:104AF000D51FAC17BD0771F4DC019E918E91840F18
:104B0000951F02969183808312968D919C911397A5
:104B100093838283A0E0B0E002C0D7017C01F7015B
:104B2000828193810097C9F7C70102962081318164
:104B3000820F931F20915C0830915D082817390778
:104B400079F4109729F410925F0810925E0804C05F
:104B500013961C921E921297F0925D08E0925C08E8
:104B6000CDB7DEB7E6E00C94D426A0E0B0E0EBEBE6
:104B7000F5E20C94B226EC01009729F4CB010E94D7
:104B80007E24EC01B4C0DC01A60FB71FFC013297F4
:104B9000AE17BF0718F4C0E0D0E0A9C000811181B2
:104BA00006171707B0F00530110508F4A0C0C801BA
:104BB00004978617970708F49AC002501109061B3C
:104BC000170B0D931D9371836083CD010E941925EE
:104BD0008EC06B01C01AD10A7C01E00EF11EE0917B
:104BE0005E08F0915F0820E030E080E090E048C08F
:104BF000EE15FF05D1F580809180540142E0A40EAE
:104C0000B11CAC14BD0488F17401EC18FD086701F7
:104C100022E0C20ED11C9E012250310945E0C4168B
:104C2000D10478F04281538113965C934E9312978E
:104C30001196FC92EE92F901718360833A2F2B2F2B
:104C400009C00E5F1F4F080D191DD9010D931C934C
:104C500032812381009721F0FC013283238347C0F6
:104C600030935E0820935F0842C0808191812817AD
:104C7000390708F49C0152814381CF01E52FF42FBD
:104C8000309709F0B5CF80915C0890915D088E1542
:104C90009F05F1F426173707D8F480910001909111
:104CA0000101009741F48DB79EB720910401309126
:104CB0000501821B930BA817B90708F06CCFB093BE
:104CC0005D08A0935C08FE013297718360830FC07A
:104CD000CB010E947E247C01009709F45CCFA801DF
:104CE000BE010E949B26CE010E941925E701CE013C
:104CF000CDB7DEB7ECE00C94CE26FC0188279927CF
:104D0000E89421912032E9F3293010F02E30C8F3D5
:104D10002B3241F02D3239F4689404C00E94A4264D
:104D2000820F911D219120532A30C0F31EF49095DB
:104D300081959F4F0895FB01DC0102C001900D9207
:104D400041505040D8F708957AE0979F902D879F63
:104D5000802D910D112408952F923F924F925F92D2
:104D60006F927F928F929F92AF92BF92CF92DF927B
:104D7000EF92FF920F931F93CF93DF93CDB7DEB7E0
:104D8000CA1BDB0B0FB6F894DEBF0FBECDBF099474
:104D90002A88398848885F846E847D848C849B84CB
:104DA000AA84B984C884DF80EE80FD800C811B81D9
:104DB000AA81B981CE0FD11D0FB6F894DEBF0FBE08
:104DC000CDBFED01089511E0C8E4D1E004C0FE01BB
:104DD0000E945A242296CA34D107C9F7F894FFCF0B
:104DE0000000600820000F000A000900080001739D
:104DF00074645F6D7367732F54696D6500726F73B0
:104E000073657269616C5F6D7367732F546F70693E
:104E100063496E666F00726F7373657269616C5F70
:104E20006D7367732F4C6F67007374645F6D736786
:104E3000732F55496E743136006E65772067707335
:104E400020646174610061626F757420746F2073F7
:104E500070696E00736572766F3100736572766F7C
:104E6000320070776D5F6475726174696F6E006C8B
:104E700065616B0068656164696E67006770735F88
:104E80006C6174006770735F6C6F6E00726F737328
:104E9000657269616C5F6D7367732F5265717565BB
:104EA0007374506172616D0000000000CB02A001BC
:104EB000E50100000000F1021E019D01000000005C
:104EC000CF00F1001B0100000000EB01F401FF0125
:104ED0000000000002021502180200000000820714
:104EE000000000007E040000000029025303E801D6
:104EF0004750524D43004750474741004E004E4EE9
:104F00004500454E45004553450053534500530069
:104F10005353570057535700574E57004E4E5700A4
:104F200000007A4400000000A215AC200915BC1452
:104F3000DF14FA1400000000AD197F1951195A1935
:104F40006E197E19000000002E1FAC20C91EF81E2D
:044F5000DC1E1C1F28
:00000001FF
