:100000000C948E000C94B6000C94B6000C9418134B
:100010000C943C130C9460130C94B6000C94B60032
:100020000C94B6000C94B6000C94B6000C943814E2
:100030000C94B6000C94B6000C94B6000C94B60068
:100040000C94DF190C94B6000C94B61B0C94F21BA4
:100050000C94B6000C94B6000C94B6000C94B60048
:100060000C9416180C94B6002C0D3F0D4F0D620D1C
:100070006A0D980DA00DAB0DB30DBD0DBD0DBD0DE1
:10008000BD0DBD0DBD0DBD0DBD0DBD0DBD0DBD0D20
:10009000BD0DBD0DBD0DBD0DBD0DBD0DBD0DBD0D10
:1000A000BD0DBD0DBD0DBD0D2C0D380D3F0D4F0D02
:1000B000620D6A0D7D0D850D8D0D0000000700029B
:1000C000010000030406000000000000000001021F
:1000D00004081020408001020408102001020408D6
:1000E00010200404040404040404020202020202B4
:1000F000030303030303000000002300260029007C
:1001000000000000250028002B0000000000240053
:1001100027002A00C0093317AD1C870A11241FBE0F
:10012000CFEFD8E0DEBFCDBF12E0A0E0B1E0E0E16C
:10013000F3E402C005900D92AE36B107D9F718E08E
:10014000AEE6B2E001C01D92AA35B107E1F711E0B9
:10015000CAE1D1E004C02297FE010E94F21EC43120
:10016000D107C9F70E940D1B0C947B210C94000051
:10017000FC01DB0132812381948185813C931196BE
:100180002C93119712969C93129713968C93139716
:10019000368127819085818514963C931497159616
:1001A0002C93159716969C93169717968C9388E028
:1001B00090E00895FB012181428150E060E070E011
:1001C000BA0155274427522B2081422B2381722BC1
:1001D000DC0112964D935D936D937C931597258169
:1001E000468150E060E070E0BA0155274427522B69
:1001F0002481422B2781722BFC0146835783608721
:10020000718788E090E008958EE091E00895AF92C4
:10021000BF92CF92DF92EF92FF920F931F93CF93F3
:10022000DF935C01DB0111969C91119780E02C918A
:10023000822BF5019383828312964D915D916D918E
:100240007C911597ED0126968A019B010A5F1F4F4D
:100250002F4F3F4F05C0F990CE010297FC01F0826D
:100260006E01CA1ADB0AE12CF12CC016D106E20697
:10027000F30688F3ED01C40FD51F1D82CD0105964D
:10028000F50195838483ED01C40FD51F0E811F8175
:1002900028853985EA012A96CD018C0F9D1FAE0174
:1002A000662757FD6095762F400F511F621F731F01
:1002B00009C0FC01D190CF017F01F2E0EF1AF108F3
:1002C000F701D0826C01CA1ADB0AE12CF12CC416AA
:1002D000D506E606F70668F30C0F1D1FCD01800F4B
:1002E000911F0197FC0110822197CA0FDB1FF501B6
:1002F000D783C683C801DF91CF911F910F91FF90E3
:10030000EF90DF90CF90BF90AF9008958CE191E097
:100310000895AF92BF92CF92DF92EF92FF920F9328
:100320001F93CF93DF935C01FB018081D50112966F
:100330008C934181528163817481DF0115968A011A
:100340009B010B5F1F4F2F4F3F4F05C0FD90CD010D
:100350000297EC01F8826D01CE1ADF0AE12CF12C34
:10036000C016D106E206F30688F3DF01A40FB51F1D
:1003700014961C923496D5011496FC93EE93139721
:100380004B5F5F4FCA01DF91CF911F910F91FF909B
:10039000EF90DF90CF90BF90AF90089585E391E00C
:1003A000089585EA91E00895FC0122818381FB0193
:1003B0002083818382E090E00895FB01318120E079
:1003C0004081242BFC013383228382E090E0089556
:1003D00088E491E008950F931F93CF93DF93EC018E
:1003E0008C010A5F1F4FC8010E94DD01EA85FB8571
:1003F000C801DF91CF911F910F91099481E090E0A6
:10040000089588E491E00895FC016281738181EB95
:1004100095E00C94CC15FC016281738184EB95E02E
:100420000C94CC15BF92CF92DF92EF92FF920F9374
:100430001F93CF93DF93EC017B018A81FB018083C3
:10044000118212821382379620E084E090E01DC072
:10045000AF81B88534E0239FA00DB11D11246C91AC
:1004600011965C91119712964C91129713963C91AC
:10047000DF0113976C93DF0112975C93DF011197F3
:100480004C93308304962F5F34963A81231700F300
:100490002985F701E80FF91F208311821282138248
:1004A000049620E016C0AE85BF8534E0239FA00DE2
:1004B000B11D11246C9111965C91119712964C917B
:1004C000129713963C916083518342833383049641
:1004D0002F5F3985F701E80FF91F231720F32889CB
:1004E0002083118212821382DC011496B12C2EC05B
:1004F0006701CA0EDB1E9B898C89E92FF82FEB0D53
:10050000F11DEB0DF11D60817181CB01FC010190AA
:100510000020E9F7AF0141505109481B590B8A01EE
:1005200020E030E0F60100831183228333838D01C4
:100530000C5F1F4F9701200F311FC9010E9433210B
:10054000F601A081B181A00FB11FB3948889B816BC
:1005500078F2CD01DF91CF911F910F91FF90EF9035
:10056000DF90CF90BF900895CF93DF93FC01EB0114
:100570008281888363817481DB01FD010190002009
:10058000E9F73197EA1BFB0BCF01A0E0B0E08983CC
:100590009A83AB83BC839E012B5F3F4FAF01C901A0
:1005A0000E94332129813A812B5F3F4FC901DF919E
:1005B000CF910895CF92DF92EF92FF920F931F9306
:1005C000CF93DF937C01EB01DC0112969C91129793
:1005D00013968C9113979883898314966C91149732
:1005E00015967C91DB01FD0101900020E9F7319720
:1005F000EA1BFB0B8F0120E030E00A831B832C8376
:100600003D839E012A5F3F4FAF01C9010E94332104
:100610008A819B816C01B6E0CB0ED11CCC0EDD1E15
:10062000F70166817781DB01FD0101900020E9F788
:100630003197EA1BFB0B8F0120E030E0D6010D93D0
:100640001D932D933C9313978C01065F1F4FC00F92
:10065000D11FAF01CE010E943321F60120813181EB
:10066000200F311FC901DF91CF911F910F91FF9092
:10067000EF90DF90CF9008954F925F927F928F928C
:100680009F92AF92BF92CF92DF92EF92FF920F9321
:100690001F93CF93DF93EC018B01DB01FC908A81E8
:1006A0008F1550F4B4E0FB9EB00111248F81988522
:1006B0000E944D208F839887FA82F8013796F12C9B
:1006C000B4E0CB2ED12C9E012D5F3F4F2FC0408137
:1006D00050E060E070E0742F662755274427DF0163
:1006E00013978C91482BDF0112978C91582BDF01C7
:1006F00011978C91682B4B835C836D837E8384E0A0
:10070000C80ED11C4F815885A4E0FA9E400D511DA2
:100710001124D9018D909D90AD90BC90DA018D92FD
:100720009D92AD92BC921397F39434968A81F816F9
:1007300070F2F801EC0DFD1DF08089858F1550F4E5
:10074000B4E0FB9EB00111248E859F850E944D2050
:100750008E879F87E4E0CE0ED11CF986F12C5E01D6
:10076000FAE0AF0EB11C2BC011968C911197129626
:100770004C91129750E060E070E0BA015527442791
:10078000582B8C91482B13968C91782B4A875B873A
:100790006C877D8784E0C80ED11C2E853F85A4E040
:1007A000FA9E200D311D1124F50180819181A281D5
:1007B000B381F90180839183A283B383F394898504
:1007C000D801AC0DBD1DF81678F2FC9088898F1504
:1007D00050F46F2D70E0660F771F8B899C890E9403
:1007E0004D208B8B9C8B96012C5F3F4FF88A712C90
:1007F0002E01F1E14F0E511C44C0F801E20FF31F2E
:10080000C080D180E280F380C9010496F801E80F2E
:10081000F91FAC01662757FD6095762F4C0D5D1DC5
:100820006E1D7F1D06C0B1909F0122503109D90174
:10083000BC929F01201B310B4901A12CB12C8416C5
:100840009506A606B70678F3C80ED91EF801EC0D7A
:10085000FD1D31971082AC0141505109400F511FCD
:100860005A8B498B96019B898C89E92FF82FE70DCC
:10087000F11DE70DF11DD2018D919C919183808333
:1008800073948889781608F4B8CFC901DF91CF91A5
:100890001F910F91FF90EF90DF90CF90BF90AF909E
:1008A0009F908F907F905F904F900895CF93DF93AC
:1008B000FC0186819781EC01A881B9814281538135
:1008C00064817581ED91FC91DF91CF910994CF9274
:1008D000DF92EF92FF920F931F93CF93DF93EC0180
:1008E000162F8C81882309F446C0DA01ED91FC9122
:1008F000BE01655F7F4F0190F081E02DCA0109952F
:100900002FEF2D832E831F83188689871A8622E076
:1009100030E040E050E0BC016B5F7F4F07C0E20F6A
:10092000F31FE5814E0F511D2F5F3F4FFE016217F0
:100930007307ACF7E80FF91F409543878C01095FF7
:100940001F4FCA80DB807E01B5E0EB0EF11CE70192
:100950000BC0F601808191816991DC01ED91FC91E0
:100960000190F081E02D0995CE018E199F09801725
:1009700091077CF302C000E010E0C801DF91CF9145
:100980001F910F91FF90EF90DF90CF900895AC01F1
:1009900020E030E0FA01E75BFD4F0190F081E02DAF
:1009A000EF2BA1F4A901440F551F480F591FFA015D
:1009B000E75BFD4F7183608323583F4FFB01358315
:1009C000248308969783868381E008952F5F3F4FA5
:1009D0004E5F5F4F29313105E9F680E0089540917F
:1009E000DA025091DB026091DC027091DD028091AD
:1009F000D8029091D9020E942D1C10928405109269
:100A00008305109286051092850510928A05109232
:100A10008905109288051092870510928E05109214
:100A20008D0560E080910C010E94701960E080915A
:100A300006010E94701961E08DE00E9470196091BA
:100A40000A0170910B0184EB95E00E94931560916F
:100A500008017091090181EB95E00E94931586EEE3
:100A600096E00E94F41642E063E087EB95E00E9476
:100A7000921187EB95E00E949D0F80E090E0A2E04C
:100A8000B4EC8093DB059093DC05A093DD05B09377
:100A9000DE0580E090E8AEE0B4EC8093DF05909353
:100AA000E005A093E105B093E20580E090E8A0E4C2
:100AB000B4EC8093E3059093E405A093E505B0932F
:100AC000E60580E090E0A7E0B4E48093CF05909342
:100AD000D005A093D105B093D20580E090E0AAEFB5
:100AE000B3E48093D3059093D405A093D505B09338
:100AF000D60580E090E0A4E3B3E48093D70590931B
:100B0000D805A093D905B093DA056EE872E086EDBA
:100B100092E00E94C7046EE772E086ED92E00E94C8
:100B2000C70466E872E086ED92E00E94C70466E7BB
:100B300072E086ED92E00E94C7046EE672E086EDF8
:100B400092E00E94C70480918D0590918E058931B5
:100B50009105ACF4FC01EE0FFF1FEF5AFA4F22EAA9
:100B600032E0318320839C012C593F4F3093A50202
:100B70002093A402019690938E0580938D05809119
:100B80008D0590918E0589319105ACF4FC01EE0F35
:100B9000FF1FEF5AFA4F26E932E0318320839C0190
:100BA0002C593F4F309399022093980201969093CD
:100BB0008E0580938D0562E370E080E090E00C94F8
:100BC000651A0F931F93CF93DF93CDB7DEB72A97A4
:100BD0000FB6F894DEBF0FBECDBF8C0189ED91E05A
:100BE0009A8389831B821C821D821E821F82188623
:100BF00019861A86AE014F5F5F4F6AE070E0C80148
:100C000008960E9467040E94291AF801EB5DFE4FC6
:100C100060837183828393832A960FB6F894DEBF34
:100C20000FBECDBFDF91CF911F910F9108958F928D
:100C30009F92AF92BF92CF92DF92EF92FF920F936B
:100C40001F93CF93DF93CDB7DEB728970FB6F894F5
:100C5000DEBF0FBECDBF8C0181E0D8011C968C9306
:100C60008FEC91E09A83898378015801B2E3AB0E4F
:100C7000B11C68014801E8E08E0E911CF601E75BAB
:100C8000FD4F0190F081E02D3097D9F0848195815E
:100C90009C838B83808191819E838D8382819381CC
:100CA000DC01ED91FC910480F581E02D0995988798
:100CB0008F83AE014F5F5F4F60E070E0C4010E9420
:100CC0006704B2E0CB0ED11CCA14DB04B9F6085F8E
:100CD0001F4FF701E558FD4FA081B1811097F1F04A
:100CE00012968D919C9113979C838B8314968D9172
:100CF0009C9115979E838D83ED91FC9111970480B3
:100D0000F581E02DCD01099598878F83AE014F5F66
:100D10005F4F61E070E0C8010E946704E2E0EE0E00
:100D2000F11CEA14FB04A9F628960FB6F894DEBF6E
:100D30000FBECDBFDF91CF911F910F91FF90EF902C
:100D4000DF90CF90BF90AF909F908F9008954F927B
:100D50005F926F927F92AF92BF92CF92DF92EF92AB
:100D6000FF920F931F93CF93DF93CDB7DEB72A97F0
:100D70000FB6F894DEBF0FBECDBF8C015B0189EDCD
:100D800091E09A8389831B821C821D821E821F82AE
:100D9000188619861A860E94291A6B017C01F801AF
:100DA000EB5DFE4F80819181A281B381C81AD90A7F
:100DB000EA0AFB0AB501CE0101960E94DA0088EE2C
:100DC000482E83E0582E612C712CC701B601A30177
:100DD00092010E94B21E69017A019B01AC018B81D4
:100DE0009C81AD81BE818C0D9D1DAE1DBF1D8B8371
:100DF0009C83AD83BE8360E472E48FE090E00E9448
:100E0000821ECF80D884E984FA84C60ED71EE81EDD
:100E1000F91ECF82D886E986FA860E94291A5801DF
:100E200027EDA21A2EEFB20ACB80DC80ED80FE8087
:100E3000E1E0CE1AD108E108F108A30192010E9475
:100E4000B21E29013A019B01AC01C418D508E6087D
:100E5000F708F501C082D182E282F382F801E35DF6
:100E6000FE4FCF80D884E984FA8486E3D81A85E6D9
:100E7000E80A84ECF80A60E472E48FE090E00E94F3
:100E8000821EC61AD70AE80AF90AC082D182E28213
:100E9000F382BF01C5010E942A160E94291AF80197
:100EA000E354FD4F60837183828393832A960FB648
:100EB000F894DEBF0FBECDBFDF91CF911F910F9190
:100EC000FF90EF90DF90CF90BF90AF907F906F90AA
:100ED0005F904F9008952F923F924F925F926F9242
:100EE0007F928F929F92AF92BF92CF92DF92EF92BA
:100EF000FF920F931F93CF93DF93CDB7DEB7609729
:100F00000FB6F894DEBF0FBECDBF988B8F870E94BF
:100F1000291A2B013C01EF85F889E354FD4F8081AC
:100F20009181A281B381A3019201281B390B4A0B45
:100F30005B0BDA01C901893F9A42A105B10520F096
:100F4000AF85B8891C961C92EF85F889E355FD4F53
:100F500080819181892B81F0AF85B889AF53BD4FD6
:100F60008D919D910D90BC91A02D84159505A605A0
:100F7000B70510F4118210822F843888BBE42B1A35
:100F8000BDEF3B0A0F85188903551D4FCF84D888C4
:100F9000EFE4CE1AEDEFDE0A8F849888FFEC8F1A0B
:100FA000FEEF9F0A2F8538892A533D4F3A832983C4
:100FB0004F8558894B535D4F5C834B832F85388910
:100FC00027543D4F3E832D834F85588943545D4FB1
:100FD00058874F83EF84F88851E5E51A5DEFF50AED
:100FE000AF84B8888DE4A81A8DEFB80A2F853889A8
:100FF0002F533D4F3A872987A30192012C5E3F4F23
:101000004F4F5F4F2B873C874D875E87AF85B889F1
:1010100012968D919C911397DC01ED91FC910680C5
:10102000F781E02D099597FDEBC0F10140815181D9
:10103000480F591F51834083D8012D913C91263090
:101040003105D1F4F50120813181EF85F889E20F76
:10105000F31FEF5CFE4F80832F5F3F4FD5012D9331
:101060003C93F70180819181019791838083892B43
:1010700069F687E090E04FC021153105A1F48F3F5C
:10108000910521F681E090E0F801918380832B8522
:101090003C854D855E85A985BA852D933D934D93FD
:1010A0005C931397B3CF2130310551F48F3F9105F5
:1010B00019F482E090E022C0D8011D921C92A6CFC4
:1010C0002230310561F4F6019183808323E030E022
:1010D000D8012D933C93F1019183808397CF2330E6
:1010E000310571F4982F8827D6012D913C911197E5
:1010F000280F391F2D933C9384E090E0F801ECCF4A
:101100002430310551F4D7018D939C93F501118260
:10111000108285E090E0D80117C025303105B9F480
:10112000982F8827F70120813181820F931F9183A7
:10113000808326E030E0D80111963C932E93892BD2
:1011400009F064CF87E090E08D939C935FCF2730C8
:10115000310509F05BCFCA0160E071E00E949E1E7C
:101160008F3F910509F048C0F60180819181009779
:10117000B1F48F8598890E94E1058F8598890E9436
:101180001706AD81BE814D925D926D927C92139750
:10119000EF81F88540825182628273822DC08A304D
:1011A000910531F4B4018F8598890E94A70624C067
:1011B0008430910551F4B40189819A810E943C03E5
:1011C00081E0AB81BC818C9317C084569109880F54
:1011D000991F2F853889820F931FFC01E558FD4F19
:1011E00080819181009741F0DC01ED91FC910190AB
:1011F000F081E02DB4010995F8011182108206CF2B
:10120000AF85B8891C968C911C978823F9F08D01C5
:1012100007541D4FF80180819181A281B381A30100
:101220009201281B390B4A0B5B0BDA01C901853C83
:101230009940A105B10550F08F8598890E94E1057C
:10124000D8014D925D926D927C92139760960FB685
:10125000F894DEBF0FBECDBFDF91CF911F910F91EC
:10126000FF90EF90DF90CF90BF90AF909F908F90C6
:101270007F906F905F904F903F902F900895CF9305
:10128000DF9300D000D01F92CDB7DEB780E696E0A6
:101290000E94C311682F8DEE95E00E94C50D81114B
:1012A00036C02CC06091B6027091B7028091B8022E
:1012B0009091B9026093B6027093B7028093B8021E
:1012C0009093B9020E94911D7093C1026093C00275
:1012D0006091B2027091B3028091B4029091B50214
:1012E0000E94911D7093BD026093BC0286E792E05C
:1012F0000E9456048EE692E00E94560487EB95E029
:101300000E945C1186ED92E00E946B0731C085EC73
:1013100091E09A83898381E08B8388E591E09D83C6
:101320008C83AE014F5F5F4F65E070E08EED92E021
:101330000E9467042EEA32E042EB52E066EB72E074
:101340008DEE95E00E94920E20E030E0A9016091C0
:10135000390270913A0280913B0290913C020E94C6
:10136000251D882309F49ECF60E070E0CB01A2CF59
:101370000F900F900F900F900F90DF91CF910895E5
:101380000F931F93CF93DF9320E042E063E080E66A
:1013900096E00E94D2138DEE95E00E948B0A87EBB7
:1013A00095E00E94120F84EB95E00E94F61481EB09
:1013B00095E00E94F61487EF91E09093D702809316
:1013C000D602E8EDF2E08FEA97E09183808380E037
:1013D00091EEA0E0B0E08093DA029093DB02A0935C
:1013E000DC02B093DD028DEF91E09093DF028093F9
:1013F000DE02F093E102E093E0021092E20283E069
:1014000092E090939D0580939C0542ED52E083EE1F
:1014100091E0FA01918380832EEC32E0F90191830F
:101420008083CAECD2E0998388839093C70280932B
:10143000C6029093C3028093C202AEEBB2E0119653
:101440009C938E93EAEBF2E0918380836DEE71E0E2
:101450007093A3026093A2029093A9028093A802C2
:101460000DE611E01093A7020093A6020BE012E034
:101470001093AD020093AC027093970260939602B2
:1014800090939D0280939C0284E791E090939B024D
:1014900080939A0284E092E09093A1028093A0024C
:1014A0008BE791E090938F0280938E02509391028C
:1014B0004093900288E891E090938702809386029F
:1014C00030938902209388028DE891E090937F0207
:1014D00080937E02D0938102C093800285E991E0DF
:1014E0009093770280937602B0937902A09378026A
:1014F0008DE991E090936F0280936E02F0937102F8
:10150000E0937002DF91CF911F910F91089580E6D3
:1015100096E00C9431140F931F93FC010FEF1FEF13
:1015200098010083118322833383108611861286EB
:1015300013864FEF59EC6AE97BE3408B518B628B4A
:10154000738B408F518F628F738F40A351A362A31F
:1015500073A340A751A762A773A740AB51AB62AB7F
:1015600073AB00AF11AF22AF33AFDC01A05CBF4F54
:101570008FEF90E08D939C93DF01AC5BBF4F0D9399
:101580001D932D933C931397DF01A45BBF4F0D93E5
:101590001D932D933C931397DF01AC5ABF4F1C92C0
:1015A000DF01AB5ABF4F1C92DF01AB59BF4F82E046
:1015B0008C93DF01AA59BF4F1C92DF01A959BF4F7D
:1015C0001C92DF01A859BF4F1C92DF01A759BF4FE2
:1015D0001D921D921D921C921397DF01A359BF4FBC
:1015E0001D921C92DF01A159BF4F1D921C92EA5A15
:1015F000FF4F10821F910F910895862F8154262F3F
:10160000332727FD3095863018F42753310908C059
:101610006156663018F42755310902C0205331094C
:10162000C9010895CF93FB0120E030E0A90114C067
:10163000AAE0B0E00E946F1E9B01AC018C2F99279D
:1016400087FD9095A92FB92F280F391F4A1F5B1FBF
:101650002053310941095109C1918C2F80538A309F
:1016600038F3B901CA01CF9108952F923F924F925A
:101670005F926F927F928F929F92AF92BF92CF9222
:10168000DF92EF92FF920F931F93CF93DF93EC01C2
:10169000CA5ADF4FBE010E94120B3B018C0124E6A7
:1016A00030E040E050E00E94B21E9B01AC01A0E19E
:1016B000B7E20E946F1E6B017C01FE018191982FA1
:1016C00090539A30D8F38E3231F5EF0188EE882EA0
:1016D00083E0982EA12CB12C9AE0292E312C412C9C
:1016E000512C14C0BB27A7FDB095D097A50194013C
:1016F0000E947A1EC60ED71EE81EF91EC501B4014F
:10170000A20191010E94B21E49015A01A9918A2F9A
:1017100080538A3038F3C701B60126E030E040E05C
:1017200050E00E94B21E69017A01B301C80124E6AB
:1017300030E040E050E00E94B21E60EA76E881E0CE
:1017400090E00E94821EC60ED71EE81EF91EB6014A
:10175000C701DF91CF911F910F91FF90EF90DF9024
:10176000CF90BF90AF909F908F907F906F905F9041
:101770004F903F902F900895FF920F931F93CF9318
:10178000DF93EC01CA5ADF4FFF24F39428812D32F6
:1017900011F0F12C03C0EC01C95ADF4FBE010E94C9
:1017A000120B9B01AC01A4E6B0E00E946F1E8B01FE
:1017B0009C01FE018991982F90539A30D0F38E327C
:1017C00021F58181982F90539A30F8F44AE08402F1
:1017D000C0011124805E9140AA2797FDA095BA2FE1
:1017E000080F191F2A1F3B1F8281982F90539A3090
:1017F00060F4992787FD9095C097AA2797FDA0953B
:10180000BA2F080F191F2A1F3B1FFF2039F03095F0
:101810002095109501951F4F2F4F3F4FB801C901DB
:10182000DF91CF911F910F91FF900895FB01DA0195
:101830008191882319F09D918917D1F3282F33279F
:1018400027FD3095932F0895EF92FF920F931F93EA
:10185000CF93DF93EC01FC01EB5AFF4F8081FE0137
:10186000882309F4B8C0EA5AFF4F6081CE010E9474
:10187000FD0A182FFE01E95AFF4F6081CE010E9438
:10188000FD0A20E1129F800D1124FE01EC5AFF4F4A
:10189000908189139AC0FE01E859FF4F8081882307
:1018A00009F46BC1FE01E359FF4F808191810196DC
:1018B00091838083FE01EC5BFF4FDE01A85BBF4F8D
:1018C0008D919D910D90BC91A02D80839183A283D9
:1018D000B383FE01E45BFF4FDE01A05BBF4F8D9140
:1018E0009D910D90BC91A02D80839183A283B383A1
:1018F000FE01EB59FF4F80818823A1F1813009F06F
:101900003AC18C819D81AE81BF8188839983AA83EE
:10191000BB838C859D85AE85BF8588879987AA877F
:10192000BB878C899D89AE89BF89888B998BAA8B4F
:10193000BB8B8C8D9D8DAE8DBF8D888F998FAA8F1F
:10194000BB8F8CA59DA5AEA5BFA588A799A7AAA763
:10195000BBA78CA99DA9AEA9BFA988AB99ABAAAB1F
:10196000BBAB09C18CA19DA1AEA1BFA188A399A3C6
:10197000AAA3BBA38C819D81AE81BF8188839983FB
:10198000AA83BB838C899D89AE89BF89888B998BFB
:10199000AA8BBB8B8C8D9D8DAE8DBF8D888F998FC3
:1019A000AA8FBB8FFE01E05CFF4FDE01AE5BBF4F35
:1019B0008D919C91918380838CAD9DADAEADBFAD7B
:1019C00088AF99AFAAAFBBAFD6C0C159DF4F8881EE
:1019D00099810196BDC0EA59FF4F9081911120C0B5
:1019E0007E0186E5E80EF11C49E052E0B701CE0128
:1019F0000E94160C8E010B591F4F892B11F481E0A8
:101A00000CC04FE052E0B701CE010E94160C892BAA
:101A100019F4F8011082B1C082E0F8018083ADC0F2
:101A2000FE01EB59FF4FE081E23009F4A6C0DE0170
:101A3000AA5ABF4F8C91882309F49FC020E2E29FED
:101A4000F0011124E92B3197E932F10508F095C036
:101A5000EC5CFF4F0C94F01ECE010E94BC0B6C831B
:101A60007D838E839F830E94291AC85BDF4F12C03B
:101A7000C859DF4F91E0813409F460C05EC0CE01E7
:101A80000E94350B6C8B7D8B8E8B9F8B0E94291A4D
:101A9000C05BDF4F688379838A839B836EC0833505
:101AA00009F06BC08C899D89AE89BF89B095A095DE
:101AB000909581959F4FAF4FBF4F8C8B9D8BAE8B79
:101AC000BF8B5BC0CE010E94350B6C8F7D8F8E8FDC
:101AD0009F8F53C0873509F050C08C8D9D8DAE8D82
:101AE000BF8DB095A095909581959F4FAF4FBF4FFB
:101AF0008C8F9D8FAE8FBF8F40C0CE010E94BC0BDC
:101B00006CA77DA78EA79FA738C0CE010E94BC0BF3
:101B10006CAB7DAB8EAB9FAB30C0BE016A5A7F4FC2
:101B2000CE010E94120B6C877D878E879F8725C010
:101B3000C859DF4F91E081330CF490E098831DC0C9
:101B4000CE018A5A9F4F0E941521CE5BDF4F992705
:101B50009983888312C0CE010E94BC0B6CAF7DAF0D
:101B60008EAF9FAF0AC0CE010E94BC0B6CA37DA3B9
:101B70008EA39FA302C081E001C080E0DF91CF91DE
:101B80001F910F91FF90EF9008951F93CF93DF93D4
:101B9000EC01162FFC01E759FF4F40815181628112
:101BA00073814F5F5F4F6F4F7F4F408351836283DD
:101BB0007383FC01E959FF4F1432A9F134F41A3050
:101BC00079F01D3009F045C00BC01A3249F01C32C3
:101BD00009F03FC0FC01EC5AFF4F808181278083D0
:101BE000FE01E959FF4F80818F3050F4FE01E80F6C
:101BF000F11DEA5AFF4F1082CE010E94240C01C051
:101C000080E0FE01EA59FF4F90819F5F9083FE01C3
:101C1000E959FF4F1082CB5ADF4F91E01A3209F099
:101C200090E098832DC01082FC01EA59FF4F10828A
:101C3000FC01EC5AFF4F1082FC01EB59FF4F82E090
:101C40008083FE01EB5AFF4F1082C859DF4F188284
:101C500016C080818E3040F4DE01A80FB11DAA5A53
:101C6000BF4F1C938F5F8083FE01EB5AFF4F808133
:101C7000811105C0CC5ADF4F88818127888380E09D
:101C8000DF91CF911F910895CF92DF92EF92FF9253
:101C90000F931F93CF93DF93E9016115710551F005
:101CA000FC01C088D188E288F388FB01C082D18220
:101CB000E282F3824115510551F0FC01C08CD18CB8
:101CC000E28CF38CFA01C082D182E282F382209707
:101CD00001F18C01045B1F4FF80180819181A28189
:101CE000B3818F3F9F4FAF4FBF4F61F00E94291AC2
:101CF000F8010081118122813381601B710B820BFD
:101D0000930B03C06FEF7FEFCB01688379838A83E6
:101D10009B83DF91CF911F910F91FF90EF90DF9008
:101D2000CF9008958F929F92AF92BF92EF92FF92C1
:101D30000F931F93CF93DF93CDB7DEB728970FB6DE
:101D4000F894DEBF0FBECDBF7B018A01AE014F5FAD
:101D50005F4FBE016B5F7F4F0E94440E8D809E805F
:101D6000AF80B8848FEF881689EC98068AE9A806B8
:101D70008BE3B80659F0C501B4010E94BF1D20E0F5
:101D800030E543EC57E40E94291D04C060E070E098
:101D90008AE794E4382F292F862F972FA32FB22F6D
:101DA000F70180839183A283B383FFEF8F16F9EC51
:101DB0009F06FAE9AF06FBE3BF0669F069817A8105
:101DC0008B819C810E94BF1D20E030E543EC57E4ED
:101DD0000E94291D04C060E070E08AE794E4382F77
:101DE000292F862F972FA32FB22FF801808391835D
:101DF000A283B38328960FB6F894DEBF0FBECDBF83
:101E0000DF91CF911F910F91FF90EF90BF90AF9016
:101E10009F908F900895DC01ED91FC910190F081ED
:101E2000E02D0994FC0180E090E0A7E0B4E4808F0D
:101E3000918FA28FB38F80E090E0AAEFB3E4848FFC
:101E4000958FA68FB78F80E090E0A4E3B3E480A3E2
:101E500091A3A2A3B3A340E050E062E074EC44A3DA
:101E600055A366A377A340E050E86EE074EC40A76A
:101E700051A762A773A740E050E860E474EC44A760
:101E800055A766A777A783E081AB88E182AB14AA48
:101E900013AA15AA0895EF92FF921F93CF93DF9391
:101EA0001F92CDB7DEB77C01162FFC0162A986EE2A
:101EB00096E049830E941117612F86EE96E00E94FA
:101EC000B4164981642F86EE96E00E94B41686EE21
:101ED00096E00E943017F70180AB0F90DF91CF9111
:101EE0001F91FF90EF900895EF92FF921F93CF9371
:101EF000DF931F92CDB7DEB77C01162F6EE170E045
:101F000086EE96E049830E941B17612F86EE96E0CD
:101F10000E94B4164981642F86EE96E00E94B416A2
:101F200086EE96E00E943017F70180AB0F90DF91AC
:101F3000CF911F91FF90EF900895CF93DF93EC0125
:101F400047E260E20E944B0F40E062E0CE01DF9189
:101F5000CF910C94740F0F931F93CF93DF938C0149
:101F6000EB0177FF31C06D3F8FEF7807C1F02CF4A4
:101F70006C3FFFEF7F0741F517C06E3F8FEF78078B
:101F800049F06F3FEFEF7E07F9F4F80181A9811165
:101F900010C015C0F80181A981110EC013C0F8014D
:101FA00081A981110CC005C0F80181A981110AC065
:101FB00003C0C7E0D0E008C0C8E0D0E005C0C5E07D
:101FC000D0E002C0C6E0D0E06EE170E086EE96E0C0
:101FD0000E941B17BE0186EE96E00E940B0F86EE54
:101FE00096E00E943017F80180AB41E050E06EE1CE
:101FF00070E086EE96E00E940E1786EE96E00E9454
:102000006116C82F86EE96E00E9430178C2FDF9164
:10201000CF911F910F9108956F927F928F929F920F
:10202000AF92BF92CF92DF92EF92FF920F931F93E6
:10203000CF93DF93EC016AA986EE96E00E94111718
:1020400068EA70E086EE96E00E940B0F86EE96E05E
:102050000E94301788AB46E06AA986EE96E00E949F
:102060000B170E94291A6B011DAA0EC08BA99CA9EF
:10207000892B51F00E94291A6C197D098BA99CA902
:102080008617970708F45EC086EE96E00E94581601
:10209000069764F386EE96E00E946116782E86EE2F
:1020A00096E00E946116682E86EE96E00E94611608
:1020B000982E86EE96E00E946116882E86EE96E0B7
:1020C0000E946116D82E86EE96E00E946116C82EF8
:1020D000B62CA12CA72884E0B594A7948A95E1F7A3
:1020E000B501882777FD8095982F0E94BF1D6883D2
:1020F00079838A839B83F82CE12CE92894E0F5947A
:10210000E7949A95E1F7B701882777FD8095982F96
:102110000E94BF1D6C837D838E839F831C2D00E0F6
:102120000D2924E0159507952A95E1F7B801882730
:1021300077FD8095982F0E94BF1D688779878A87D1
:102140009B8702C081E08DABDF91CF911F910F91F2
:10215000FF90EF90DF90CF90BF90AF909F908F90C7
:102160007F906F900895AF92BF92CF92DF92EF92DF
:10217000FF920F931F93CF93DF93EC016EE170E01A
:1021800086EE96E00E941B1763E070E086EE96E014
:102190000E940B0F86EE96E00E94301788AB46E057
:1021A00050E06EE170E086EE96E00E940E170E940D
:1021B000291A8B011DAA0EC08BA99CA9892B51F04D
:1021C0000E94291A601B710B8BA99CA9861797077F
:1021D00008F465C086EE96E00E945816069764F3F0
:1021E00086EE96E00E946116A82E86EE96E00E948A
:1021F0006116B82E89A9811115C086EE96E00E945D
:102200006116C82E86EE96E00E946116D82E86EEE4
:1022100096E00E946116082F86EE96E00E946116F5
:10222000182F14C086EE96E00E946116082F86EEE5
:1022300096E00E946116182F86EE96E00E946116C5
:10224000C82E86EE96E00E946116D82EFA2CE12C5C
:10225000EB28B701882777FD8095982F0E94BF1D36
:102260006C877D878E879F877C2D60E06D2988270E
:1022700077FD8095982F0E94BF1D688B798B8A8B84
:102280009B8B702F60E0612B882777FD8095982FBE
:102290000E94BF1D6C8B7D8B8E8B9F8B02C081E05B
:1022A0008DABDF91CF911F910F91FF90EF90DF9059
:1022B000CF90BF90AF900895CF93DF93EC010E9431
:1022C0000C10CE01DF91CF910C94B310CF93DF931C
:1022D000EC0168E170E086EE96E00E941B1760E278
:1022E00070E086EE96E00E940B0F86EE96E00E946C
:1022F000301788AB41E050E068E170E086EE96E090
:102300000E940E1786EE96E00E945816892B31F037
:1023100086EE96E00E94611680E001C081E0DF91C8
:10232000CF910895CF93DF93EC0169AB623018F041
:10233000623089F40DC0411101C008C0413009F478
:1023400007C00E946611813009F402C088E101C013
:1023500089E18AAB15C00E946611813029F489E1B8
:102360008AAB82E089AB0CC088E18AAB6FE070E099
:10237000CE010E94AB0F91E08C3309F090E099AB55
:10238000DF91CF9108952091BE063091BF062817A6
:102390003907C1F490917C0680917D06981791F0E1
:1023A000E0917C06F0E0E258F94F808120917C06B4
:1023B00030E02F5F3F4F2F73332720937C06282F69
:1023C00030E002C02FEF3FEFC90108952091BE0613
:1023D0003091BF062817390781F490917C068091CF
:1023E0007D06981751F0E0917C06F0E0E258F94F35
:1023F0002081332727FD309502C02FEF3FEFC90121
:1024000008952091BE063091BF062817390739F488
:102410008FB7F89410927D0610927C068FBF0895B6
:102420002091BE063091BF062817390779F48091B4
:102430007D0620917C0690E0805C9F4F821B910975
:1024400060E470E00E949E1E9C0102C020E030E02B
:10245000C9010895DC015196ED91FC9152972081BC
:1024600050968C91809582238083089520E0019777
:102470002FEF8F3F9207D9F70895EF92FF920F93B6
:102480001F93CF93DF93EC018B8DEE85FF859D85A8
:1024900081FF04C08081892329F445C0808189237C
:1024A00009F041C08B899C890E94361208E010E037
:1024B000EE24E394F12C8D899E890E943612EE85DC
:1024C000FF8580819D85892311F0FE2803C08E2D14
:1024D0008095F822EE0C0150110969F78F89988DCB
:1024E0000E9436128B8D81FDF09480917D062091A3
:1024F0007C0690E001968F73992730E0821793074E
:1025000079F0E0917D06F0E0E258F94FF082809199
:102510007D0690E001968F73992780937D0603C016
:102520008B8D81608B8FDF91CF911F910F91FF90E9
:10253000EF900895611102C00C942A12DC015196AB
:10254000ED91FC915297208150968C91282B2083FD
:102550000895DF92EF92FF920F931F93CF93DF9333
:10256000EC01E62E898D9A8D892B39F481E090E07B
:102570009B838A8320E030E049C0DFB6F8946B8DFE
:1025800066956170CE010E949A12898D9A8D05968A
:102590000E9436128B8D08E010E0FF24F39481FF37
:1025A00017C08F2D8E2121F0CE010E942A1204C067
:1025B00061E0CE010E949A12898D9A8D0E94361296
:1025C000FF0C0150110969F7CE010E942A1217C0B1
:1025D0008F2D8E2129F061E0CE010E949A1203C056
:1025E000CE010E942A12898D9A8D0E943612FF0C0C
:1025F0000150110969F761E0CE010E949A12DFBE15
:10260000898D9A8D0E94361221E030E0C901DF9158
:10261000CF911F910F91FF90EF90DF9008958091DF
:10262000BE069091BF06009711F00C943D120895DC
:102630001F920F920FB60F9211242F933F934F9337
:102640005F936F937F938F939F93AF93BF93EF931A
:10265000FF930E940F13FF91EF91BF91AF919F9154
:102660008F917F916F915F914F913F912F910F903B
:102670000FBE0F901F9018951F920F920FB60F92DA
:1026800011242F933F934F935F936F937F938F9377
:102690009F93AF93BF93EF93FF930E940F13FF910C
:1026A000EF91BF91AF919F918F917F916F915F91CA
:1026B0004F913F912F910F900FBE0F901F90189543
:1026C0001F920F920FB60F9211242F933F934F93A7
:1026D0005F936F937F938F939F93AF93BF93EF938A
:1026E000FF930E940F13FF91EF91BF91AF919F91C4
:1026F0008F917F916F915F914F913F912F910F90AB
:102700000FBE0F901F9018951F93CF93DF93EC018E
:10271000162F61E0812F0E94701961E0812F0E94C5
:10272000A819812F90E0FC01E253FF4FE491E88B60
:10273000FC01EE51FF4FE491F0E0EE0FFF1FE0507F
:10274000FF4F85919491898B9A8BDF91CF911F9147
:1027500008951F93CF93DF93EC01162F60E0812F34
:102760000E9470198B8D81FD04C061E0812F0E9451
:10277000A8191C87812F90E0FC01E253FF4FE491E0
:10278000ED87FC01EE51FF4FE491F0E0EE0FFF1FEB
:10279000EA50FF4F859194918E879F87DF91CF916B
:1027A0001F910895FF920F931F93CF93DF93EC0136
:1027B000F62E522F1B821A8208EE13E020E030E042
:1027C0000C831D832E833F8381E492E09983888369
:1027D0001C8A1B8A1E8A1D8A188E1F8A1A8E198EC1
:1027E0008B8D8E7F50FB81F98B8F642FCE010E94E1
:1027F00084136F2DCE01DF91CF911F910F91FF9028
:102800000C94A913FC014485463150F5483028F05A
:102810004E3030F4EBE6F0E005C0EDE6F0E002C04B
:10282000ECE6F0E05081483040F481E090E0042E86
:1028300001C0880F0A94EAF710C0242F30E04E3010
:1028400018F42850310902C02E50310981E090E07F
:10285000022E01C0880F0A94EAF7809585238083B1
:10286000089521E432E0FC01318320830C940214AA
:102870001F920F920FB60F9211242F933F934F93F5
:102880005F936F937F938F939F93AF93BF93EF93D8
:10289000FF938091C10687FF05C0109285001092BA
:1028A00084001AC02091C106332727FD30958091FE
:1028B000C00690E0281739077CF48091C10699275B
:1028C00087FD9095FC01EE0FFF1FE80FF91FEE53F7
:1028D000F94F808186FD37C08091C1068F5F80935C
:1028E000C1062091C106332727FD30958091C0068F
:1028F00090E028173907CCF58091C1068C30F4F1AF
:1029000034C08091C106992787FD9095FC01EE0F98
:10291000FF1FE80FF91FEE53F94F808161E08F73BD
:102920000E94A81952C080E49CE905C080918400EF
:1029300090918500049690938900809388008FEF92
:102940008093C10642C08091C106992787FD90956A
:10295000FC01EE0FFF1FE80FF91FEE53F94F8081C6
:1029600060E08F730E94A819B7CF80918400909186
:102970008500049680349C49B0F2D8CF80918400C1
:10298000909185002091C106332727FD3095F901EC
:10299000EE0FFF1FE20FF31FEE53F94F218132813B
:1029A000820F931F90938900809388008091C106C5
:1029B000992787FD9095FC01EE0FFF1FE80FF91F87
:1029C000EE53F94F808186FD9CCFFF91EF91BF912F
:1029D000AF919F918F917F916F915F914F913F91B7
:1029E0002F910F900FBE0F901F9018952091C00649
:1029F0002C30A0F4FC012083822F8F5F8093C006CF
:102A0000822F90E0FC01EE0FFF1FE80FF91FEE533D
:102A1000F94F88EB9BE09283818308952FEFFC01AF
:102A200020830895DF92EF92FF920F931F93CF932D
:102A3000DF93EC01D62E7A01890188818C3008F071
:102A400065C061E08D2D0E9470198881A82FB0E0CB
:102A5000FD01EE0FFF1FEA0FFB1FEE53F94F2D2D67
:102A60002F739081907C922B908360E272E06E19BC
:102A70007F0977FF02C06D5F7F4F759567957595EC
:102A80006795698340E659E0401B510B57FF02C030
:102A90004D5F5F4F55954795559547954A836CE037
:102AA0000E94921E9CE0899FB001112420E030E03A
:102AB000A901460F571FFA01EE0FFF1FE40FF51F84
:102AC000EE53F94F908196FD15C02F5F3F4F2C308C
:102AD000310571F71DC01092800082E08093810063
:102AE0001092850010928400B19A80916F008260EC
:102AF00080936F00888190E0FC01EE0FFF1FE80FCC
:102B0000F91FEE53F94F808180648083888103C070
:102B1000882309F3EFCFDF91CF911F910F91FF90A1
:102B2000EF90DF90089520E639E040E252E00C9407
:102B30001215FC0180818C3070F5918128E830E01D
:102B4000291B310997FD3395220F331F220F331FA5
:102B5000621773077CF0928128E532E0291B310966
:102B600097FD3395220F331F220F331F6217730710
:102B70000CF49B014FB7F89490E0FC01EE0FFF1F9F
:102B8000E80FF91FEE53F94F22503109220F331F7E
:102B9000328321834FBF0895AF92BF92CF92DF92CD
:102BA000EF92FF920F931F93CF93DF93EC0160326C
:102BB00082E078070CF041C077FD04C0653B7105E9
:102BC00024F405C060E070E002C064EB70E029818D
:102BD00088E890E0821B910927FD9395880F991F43
:102BE000880F991F5C01CC24B7FCC094DC2C88278B
:102BF00077FD8095982F2A8148E552E0421B5109C4
:102C000027FD5395440F551F440F551F8A01222756
:102C100017FD2095322F3F932F931F930F9314EBA3
:102C2000E12EF12C00E010E020E030E0A9010E944C
:102C3000C61A0F900F900F900F90CE01DF91CF9199
:102C40001F910F91FF90EF90DF90CF90BF90AF90CA
:102C50000C949915CF92DF92EF92FF920F931F93EE
:102C6000CF93DF938C01EB01688179818A819B810D
:102C700020E03AEC4AE95BE30E94B21EF801C08012
:102C8000D180E280F380C20ED31EE41EF51EC08206
:102C9000D182E282F382688379838A839B83DF9186
:102CA000CF911F910F91FF90EF90DF90CF900895FB
:102CB0002091160730E080911707281B3109C901C0
:102CC00008958091170790911607891750F4E82FFF
:102CD000F0E0E85EF84F208130E08F5F80931707C7
:102CE00002C02FEF3FEFC9010895E09117078091CF
:102CF0001607E81730F4F0E0E85EF84F208130E086
:102D000002C02FEF3FEFC90108950895CF92DF92DF
:102D1000EF92FF920F931F93CF93DF937C01CB0130
:102D20008A012091F206222391F0EB016B01C40E7F
:102D3000D51E09C06991D701ED91FC910190F081F8
:102D4000E02DC7010995CC15DD05A1F703C0642F5F
:102D50000E94ED17C801DF91CF911F910F91FF9055
:102D6000EF90DF90CF900895CF93DF931F92CDB770
:102D7000DEB769832091F2062223D1F02091F30679
:102D8000203240F021E030E0FC013383228320E058
:102D900030E015C08091F406E82FF0E0EB50F94FD9
:102DA000998190838F5F8093F4068093F30605C02A
:102DB00061E0CE0101960E94ED1721E030E0C901EB
:102DC0000F90DF91CF910895FC011382128248EE9B
:102DD00053E060E070E0448355836683778381E548
:102DE00092E091838083089510921707109216073E
:102DF0001092F4061092F3060C943717862F413286
:102E000008F040E268E177E00E945517109217073A
:102E100080931607089521E00C94FE1621E00C948F
:102E2000FE1681E08093F206609315071092F40677
:102E30001092F30608950C9411170F93062F21E0BA
:102E40004091F30665EF76E0809115070E949A178E
:102E50001092F4061092F3061092F2060F91089564
:102E600061E00C941D1786EE96E00C94E416109227
:102E7000410781E080933F0710923E0761E082E1C5
:102E80000E94A81961E083E10E94A819E9EBF0E033
:102E900080818E7F808380818D7F808388E4809392
:102EA000B80085E48093BC000895413208F03FC02B
:102EB000909141079111FCCF91E0909341072093AD
:102EC0003F072FEF2093380710923D07242F215002
:102ED00020933C079093400790914007880F892BDF
:102EE0008093400780913E07813041F410923E0765
:102EF000809140078093BB0085EC01C085EE8093F4
:102F0000BC00809141078130E1F380913D07841737
:102F100010F440913D0722E437E0FB01D90102C0E3
:102F20008D9181938A2F821B8417D0F301C040E0DA
:102F3000842F08950F93413208F046C090914107C5
:102F40009111FCCF92E09093410700933F079FEFD0
:102F50009093380710923D0740933C07FB0162E4D1
:102F600077E0DB0102C091919D939A2F961B9417F5
:102F7000D0F31092400790914007880F892B8093DF
:102F8000400780913E07813041F410923E078091C6
:102F900040078093BB0085EC01C085EE8093BC00A8
:102FA000222321F0809141078230E1F3809138079C
:102FB0008F3F61F080913807803251F0809138075F
:102FC000803341F483E007C081E005C080E003C0A6
:102FD00082E001C084E00F910895613298F420915D
:102FE0004107243089F460933A07FC0182E697E0B8
:102FF000DC0102C021912D932A2F281B2617D0F324
:1030000080E0089581E0089582E0089585ED809341
:10301000BC008091BC0084FDFCCF10924107089554
:1030200085EC8093BC001092410708951F920F9287
:103030000FB60F9211242F933F934F935F936F938B
:103040007F938F939F93AF93BF93EF93FF93809161
:10305000B900887F803609F49FC058F5883209F49A
:103060005BC090F4803109F452C038F4882309F42D
:10307000F8C0883009F0F9C04AC0883109F44CC062
:10308000803209F0F2C05CC0803409F46BC038F4BF
:10309000803309F455C0883309F0E7C054C0803547
:1030A00009F454C0883509F462C0883409F0DDC0E1
:1030B000DAC0883909F4CBC0A8F4883709F46CC0A9
:1030C00038F4883609F468C0803709F0CEC064C08F
:1030D000883809F4BCC0803909F464C0803809F02C
:1030E000C4C060C0803B09F48AC038F4803A09F457
:1030F0006BC0883A09F0B9C082C0803C09F4ABC00B
:10310000883C09F4A8C0883B09F0AFC08DC080910D
:1031100040078093BB0012C090913D0780913C070F
:10312000981788F580913D07E82FF0E0EE5BF84FA7
:1031300090819093BB008F5F80933D0785EC88C0A2
:103140008093380790C08093380756C080913D0720
:103150009091BB00E82FF0E0EE5BF84F90838F5F1B
:1031600080933D0790913D0780913C076DC0809111
:103170003D079091BB00E82FF0E0EE5BF84F9083A5
:103180008F5F80933D0780913F0781116CC081E084
:1031900080933E0784EA60C083E0809341071092E9
:1031A0003907CCCF80913907803208F050C0809128
:1031B00039079091BB00E82FF0E0EA57F84F908371
:1031C0008F5F80933907BACF80913907803230F40E
:1031D000E0913907F0E0EA57F84F10820E94061894
:1031E00060913907E0918207F091830770E086E8EB
:1031F00097E00995109239070E94101836C084E0B4
:103200008093410710923B0710923A07E0918407A0
:10321000F0918507099580913A07811105C081E0F9
:1032200080933A071092620780913B07E82FF0E005
:10323000EE59F84F90819093BB008F5F80933B07CE
:1032400090913B0780913A07981708F477CF85E86B
:103250008093BC000AC085EC8093BC0010924107AB
:1032600004C0109238070E940618FF91EF91BF9199
:10327000AF919F918F917F916F915F914F913F910E
:103280002F910F900FBE0F901F901895833069F00B
:1032900028F48130A1F0823011F514C08630B1F0ED
:1032A0008730C1F08430D9F404C0809180008F77DA
:1032B00003C0809180008F7D80938000089584B545
:1032C0008F7702C084B58F7D84BD08958091B00052
:1032D0008F7703C08091B0008F7D8093B0000895F8
:1032E000CF93DF9390E0FC01E253FF4F4491FC0148
:1032F000EE51FF4F8491882341F190E0880F991F90
:10330000FC01E65FFE4F25913491D90180509F4F1B
:10331000FC0185919491C82FD92F9FB7F8948C9177
:10332000611106C0409584238C938881842308C052
:10333000623041F4242F209582238C938881842B42
:10334000888302C0842B8C939FBFDF91CF91089517
:103350000F931F93CF93DF931F92CDB7DEB7282F24
:1033600030E0F901E654FF4F8491F901E253FF4F39
:103370001491F901EE51FF4F04910023D1F08823FD
:1033800021F069830E9446196981E02FF0E0EE0F79
:10339000FF1FE050FF4F85919491DC019FB7F89497
:1033A0008C91611103C01095812301C0812B8C93F6
:1033B0009FBF0F90DF91CF911F910F9108951F92A2
:1033C0000F920FB60F9211242F933F938F939F93D9
:1033D000AF93BF938091A6079091A707A091A807EC
:1033E000B091A9073091AE07232F2D5F2D3720F420
:1033F0000196A11DB11D05C0232F2A570296A11DBC
:10340000B11D2093AE078093A6079093A707A093C2
:10341000A807B093A9078091AA079091AB07A09144
:10342000AC07B091AD070196A11DB11D8093AA070D
:103430009093AB07A093AC07B093AD07BF91AF914A
:103440009F918F913F912F910F900FBE0F901F90E2
:1034500018950F931F938FB7F8940091A6071091BA
:10346000A7072091A8073091A9078FBFB801C9010C
:103470001F910F9108950F931F939FB7F894009198
:10348000AA071091AB072091AC073091AD0786B524
:10349000A89B06C08F3F21F00F5F1F4F2F4F3F4F5C
:1034A0009FBF322F212F102F0027080F111D211D24
:1034B000311D42E0000F111F221F331F4A95D1F723
:1034C000B801C9011F910F910895CF92DF92EF9239
:1034D000FF92CF93DF936B017C010E943B1AEB01BB
:1034E0000EC00E943B1A6C1B7D0B683E734038F087
:1034F00081E0C81AD108E108F108C851DC4FC114B5
:10350000D104E104F10469F7DF91CF91FF90EF90CE
:10351000DF90CF900895789484B5826084BD84B59F
:10352000816084BD85B5826085BD85B5816085BDBE
:10353000EEE6F0E0808181608083E1E8F0E01082D7
:10354000808182608083808181608083E0E8F0E018
:10355000808181608083E1EBF0E080818460808302
:10356000E0EBF0E0808181608083EAE7F0E0808139
:103570008460808380818260808380818160808399
:103580008081806880831092C10008954F925F927D
:103590006F927F92AF92BF92CF92DF92EF92FF92A3
:1035A0000F931F93CF93DF93CDB7DEB729013A0175
:1035B000621B730B840B950B29893A894B895C89B3
:1035C0002A193B094C095D09298B3A8B4B8B5C8B83
:1035D0009B01AC0169897A898B899C890E94821E32
:1035E000E418F50806091709A80197010E94D41EDE
:1035F0002A0D3B1D4C1D5D1DB901CA01DF91CF9104
:103600001F910F91FF90EF90DF90CF90BF90AF9000
:103610007F906F905F904F9008950E948B1A0E9448
:10362000EF04C9EEDBE10E943F092097E1F30E941D
:10363000E91BF9CFFC0184859585FC01E05CFF4F17
:1036400020813181FC01EE5BFF4F80819181281B3D
:10365000390B2F733327C9010895FC0184859585A3
:10366000FC01E05CFF4F40815181FC01EE5BFF4FAC
:10367000208131814217530741F00190F081E02D04
:10368000E80FF91F208130E002C02FEF3FEFC901A2
:103690000895FC0184859585FC01E05CFF4F408125
:1036A0005181FC01EE5BFF4F2081318142175307AE
:1036B00081F0A081B181A80FB91F8C912081318147
:1036C0002F5F3F4F2F73332731832083282F30E024
:1036D00002C02FEF3FEFC9010895FC018685978551
:1036E000FC01E05CFF4FDC01AE5BBF4F40815181CC
:1036F0002D913C91119742175307C1F70895CF932D
:10370000DF93FC0186859785DC01A05CBF4F2D917E
:103710003C9111972F5F3F4F2F733327EC01CE5B06
:10372000DF4F4881598124173507D9F30D90BC919B
:10373000A02DA80FB91F6C93A685B785A05CBF4FBD
:1037400011963C932E93A689B7892C9181E090E045
:10375000058C02C0880F991F0A94E2F7282B2C933E
:1037600081E090E0DF91CF91089508951F920F922C
:103770000FB60F9211242F933F934F938F939F93E4
:10378000EF93FF934091C6008091520890915308A7
:1037900001968F739927209154083091550882170C
:1037A000930759F0E0915208F0915308EE5EF74FFD
:1037B00040839093530880935208FF91EF919F911B
:1037C0008F914F913F912F910F900FBE0F901F90AF
:1037D00018958FEA97E00E941A1B892B11F00C9420
:1037E000B51B08951F920F920FB60F9211242F93BD
:1037F0003F938F939F93EF93FF9320910E08309107
:103800000F0880911008909111082817390731F49A
:103810008091C1008F7D8093C10014C0E091100899
:10382000F0911108E253F84F208180911008909197
:10383000110801968F7399279093110880931008AF
:103840002093C600FF91EF919F918F913F912F910F
:103850000F900FBE0F901F901895CF92DF92EF92AE
:10386000FF92CF93DF93EC016A017B01411581EE5A
:10387000580761057105F9F0EC89FD8981E090E058
:103880000E8C02C0880F991F0A94E2F7808360E0D3
:1038900079E08DE390E0A70196010E94B21E2150CD
:1038A00031094109510956954795379527952115B5
:1038B00080E1380798F0EC89FD89108260E874E8AF
:1038C0008EE190E0A70196010E94B21E21503109BD
:1038D000410951095695479537952795E889F98902
:1038E0003083EA89FB892083EE89FF89408181E06A
:1038F00090E09C010A8C02C0220F331F0A94E2F769
:10390000422B4083EE89FF8940819C010B8C02C0D1
:10391000220F331F0A94E2F7422B4083EE89FF897E
:1039200040819C010C8C02C0220F331F0A94E2F7E5
:10393000422B4083EE89FF8920810D8C02C0880FC5
:10394000991F0A94E2F7809582238083DF91CF91BB
:10395000FF90EF90DF90CF9008951092B2071092F1
:10396000B10788EE93E0A0E0B0E08093B3079093B6
:10397000B407A093B507B093B60781E692E09093A1
:10398000B0078093AF0782E198E09093BC078093E3
:10399000BB078EEC97E09093BE078093BD0785EC44
:1039A00090E09093C0078093BF0784EC90E09093E1
:1039B000C2078093C10780EC90E09093C407809386
:1039C000C30781EC90E09093C6078093C50786EC0F
:1039D00090E09093C8078093C70784E08093C9075D
:1039E00083E08093CA0787E08093CB0785E08093CC
:1039F000CC0781E08093CD070895CF92DF92EF92BC
:103A0000FF920F931F93CF93DF936C01EB017A0129
:103A1000E60EF71E00E010E00BC06991D601ED91B3
:103A2000FC910190F081E02DC6010995080F191F46
:103A3000CE15DF0591F7C801DF91CF911F910F914E
:103A4000FF90EF90DF90CF900895D4D008F481E0FC
:103A500008950CD00AC102D140F0F9D030F021F421
:103A60005F3F19F0EBC0511134C1EEC00FD198F394
:103A70009923C9F35523B1F3951B550BBB27AA27EF
:103A800062177307840738F09F5F5F4F220F331F61
:103A9000441FAA1FA9F333D00E2E3AF0E0E830D02D
:103AA00091505040E695001CCAF729D0FE2F27D030
:103AB000660F771F881FBB1F261737074807AB07FE
:103AC000B0E809F0BB0B802DBF01FF2793585F4F73
:103AD0002AF09E3F510568F0B1C0FBC05F3FECF398
:103AE000983EDCF3869577956795B795F7959F5F38
:103AF000C9F7880F911D9695879597F90895E1E08C
:103B0000660F771F881FBB1F621773078407BA07EA
:103B100020F0621B730B840BBA0BEE1F88F7E09545
:103B20000895BCD088F09F5790F0B92F9927B751CE
:103B3000A0F0D1F0660F771F881F991F1AF0BA9571
:103B4000C9F712C0B13081F0C3D0B1E00895C0C050
:103B5000672F782F8827B85F39F0B93FCCF3869567
:103B600077956795B395D9F73EF4909580957095C4
:103B700061957F4F8F4F9F4F0895E89409C097FB41
:103B80003EF490958095709561957F4F8F4F9F4F34
:103B90009923A9F0F92F96E9BB279395F695879578
:103BA00077956795B795F111F8CFFAF4BB0F11F43B
:103BB00060FF1BC06F5F7F4F8F4F9F4F16C08823E2
:103BC00011F096E911C0772321F09EE8872F762F18
:103BD00005C0662371F096E8862F70E060E02AF059
:103BE0009A95660F771F881FDAF7880F9695879545
:103BF00097F90895990F0008550FAA0BE0E8FEEF1A
:103C000016161706E807F907C0F012161306E407A0
:103C1000F50798F0621B730B840B950B39F40A2699
:103C200061F0232B242B252B21F408950A2609F477
:103C3000A140A6958FEF811D811D089597F99F677B
:103C400080E870E060E008959FEF80EC0895002424
:103C50000A941616170618060906089500240A94F1
:103C600012161306140605060895092E0394000C77
:103C700011F4882352F0BB0F40F4BF2B11F460FF06
:103C800004C06F5F7F4F8F4F9F4F089557FD90582F
:103C9000440F551F59F05F3F71F04795880F97FB10
:103CA000991F61F09F3F79F08795089512161306CA
:103CB0001406551FF2CF4695F1DF08C016161706F9
:103CC0001806991FF1CF869571056105089408952E
:103CD000E894BB2766277727CB0197F908950E94C0
:103CE000F61EA59F900DB49F900DA49F800D911D71
:103CF00011240895B7FF0C946F1E0E946F1E821B43
:103D0000930B0895DB018F939F930E946F1EBF91C9
:103D1000AF91A29F800D911DA39F900DB29F900D1A
:103D200011240895991B79E004C0991F961708F093
:103D3000961B881F7A95C9F78095089597FB072EE3
:103D400016F4009407D077FD09D00E94021F07FCEB
:103D500005D03EF4909581959F4F0895709561959B
:103D60007F4F0895A1E21A2EAA1BBB1BFD010DC0B7
:103D7000AA1FBB1FEE1FFF1FA217B307E407F5071B
:103D800020F0A21BB30BE40BF50B661F771F881FF7
:103D9000991F1A9469F760957095809590959B018D
:103DA000AC01BD01CF010895052E97FB16F40094D8
:103DB00007D057FD0DD00E94B21E07FC09D07EF43B
:103DC00090958095709561957F4F8F4F9F4F089587
:103DD00050954095309521953F4F4F4F5F4F089537
:103DE000EE0FFF1F0590F491E02D0994A29FB00102
:103DF000B39FC001A39F01D0B29F700D811D1124FC
:103E0000911D0895AA1BBB1B51E107C0AA1FBB1F30
:103E1000A617B70710F0A61BB70B881F991F5A9556
:103E2000A9F780959095BC01CD0108950F931F933C
:103E3000CF93DF938230910510F482E090E0E0911F
:103E40005808F091590820E030E0C0E0D0E023C0ED
:103E50004081518148175907A8F04817590761F464
:103E600082819381209719F09B838A832EC090933F
:103E700059088093580829C02115310529F04217A7
:103E8000530710F0A90102C0BE01DF0102811381B6
:103E9000EF019A01F8013097D9F62115310509F1A2
:103EA000281B390B2430310590F412968D919C918A
:103EB00013976115710521F0FB019383828304C080
:103EC0009093590880935808FD01329644C0FD0133
:103ED000E20FF31F81939193225031092D933C936C
:103EE0003AC02091560830915708232B41F4209175
:103EF0000201309103013093570820935608209116
:103F00000001309101012115310541F42DB73EB773
:103F10004091040150910501241B350BE091560896
:103F2000F0915708E217F307A0F42E1B3F0B281758
:103F3000390778F0AC014E5F5F4F2417350748F022
:103F40004E0F5F1F509357084093560881939193EB
:103F500002C0E0E0F0E0CF01DF91CF911F910F911F
:103F60000895EF92FF920F931F93CF93DF930097E3
:103F700009F48EC0DC01129713961C921E921297C0
:103F8000E0905808F0905908E114F10489F42D915B
:103F90003C911197280F391F80915608909157082E
:103FA0008217930789F5B0935708A093560870C0FD
:103FB000E70120E030E001C0EA01CA17DB0738F46E
:103FC0004A815B819E0141155105B1F722C0AC01C8
:103FD00042505109FA01D383C28300811181BC018F
:103FE000600F711F6C177D0761F468817981600F24
:103FF000711F6E5F7F4F718360836A817B817383E2
:1040000062832115310529F4B0935908A09358080B
:104010003FC0F901B383A283E90149915991C40FCB
:10402000D51FAC17BD0771F4DC019E918E91840FF2
:10403000951F02969183808312968D919C91139780
:1040400093838283A0E0B0E002C0D7017C01F70136
:10405000828193810097C9F7C7010296208131813F
:10406000820F931F2091560830915708281739075F
:1040700079F4109729F4109259081092580804C046
:1040800013961C921E921297F0925708E0925608CF
:10409000CDB7DEB7E6E00C946C21A0E0B0E0E3E53C
:1040A000F0E20C944A21EC01009729F4CB010E9424
:1040B000161FEC01B4C0DC01A60FB71FFC0132973C
:1040C000AE17BF0718F4C0E0D0E0A9C0008111818D
:1040D00006171707B0F00530110508F4A0C0C80195
:1040E00004978617970708F49AC002501109061B17
:1040F000170B0D931D9371836083CD010E94B11F37
:104100008EC06B01C01AD10A7C01E00EF11EE09155
:104110005808F091590820E030E080E090E048C075
:10412000EE15FF05D1F580809180540142E0A40E88
:10413000B11CAC14BD0488F17401EC18FD086701D2
:1041400022E0C20ED11C9E012250310945E0C41666
:10415000D10478F04281538113965C934E93129769
:104160001196FC92EE92F901718360833A2F2B2F06
:1041700009C00E5F1F4F080D191DD9010D931C9327
:1041800032812381009721F0FC013283238347C0D1
:10419000309358082093590842C080819181281794
:1041A000390708F49C0152814381CF01E52FF42F98
:1041B000309709F0B5CF80915608909157088E1529
:1041C0009F05F1F426173707D8F4809100019091EC
:1041D0000101009741F48DB79EB720910401309101
:1041E0000501821B930BA817B90708F06CCFB09399
:1041F0005708A0935608FE013297718360830FC061
:10420000CB010E94161F7C01009709F45CCFA80126
:10421000BE010E943321CE010E94B11FE701CE01F1
:10422000CDB7DEB7ECE00C946621FC018827992716
:10423000E89421912032E9F3293010F02E30C8F3B0
:104240002B3241F02D3239F4689404C00E943C2195
:10425000820F911D219120532A30C0F31EF49095B6
:1042600081959F4F0895FB01DC0102C001900D92E2
:1042700041505040D8F708957AE0979F902D879F3E
:10428000802D910D112408952F923F924F925F92AD
:104290006F927F928F929F92AF92BF92CF92DF9256
:1042A000EF92FF920F931F93CF93DF93CDB7DEB7BB
:1042B000CA1BDB0B0FB6F894DEBF0FBECDBF09944F
:1042C0002A88398848885F846E847D848C849B84A6
:1042D000AA84B984C884DF80EE80FD800C811B81B4
:1042E000AA81B981CE0FD11D0FB6F894DEBF0FBEE3
:1042F000CDBFED01089511E0CAE1D1E004C0FE0197
:104300000E94F21E2296CC31D107C9F7F894FFCF54
:1043100000005A0820000F000A000900080073740A
:10432000645F6D7367732F54696D6500726F73738B
:10433000657269616C5F6D7367732F546F70696329
:10434000496E666F00726F7373657269616C5F6D41
:104350007367732F4C6F67007374645F6D7367735B
:104360002F55496E7431360067657474696E672025
:10437000706F736974696F6E206E6F77007365720A
:10438000766F3100736572766F320070776D5F649F
:1043900075726174696F6E006C65616B0068656150
:1043A00064696E67006770735F6C61740067707337
:1043B0005F6C6F6E00726F7373657269616C5F6DB5
:1043C0007367732F52657175657374506172616D97
:1043D0000000000000B4028901CE0100000000DAF4
:1043E000020701860100000000B800DA00040100A5
:1043F000000000D401DD01E80100000000EB01FE37
:10440000010102000000006B0700000000670400CB
:1044100000000012023C03D1014750524D430047B7
:1044200050474741004E004E4E4500454E45004521
:1044300053450053534500530053535700575357A8
:1044400000574E57004E4E570000007A44000000BF
:1044500000A912FD1C1012C311E611011200000088
:1044600000B41686165816611675168516000000DB
:0E447000007F1BFD1C1A1B491B2D1B6D1B0022
:00000001FF
