:100000000C948E000C94B6000C94B6000C94FB116A
:100010000C941F120C9443120C94B6000C94B6006E
:100020000C94B6000C94B6000C94B6000C941B1300
:100030000C94B6000C94B6000C94B6000C94B60068
:100040000C94BF180C94B6000C94961A0C94D21A07
:100050000C94B6000C94B6000C94B6000C94B60048
:100060000C94F6160C94B600690D7C0D8C0D9F0D4A
:10007000A70DD50DDD0DE80DF00DFA0DFA0DFA0DF9
:10008000FA0DFA0DFA0DFA0DFA0DFA0DFA0DFA0D38
:10009000FA0DFA0DFA0DFA0DFA0DFA0DFA0DFA0D28
:1000A000FA0DFA0DFA0DFA0D690D750D7C0D8C0D1A
:1000B0009F0DA70DBA0DC20DCA0D0000000700026A
:1000C000010000030406000000000000000001021F
:1000D00004081020408001020408102001020408D6
:1000E00010200404040404040404020202020202B4
:1000F000030303030303000000002300260029007C
:1001000000000000250028002B0000000000240053
:1001100027002A00FD0913168D1BC40A11241FBED7
:10012000CFEFD8E0DEBFCDBF12E0A0E0B1E0E0ED60
:10013000F0E402C005900D92AA37B107D9F718E094
:10014000AAE7B2E001C01D92A636B107E1F711E0BF
:10015000CAE1D1E004C02297FE010E94D21DC43141
:10016000D107C9F70E94ED190C945B200C94000094
:10017000FC01DB0132812381948185813C931196BE
:100180002C93119712969C93129713968C93139716
:10019000368127819085818514963C931497159616
:1001A0002C93159716969C93169717968C9388E028
:1001B00090E00895FB012181428150E060E070E011
:1001C000BA0155274427522B2081422B2381722BC1
:1001D000DC0112964D935D936D937C931597258169
:1001E000468150E060E070E0BA0155274427522B69
:1001F0002481422B2781722BFC0146835783608721
:10020000718788E090E008958EE091E00895AF92C4
:10021000BF92CF92DF92EF92FF920F931F93CF93F3
:10022000DF935C01DB0111969C91119780E02C918A
:10023000822BF5019383828312964D915D916D918E
:100240007C911597ED0126968A019B010A5F1F4F4D
:100250002F4F3F4F05C0F990CE010297FC01F0826D
:100260006E01CA1ADB0AE12CF12CC016D106E20697
:10027000F30688F3ED01C40FD51F1D82CD0105964D
:10028000F50195838483ED01C40FD51F0E811F8175
:1002900028853985EA012A96CD018C0F9D1FAE0174
:1002A000662757FD6095762F400F511F621F731F01
:1002B00009C0FC01D190CF017F01F2E0EF1AF108F3
:1002C000F701D0826C01CA1ADB0AE12CF12CC416AA
:1002D000D506E606F70668F30C0F1D1FCD01800F4B
:1002E000911F0197FC0110822197CA0FDB1FF501B6
:1002F000D783C683C801DF91CF911F910F91FF90E3
:10030000EF90DF90CF90BF90AF9008958CE191E097
:100310000895AF92BF92CF92DF92EF92FF920F9328
:100320001F93CF93DF935C01FB018081D50112966F
:100330008C934181528163817481DF0115968A011A
:100340009B010B5F1F4F2F4F3F4F05C0FD90CD010D
:100350000297EC01F8826D01CE1ADF0AE12CF12C34
:10036000C016D106E206F30688F3DF01A40FB51F1D
:1003700014961C923496D5011496FC93EE93139721
:100380004B5F5F4FCA01DF91CF911F910F91FF909B
:10039000EF90DF90CF90BF90AF90089585E391E00C
:1003A000089581EB91E00895FC0122818381FB0196
:1003B0002083818382E090E00895FB01318120E079
:1003C0004081242BFC013383228382E090E0089556
:1003D00088E491E008950F931F93CF93DF93EC018E
:1003E0008C010A5F1F4FC8010E94DD01EA85FB8571
:1003F000C801DF91CF911F910F91099481E090E0A6
:10040000089588E491E00895FC01628173818DEB89
:1004100095E00C94AF14FC016281738180EC95E04F
:100420000C94AF14BF92CF92DF92EF92FF920F9392
:100430001F93CF93DF93EC017B018A81FB018083C3
:10044000118212821382379620E084E090E01DC072
:10045000AF81B88534E0239FA00DB11D11246C91AC
:1004600011965C91119712964C91129713963C91AC
:10047000DF0113976C93DF0112975C93DF011197F3
:100480004C93308304962F5F34963A81231700F300
:100490002985F701E80FF91F208311821282138248
:1004A000049620E016C0AE85BF8534E0239FA00DE2
:1004B000B11D11246C9111965C91119712964C917B
:1004C000129713963C916083518342833383049641
:1004D0002F5F3985F701E80FF91F231720F32889CB
:1004E0002083118212821382DC011496B12C2EC05B
:1004F0006701CA0EDB1E9B898C89E92FF82FEB0D53
:10050000F11DEB0DF11D60817181CB01FC010190AA
:100510000020E9F7AF0141505109481B590B8A01EE
:1005200020E030E0F60100831183228333838D01C4
:100530000C5F1F4F9701200F311FC9010E9413202C
:10054000F601A081B181A00FB11FB3948889B816BC
:1005500078F2CD01DF91CF911F910F91FF90EF9035
:10056000DF90CF90BF900895CF93DF93FC01EB0114
:100570008281888363817481DB01FD010190002009
:10058000E9F73197EA1BFB0BCF01A0E0B0E08983CC
:100590009A83AB83BC839E012B5F3F4FAF01C901A0
:1005A0000E94132029813A812B5F3F4FC901DF91BF
:1005B000CF910895CF92DF92EF92FF920F931F9306
:1005C000CF93DF937C01EB01DC0112969C91129793
:1005D00013968C9113979883898314966C91149732
:1005E00015967C91DB01FD0101900020E9F7319720
:1005F000EA1BFB0B8F0120E030E00A831B832C8376
:100600003D839E012A5F3F4FAF01C9010E94132025
:100610008A819B816C01B6E0CB0ED11CCC0EDD1E15
:10062000F70166817781DB01FD0101900020E9F788
:100630003197EA1BFB0B8F0120E030E0D6010D93D0
:100640001D932D933C9313978C01065F1F4FC00F92
:10065000D11FAF01CE010E941320F601208131810C
:10066000200F311FC901DF91CF911F910F91FF9092
:10067000EF90DF90CF9008954F925F927F928F928C
:100680009F92AF92BF92CF92DF92EF92FF920F9321
:100690001F93CF93DF93EC018B01DB01FC908A81E8
:1006A0008F1550F4B4E0FB9EB00111248F81988522
:1006B0000E942D1F8F839887FA82F8013796F12CBC
:1006C000B4E0CB2ED12C9E012D5F3F4F2FC0408137
:1006D00050E060E070E0742F662755274427DF0163
:1006E00013978C91482BDF0112978C91582BDF01C7
:1006F00011978C91682B4B835C836D837E8384E0A0
:10070000C80ED11C4F815885A4E0FA9E400D511DA2
:100710001124D9018D909D90AD90BC90DA018D92FD
:100720009D92AD92BC921397F39434968A81F816F9
:1007300070F2F801EC0DFD1DF08089858F1550F4E5
:10074000B4E0FB9EB00111248E859F850E942D1F71
:100750008E879F87E4E0CE0ED11CF986F12C5E01D6
:10076000FAE0AF0EB11C2BC011968C911197129626
:100770004C91129750E060E070E0BA015527442791
:10078000582B8C91482B13968C91782B4A875B873A
:100790006C877D8784E0C80ED11C2E853F85A4E040
:1007A000FA9E200D311D1124F50180819181A281D5
:1007B000B381F90180839183A283B383F394898504
:1007C000D801AC0DBD1DF81678F2FC9088898F1504
:1007D00050F46F2D70E0660F771F8B899C890E9403
:1007E0002D1F8B8B9C8B96012C5F3F4FF88A712CB1
:1007F0002E01F1E14F0E511C44C0F801E20FF31F2E
:10080000C080D180E280F380C9010496F801E80F2E
:10081000F91FAC01662757FD6095762F4C0D5D1DC5
:100820006E1D7F1D06C0B1909F0122503109D90174
:10083000BC929F01201B310B4901A12CB12C8416C5
:100840009506A606B70678F3C80ED91EF801EC0D7A
:10085000FD1D31971082AC0141505109400F511FCD
:100860005A8B498B96019B898C89E92FF82FE70DCC
:10087000F11DE70DF11DD2018D919C919183808333
:1008800073948889781608F4B8CFC901DF91CF91A5
:100890001F910F91FF90EF90DF90CF90BF90AF909E
:1008A0009F908F907F905F904F900895CF93DF93AC
:1008B000FC0186819781EC01A881B9814281538135
:1008C00064817581ED91FC91DF91CF910994CF9274
:1008D000DF92EF92FF920F931F93CF93DF93EC0180
:1008E000162F8C81882309F446C0DA01ED91FC9122
:1008F000BE01655F7F4F0190F081E02DCA0109952F
:100900002FEF2D832E831F83188689871A8622E076
:1009100030E040E050E0BC016B5F7F4F07C0E20F6A
:10092000F31FE5814E0F511D2F5F3F4FFE016217F0
:100930007307ACF7E80FF91F409543878C01095FF7
:100940001F4FCA80DB807E01B5E0EB0EF11CE70192
:100950000BC0F601808191816991DC01ED91FC91E0
:100960000190F081E02D0995CE018E199F09801725
:1009700091077CF302C000E010E0C801DF91CF9145
:100980001F910F91FF90EF90DF90CF900895AC01F1
:1009900020E030E0FA01E75BFD4F0190F081E02DAF
:1009A000EF2BA1F4A901440F551F480F591FFA015D
:1009B000E75BFD4F7183608323583F4FFB01358315
:1009C000248308969783868381E008952F5F3F4FA5
:1009D0004E5F5F4F29313105E9F680E0089540917F
:1009E000E6025091E7026091E8027091E90280917D
:1009F000E4029091E5020E940D1B10929005109266
:100A00008F05109292051092910510929605109202
:100A10009505109294051092930510929A051092E4
:100A2000990560E080910C010E94501860E080916F
:100A300006010E94501861E08DE00E9450186091FC
:100A40000A0170910B0180EC95E00E947614609190
:100A50000801709109018DEB95E00E94761482EFF8
:100A600096E00E94D71542E063E083EC95E00E9497
:100A7000751083EC95E00E94DA0F80E090E0A2E030
:100A8000B4EC8093E7059093E805A093E905B09353
:100A9000EA0580E090E8AEE0B4EC8093EB0590933B
:100AA000EC05A093ED05B093EE0580E090E8A0E49E
:100AB000B4EC8093EF059093F005A093F105B0930B
:100AC000F20580E090E0A7E0B4E48093DB0590932A
:100AD000DC05A093DD05B093DE0580E090E0AAEF91
:100AE000B3E48093DF059093E005A093E105B09314
:100AF000E20580E090E0A4E3B3E48093E305909303
:100B0000E405A093E505B093E6056AE972E082EE9C
:100B100092E00E94C7046AE872E082EE92E00E94CE
:100B2000C70462E972E082EE92E00E94C70462E8C4
:100B300072E082EE92E00E94C7046AE772E082EE01
:100B400092E00E94C7048091990590919A0589319D
:100B50009105ACF4FC01EE0FFF1FE35AFA4F2EEAA9
:100B600032E0318320839C012C593F4F3093B102F6
:100B70002093B002019690939A05809399058091F5
:100B8000990590919A0589319105ACF4FC01EE0F1D
:100B9000FF1FE35AFA4F22EA32E0318320839C019F
:100BA0002C593F4F3093A5022093A40201969093B5
:100BB0009A058093990562E370E080E090E00C94E0
:100BC0004519CF93DF9300D000D01F92CDB7DEB789
:100BD00021ED31E03A8329836B835D834C83AE0141
:100BE0004F5F5F4F65E070E008960E9467040F90CA
:100BF0000F900F900F900F90DF91CF9108950F936A
:100C00001F93CF93DF93CDB7DEB72A970FB6F89433
:100C1000DEBF0FBECDBF8C0185EE91E09A83898344
:100C20001B821C821D821E821F82188619861A86CC
:100C3000AE014F5F5F4F6AE070E0C80108960E9406
:100C400067040E940919F801EB5DFE4F6083718310
:100C5000828393832A960FB6F894DEBF0FBECDBF72
:100C6000DF91CF911F910F9108958F929F92AF9234
:100C7000BF92CF92DF92EF92FF920F931F93CF9389
:100C8000DF93CDB7DEB728970FB6F894DEBF0FBE5F
:100C9000CDBF8C0181E0D8011C968C938BED91E047
:100CA0009A83898378015801B2E3AB0EB11C6801C5
:100CB0004801E8E08E0E911CF601E75BFD4F0190C4
:100CC000F081E02D3097D9F0848195819C838B83CE
:100CD000808191819E838D8382819381DC01ED915E
:100CE000FC910480F581E02D099598878F83AE01F2
:100CF0004F5F5F4F60E070E0C4010E946704B2E0A4
:100D0000CB0ED11CCA14DB04B9F6085F1F4FF701E4
:100D1000E558FD4FA081B1811097F1F012968D91A9
:100D20009C9113979C838B8314968D919C9115971E
:100D30009E838D83ED91FC9111970480F581E02DC8
:100D4000CD01099598878F83AE014F5F5F4F61E0BA
:100D500070E0C8010E946704E2E0EE0EF11CEA14A4
:100D6000FB04A9F628960FB6F894DEBF0FBECDBFE0
:100D7000DF91CF911F910F91FF90EF90DF90CF9077
:100D8000BF90AF909F908F9008954F925F926F9217
:100D90007F92AF92BF92CF92DF92EF92FF920F932A
:100DA0001F93CF93DF93CDB7DEB72A970FB6F89492
:100DB000DEBF0FBECDBF8C015B0185EE91E09A8353
:100DC00089831B821C821D821E821F8218861986BF
:100DD0001A860E9409196B017C01F801EB5DFE4F38
:100DE00080819181A281B381C81AD90AEA0AFB0ADB
:100DF000B501CE0101960E94DA0088EE482E83E00C
:100E0000582E612C712CC701B601A30192010E94DA
:100E1000921D69017A019B01AC018B819C81AD819E
:100E2000BE818C0D9D1DAE1DBF1D8B839C83AD832C
:100E3000BE8360E472E48FE090E00E94621DCF8088
:100E4000D884E984FA84C60ED71EE81EF91ECF8224
:100E5000D886E986FA860E940919580127EDA21A58
:100E60002EEFB20ACB80DC80ED80FE80E1E0CE1A6E
:100E7000D108E108F108A30192010E94921D290105
:100E80003A019B01AC01C418D508E608F708F50142
:100E9000C082D182E282F382F801E35DFE4FCF800F
:100EA000D884E984FA8486E3D81A85E6E80A84ECD3
:100EB000F80A60E472E48FE090E00E94621DC61AB6
:100EC000D70AE80AF90AC082D182E282F382BF011E
:100ED000C5010E940D150E940919F801E354FD4F48
:100EE00060837183828393832A960FB6F894DEBF62
:100EF0000FBECDBFDF91CF911F910F91FF90EF906B
:100F0000DF90CF90BF90AF907F906F905F904F90A9
:100F100008952F923F924F925F926F927F928F929D
:100F20009F92AF92BF92CF92DF92EF92FF920F9378
:100F30001F93CF93DF93CDB7DEB760970FB6F894CA
:100F4000DEBF0FBECDBF988B8F870E9409192B0182
:100F50003C01EF85F889E354FD4F80819181A281A6
:100F6000B381A3019201281B390B4A0B5B0BDA01F9
:100F7000C901893F9A42A105B10520F0AF85B88922
:100F80001C961C92EF85F889E355FD4F8081918175
:100F9000892B81F0AF85B889AF53BD4F8D919D915D
:100FA0000D90BC91A02D84159505A605B70510F4EC
:100FB000118210822F843888BBE42B1ABDEF3B0AC4
:100FC0000F85188903551D4FCF84D888EFE4CE1ABA
:100FD000EDEFDE0A8F849888FFEC8F1AFEEF9F0AF0
:100FE0002F8538892A533D4F3A8329834F85588965
:100FF0004B535D4F5C834B832F85388927543D4F7E
:101000003E832D834F85588943545D4F58874F83C6
:10101000EF84F88851E5E51A5DEFF50AAF84B888EA
:101020008DE4A81A8DEFB80A2F8538892F533D4FCC
:101030003A872987A30192012C5E3F4F4F4F5F4FA4
:101040002B873C874D875E87AF85B88912968D9137
:101050009C911397DC01ED91FC910680F781E02DC6
:10106000099597FDEBC0F10140815181480F591F4F
:1010700051834083D8012D913C9126303105D1F424
:10108000F50120813181EF85F889E20FF31FEF5CD4
:10109000FE4F80832F5F3F4FD5012D933C93F70187
:1010A00080819181019791838083892B69F687E004
:1010B00090E04FC021153105A1F48F3F910521F635
:1010C00081E090E0F801918380832B853C854D85FC
:1010D0005E85A985BA852D933D934D935C931397B7
:1010E000B3CF2130310551F48F3F910519F482E0DF
:1010F00090E022C0D8011D921C92A6CF223031056B
:1011000061F4F6019183808323E030E0D8012D93D0
:101110003C93F1019183808397CF2330310571F4A3
:10112000982F8827D6012D913C911197280F391FB0
:101130002D933C9384E090E0F801ECCF243031050E
:1011400051F4D7018D939C93F5011182108285E0B3
:1011500090E0D80117C025303105B9F4982F8827C1
:10116000F70120813181820F931F9183808326E0D4
:1011700030E0D80111963C932E93892B09F064CF6F
:1011800087E090E08D939C935FCF2730310509F085
:101190005BCFCA0160E071E00E947E1D8F3F910528
:1011A00009F048C0F601808191810097B1F48F85E4
:1011B00098890E94FF058F8598890E943506AD8128
:1011C000BE814D925D926D927C921397EF81F8856E
:1011D00040825182628273822DC08A30910531F43F
:1011E000B4018F8598890E94C50624C0843091057A
:1011F00051F4B40189819A810E943C0381E0AB8162
:10120000BC818C9317C084569109880F991F2F8534
:101210003889820F931FFC01E558FD4F8081918131
:10122000009741F0DC01ED91FC910190F081E02DFF
:10123000B4010995F8011182108206CFAF85B889F3
:101240001C968C911C978823F9F08D0107541D4F33
:10125000F80180819181A281B381A3019201281BB1
:10126000390B4A0B5B0BDA01C901853C9940A1059A
:10127000B10550F08F8598890E94FF05D8014D92E5
:101280005D926D927C92139760960FB6F894DEBFD4
:101290000FBECDBFDF91CF911F910F91FF90EF90C7
:1012A000DF90CF90BF90AF909F908F907F906F9086
:1012B0005F904F903F902F900895CF92DF92EF92E2
:1012C000FF92CF93DF930E9409196B017C01C0E06C
:1012D00019C08CE696E00E94A610D82F48E551E090
:1012E00061E082EE92E00E94E1056D2F89EF95E0CA
:1012F0000E94020E8111C1E08CE696E00E94F3107C
:10130000892B39F70E9409196C197D098E099F09EB
:10131000683E73408105910578F3CC2309F449C0F8
:101320002AEB32E04EEB52E062EC72E089EF95E09E
:101330000E94CF0E20E030E0A9016091450270913B
:10134000460280914702909148020E94051C81113B
:1013500009C06091C2027091C3028091C402909151
:10136000C50203C060E070E0CB016093C2027093DD
:10137000C3028093C4029093C5020E94711C7093B3
:10138000CD026093CC026091BE027091BF02809149
:10139000C0029091C1020E94711C7093C9026093B7
:1013A000C80282E892E00E9456048AE792E00E9416
:1013B00056048AE992E00E94560482E992E00E9473
:1013C00056048AE892E00E94560445E651E061E046
:1013D00082EE92E00E94E10582EE92E00E9489078F
:1013E00043E751E061E082EE92E0DF91CF91FF9020
:1013F000EF90DF90CF900C94E1050F931F93CF9364
:10140000DF9320E042E063E08CE696E00E94B512B4
:1014100089EF95E00E94C80A83EC95E00E944F0F87
:1014200080EC95E00E94D9138DEB95E00E94D913D2
:1014300083E092E09093E3028093E202E4EEF2E034
:101440008BEB97E09183808380E091EEA0E0B0E0A9
:101450008093E6029093E702A093E802B093E9023A
:1014600089E092E09093EB028093EA02F093ED0220
:10147000E093EC021092EE028FE092E09093A905C7
:101480008093A8054EED52E08FEE91E0FA01918332
:1014900080832AED32E0F90191838083C6EDD2E0AA
:1014A000998388839093D3028093D2029093CF0242
:1014B0008093CE02AAECB2E011969C938E93E6EC58
:1014C000F2E09183808369EF71E07093AF026093E3
:1014D000AE029093B5028093B40209E711E0109335
:1014E000B3020093B2020BE012E01093B902009332
:1014F000B8027093A3026093A2029093A902809312
:10150000A80280E891E09093A7028093A60284E06D
:1015100092E09093AD028093AC0287E891E09093C3
:101520009B0280939A0250939D0240939C0284E90F
:1015300091E09093930280939202309395022093CE
:10154000940289E991E090938B0280938A02D09370
:101550008D02C0938C0281EA91E090938302809384
:101560008202B0938502A093840289EA91E090936D
:101570007B0280937A02F0937D02E0937C02DF91FC
:10158000CF911F910F9108958CE696E00C9414135F
:101590000F931F93FC010FEF1FEF9801008311833E
:1015A0002283338310861186128613864FEF59ECFF
:1015B0006AE97BE3408B518B628B738B408F518F39
:1015C000628F738F40A351A362A373A340A751A757
:1015D00062A773A740AB51AB62AB73AB00AF11AF67
:1015E00022AF33AFDC01A05CBF4F8FEF90E08D9353
:1015F0009C93DF01AC5BBF4F0D931D932D933C93E8
:101600001397DF01A45BBF4F0D931D932D933C9364
:101610001397DF01AC5ABF4F1C92DF01AB5ABF4F8B
:101620001C92DF01AB59BF4F82E08C93DF01AA59B6
:10163000BF4F1C92DF01A959BF4F1C92DF01A8596F
:10164000BF4F1C92DF01A759BF4F1D921D921D92E3
:101650001C921397DF01A359BF4F1D921C92DF010B
:10166000A159BF4F1D921C92EA5AFF4F10821F9141
:101670000F910895862F8154262F332727FD30950B
:10168000863018F42753310908C06156663018F4C3
:101690002755310902C020533109C9010895CF935C
:1016A000FB0120E030E0A90114C0AAE0B0E00E94F4
:1016B0004F1D9B01AC018C2F992787FD9095A92F79
:1016C000B92F280F391F4A1F5B1F205331094109C9
:1016D0005109C1918C2F80538A3038F3B901CA0166
:1016E000CF9108952F923F924F925F926F927F9287
:1016F0008F929F92AF92BF92CF92DF92EF92FF9222
:101700000F931F93CF93DF93EC01CA5ADF4FBE01B3
:101710000E944F0B3B018C0124E630E040E050E09A
:101720000E94921D9B01AC01A0E1B7E20E944F1DF7
:101730006B017C01FE018191982F90539A30D8F370
:101740008E3231F5EF0188EE882E83E0982EA12CA1
:10175000B12C9AE0292E312C412C512C14C0BB27DE
:10176000A7FDB095D097A50194010E945A1DC60E01
:10177000D71EE81EF91EC501B401A20191010E9405
:10178000921D49015A01A9918A2F80538A3038F35A
:10179000C701B60126E030E040E050E00E94921D13
:1017A00069017A01B301C80124E630E040E050E06D
:1017B0000E94921D60EA76E881E090E00E94621D3E
:1017C000C60ED71EE81EF91EB601C701DF91CF91E4
:1017D0001F910F91FF90EF90DF90CF90BF90AF904F
:1017E0009F908F907F906F905F904F903F902F9041
:1017F0000895FF920F931F93CF93DF93EC01CA5A82
:10180000DF4FFF24F39428812D3211F0F12C03C017
:10181000EC01C95ADF4FBE010E944F0B9B01AC0186
:10182000A4E6B0E00E944F1D8B019C01FE0189914E
:10183000982F90539A30D0F38E3221F58181982FD2
:1018400090539A30F8F44AE08402C0011124805E7B
:101850009140AA2797FDA095BA2F080F191F2A1F9C
:101860003B1F8281982F90539A3060F4992787FD0F
:101870009095C097AA2797FDA095BA2F080F191F1A
:101880002A1F3B1FFF2039F03095209510950195B8
:101890001F4F2F4F3F4FB801C901DF91CF911F91CB
:1018A0000F91FF900895FB01DA018191882319F0CF
:1018B0009D918917D1F3282F332727FD3095932F3A
:1018C0000895EF92FF920F931F93CF93DF93EC0154
:1018D000FC01EB5AFF4F8081FE01882309F4B8C058
:1018E000EA5AFF4F6081CE010E943A0B182FFE0189
:1018F000E95AFF4F6081CE010E943A0B20E1129F0E
:10190000800D1124FE01EC5AFF4F908189139AC07B
:10191000FE01E859FF4F8081882309F46BC1FE0165
:10192000E359FF4F80819181019691838083FE016D
:10193000EC5BFF4FDE01A85BBF4F8D919D910D9039
:10194000BC91A02D80839183A283B383FE01E45BCD
:10195000FF4FDE01A05BBF4F8D919D910D90BC911B
:10196000A02D80839183A283B383FE01EB59FF4FA7
:1019700080818823A1F1813009F03AC18C819D8159
:10198000AE81BF8188839983AA83BB838C859D8523
:10199000AE85BF8588879987AA87BB878C899D89F3
:1019A000AE89BF89888B998BAA8BBB8B8C8D9D8DC3
:1019B000AE8DBF8D888F998FAA8FBB8F8CA59DA56B
:1019C000AEA5BFA588A799A7AAA7BBA78CA99DA9C3
:1019D000AEA9BFA988AB99ABAAABBBAB09C18CA11F
:1019E0009DA1AEA1BFA188A399A3AAA3BBA38C81EB
:1019F0009D81AE81BF8188839983AA83BB838C89B3
:101A00009D89AE89BF89888B998BAA8BBB8B8C8D66
:101A10009D8DAE8DBF8D888F998FAA8FBB8FFE0154
:101A2000E05CFF4FDE01AE5BBF4F8D919C919183D7
:101A300080838CAD9DADAEADBFAD88AF99AFAAAF81
:101A4000BBAFD6C0C159DF4F888199810196BDC017
:101A5000EA59FF4F9081911120C07E0186E5E80E82
:101A6000F11C45E152E0B701CE010E94530C8E01FA
:101A70000B591F4F892B11F481E00CC04BE152E050
:101A8000B701CE010E94530C892B19F4F801108282
:101A9000B1C082E0F8018083ADC0FE01EB59FF4F79
:101AA000E081E23009F4A6C0DE01AA5ABF4F8C9152
:101AB000882309F49FC020E2E29FF0011124E92B62
:101AC0003197E932F10508F095C0EC5CFF4F0C94BA
:101AD000D01DCE010E94F90B6C837D838E839F8382
:101AE0000E940919C85BDF4F12C0C859DF4F91E04F
:101AF000813409F460C05EC0CE010E94720B6C8B11
:101B00007D8B8E8B9F8B0E940919C05BDF4F688392
:101B100079838A839B836EC0833509F06BC08C897F
:101B20009D89AE89BF89B095A095909581959F4F6D
:101B3000AF4FBF4F8C8B9D8BAE8BBF8B5BC0CE01ED
:101B40000E94720B6C8F7D8F8E8F9F8F53C0873555
:101B500009F050C08C8D9D8DAE8DBF8DB095A09538
:101B6000909581959F4FAF4FBF4F8C8F9D8FAE8FBC
:101B7000BF8F40C0CE010E94F90B6CA77DA78EA736
:101B80009FA738C0CE010E94F90B6CAB7DAB8EAB2A
:101B90009FAB30C0BE016A5A7F4FCE010E944F0BEF
:101BA0006C877D878E879F8725C0C859DF4F91E05E
:101BB00081330CF490E098831DC0CE018A5A9F4F68
:101BC0000E94F51FCE5BDF4F99279983888312C04F
:101BD000CE010E94F90B6CAF7DAF8EAF9FAF0AC0F4
:101BE000CE010E94F90B6CA37DA38EA39FA302C01C
:101BF00081E001C080E0DF91CF911F910F91FF90B4
:101C0000EF9008951F93CF93DF93EC01162FFC0103
:101C1000E759FF4F40815181628173814F5F5F4F70
:101C20006F4F7F4F4083518362837383FC01E95977
:101C3000FF4F1432A9F134F41A3079F01D3009F055
:101C400045C00BC01A3249F01C3209F03FC0FC01FC
:101C5000EC5AFF4F808181278083FE01E959FF4FB5
:101C600080818F3050F4FE01E80FF11DEA5AFF4FDA
:101C70001082CE010E94610C01C080E0FE01EA5991
:101C8000FF4F90819F5F9083FE01E959FF4F1082C3
:101C9000CB5ADF4F91E01A3209F090E098832DC0C3
:101CA0001082FC01EA59FF4F1082FC01EC5AFF4FF1
:101CB0001082FC01EB59FF4F82E08083FE01EB5A5A
:101CC000FF4F1082C859DF4F188216C080818E30B6
:101CD00040F4DE01A80FB11DAA5ABF4F1C938F5FBD
:101CE0008083FE01EB5AFF4F8081811105C0CC5AE1
:101CF000DF4F88818127888380E0DF91CF911F911A
:101D00000895CF92DF92EF92FF920F931F93CF939C
:101D1000DF93E9016115710551F0FC01C088D1889C
:101D2000E288F388FB01C082D182E282F38241150E
:101D3000510551F0FC01C08CD18CE28CF38CFA017E
:101D4000C082D182E282F382209701F18C01045B90
:101D50001F4FF80180819181A281B3818F3F9F4FF6
:101D6000AF4FBF4F61F00E940919F8010081118146
:101D700022813381601B710B820B930B03C06FEFC9
:101D80007FEFCB01688379838A839B83DF91CF9137
:101D90001F910F91FF90EF90DF90CF9008958F9259
:101DA0009F92AF92BF92EF92FF920F931F93CF93A8
:101DB000DF93CDB7DEB728970FB6F894DEBF0FBE1E
:101DC000CDBF7B018A01AE014F5F5F4FBE016B5FEC
:101DD0007F4F0E94810E8D809E80AF80B8848FEFF0
:101DE000881689EC98068AE9A8068BE3B80659F0AC
:101DF000C501B4010E949F1C20E030E543EC57E48C
:101E00000E94091C04C060E070E08AE794E4382F67
:101E1000292F862F972FA32FB22FF701808391832D
:101E2000A283B383FFEF8F16F9EC9F06FAE9AF06A2
:101E3000FBE3BF0669F069817A818B819C810E94F6
:101E40009F1C20E030E543EC57E40E94091C04C0CD
:101E500060E070E08AE794E4382F292F862F972FCF
:101E6000A32FB22FF80180839183A283B383289696
:101E70000FB6F894DEBF0FBECDBFDF91CF911F919B
:101E80000F91FF90EF90BF90AF909F908F9008952B
:101E9000DC01ED91FC910190F081E02D0994FC01B1
:101EA00080E090E0A7E0B4E4808F918FA28FB38FA1
:101EB00080E090E0AAEFB3E4848F958FA68FB78F70
:101EC00080E090E0A4E3B3E480A391A3A2A3B3A332
:101ED00040E050E062E074EC44A355A366A377A30E
:101EE00040E050E86EE074EC40A751A762A773A7EA
:101EF00040E050E860E474EC44A755A766A777A7D4
:101F000083E081AB88E182AB14AA13AA15AA0895D5
:101F1000EF92FF921F93CF93DF931F92CDB7DEB75F
:101F20007C01162FFC0162A982EF96E049830E9492
:101F3000F115612F82EF96E00E9497154981642F79
:101F400082EF96E00E94971582EF96E00E941016AD
:101F5000F70180AB0F90DF91CF911F91FF90EF9031
:101F60000895EF92FF921F93CF93DF931F92CDB707
:101F7000DEB77C01162F6EE170E082EF96E04983B8
:101F80000E94FB15612F82EF96E00E949715498110
:101F9000642F82EF96E00E94971582EF96E00E94F0
:101FA0001016F70180AB0F90DF91CF911F91FF903A
:101FB000EF900895CF93DF93EC0147E260E20E9437
:101FC000880F40E062E0CE01DF91CF910C94B10F19
:101FD0000F931F93CF93DF938C01EB0177FF31C0F9
:101FE0006D3F8FEF7807C1F02CF46C3FFFEF7F0758
:101FF00041F517C06E3F8FEF780749F06F3FEFEF65
:102000007E07F9F4F80181A9811110C015C0F8010B
:1020100081A981110EC013C0F80181A981110CC0E2
:1020200005C0F80181A981110AC003C0C7E0D0E052
:1020300008C0C8E0D0E005C0C5E0D0E002C0C6E0FE
:10204000D0E06EE170E082EF96E00E94FB15BE01E9
:1020500082EF96E00E94480F82EF96E00E941016F1
:10206000F80180AB41E050E06EE170E082EF96E075
:102070000E94EE1582EF96E00E944415C82F82EF71
:1020800096E00E9410168C2FDF91CF911F910F9137
:102090000895CF93DF93EC0168E170E082EF96E062
:1020A0000E94FB1560E270E082EF96E00E94480F0C
:1020B00082EF96E00E94101688AB41E050E068E1A4
:1020C00070E082EF96E00E94EE1582EF96E00E94AB
:1020D0003B15892B31F082EF96E00E94441580E099
:1020E00001C081E0DF91CF910895CF93DF93EC01A0
:1020F00069AB623018F0623089F40DC0411101C043
:1021000008C0413009F407C00E944910813009F429
:1021100002C088E101C089E18AAB15C00E94491064
:10212000813029F489E18AAB82E089AB0CC088E177
:102130008AAB6FE070E0CE010E94E80F91E08C3333
:1021400009F090E099ABDF91CF9108952091CA06F4
:102150003091CB0628173907C1F4909188068091F9
:102160008906981791F0E0918806F0E0E657F94F5C
:1021700080812091880630E02F5F3F4F2F733327F7
:1021800020938806282F30E002C02FEF3FEFC901CF
:1021900008952091CA063091CB062817390781F49B
:1021A0009091880680918906981751F0E0918806F1
:1021B000F0E0E657F94F2081332727FD309502C024
:1021C0002FEF3FEFC90108952091CA063091CB0649
:1021D0002817390739F48FB7F894109289061092AE
:1021E00088068FBF08952091CA063091CB06281724
:1021F000390779F4809189062091880690E0805C07
:102200009F4F821B910960E470E00E947E1D9C013B
:1022100002C020E030E0C9010895DC015196ED9143
:10222000FC915297208150968C91809582238083D7
:10223000089520E001972FEF8F3F9207D9F7089577
:10224000EF92FF920F931F93CF93DF93EC018B8D4F
:10225000EE85FF859D8581FF04C08081892329F457
:1022600045C08081892309F041C08B899C890E94E7
:10227000191108E010E0EE24E394F12C8D899E8979
:102280000E941911EE85FF8580819D85892311F0BB
:10229000FE2803C08E2D8095F822EE0C0150110906
:1022A00069F78F89988D0E9419118B8D81FDF094AB
:1022B000809189062091880690E001968F73992776
:1022C00030E08217930779F0E0918906F0E0E65755
:1022D000F94FF0828091890690E001968F739927DB
:1022E0008093890603C08B8D81608B8FDF91CF91A6
:1022F0001F910F91FF90EF900895611102C00C940F
:102300000D11DC015196ED91FC9152972081509670
:102310008C91282B20830895DF92EF92FF920F93E8
:102320001F93CF93DF93EC01E62E898D9A8D892B35
:1023300039F481E090E09B838A8320E030E049C05B
:10234000DFB6F8946B8D66956170CE010E947D11A9
:10235000898D9A8D05960E9419118B8D08E010E0E9
:10236000FF24F39481FF17C08F2D8E2121F0CE0121
:102370000E940D1104C061E0CE010E947D11898D83
:102380009A8D0E941911FF0C0150110969F7CE01B5
:102390000E940D1117C08F2D8E2129F061E0CE0112
:1023A0000E947D1103C0CE010E940D11898D9A8D6E
:1023B0000E941911FF0C0150110969F761E0CE016B
:1023C0000E947D11DFBE898D9A8D0E94191121E036
:1023D00030E0C901DF91CF911F910F91FF90EF90F5
:1023E000DF9008958091CA069091CB06009711F076
:1023F0000C94201108951F920F920FB60F92112482
:102400002F933F934F935F936F937F938F939F93FC
:10241000AF93BF93EF93FF930E94F211FF91EF915F
:10242000BF91AF919F918F917F916F915F914F91EC
:102430003F912F910F900FBE0F901F9018951F92F4
:102440000F920FB60F9211242F933F934F935F93E8
:102450006F937F938F939F93AF93BF93EF93FF936C
:102460000E94F211FF91EF91BF91AF919F918F91D7
:102470007F916F915F914F913F912F910F900FBE80
:102480000F901F9018951F920F920FB60F92112464
:102490002F933F934F935F936F937F938F939F936C
:1024A000AF93BF93EF93FF930E94F211FF91EF91CF
:1024B000BF91AF919F918F917F916F915F914F915C
:1024C0003F912F910F900FBE0F901F9018951F9363
:1024D000CF93DF93EC01162F61E0812F0E945018FB
:1024E00061E0812F0E948818812F90E0FC01E25367
:1024F000FF4FE491E88BFC01EE51FF4FE491F0E0D7
:10250000EE0FFF1FE050FF4F85919491898B9A8BBE
:10251000DF91CF911F9108951F93CF93DF93EC012B
:10252000162F60E0812F0E9450188B8D81FD04C012
:1025300061E0812F0E9488181C87812F90E0FC01A8
:10254000E253FF4FE491ED87FC01EE51FF4FE49120
:10255000F0E0EE0FFF1FEA50FF4F859194918E87B8
:102560009F87DF91CF911F910895FF920F931F9343
:10257000CF93DF93EC01F62E522F1B821A8208EEC6
:1025800013E020E030E00C831D832E833F838DE435
:1025900092E0998388831C8A1B8A1E8A1D8A188E62
:1025A0001F8A1A8E198E8B8D8E7F50FB81F98B8F2F
:1025B000642FCE010E9467126F2DCE01DF91CF9163
:1025C0001F910F91FF900C948C12FC0144854631B1
:1025D00050F5483028F04E3030F4EBE6F0E005C01E
:1025E000EDE6F0E002C0ECE6F0E05081483040F467
:1025F00081E090E0042E01C0880F0A94EAF710C031
:10260000242F30E04E3018F42850310902C02E50EB
:10261000310981E090E0022E01C0880F0A94EAF7A8
:1026200080958523808308952DE432E0FC01318379
:1026300020830C94E5121F920F920FB60F92112473
:102640002F933F934F935F936F937F938F939F93BA
:10265000AF93BF93EF93FF938091CD0687FF05C0A3
:1026600010928500109284001AC02091CD06332765
:1026700027FD30958091CC0690E0281739077CF42F
:102680008091CD06992787FD9095FC01EE0FFF1FE5
:10269000E80FF91FE253F94F808186FD37C0809122
:1026A000CD068F5F8093CD062091CD06332727FD81
:1026B00030958091CC0690E028173907CCF58091B1
:1026C000CD068C30F4F134C08091CD06992787FD7A
:1026D0009095FC01EE0FFF1FE80FF91FE253F94F31
:1026E000808161E08F730E94881852C080E49CE969
:1026F00005C0809184009091850004969093890094
:10270000809388008FEF8093CD0642C08091CD06E4
:10271000992787FD9095FC01EE0FFF1FE80FF91F29
:10272000E253F94F808160E08F730E948818B7CF21
:102730008091840090918500049680349C49B0F289
:10274000D8CF80918400909185002091CD063327C9
:1027500027FD3095F901EE0FFF1FE20FF31FE25343
:10276000F94F21813281820F931F909389008093CA
:1027700088008091CD06992787FD9095FC01EE0F8A
:10278000FF1FE80FF91FE253F94F808186FD9CCFB0
:10279000FF91EF91BF91AF919F918F917F916F9139
:1027A0005F914F913F912F910F900FBE0F901F900F
:1027B00018952091CC062C30A0F4FC012083822FA8
:1027C0008F5F8093CC06822F90E0FC01EE0FFF1FFD
:1027D000E80FF91FE253F94F88EB9BE09283818366
:1027E00008952FEFFC0120830895DF92EF92FF926E
:1027F0000F931F93CF93DF93EC01D62E7A018901BB
:1028000088818C3008F065C061E08D2D0E945018E1
:102810008881A82FB0E0FD01EE0FFF1FEA0FFB1F1C
:10282000E253F94F2D2D2F739081907C922B908342
:1028300060E272E06E197F0977FF02C06D5F7F4F23
:102840007595679575956795698340E659E0401BD6
:10285000510B57FF02C04D5F5F4F559547955595FA
:1028600047954A836CE00E94721D9CE0899FB001ED
:10287000112420E030E0A901460F571FFA01EE0FA6
:10288000FF1FE40FF51FE253F94F908196FD15C02D
:102890002F5F3F4F2C30310571F71DC01092800023
:1028A00082E0809381001092850010928400B19A9A
:1028B00080916F00826080936F00888190E0FC01BE
:1028C000EE0FFF1FE80FF91FE253F94F808180647C
:1028D0008083888103C0882309F3EFCFDF91CF91F4
:1028E0001F910F91FF90EF90DF90089520E639E05F
:1028F00040E252E00C94F513FC0180818C3070F5BD
:10290000918128E830E0291B310997FD3395220F8A
:10291000331F220F331F621773077CF0928128E563
:1029200032E0291B310997FD3395220F331F220F07
:10293000331F621773070CF49B014FB7F89490E0B4
:10294000FC01EE0FFF1FE80FF91FE253F94F225071
:102950003109220F331F328321834FBF0895AF9275
:10296000BF92CF92DF92EF92FF920F931F93CF937C
:10297000DF93EC01603282E078070CF041C077FD14
:1029800004C0653B710524F405C060E070E002C03E
:1029900064EB70E0298188E890E0821B910927FDB3
:1029A0009395880F991F880F991F5C01CC24B7FC61
:1029B000C094DC2C882777FD8095982F2A8148E5E4
:1029C00052E0421B510927FD5395440F551F440FF8
:1029D000551F8A01222717FD2095322F3F932F93F1
:1029E0001F930F9314EBE12EF12C00E010E020E098
:1029F00030E0A9010E94A6190F900F900F900F9040
:102A0000CE01DF91CF911F910F91FF90EF90DF905A
:102A1000CF90BF90AF900C947C14CF92DF92EF9246
:102A2000FF920F931F93CF93DF938C01EB0168818B
:102A300079818A819B8120E03AEC4AE95BE30E943C
:102A4000921DF801C080D180E280F380C20ED31EB7
:102A5000E41EF51EC082D182E282F382688379830C
:102A60008A839B83DF91CF911F910F91FF90EF900D
:102A7000DF90CF9008952091220730E080912307C6
:102A8000281B3109C90108958091230790912207DD
:102A9000891750F4E82FF0E0EC5DF84F208130E02A
:102AA0008F5F8093230702C02FEF3FEFC901089586
:102AB000E091230780912207E81730F4F0E0EC5D05
:102AC000F84F208130E002C02FEF3FEFC901089599
:102AD0000895CF92DF92EF92FF920F931F93CF93BF
:102AE000DF937C01CB018A012091FE06222391F025
:102AF000EB016B01C40ED51E09C06991D701ED91A0
:102B0000FC910190F081E02DC7010995CC15DD0500
:102B1000A1F703C0642F0E94CD16C801DF91CF91A9
:102B20001F910F91FF90EF90DF90CF900895CF937A
:102B3000DF931F92CDB7DEB769832091FE06222373
:102B4000D1F02091FF06203240F021E030E0FC017E
:102B50003383228320E030E015C080910007E82F06
:102B6000F0E0EF5FF84F998190838F5F80930007CB
:102B70008093FF0605C061E0CE0101960E94CD164C
:102B800021E030E0C9010F90DF91CF910895FC0161
:102B90001382128248EE53E060E070E04483558374
:102BA000668377838DE592E0918380830895109208
:102BB000230710922207109200071092FF060C9430
:102BC0001716862F413208F040E264E277E00E9457
:102BD00035161092230780932207089521E00C9464
:102BE000E11581E08093FE066093210710920007B3
:102BF0001092FF0608950C94F1150F93062F21E013
:102C00004091FF0661E077E0809121070E947A16EB
:102C1000109200071092FF061092FE060F91089581
:102C200061E00C94FD1582EF96E00C94C7151092AC
:102C30004D0781E080934B0710924A0761E082E1E3
:102C40000E94881861E083E10E948818E9EBF0E0B7
:102C500080818E7F808380818D7F808388E48093D4
:102C6000B80085E48093BC000895413208F03FC06D
:102C700090914D079111FCCF91E090934D072093D7
:102C80004B072FEF2093440710924907242F215020
:102C90002093480790934C0790914C07880F892BFD
:102CA00080934C0780914A07813041F410924A0783
:102CB00080914C078093BB0085EC01C085EE80932A
:102CC000BC0080914D078130E1F380914907841762
:102CD00010F4409149072EE437E0FB01D90102C00E
:102CE0008D9181938A2F821B8417D0F301C040E01D
:102CF000842F08950F93413208F046C090914D07FC
:102D00009111FCCF92E090934D0700934B079FEFFA
:102D1000909344071092490740934807FB016EE4E3
:102D200077E0DB0102C091919D939A2F961B941737
:102D3000D0F310924C0790914C07880F892B809309
:102D40004C0780914A07813041F410924A078091E4
:102D50004C078093BB0085EC01C085EE8093BC00DE
:102D6000222321F080914D078230E1F380914407C6
:102D70008F3F61F080914407803251F08091440789
:102D8000803341F483E007C081E005C080E003C0E8
:102D900082E001C084E00F910895613298F420919F
:102DA0004D07243089F460934607FC018EE697E0D6
:102DB000DC0102C021912D932A2F281B2617D0F366
:102DC00080E0089581E0089582E0089585ED809384
:102DD000BC008091BC0084FDFCCF10924D0708958B
:102DE00085EC8093BC0010924D0708951F920F92BE
:102DF0000FB60F9211242F933F934F935F936F93CE
:102E00007F938F939F93AF93BF93EF93FF938091A3
:102E1000B900887F803609F49FC058F5883209F4DC
:102E20005BC090F4803109F452C038F4882309F46F
:102E3000F8C0883009F0F9C04AC0883109F44CC0A4
:102E4000803209F0F2C05CC0803409F46BC038F401
:102E5000803309F455C0883309F0E7C054C0803589
:102E600009F454C0883509F462C0883409F0DDC023
:102E7000DAC0883909F4CBC0A8F4883709F46CC0EB
:102E800038F4883609F468C0803709F0CEC064C0D1
:102E9000883809F4BCC0803909F464C0803809F06E
:102EA000C4C060C0803B09F48AC038F4803A09F499
:102EB0006BC0883A09F0B9C082C0803C09F4ABC04D
:102EC000883C09F4A8C0883B09F0AFC08DC0809150
:102ED0004C078093BB0012C090914907809148072E
:102EE000981788F580914907E82FF0E0E25BF84FEA
:102EF00090819093BB008F5F8093490785EC88C0D9
:102F00008093440790C08093440756C0809149073E
:102F10009091BB00E82FF0E0E25BF84F90838F5F69
:102F20008093490790914907809148076DC080912F
:102F300049079091BB00E82FF0E0E25BF84F9083E7
:102F40008F5F8093490780914B0781116CC081E0AE
:102F500080934A0784EA60C083E080934D07109213
:102F60004507CCCF80914507803208F050C0809152
:102F700045079091BB00E82FF0E0EE56F84F9083A4
:102F80008F5F80934507BACF80914507803230F438
:102F9000E0914507F0E0EE56F84F10820E94E616E9
:102FA00060914507E0918E07F0918F0770E082E90C
:102FB00097E00995109245070E94F01636C084E00C
:102FC00080934D071092470710924607E0919007B3
:102FD000F0919107099580914607811105C081E024
:102FE0008093460710926E0780914707E82FF0E024
:102FF000E259F84F90819093BB008F5F8093470711
:103000009091470780914607981708F477CF85E895
:103010008093BC000AC085EC8093BC0010924D07E1
:1030200004C0109244070E94E616FF91EF91BF91F1
:10303000AF919F918F917F916F915F914F913F9150
:103040002F910F900FBE0F901F901895833069F04D
:1030500028F48130A1F0823011F514C08630B1F02F
:103060008730C1F08430D9F404C0809180008F771C
:1030700003C0809180008F7D80938000089584B587
:103080008F7702C084B58F7D84BD08958091B00094
:103090008F7703C08091B0008F7D8093B00008953A
:1030A000CF93DF9390E0FC01E253FF4F4491FC018A
:1030B000EE51FF4F8491882341F190E0880F991FD2
:1030C000FC01E65FFE4F25913491D90180509F4F5E
:1030D000FC0185919491C82FD92F9FB7F8948C91BA
:1030E000611106C0409584238C938881842308C095
:1030F000623041F4242F209582238C938881842B85
:10310000888302C0842B8C939FBFDF91CF91089559
:103110000F931F93CF93DF931F92CDB7DEB7282F66
:1031200030E0F901E654FF4F8491F901E253FF4F7B
:103130001491F901EE51FF4F04910023D1F088233F
:1031400021F069830E9426186981E02FF0E0EE0FDC
:10315000FF1FE050FF4F85919491DC019FB7F894D9
:103160008C91611103C01095812301C0812B8C9338
:103170009FBF0F90DF91CF911F910F9108951F92E4
:103180000F920FB60F9211242F933F938F939F931B
:10319000AF93BF938091B2079091B307A091B4070A
:1031A000B091B5073091BA07232F2D5F2D3720F44A
:1031B0000196A11DB11D05C0232F2A570296A11DFE
:1031C000B11D2093BA078093B2079093B307A093E1
:1031D000B407B093B5078091B6079091B707A09157
:1031E000B807B091B9070196A11DB11D8093B6072C
:1031F0009093B707A093B807B093B907BF91AF9169
:103200009F918F913F912F910F900FBE0F901F9024
:1032100018950F931F938FB7F8940091B2071091F0
:10322000B3072091B4073091B5078FBFB801C9012A
:103230001F910F9108950F931F939FB7F8940091DA
:10324000B6071091B7072091B8073091B90786B536
:10325000A89B06C08F3F21F00F5F1F4F2F4F3F4F9E
:103260009FBF322F212F102F0027080F111D211D66
:10327000311D42E0000F111F221F331F4A95D1F765
:10328000B801C9011F910F910895CF92DF92EF927B
:10329000FF92CF93DF936B017C010E941B19EB011E
:1032A0000EC00E941B196C1B7D0B683E734038F0EA
:1032B00081E0C81AD108E108F108C851DC4FC114F7
:1032C000D104E104F10469F7DF91CF91FF90EF9011
:1032D000DF90CF900895789484B5826084BD84B5E2
:1032E000816084BD85B5826085BD85B5816085BD01
:1032F000EEE6F0E0808181608083E1E8F0E010821A
:10330000808182608083808181608083E0E8F0E05A
:10331000808181608083E1EBF0E080818460808344
:10332000E0EBF0E0808181608083EAE7F0E080817B
:1033300084608083808182608083808181608083DB
:103340008081806880831092C10008954F925F92BF
:103350006F927F92AF92BF92CF92DF92EF92FF92E5
:103360000F931F93CF93DF93CDB7DEB729013A01B7
:10337000621B730B840B950B29893A894B895C89F5
:103380002A193B094C095D09298B3A8B4B8B5C8BC5
:103390009B01AC0169897A898B899C890E94621D95
:1033A000E418F50806091709A80197010E94B41D41
:1033B0002A0D3B1D4C1D5D1DB901CA01DF91CF9146
:1033C0001F910F91FF90EF90DF90CF90BF90AF9043
:1033D0007F906F905F904F9008950E946B190E94AC
:1033E000EF04C9ECDAE10E945D092097E1F30E9445
:1033F000C91AF9CFFC0184859585FC01E05CFF4F7B
:1034000020813181FC01EE5BFF4F80819181281B7F
:10341000390B2F733327C9010895FC0184859585E5
:10342000FC01E05CFF4F40815181FC01EE5BFF4FEE
:10343000208131814217530741F00190F081E02D46
:10344000E80FF91F208130E002C02FEF3FEFC901E4
:103450000895FC0184859585FC01E05CFF4F408167
:103460005181FC01EE5BFF4F2081318142175307F0
:1034700081F0A081B181A80FB91F8C912081318189
:103480002F5F3F4F2F73332731832083282F30E066
:1034900002C02FEF3FEFC9010895FC018685978593
:1034A000FC01E05CFF4FDC01AE5BBF4F408151810E
:1034B0002D913C91119742175307C1F70895CF936F
:1034C000DF93FC0186859785DC01A05CBF4F2D91C1
:1034D0003C9111972F5F3F4F2F733327EC01CE5B49
:1034E000DF4F4881598124173507D9F30D90BC91DE
:1034F000A02DA80FB91F6C93A685B785A05CBF4F00
:1035000011963C932E93A689B7892C9181E090E087
:10351000058C02C0880F991F0A94E2F7282B2C9380
:1035200081E090E0DF91CF91089508951F920F926E
:103530000FB60F9211242F933F934F938F939F9326
:10354000EF93FF934091C60080915E0890915F08D1
:1035500001968F7399272091600830916108821736
:10356000930759F0E0915E08F0915F08E25EF74F33
:10357000408390935F0880935E08FF91EF919F9145
:103580008F914F913F912F910F900FBE0F901F90F1
:1035900018958BEB97E00E94FA19892B11F00C9487
:1035A000951A08951F920F920FB60F9211242F9320
:1035B0003F938F939F93EF93FF9320911A0830913D
:1035C0001B0880911C0890911D082817390731F4B9
:1035D0008091C1008F7D8093C10014C0E0911C08D0
:1035E000F0911D08E652F84F208180911C089091BF
:1035F0001D0801968F73992790931D0880931C08CE
:103600002093C600FF91EF919F918F913F912F9151
:103610000F900FBE0F901F901895CF92DF92EF92F0
:10362000FF92CF93DF93EC016A017B01411581EE9C
:10363000580761057105F9F0EC89FD8981E090E09A
:103640000E8C02C0880F991F0A94E2F7808360E015
:1036500079E08DE390E0A70196010E94921D215030
:1036600031094109510956954795379527952115F7
:1036700080E1380798F0EC89FD89108260E874E8F1
:103680008EE190E0A70196010E94921D2150310920
:10369000410951095695479537952795E889F98944
:1036A0003083EA89FB892083EE89FF89408181E0AC
:1036B00090E09C010A8C02C0220F331F0A94E2F7AB
:1036C000422B4083EE89FF8940819C010B8C02C014
:1036D000220F331F0A94E2F7422B4083EE89FF89C1
:1036E00040819C010C8C02C0220F331F0A94E2F728
:1036F000422B4083EE89FF8920810D8C02C0880F08
:10370000991F0A94E2F7809582238083DF91CF91FD
:10371000FF90EF90DF90CF9008951092BE07109227
:10372000BD0788EE93E0A0E0B0E08093BF079093E0
:10373000C007A093C107B093C2078DE692E09093B3
:10374000BC078093BB078EE198E09093C8078093F5
:10375000C7078AED97E09093CA078093C90785EC65
:1037600090E09093CC078093CB0784EC90E090930B
:10377000CE078093CD0780EC90E09093D0078093A4
:10378000CF0781EC90E09093D2078093D10786EC2D
:1037900090E09093D4078093D30784E08093D5077B
:1037A00083E08093D60787E08093D70785E08093F6
:1037B000D80781E08093D9070895CF92DF92EF92E6
:1037C000FF920F931F93CF93DF936C01EB017A016C
:1037D000E60EF71E00E010E00BC06991D601ED91F6
:1037E000FC910190F081E02DC6010995080F191F89
:1037F000CE15DF0591F7C801DF91CF911F910F9191
:10380000FF90EF90DF90CF900895D4D008F481E03E
:1038100008950CD00AC102D140F0F9D030F021F463
:103820005F3F19F0EBC0511134C1EEC00FD198F3D6
:103830009923C9F35523B1F3951B550BBB27AA2731
:1038400062177307840738F09F5F5F4F220F331FA3
:10385000441FAA1FA9F333D00E2E3AF0E0E830D06F
:1038600091505040E695001CCAF729D0FE2F27D072
:10387000660F771F881FBB1F261737074807AB0740
:10388000B0E809F0BB0B802DBF01FF2793585F4FB5
:103890002AF09E3F510568F0B1C0FBC05F3FECF3DA
:1038A000983EDCF3869577956795B795F7959F5F7A
:1038B000C9F7880F911D9695879597F90895E1E0CE
:1038C000660F771F881FBB1F621773078407BA072D
:1038D00020F0621B730B840BBA0BEE1F88F7E09588
:1038E0000895BCD088F09F5790F0B92F9927B75111
:1038F000A0F0D1F0660F771F881F991F1AF0BA95B4
:10390000C9F712C0B13081F0C3D0B1E00895C0C092
:10391000672F782F8827B85F39F0B93FCCF38695A9
:1039200077956795B395D9F73EF490958095709506
:1039300061957F4F8F4F9F4F0895E89409C097FB83
:103940003EF490958095709561957F4F8F4F9F4F76
:103950009923A9F0F92F96E9BB279395F6958795BA
:1039600077956795B795F111F8CFFAF4BB0F11F47D
:1039700060FF1BC06F5F7F4F8F4F9F4F16C0882324
:1039800011F096E911C0772321F09EE8872F762F5A
:1039900005C0662371F096E8862F70E060E02AF09B
:1039A0009A95660F771F881FDAF7880F9695879587
:1039B00097F90895990F0008550FAA0BE0E8FEEF5C
:1039C00016161706E807F907C0F012161306E407E3
:1039D000F50798F0621B730B840B950B39F40A26DC
:1039E00061F0232B242B252B21F408950A2609F4BA
:1039F000A140A6958FEF811D811D089597F99F67BE
:103A000080E870E060E008959FEF80EC0895002466
:103A10000A941616170618060906089500240A9433
:103A200012161306140605060895092E0394000CB9
:103A300011F4882352F0BB0F40F4BF2B11F460FF48
:103A400004C06F5F7F4F8F4F9F4F089557FD905871
:103A5000440F551F59F05F3F71F04795880F97FB52
:103A6000991F61F09F3F79F087950895121613060C
:103A70001406551FF2CF4695F1DF08C0161617063B
:103A80001806991FF1CF8695710561050894089570
:103A9000E894BB2766277727CB0197F908950E9402
:103AA000D61DA59F900DB49F900DA49F800D911DD4
:103AB00011240895B7FF0C944F1D0E944F1D821BC7
:103AC000930B0895DB018F939F930E944F1DBF912D
:103AD000AF91A29F800D911DA39F900DB29F900D5D
:103AE00011240895991B79E004C0991F961708F0D6
:103AF000961B881F7A95C9F78095089597FB072E26
:103B000016F4009407D077FD09D00E94E21D07FC4F
:103B100005D03EF4909581959F4F089570956195DD
:103B20007F4F0895A1E21A2EAA1BBB1BFD010DC0F9
:103B3000AA1FBB1FEE1FFF1FA217B307E407F5075D
:103B400020F0A21BB30BE40BF50B661F771F881F39
:103B5000991F1A9469F760957095809590959B01CF
:103B6000AC01BD01CF010895052E97FB16F400941A
:103B700007D057FD0DD00E94921D07FC09D07EF49E
:103B800090958095709561957F4F8F4F9F4F0895C9
:103B900050954095309521953F4F4F4F5F4F089579
:103BA000EE0FFF1F0590F491E02D0994A29FB00144
:103BB000B39FC001A39F01D0B29F700D811D11243E
:103BC000911D0895AA1BBB1B51E107C0AA1FBB1F73
:103BD000A617B70710F0A61BB70B881F991F5A9599
:103BE000A9F780959095BC01CD0108950F931F937F
:103BF000CF93DF938230910510F482E090E0E09162
:103C00006408F091650820E030E0C0E0D0E023C017
:103C10004081518148175907A8F04817590761F4A6
:103C200082819381209719F09B838A832EC0909381
:103C300065088093640829C02115310529F04217D1
:103C4000530710F0A90102C0BE01DF0102811381F8
:103C5000EF019A01F8013097D9F62115310509F1E4
:103C6000281B390B2430310590F412968D919C91CC
:103C700013976115710521F0FB019383828304C0C2
:103C80009093650880936408FD01329644C0FD015D
:103C9000E20FF31F81939193225031092D933C93AE
:103CA0003AC02091620830916308232B41F420919F
:103CB0000201309103013093630820936208209140
:103CC0000001309101012115310541F42DB73EB7B6
:103CD0004091040150910501241B350BE0916208CD
:103CE000F0916308E217F307A0F42E1B3F0B28178F
:103CF000390778F0AC014E5F5F4F2417350748F065
:103D00004E0F5F1F50936308409362088193919315
:103D100002C0E0E0F0E0CF01DF91CF911F910F9161
:103D20000895EF92FF920F931F93CF93DF93009725
:103D300009F48EC0DC01129713961C921E92129702
:103D4000E0906408F0906508E114F10489F42D9185
:103D50003C911197280F391F809162089091630858
:103D60008217930789F5B0936308A093620870C027
:103D7000E70120E030E001C0EA01CA17DB0738F4B0
:103D80004A815B819E0141155105B1F722C0AC010A
:103D900042505109FA01D383C28300811181BC01D1
:103DA000600F711F6C177D0761F468817981600F66
:103DB000711F6E5F7F4F718360836A817B81738324
:103DC00062832115310529F4B0936508A093640836
:103DD0003FC0F901B383A283E90149915991C40F0E
:103DE000D51FAC17BD0771F4DC019E918E91840F35
:103DF000951F02969183808312968D919C911397C3
:103E000093838283A0E0B0E002C0D7017C01F70178
:103E1000828193810097C9F7C70102962081318181
:103E2000820F931F20916208309163082817390789
:103E300079F4109729F4109265081092640804C070
:103E400013961C921E921297F0926308E0926208F9
:103E5000CDB7DEB7E6E00C944C20A0E0B0E0E3E3A1
:103E6000FFE10C942A20EC01009729F4CB010E9479
:103E7000F61DEC01B4C0DC01A60FB71FFC013297A0
:103E8000AE17BF0718F4C0E0D0E0A9C000811181CF
:103E900006171707B0F00530110508F4A0C0C801D7
:103EA00004978617970708F49AC002501109061B59
:103EB000170B0D931D9371836083CD010E94911E9A
:103EC0008EC06B01C01AD10A7C01E00EF11EE09198
:103ED0006408F091650820E030E080E090E048C0A0
:103EE000EE15FF05D1F580809180540142E0A40ECB
:103EF000B11CAC14BD0488F17401EC18FD08670115
:103F000022E0C20ED11C9E012250310945E0C416A8
:103F1000D10478F04281538113965C934E931297AB
:103F20001196FC92EE92F901718360833A2F2B2F48
:103F300009C00E5F1F4F080D191DD9010D931C9369
:103F400032812381009721F0FC013283238347C013
:103F5000309364082093650842C0808191812817BE
:103F6000390708F49C0152814381CF01E52FF42FDA
:103F7000309709F0B5CF80916208909163088E1553
:103F80009F05F1F426173707D8F48091000190912E
:103F90000101009741F48DB79EB720910401309143
:103FA0000501821B930BA817B90708F06CCFB093DB
:103FB0006308A0936208FE013297718360830FC08B
:103FC000CB010E94F61D7C01009709F45CCFA8018B
:103FD000BE010E941320CE010E94911EE701CE0176
:103FE000CDB7DEB7ECE00C944620FC01882799277A
:103FF000E89421912032E9F3293010F02E30C8F3F3
:104000002B3241F02D3239F4689404C00E941C20F8
:10401000820F911D219120532A30C0F31EF49095F8
:1040200081959F4F0895FB01DC0102C001900D9224
:1040300041505040D8F708957AE0979F902D879F80
:10404000802D910D112408952F923F924F925F92EF
:104050006F927F928F929F92AF92BF92CF92DF9298
:10406000EF92FF920F931F93CF93DF93CDB7DEB7FD
:10407000CA1BDB0B0FB6F894DEBF0FBECDBF099491
:104080002A88398848885F846E847D848C849B84E8
:10409000AA84B984C884DF80EE80FD800C811B81F6
:1040A000AA81B981CE0FD11D0FB6F894DEBF0FBE25
:1040B000CDBFED01089511E0CAE1D1E004C0FE01D9
:1040C0000E94D21D2296CC31D107C9F7F894FFCFB8
:1040D0000000660820000F000A0009000800737441
:1040E000645F6D7367732F54696D6500726F7373CE
:1040F000657269616C5F6D7367732F546F7069636C
:10410000496E666F00726F7373657269616C5F6D83
:104110007367732F4C6F67007374645F6D7367739D
:104120002F55496E743136006E65772067707320A5
:10413000646174610061626F757420746F207370C4
:10414000696E0070616E747300736572766F310012
:10415000736572766F320070776D5F64757261742B
:10416000696F6E006C65616B0068656164696E679C
:10417000006770735F6C6174006770735F6C6F6E63
:1041800000726F7373657269616C5F6D7367732F13
:1041900052657175657374506172616D0000000045
:1041A00000B4028901CE0100000000DA0207018696
:1041B0000100000000B800DA00040100000000D493
:1041C00001DD01E80100000000EB01FE0101020039
:1041D00000000089070000000067040000000012D2
:1041E000023C03D1014750524D43004750474741DD
:1041F000004E004E4E4500454E4500455345005388
:1042000053450053005353570057535700574E57C9
:10421000004E4E570000007A44000000008C11DD73
:104220001BF310A610C910E41000000000971569D8
:10423000153B15441558156815000000005F1ADD80
:0A4240001BFA19291A0D1A4D1A0075
:00000001FF
