:100000000C948E000C94B6000C94B6000C9456130D
:100010000C947A130C949E130C94B6000C94B600B6
:100020000C94B6000C94B6000C94B6000C947414A6
:100030000C94B6000C94B6000C94B6000C94B60068
:100040000C9491190C94B6000C94331C0C94641C01
:100050000C94B6000C94B6000C94B6000C94B60048
:100060000C943B180C94B600BF0ED50EE70EFB0E99
:10007000040F360F3F0F4A0F530F5E0F5E0F5E0FD8
:100080005E0F5E0F5E0F5E0F5E0F5E0F5E0F5E0F08
:100090005E0F5E0F5E0F5E0F5E0F5E0F5E0F5E0FF8
:1000A0005E0F5E0F5E0F5E0FBF0ECD0ED50EE70E1C
:1000B000FB0E040F180F210F2A0F00000000240070
:1000C00027002A0000000000250028002B00000067
:1000D000000023002600290004040404040404048E
:1000E00002020202020203030303030301020408E3
:1000F0001020408001020408102001020408102092
:1001000000000007000201000003040600000000D8
:1001100000000000F00B6317291DF50B11241FBE12
:10012000CFEFD8E0DEBFCDBF12E0A0E0B1E0ECE65B
:10013000F3E402C005900D92AE37B107D9F718E08D
:10014000AEE7B2E001C01D92A836B107E1F711E0B9
:10015000CAE1D1E004C02297FE010E94411FC431D0
:10016000D107C9F70E94F81A0C94A9210C94000039
:10017000FC01DB0132812381948185813C931196BE
:100180002C93119712969C93129713968C93139716
:10019000368127819085818514963C931497159616
:1001A0002C93159716969C93169717968C931797E2
:1001B00088E090E00895FC01DB0111962C911197E5
:1001C00030E040E050E0542F432F322F2227129688
:1001D0006C91129770E080E090E0CB017727662762
:1001E000262B372B482B592B6C9170E080E090E048
:1001F000262B372B482B592B13966C91139770E0B5
:1002000080E090E0962F882777276627262B372BCC
:10021000482B592B228333834483558315962C9185
:10022000159730E040E050E0542F432F322F222723
:1002300016966C91169770E080E090E0CB017727DE
:100240006627262B372B482B592B14966C91149725
:1002500070E080E090E0262B372B482B592B179627
:100260008C9190E0A0E0B0E0B82FAA2799278827CA
:10027000282B392B4A2B5B2B2683378340875187CA
:1002800088E090E0089580E091E00895AF92BF92F9
:10029000CF92DF92EF92FF920F931F93CF93DF9352
:1002A0005C01FB01318120E0808190E0822B932B67
:1002B000D50113969C938E93129782819381A4818A
:1002C000B5818B010B5F1F4FE80166E070E026E00F
:1002D000C22ED12CE12CF12CC80ED91EEA1EFB1E19
:1002E00004C0298129936F5F7F4F9B0140E050E05C
:1002F0002C153D054E055F05A0F3AC014A5F5F4F2D
:100300004E0F5F1F9A0121503040E9011882E5012C
:100310001D830C83EA01C880D980EA80FB80BC0180
:10032000665F7F4FEC012996CE0FDF1F8B01CB015B
:10033000AA2797FDA095BA2F8C0D9D1DAE1DBF1D40
:1003400004C0298129930F5F1F4F980140E050E0BE
:10035000281739074A075B07A0F3C60ED71EDF012F
:10036000AC0DBD1D11971C92615070406E0F7F1F28
:10037000F50177836683C601DF91CF911F910F91BD
:10038000FF90EF90DF90CF90BF90AF9008958EE0F8
:1003900091E008958F929F92AF92BF92CF92DF9299
:1003A000EF92FF920F931F93CF93DF936C01FB01AA
:1003B0008081D60112968C931297E180F28003819E
:1003C0001481AB014C5F5F4FEA0125E030E065E04E
:1003D000862E912CA12CB12C8E0C9F1CA01EB11E20
:1003E00004C0898189932F5F3F4FC901A0E0B0E02D
:1003F00088159905AA05BB05A0F397012B5F3F4F10
:10040000E20FF31F31971082F60154834383C90131
:10041000DF91CF911F910F91FF90EF90DF90CF90E0
:10042000BF90AF909F908F90089587E291E00895DC
:100430008FE092E00895FC01DB01928183819C931F
:1004400011968C93119782E090E00895FB01518101
:1004500040E0208130E0242B352BFC0133832283C4
:1004600082E090E008958AE391E00895CF92DF92D0
:10047000EF92FF920F931F93CF93DF93EC01E62E41
:10048000CA012C81222309F448C0DA01ED91FC91C4
:100490009E01255F3F4F0190F081E02DB901099544
:1004A0002FEF2D832E83EF82188689871A86FE010F
:1004B000379642E050E020E030E0BC016B5F7F4FB8
:1004C00005C0A1912A0F311D4F5F5F4F641775075B
:1004D000C4F7FE01E80FF91F209523878C01095FFF
:1004E0001F4FCA80DB8075E0E72EF12CEC0EFD1E5D
:1004F000C0E0D0E00EC0F60180819181D7016D91FE
:100500007D01DC01ED91FC910190F081E02D0995D8
:100510002196C017D1077CF302C000E010E0C801AB
:10052000DF91CF911F910F91FF90EF90DF90CF90CF
:1005300008950F931F93CF93DF93EC018C010A5F13
:100540001F4FC8010E942602EA85FB85C801099554
:10055000DF91CF911F910F91089581E090E0089570
:100560008AE391E00895AF92BF92CF92DF92EF922B
:10057000FF920F931F93CF93DF938C01EB01DC016C
:1005800012969C91129713968C9113979883898356
:1005900014966C91149715967C91DB01FD010190E6
:1005A0000020E9F73197EA1BFB0BCF01A0E0B0E098
:1005B0008A839B83AC83BD839E012A5F3F4FC90121
:1005C000AF010E9461212A813B81E6E0EE2EF12CF1
:1005D000E20EF31EEC0EFD1EF80166817781DB0151
:1005E000FD0101900020E9F73197EA1BFB0B5F0149
:1005F000CC24DD24D701AD92BD92CD92DC9213972D
:100600008901065F1F4FC00FD11FCE01AF010E94AD
:100610006121D7012D913C911197200F311FC90104
:10062000DF91CF911F910F91FF90EF90DF90CF90CE
:10063000BF90AF9008956F927F928F929F92AF92EA
:10064000BF92CF92DF92FF920F931F93CF93DF93CE
:100650008C01EB01DC0112968C9112978883198230
:100660001A821B826B0140E024E030E021C0842F1D
:1006700090E0880F991F880F991FF801A781B08516
:10068000A80FB91F6C9111965C91119712969C91CD
:10069000129713968C91D6016C9311965C931197D7
:1006A00012969C93129713968C932C5F3F4F4F5F3B
:1006B000E4E0F0E0CE0EDF1ED80112968C91129786
:1006C0004817A8F2FE01E20FF31F19968C91808360
:1006D0002F5F3F4FDE01A20FB31F1C922F5F3F4FD2
:1006E000DE01A20FB31F1C922F5F3F4FDE01A20F4E
:1006F000B31F1C922F5F3F4F6F0140E021C0842F3A
:1007000090E0880F991F880F991FF801A685B7857B
:10071000A80FB91F6C9111965C91119712969C913C
:10072000129713968C91D6016C9311965C93119746
:1007300012969C93129713968C932C5F3F4F4F5FAA
:10074000E4E0F0E0CE0EDF1ED80119968C911997E7
:100750004817A8F2FE01E20FF31F50968C915097B4
:1007600080832F5F3F4FFE01E20FF31F10822F5F48
:100770003F4FFE01E20FF31F10822F5F3F4FFE013C
:10078000E20FF31F10822F5F3F4FFF2433C05E0143
:10079000A20EB31E8F2D90E0880F991FD80153969B
:1007A000ED91FC915497E80FF91F60817181DB0195
:1007B000FD0101900020E9F73197EA1BFB0B3F0197
:1007C00088249924D5016D927D928D929C921397E5
:1007D000A4E0CA2ED12CC20ED31E9E012C0D3D1DAD
:1007E000C901AF010E946121F501208131812C0DE9
:1007F0003D1DF394D80150968C915097F81638F21D
:10080000C901DF91CF911F910F91FF90DF90CF90A1
:10081000BF90AF909F908F907F906F900895CF93EF
:10082000DF93FC01EB018281888363817481DB01AA
:10083000FD0101900020E9F73197EA1BFB0BCF0186
:10084000A0E0B0E089839A83AB83BC839E012B5FD9
:100850003F4FC901AF010E94612129813A812B5F7D
:100860003F4FC901DF91CF9108956F927F928F9290
:100870009F92AF92BF92CF92DF92EF92FF920F932F
:100880001F93CF93DF93EC015B01DB010C918A8115
:10089000801760F4602F70E0660F771F660F771F78
:1008A0008F8198850E9478208F8398870A83F5012D
:1008B00060E034E0C32ED12C8E010D5F1F4F45C088
:1008C000818190E0A0E0B0E0BA2FA92F982F88276F
:1008D000228130E040E050E0A90133272227822B1B
:1008E000932BA42BB52B208130E040E050E0822BED
:1008F000932BA42BB52B238130E040E050E0522F06
:10090000442733272227822B932BA42BB52B8B83B1
:100910009C83AD83BE8384E090E0C80ED91E862FF1
:1009200090E0880F991F880F991F2F813885280F15
:10093000391FD8016D907D908D909C90D9016D925A
:100940007D928D929C9213976F5F34968A8168177F
:1009500008F4B6CF85010C0D1D1DF8018080898536
:10096000881560F4682D70E0660F771F660F771F9B
:100970008E859F850E9478208E879F8784E090E0F7
:10098000C80ED91E8986F80160E08E01065F1F4FF0
:1009900045C0818190E0A0E0B0E0BA2FA92F982F48
:1009A0008827228130E040E050E0A9013327222748
:1009B000822B932BA42BB52B208130E040E050E01C
:1009C000822B932BA42BB52B238130E040E050E009
:1009D000522F442733272227822B932BA42BB52B6E
:1009E0008A879B87AC87BD87A4E0B0E0CA0EDB1E78
:1009F000862F90E0880F991F880F991F2E853F85BD
:100A0000280F391FD8016D907D908D909C90D90151
:100A10006D927D928D929C9213976F5F349689852B
:100A2000681708F4B6CFF501EC0DFD1D008188892B
:100A3000801750F4602F70E0660F771F8B899C89B8
:100A40000E9478208B8B9C8BF6013496088B772440
:100A5000A1E18A2E912C8C0E9D1E41C0D501AE0FB6
:100A6000BF1FCD90DD90ED90FC90DF011496339682
:100A7000EA0DFB1D8D019D01442737FD4095542F44
:100A80002C0D3D1D4E1D5F1D04C0818181930F5FA4
:100A90001F4FB80180E090E0621773078407950745
:100AA000A0F3CA0EDB1EC5018C0D9D1D0197FC0134
:100AB00010821197AA0DBB1DBA8BA98BF601872D49
:100AC00090E0880F991F2B893C89280F391FD4018A
:100AD0008D919C91D90111969C938E9373948889E2
:100AE000781608F4BBCFCF01DF91CF911F910F9102
:100AF000FF90EF90DF90CF90BF90AF909F908F903E
:100B00007F906F900895FC016281738186E493E089
:100B10000E9406160895FC016281738183E493E0CC
:100B20000E9406160895CF93DF93FC01868197817A
:100B3000EC01A881B9816481758142815381ED9175
:100B4000FC910995DF91CF9108958130910509F0CD
:100B5000C6C08EE792E063E042E020E00E941014FD
:100B60008AE992E00E94FA0B8DE093E00E94AE10B9
:100B700083E493E00E94321586E493E00E943215EC
:100B800089EE91E090934A038093490385E498E0CD
:100B900090934C0380934B0380E091EEA0E0B0E093
:100BA00080934D0390934E03A0934F03B093500353
:100BB00083E092E090935203809351038BE493E09F
:100BC00090935403809353031092550389E092E06D
:100BD0009093100680930F068FE292E09093250683
:100BE00080932406909329068093280690932D06DF
:100BF00080932C06909331068093300690933506AF
:100C000080933406909339068093380690933D067E
:100C100080933C0629E332E030934D0620934C0646
:100C200090935306809352064AE451E05093510644
:100C3000409350064BE855E05093570640935606B4
:100C4000309359062093580690935F0680935E0672
:100C500081E591E090935D0680935C0683E895E0E2
:100C6000909363068093620688E591E09093650611
:100C70008093640684E296E090936706809366060C
:100C800085E691E090936D0680936C0688E296E08D
:100C900090936F0680936E068AE691E090937506B6
:100CA000809374068CE296E09093770680937606A4
:100CB00082E791E090937D0680937C0628E336E0FE
:100CC00030937F0620937E0690938506809384065A
:100CD0008CE396E0909387068093860608950097AC
:100CE00021F48EE792E00E946C140895FC01428189
:100CF000538164817581808191810E94AB1C08952C
:100D0000DB01FC01E75BFD4F20E030E041915191B8
:100D100041155105B1F4F901EE0FFF1FE80FF91F5E
:100D2000E75BFD4FB183A08323583F4F15963C935B
:100D30002E931497089617969C938E93169781E09E
:100D400008952F5F3F4F2931310501F780E0089565
:100D50008BE493E00E9476061092F7051092F60558
:100D60001092F9051092F8051092FD051092FC05FD
:100D70001092FB051092FA051092010610920006DF
:100D80008091DD0160E00E949C1A8091E30160E0A7
:100D90000E949C1A8DE061E00E949C1A6091DF0124
:100DA0007091E00183E493E00E94CB156091E10132
:100DB0007091E20186E493E00E94CB158CE397E00A
:100DC0000E942B178DE093E063E042E00E94DD116A
:100DD0008DE093E00E943F1180E090E0A2E0B4EC4F
:100DE0008093310390933203A0933303B093340381
:100DF00080E090E8AEE0B4EC809335039093360346
:100E0000A0933703B093380380E090E8A0E4B4ECFB
:100E10008093390390933A03A0933B03B0933C0330
:100E200080E090E0A7E0B4E480932503909326034C
:100E3000A0932703B093280380E090E0AAEFB3E4E7
:100E40008093290390932A03A0932B03B0932C0340
:100E500080E090E0A4E3B3E480932D0390932E030D
:100E6000A0932F03B093300389E493E064E676E027
:100E70000E94800689E493E064E776E00E948006A1
:100E800089E493E06CE676E00E94800689E493E0D2
:100E90006CE776E00E94800689E493E064E876E0FF
:100EA0000E9480068091000690910106893191058B
:100EB000ACF4FC01EE0FFF1FEC53FA4F2CE436E0CC
:100EC000318320839C012C593F4F30934F06209350
:100ED0004E060196909301068093000680910006CD
:100EE0009091010689319105ACF4FC01EE0FFF1FD2
:100EF000EC53FA4F28E536E0318320839C012C59CE
:100F00003F4F30935B0620935A060196909301065B
:100F10008093000662E370E080E090E00E940D1A8A
:100F20000895DF93CF9300D000D00F92CDB7DEB7F6
:100F300023E432E03A8329836B835D834C830896F4
:100F400065E070E0AE014F5F5F4F0E9436020F9088
:100F50000F900F900F900F90CF91DF910895AB01FC
:100F600061E00E94910708950F931F93DF93CF9341
:100F7000CDB7DEB72A970FB6F894DEBF0FBECDBF50
:100F80008C0189EF91E09A8389831B821C821D82E8
:100F90001E821F82188619861A86C80108966AE082
:100FA00070E0AE014F5F5F4F0E9436020E94D91978
:100FB000F801EB5DFE4F60837183828393832A96F1
:100FC0000FB6F894DEBF0FBECDBFCF91DF911F915A
:100FD0000F9108958F929F92AF92BF92CF92DF921E
:100FE000EF92FF920F931F93DF93CF93CDB7DEB7AE
:100FF00028970FB6F894DEBF0FBECDBF8C0181E0FD
:10100000D8011C968C938FEE91E09A83898399E4A2
:10101000E92E92E0F92EE00EF11E8BE7A82E82E079
:10102000B82EA00EB11EB8E08B2E912C800E911E12
:101030006E010894C11CD11CD701ED91FD917D0179
:101040003097C9F0848195819C838B8380819181C5
:101050009E838D8382819381DC01ED91FC910480DC
:10106000F581E02D099598878F83C40160E070E0D9
:10107000A6010E943602EA14FB04F1F6ABE7EA2E61
:10108000A2E0FA2EE00EF11EFDEAAF2EF2E0BF2E36
:10109000A00EB11EE8E0CE2ED12CC00ED11E8E01C6
:1010A0000F5F1F4FF701A191B1917F011097E1F000
:1010B00012968D919C9113979C838B8314968D919E
:1010C0009C9115979E838D83ED91FC9111970480DF
:1010D000F581E02DCD01099598878F83C60161E0E8
:1010E00070E0A8010E943602EA14FB04D9F62896A3
:1010F0000FB6F894DEBF0FBECDBFCF91DF911F9129
:101100000F91FF90EF90DF90CF90BF90AF909F90A6
:101110008F900895AF92BF92CF92DF92EF92FF929D
:101120000F931F93CF93DF93EC015B010E94D919BA
:1011300029E2C22E21E0D22ECC0EDD1EF501E08088
:10114000F180028113810894E108F1080109110975
:1011500028EE33E040E050E00E94EE1EE21AF30A6F
:10116000040B150BF601E082F18202831383C35D49
:10117000DE4FF501E480F5800681178120E03AEC2E
:101180004AE95BE3E20EF31E041F151F20E432E47C
:101190004FE050E00E94B01EE61AF70A080B190B48
:1011A000E882F9820A831B83C601BE010E946A1687
:1011B000DF91CF911F910F91FF90EF90DF90CF9033
:1011C000BF90AF900895AF92BF92CF92DF92EF920F
:1011D000FF920F931F93DF93CF93CDB7DEB72A977C
:1011E0000FB6F894DEBF0FBECDBF5C016B0189EF77
:1011F00091E09A8389831B821C821D821E821F823A
:10120000188619861A860E94D9197B018C01F5016E
:10121000EB5DFE4F80819181A281B381E81AF90ACA
:101220000A0B1B0BCE010196B6010E94DB00C80120
:10123000B70128EE33E040E050E00E94EE1E7B0153
:101240008C018B819C81AD81BE81820F931FA41F75
:10125000B51F8B839C83AD83BE83C801B70120E497
:1012600032E44FE050E00E94B01E9B01AC018F8140
:101270009885A985BA85820F931FA41FB51F8F83F8
:101280009887A987BA87C501BE016D5F7F4F0E940D
:101290008A080E94D919F501E354FD4F60837183D8
:1012A000828393832A960FB6F894DEBF0FBECDBF1C
:1012B000CF91DF911F910F91FF90EF90DF90CF9032
:1012C000BF90AF9008952F923F924F925F926F928E
:1012D0007F928F929F92AF92BF92CF92DF92EF92C6
:1012E000FF920F931F93DF93CF93CDB7DEB7609735
:1012F0000FB6F894DEBF0FBECDBF988B8F870E94CC
:10130000D9196B017C01EF85F889E354FD4F808189
:101310009181A281B381A7019601281B390B4A0B49
:101320005B0BDA01C901893F3AE2930730E0A3077A
:1013300030E0B30728F0AF85B8891C961C921C9743
:10134000EF85F889E355FD4F80819181009781F009
:10135000AF85B889AF53BD4F8D919D910D90BC91D4
:10136000A02D8C159D05AE05BF0510F411821082CD
:1013700015EB612E12E0712EEF85F8896E0E7F1E3F
:101380008F0103551D4FB1EB8B2EB2E09B2E8E0EBD
:101390009F1EA1E34A2EA1E05A2E4E0E5F1EEA5375
:1013A000FD4FFA83E9832F8538892B533D4F3C83CA
:1013B0002B834F85588947545D4F5E834D838F85BE
:1013C000988983549D4F98878F837FEAA72E72E078
:1013D000B72EAF85B889AA0EBB1E63EB262E62E03E
:1013E000362E2A0E3B1EAF53BD4FBA87A987A701E1
:1013F00096012C5E3F4F4F4F5F4F2B873C874D87A9
:101400005E87C8010F851889988B8F87D80112963F
:101410008D919C911397DC01ED91FC910680F781F1
:10142000E02D09959C0197FDF6C0F3018081918123
:10143000820F931F91838083AF85B8894D915C9112
:10144000119746305105C9F4F10180819181F8016D
:10145000E80FF91FEF5CFE4F20830196D101119632
:101460009C938E93F5018081918101979183808374
:10147000009761F6E7E0F0E04AC041155105A9F494
:101480002F3F310519F6E1E0F0E0AF85B889ED9323
:10149000FC932B853C854D855E85A985BA852D936A
:1014A0003D934D935C931397B1CF4130510581F437
:1014B0002F3F310539F422E030E0EF85F8893183A0
:1014C0002083A4CFAF85B88911961C921E929ECF1F
:1014D0004230510571F4F40131832083E3E0F0E000
:1014E000AF85B889ED93FC93D30111963C932E936D
:1014F0008DCF4330510589F4322F2227F4018081AA
:101500009181280F391F31832083E4E0F0E0AF851B
:10151000B8891196FC93EE9379CF4430510551F47C
:10152000D50111963C932E93F10111821082E5E0D2
:10153000F0E0EDCF45305105D1F4322F2227D5010F
:101540008D919C911197280F391F11963C932E93E2
:1015500046E050E0EF85F88951834083211531053D
:1015600009F054CF87E090E0918380834FCF4730DC
:10157000510509F04BCF60E071E00E94DB1E8F3F08
:10158000910509F043C0D401ED91FC91119730977A
:10159000A1F4C8010E94B407C8010E94EA07ED81C6
:1015A000FE81C082D182E282F382AF81B885CD9282
:1015B000DD92ED92FC92139729C0EA30F10529F4EF
:1015C000C801B2010E94E30821C0E430F10551F4E2
:1015D00089819A81B2010E94350421E0EB81FC816E
:1015E000208314C0E456F040EE0FFF1FE00FF11F00
:1015F000E558FD4F80819181009741F0DC01ED912C
:10160000FC910190F081E02DB2010995EF85F889F8
:1016100011821082FBCE188B0F87D8011C968C91FB
:101620001C97882309F107541D4FF801808191818F
:10163000A281B381A7019601281B390B4A0B5B0BD2
:10164000DA01C901853C39E0930730E0A30730E0B7
:10165000B30750F08F8598890E94B407D801CD92C6
:10166000DD92ED92FC92139760960FB6F894DEBF70
:101670000FBECDBFCF91DF911F910F91FF90EF90E3
:10168000DF90CF90BF90AF909F908F907F906F90A2
:101690005F904F903F902F900895CF92DF92EF92FE
:1016A000FF920F931F930E94D9197B018C01DD24B7
:1016B0001AC08EE792E00E940B12C82E89E493E0D4
:1016C00066E771E00E94AF078AE992E06C2D0E9404
:1016D000650F882311F0DD24D3948EE792E00E94F9
:1016E0002C12009731F70E94D9196E197F09800BCF
:1016F000910B683E23E0720720E0820720E092070A
:1017000060F3DD2009F449C08AE992E060E476E004
:1017100044E456E028E436E00E9435106091490226
:1017200070914A0280914B0290914C0220E030E08F
:10173000A9010E94661D882349F4609140067091BA
:101740004106809142069091430603C060E070E03C
:10175000CB016093400670934106809342069093BC
:1017600043060E94D21D70933B0660933A06609137
:1017700044067091450680914606909147060E9466
:10178000D21D70933F0660933E068CE796E00E9460
:10179000930584E896E00E94930584E696E00E9413
:1017A00093058CE696E00E94930584E796E00E94FC
:1017B000930589E493E063E871E00E94AF0789E450
:1017C00093E00E94630989E493E061E971E00E947B
:1017D000AF071F910F91FF90EF90DF90CF9008958A
:1017E00081E090E00E94A505089580E090E00E94CD
:1017F000A5050895FC016FEF7FEFCB016083718336
:101800008283938310861186128613862FEF39EC1C
:101810004AE95BE3208B318B428B538B208F318FD6
:10182000428F538F20A331A342A353A320A731A7F4
:1018300042A753A720AB31AB42AB53AB60AF71AF04
:1018400082AF93AFDF01A05CBF4F2FEF30E02D934D
:101850003C93DF01AC5BBF4F6D937D938D939C9365
:101860001397DF01A45BBF4F6D937D938D939C9382
:101870001397DF01AC5ABF4F1C92DF01AB5ABF4F29
:101880001C92DF01AB59BF4F82E08C93DF01AA5954
:10189000BF4F1C92DF01A959BF4F1C92DF01A8590D
:1018A000BF4F1C92DF01A759BF4F1D921D921D9281
:1018B0001C921397DF01A359BF4F1D921C92DF01A9
:1018C000A159BF4F11961C921E92EA5AFF4F1082E7
:1018D0000895862F8154863030F4772767FD709500
:1018E000675370400CC0862F8156772767FD70952F
:1018F000863018F46755704002C060537040CB01C9
:101900000895EF92FF921F93CF93DF93E62EE701A6
:101910007E01F72EE70120E030E0A90116C0CA01E0
:10192000B9012AE030E040E050E00E94B01E212FD3
:10193000332727FD3095432F532F2053304040400D
:101940005040260F371F481F591F1991812F805370
:101950008A3028F3B901CA01DF91CF911F91FF901E
:10196000EF9008952F923F924F925F926F927F92E5
:101970008F929F92AF92BF92CF92DF92EF92FF929F
:101980000F931F93CF93DF93EC01CA5ADF4FBE0131
:101990000E94810C762E672E8C0124E630E040E018
:1019A00050E00E94EE1E20E137E240E050E00E944D
:1019B000B01E4B015C01FE01EF018191982F905305
:1019C0009A30D0F38E3259F5219698EEC92E93E0D5
:1019D000D92EE12CF12C8AE0282E312C412C512CCF
:1019E00019C0332727FD309520533040442737FD59
:1019F0004095542FC701B6010E94B01E860E971E57
:101A0000A81EB91EC701B601A20191010E94EE1ED7
:101A100069017A012991822F80538A3010F3C50120
:101A2000B40126E030E040E050E00E94EE1E690183
:101A30007A01672D762DC80124E630E040E050E0C1
:101A40000E94EE1ECA01B90120EA36E841E050E0EA
:101A50000E94B01EC60ED71EE81EF91EB601C701B1
:101A6000DF91CF911F910F91FF90EF90DF90CF907A
:101A7000BF90AF909F908F907F906F905F904F90AE
:101A80003F902F9008951F93CF93DF93EC01CA5A94
:101A9000DF4F11E028812D3211F010E003C0EC017E
:101AA000C95ADF4FBE010E94810C24E630E040E0BD
:101AB00050E00E94B01E9B01AC01FE018991982F5D
:101AC00090539A30D0F38E3221F58181982F905324
:101AD0009A30F8F49AE08902C0011124805E9140A6
:101AE000AA2797FDA095BA2F280F391F4A1F5B1F01
:101AF0008281982F90539A3060F4992787FD9095B2
:101B0000C097AA2797FDA095BA2F280F391F4A1F03
:101B10005B1F112339F050954095309521953F4F2B
:101B20004F4F5F4FB901CA01DF91CF911F910895C7
:101B3000862F972FDC01842F952FFC018D91882310
:101B400019F091918917D1F3282F332727FD30956C
:101B5000932F0895FF920F931F93CF93DF938C01E0
:101B6000FC01EB5AFF4F8081882309F4BFC0F801C4
:101B7000EA5AFF4FC80160810E94690CF82EF801F3
:101B8000E95AFF4FC80160810E94690CF29440EF4E
:101B9000F422F80EF801EC5AFF4F8081F81609F094
:101BA0009CC0F801E859FF4F8081882309F486C161
:101BB000F801E359FF4F80819181019691838083E1
:101BC000F801EC5BFF4FD801A85BBF4F8D919D9151
:101BD0000D90BC91A02D80839183A283B383F801E3
:101BE000E45BFF4FD801A05BBF4F8D919D910D909D
:101BF000BC91A02D80839183A283B383F801EB591C
:101C0000FF4F80818823A9F1813009F055C1F80187
:101C100084819581A681B78180839183A283B383D8
:101C200084859585A685B78580879187A287B387A8
:101C300084899589A689B789808B918BA28BB38B78
:101C4000848D958DA68DB78D808F918FA28FB38F48
:101C500084A595A5A6A5B7A580A791A7A2A7B3A778
:101C600084A995A9A6A9B7A980AB91ABA2ABB3AB48
:101C700023C1F80184A195A1A6A1B7A180A391A336
:101C8000A2A3B3A384819581A681B7818083918328
:101C9000A283B38384899589A689B789808B918B28
:101CA000A28BB38B848D958DA68DB78D808F918FF0
:101CB000A28FB38FE05CFF4FD801AE5BBF4F8D9119
:101CC0009C9191838083F80184AD95ADA6ADB7ADAD
:101CD00080AF91AFA2AFB3AFEFC0F801E159FF4FB2
:101CE00080819181019691838083E8C0F801EA594F
:101CF000FF4F80818823F9F4E801CA5ADF4FC801F9
:101D0000BE0147E951E00E94980D009729F4F801BF
:101D1000EB59FF4F81E0B1C0C801BE014DE951E070
:101D20000E94980DF801EB59FF4F009711F41082B3
:101D3000C5C082E0A2C0F801EB59FF4FE081E2305C
:101D400009F4BCC0D801AA5ABF4F2C91222309F430
:101D5000B5C0F0E035E0EE0FFF1F3A95E1F790E0F7
:101D6000E82BF92B3197E932F10508F0A7C0EC5CBC
:101D7000FF4FEE0FFF1F0590F491E02D0994C8016D
:101D80000E94430DF80164837583868397830E94C4
:101D9000D919F801E85BFF4F15C0F801E859FF4F6A
:101DA00081E0213409F068C068C0C8010E94B20C0B
:101DB000F801648B758B868B978B0E94D919F8017B
:101DC000E05BFF4F608371838283938377C0233509
:101DD00009F074C0F80184899589A689B789B095FE
:101DE000A095909581959F4FAF4FBF4F848B958B5A
:101DF000A68BB78B63C0C8010E94B20CF801648F38
:101E0000758F868F978F5AC0273509F057C0F80114
:101E1000848D958DA68DB78DB095A0959095819563
:101E20009F4FAF4FBF4F848F958FA68FB78F46C000
:101E3000C8010E94430DF80164A775A786A797A75C
:101E40003DC0C8010E94430DF80164AB75AB86AB81
:101E500097AB34C0B8016A5A7F4FC8010E94810C09
:101E6000F801648775878687978728C0F801E85945
:101E7000FF4F81E021330CF480E080831FC0C80154
:101E80008A5A9F4F0E944321F801EE5BFF4F8083E7
:101E9000118214C0C8010E94430DF80164AF75AFF0
:101EA00086AF97AF0BC0C8010E94430DF80164A331
:101EB00075A386A397A302C081E001C080E0DF91F3
:101EC000CF911F910F91FF9008950F931F93DF9370
:101ED000CF930F92CDB7DEB78C01FC01E759FF4FCE
:101EE00080819181A281B3810196A11DB11D808362
:101EF0009183A283B3836432C9F1F801E959FF4F9A
:101F0000653234F46A3079F06D3009F049C00BC0A5
:101F10006A3249F06C3209F043C0D801AC5ABF4F65
:101F20008C9186278C9380818F3060F4F801E80FC4
:101F3000F11DEA5AFF4F1082C80169830E94AA0D61
:101F4000698101C080E0F801EA59FF4F90819F5FED
:101F50009083F801E959FF4F1082F801EB5AFF4FC7
:101F600091E06A3209F090E0908332C0F801E959BB
:101F7000FF4F1082F801EA59FF4F1082F801EC5A26
:101F8000FF4F1082F801EB59FF4F82E08083F80188
:101F9000EB5AFF4F1082F801E859FF4F108217C02B
:101FA00080818E3040F4D801A80FB11DAA5ABF4FCE
:101FB0006C938F5F8083F801EB5AFF4F80818823F9
:101FC00031F4F801EC5AFF4F80818627808380E04E
:101FD0000F90CF91DF911F910F9108950F931F9351
:101FE000CF93DF93EC0189016115710549F0888970
:101FF0009989AA89BB89FB0180839183A283B383DA
:102000004115510549F0888D998DAA8DBB8DFA0136
:1020100080839183A283B3830115110509F1C45B09
:10202000DF4F88819981AA81BB818F3FFFEF9F0796
:10203000FFEFAF07FFEFBF0759F00E94D9192881C2
:1020400039814A815B81621B730B840B950B03C042
:102050006FEF7FEFCB01F8016083718382839383FD
:10206000DF91CF911F910F910895AF92BF92CF92C0
:10207000DF92EF92FF920F931F93DF93CF93CDB731
:10208000DEB728970FB6F894DEBF0FBECDBF6B0149
:102090005A01BE016F5F7F4FAE014B5F5F4F0E94E1
:1020A000EE0FE980FA800B811C818FEFE81689EC36
:1020B000F8068AE908078BE3180759F0C801B70149
:1020C0000E94001E20E030E543EC57E40E946A1DA8
:1020D00004C060E070E08AE794E4382F292F862F4F
:1020E000972FA32FB22FF60180839183A283B3830E
:1020F000FFEFEF16F9ECFF06FAE90F07FBE31F0706
:1021000069F06D817E818F8198850E94001E20E09C
:1021100030E543EC57E40E946A1D04C060E070E0C3
:102120008AE794E4382F292F862F972FA32FB22FD9
:10213000F50180839183A283B38328960FB6F89428
:10214000DEBF0FBECDBFCF91DF911F910F91FF90EA
:10215000EF90DF90CF90BF90AF900895FC0180E0AA
:1021600090E0A7E0B4E4808F918FA28FB38F80E0DE
:1021700090E0AAEFB3E4848F958FA68FB78F80E0AD
:1021800090E0A4E3B3E480A391A3A2A3B3A320E0CF
:1021900030E042E054EC24A335A346A357A320E04B
:1021A00030E84EE054EC20A731A742A753A720E027
:1021B00030E840E454EC24A735A746A757A783E0AE
:1021C00081AB88E182AB14AA13AA15AA0895CF9215
:1021D000DF92FF920F931F93DF93CF930F92CDB7B0
:1021E000DEB76C01F62E0CE317E0C801F60162A918
:1021F00049830E944617C8016F2D0E94FB16C80133
:102200004981642F0E94FB16C8010E945317F601F2
:1022100080AB0F90CF91DF911F910F91FF90DF90D6
:10222000CF900895CF92DF92FF920F931F93DF9389
:10223000CF930F92CDB7DEB78C01F62E8CE3C82E6C
:1022400087E0D82EC6016EE170E049830E945017E6
:10225000C6016F2D0E94FB16C6014981642F0E94A2
:10226000FB16C6010E945317F80180AB0F90CF9167
:10227000DF911F910F91FF90DF90CF900895CF9342
:10228000DF93EC0160E247E20E94E710CE0162E0DA
:1022900040E00E941211DF91CF9108950F931F9398
:1022A000CF93DF938C01EB0177FF34C02FEF6D3FAD
:1022B0007207D9F03FEF6E3F73072CF48FEF6C3F3E
:1022C000780741F517C0EFEF6E3F7E0749F0FFEF4B
:1022D0006F3F7F07F9F4FC0181A9882381F415C0C1
:1022E000FC0181A9882371F413C0FC0181A9882312
:1022F00061F405C0F80181A9882351F403C0C7E047
:10230000D0E008C0C8E0D0E005C0C5E0D0E002C021
:10231000C6E0D0E08CE397E06EE170E00E945017D9
:102320008CE397E06C2F0E94FB168CE397E00E94F1
:102330005317F80180AB8CE397E06EE170E041E069
:1023400050E00E9443178CE397E00E94A416082FE8
:102350008CE397E00E945317802FDF91CF911F915C
:102360000F910895CF93DF93EC018CE397E068E140
:1023700070E00E9450178CE397E060E20E94FB1629
:102380008CE397E00E94531788AB8CE397E068E1F9
:1023900070E041E050E00E9443178CE397E00E9418
:1023A0009B16009731F08CE397E00E94A41680E022
:1023B00001C081E0DF91CF910895CF93DF93EC01CD
:1023C00069AB623018F0623071F40AC0442331F016
:1023D000413031F00E94B211813011F088E101C02A
:1023E00089E18AAB15C00E94B211813029F489E1DC
:1023F0008AAB82E089AB0CC088E18AABCE016FE08A
:1024000070E00E944E1191E08C3309F090E099AB9E
:10241000DF91CF91089520918C0630918D06281779
:102420003907B1F49091CF068091CE06981781F0CC
:10243000E091CF06F0E0E257F94F20818091CF067E
:1024400090E001968F7390708093CF0630E002C0C9
:102450002FEF3FEFC901089520918C0630918D0632
:102460002817390779F48091CE062091CF0690E0A5
:10247000805C9F4F821B910960E470E00E94DB1E2C
:102480009C0102C020E030E0C901089520918C0633
:1024900030918D062817390749F48FB7F8941092B8
:1024A000CE069091CE069093CF068FBF08952091CF
:1024B0008C0630918D062817390781F49091CF064C
:1024C0008091CE06981751F0E091CF06F0E0E257E8
:1024D000F94F2081332727FD309502C02FEF3FEFC2
:1024E000C901089520E001972FEF8F3F9207D9F798
:1024F0000895EF92FF920F931F93CF93DF93EC0118
:102500008B8DEE85FF859D8581FF04C080818923A9
:1025100029F445C08081892309F041C08B899C89B9
:102520000E94721208E010E0EE24E394FF248D89EB
:102530009E890E947212EE85FF8580819D85892388
:1025400011F0FE2803C08E2D8095F822EE0C01506C
:10255000104069F78F89988D0E9472128B8D81FDD2
:10256000F0948091CE062091CF0690E001968F7373
:10257000907030E08217930779F0E091CE06F0E09A
:10258000E257F94FF0828091CE0690E001968F736A
:1025900090708093CE0603C08B8D81608B8FDF910E
:1025A000CF911F910F91FF90EF900895FC01A189A9
:1025B000B2899089662329F42C91892F80958223F2
:1025C00002C08C91892B8C930895DF92EF92FF9239
:1025D0000F931F93CF93DF93EC01E62E898D9A8D95
:1025E000009739F481E090E09B838A8320E030E01B
:1025F0004BC0DFB6F8948B8D61E081FF60E0CE01C7
:102600000E94D612898D9A8D05960E9472128B8D2A
:1026100081FF19C008E010E0FF24F3948F2D8E2174
:1026200019F0CE0160E002C0CE0161E00E94D61236
:10263000898D9A8D0E947212FF0C0150104071F723
:10264000CE0160E018C008E010E0FF24F3948F2D65
:102650008E2119F0CE0161E002C0CE0160E00E943F
:10266000D612898D9A8D0E947212FF0C0150104073
:1026700071F7CE0161E00E94D612DFBE898D9A8D7E
:102680000E94721221E030E0C901DF91CF911F91C9
:102690000F91FF90EF90DF90089580918C069091BC
:1026A0008D06009711F00E94791208951F920F92E3
:1026B0000FB60F9211242F933F934F935F936F9315
:1026C0007F938F939F93AF93BF93EF93FF930E945A
:1026D0004D13FF91EF91BF91AF919F918F917F919A
:1026E0006F915F914F913F912F910F900FBE0F907F
:1026F0001F9018951F920F920FB60F9211242F93CF
:102700003F934F935F936F937F938F939F93AF9379
:10271000BF93EF93FF930E944D13FF91EF91BF91F1
:10272000AF919F918F917F916F915F914F913F9169
:102730002F910F900FBE0F901F9018951F920F9220
:102740000FB60F9211242F933F934F935F936F9384
:102750007F938F939F93AF93BF93EF93FF930E94C9
:102760004D13FF91EF91BF91AF919F918F917F9109
:102770006F915F914F913F912F910F900FBE0F90EE
:102780001F9018951F93CF93DF93EC01162F862F80
:1027900061E00E949C1A812F61E00E94C01A812F83
:1027A00090E0FC01E451FF4FE491E88BFC01E8521A
:1027B000FF4FE491F0E0EE0FFF1FEC53FF4F8591C8
:1027C0009491898B9A8BDF91CF911F9108951F93DC
:1027D000CF93DF93EC01162F862F60E00E949C1AA6
:1027E0008B8D81FD04C0812F61E00E94C01A1C877F
:1027F000812F90E0FC01E451FF4FE491ED87FC0153
:10280000E852FF4FE491F0E0EE0FFF1FE253FF4F5D
:10281000859194918E879F87DF91CF911F91089525
:102820001F93CF93DF93EC01162F1B821A8288EE41
:1028300093E0A0E0B0E08C839D83AE83BF8381E50D
:1028400092E0998388831C8A1B8A1E8A1D8A188EAF
:102850001F8A1A8E198E8B8D2170220F8C7F822BEE
:102860008B8FCE01642F0E94C213CE01612F0E9474
:10287000E713DF91CF911F910895FC014485463104
:1028800050F5483028F04E3030F0ECE6F0E005C06E
:10289000EDE6F0E002C0EBE6F0E05081483040F4B5
:1028A00081E090E002C0880F991F4A95E2F710C0BE
:1028B000242F30E04E3018F42850304002C02E5003
:1028C000304081E090E002C0880F991F2A95E2F71E
:1028D000809585238083089521E532E0FC013183D2
:1028E00020830E943D1408951F920F920FB60F92FD
:1028F00011242F933F934F935F936F937F938F9305
:102900009F93AF93BF93EF93FF938091F50687FF5B
:1029100005C010928500109284002BC02091F5060E
:10292000332727FD30958091D00690E0281739078E
:1029300004F58091F506992787FD9095FC01EE0F2F
:10294000FF1FE80FF91FEF52F94F808186FF11C07A
:102950008091F506992787FD9095FC01EE0FFF1FEA
:10296000E80FF91FEF52F94F80818F7360E00E94EA
:10297000C01A8091F5068F5F8093F5062091F506C9
:10298000332727FD30958091D00690E0281739072E
:102990000CF04EC08091F5068C300CF049C080914F
:1029A0008400909185002091F506332727FD30950E
:1029B000F901EE0FFF1FE20FF31FEF52F94F2181D4
:1029C0003281820F931F90938900809388008091B9
:1029D000F506992787FD9095FC01EE0FFF1FE80F84
:1029E000F91FEF52F94F808186FF2BC08091F506C9
:1029F000992787FD9095FC01EE0FFF1FE80FF91F47
:102A0000EF52F94F80818F7361E00E94C01A19C0A4
:102A100080E49CE905C08091840090918500049633
:102A200090938900809388008FEF8093F50609C00A
:102A300080918400909185002CE98434920740F3C2
:102A4000EACFFF91EF91BF91AF919F918F917F91CD
:102A50006F915F914F913F912F910F900FBE0F900B
:102A60001F901895FC018091D0068C3090F48083E3
:102A70008F5F8093D006808190E0FC01EE0FFF1FF6
:102A8000E80FF91FEF52F94F88EB9BE092838183A7
:102A900008958FEF80830895DF92EF92FF920F9356
:102AA0001F93CF93DF93EC01D62E8A0179018881A1
:102AB0008C3008F064C0862F61E00E949C1A488127
:102AC000842F90E0FC01EE0FFF1FE80FF91FEF527B
:102AD000F94F9D2D9F738081807C892B808380E2BC
:102AE00092E0801B910B24E030E0B9010E94DB1ED4
:102AF000698380E699E08E199F09B9010E94DB1E67
:102B00006A83842F6CE00E94CF1E90E09C01220F0C
:102B1000331F280F391F220F331F220F331F40E0AE
:102B200050E0BA01620F731FFB01EE0FFF1FE60FAB
:102B3000F71FEF52F94F608166FD15C04F5F5F4F81
:102B40004C30510571F724C01092800082E08093D0
:102B500081001092850010928400B19A80916F00DC
:102B6000826080936F00888190E0FC01EE0FFF1F70
:102B7000E80FF91FEF52F94F8081806480838881CC
:102B8000DF91CF911F910F91FF90EF90DF9008950B
:102B90000097D1F2E8CF40E252E020E639E00E940F
:102BA0004C150895FC0120812C3078F54181552782
:102BB00047FD509588E890E0841B950B880F991F7E
:102BC000880F991F6817790784F04281552747FDC0
:102BD000509588E592E0841B950B880F991F880F0C
:102BE000991F681779070CF4CB014FB7F89430E0C0
:102BF000F901EE0FFF1FE20FF31FEF52F94F02979B
:102C0000880F991F928381834FBF0895AF92BF921F
:102C1000CF92DF92EF92FF920F931F93CF93DF93A8
:102C2000EC0182E0603278070CF046C077FD04C00A
:102C3000653B710524F405C060E070E002C064EB00
:102C400070E000D000D0882777FD8095982F4981CB
:102C5000552747FD509528E830E0241B350B220FFF
:102C6000331F220F331F5901CC24B7FCC094DC2C36
:102C70004A81552747FD509528E532E0241B350B46
:102C8000220F331F220F331F442737FD4095542F47
:102C9000EDB7FEB7218332834383548320E030E0D5
:102CA000A901B4EBEB2EF12C012D112D0E94071B75
:102CB0000F900F900F900F90CE010E94D215DF91D0
:102CC000CF911F910F91FF90EF90DF90CF90BF9029
:102CD000AF900895CF92DF92EF92FF920F931F93E0
:102CE000CF93DF93EC016B01FB01608171818281E5
:102CF000938120E03AEC4AE95BE30E94EE1E7B01FF
:102D00008C0188819981AA81BB81820F931FA41FA6
:102D1000B51F88839983AA83BB83F601E082F18281
:102D200002831383DF91CF911F910F91FF90EF905A
:102D3000DF90CF9008952091170730E0809116071B
:102D4000281B3109C9010895809116079091170732
:102D5000891750F4E82FF0E0EA50F94F208130E075
:102D60008F5F8093160702C02FEF3FEFC9010895D0
:102D7000E091160780911707E81730F4F0E0EA5069
:102D8000F94F208130E002C02FEF3FEFC9010895D5
:102D90000895CF92DF92EF92FF920F931F93CF93FC
:102DA000DF936C01CB01EA0120913B072223B1F0B4
:102DB000E62EF92E00E010E00DC0D7016D917D01E7
:102DC000D601ED91FC910190F081E02DC6010995AD
:102DD0000F5F1F4F0C171D0780F303C0642F0E9465
:102DE0000918CE01DF91CF911F910F91FF90EF90C5
:102DF000DF90CF900895DF93CF930F92CDB7DEB7DA
:102E0000698320913B072223D1F020913A07203299
:102E100040F021E030E0FC013383228320E030E009
:102E200015C080913907E82FF0E0E75EF84F9981EF
:102E300090838F5F8093390780933A0705C0CE0156
:102E4000019661E00E94091821E030E0C9010F906D
:102E5000CF91DF91089510921607109217071092E4
:102E6000390710923A070E947A170895862F413247
:102E700008F040E266EF76E00E9493171092160782
:102E80008093170708950E943617089581E0809374
:102E90003B07609318071092390710923A0708957C
:102EA0000E94461708958091180769E177E04091E4
:102EB0003A0721E00E94C9171092390710923A0789
:102EC00010923B07089510923F0710923E0788EE3C
:102ED00093E0A0E0B0E08093400790934107A09377
:102EE0004207B093430781E692E090933D078093B9
:102EF0003C07089510926C0782E161E00E94C01ABD
:102F000083E161E00E94C01AE9EBF0E080818E7FEE
:102F1000808380818D7F808388E48093B80085E4FE
:102F20008093BC000895413288F590916C079923F5
:102F3000E1F791E090936C079FEF90936B071092ED
:102F40004907942F915090934A07880F816080938E
:102F5000480785EE8093BC0080916C078130E1F3D7
:102F600080914907841710F440914907EBE4F7E09A
:102F7000262F372FD901242F30E02E0F3F1F02C0FC
:102F800081918D93E217F307D9F701C040E0842FB8
:102F900008954132B0F590916C079923E1F792E0E2
:102FA00090936C079FEF90936B07109249074093A3
:102FB0004A07DB01EBE4F7E050E04E0F5F1F02C071
:102FC0009D919193E417F507D9F790E0880F991F29
:102FD0008093480785EE8093BC00222321F08091E6
:102FE0006C078230E1F380916B078F3F61F0809135
:102FF0006B07803251F080916B07803341F483E09E
:10300000089581E0089580E0089582E0089584E0C5
:1030100008956132A0F420916C07243091F46093FC
:103020009107DC01E4E9F7E070E06E0F7F1F02C05A
:103030008D918193E617F707D9F780E0089581E035
:10304000089582E00895882311F085EC01C085E899
:103050008093BC00089585ED8093BC008091BC00F6
:1030600084FDFCCF10926C07089585EC8093BC0022
:1030700010926C0708951F920F920FB60F921124B1
:103080002F933F934F935F936F937F938F939F9370
:10309000AF93BF93EF93FF938091B90090E0887F47
:1030A00090708036910509F4C2C081369105E4F52F
:1030B0008832910509F47EC089329105C4F48031CB
:1030C000910509F472C08131910544F4009709F427
:1030D00013C18830910509F013C167C0883191058B
:1030E00009F468C08032910509F00AC178C08034C3
:1030F000910509F48AC0813491054CF4803391051F
:1031000009F46FC08833910509F0FAC06EC08035AC
:10311000910509F46EC08835910509F47BC08834A7
:10312000910509F0EDC0EAC08839910509F4DAC0CB
:1031300089399105ECF48837910509F478C089370D
:1031400091054CF48836910509F471C080379105DA
:1031500009F0D6C06CC08838910509F4C3C0803925
:10316000910509F46AC08038910509F0C9C065C0AD
:10317000803B910509F48EC0813B91054CF4803A67
:10318000910509F46CC0883A910509F0B9C082C074
:10319000803C910509F4AAC0883C910509F4A6C0B9
:1031A000883B910509F0ACC08AC0809148078093A4
:1031B000BB0013C09091490780914A07981708F007
:1031C0009DC080914907E82FF0E0E55BF84F9081C2
:1031D0009093BB008F5F8093490781E084C080E2B9
:1031E00001C080E380936B0789C088E380936B07FD
:1031F0004EC0809149079091BB00E82FF0E0E55B5D
:10320000F84F90838F5F8093490790914907809191
:103210004A0765C0809149079091BB00E82FF0E014
:10322000E55BF84F90838F5F8093490767C083E029
:1032300080936C0710926D07D0CF80916D0780321C
:1032400008F050C080916D079091BB00E82FF0E02E
:10325000E259F84F90838F5F80936D07BECF8091C6
:103260006D07803230F4E0916D07F0E0E259F84FDD
:1032700010820E942B1860916D07E0918E07F091EB
:103280008F078EE697E070E0099510926D070E9417
:10329000351836C084E080936C0710929007109226
:1032A0009107E0919207F09193070995809191071A
:1032B000882329F481E080939107109294078091EC
:1032C0009007E82FF0E0EC56F84F90819093BB0008
:1032D0008F5F809390079091900780919107981746
:1032E00008F47BCF80E00E9423180AC081E00E948E
:1032F000231810926C0704C010926B070E942B18C1
:10330000FF91EF91BF91AF919F918F917F916F91BD
:103310005F914F913F912F910F900FBE0F901F9093
:1033200018951F920F920FB60F9211242F933F936F
:103330008F939F93AF93BF938091B8079091B907F4
:10334000A091BA07B091BB073091BC070196A11DAF
:10335000B11D232F2D5F2D3720F02D570196A11D74
:10336000B11D2093BC078093B8079093B907A09331
:10337000BA07B093BB078091B4079091B507A091AD
:10338000B607B091B7070196A11DB11D8093B40790
:103390009093B507A093B607B093B707BF91AF91CD
:1033A0009F918F913F912F910F900FBE0F901F9083
:1033B00018958FB7F8942091B8073091B9074091CC
:1033C000BA075091BB078FBFB901CA0108959FB7D3
:1033D000F8942091B4073091B5074091B607509109
:1033E000B70786B5A89B06C08F3F21F02F5F3F4FE0
:1033F0004F4F5F4F9FBF542F432F322F2227280F4D
:10340000311D411D511D82E0220F331F441F551FE6
:103410008A95D1F7B901CA010895EF92FF920F93EF
:103420001F93CF93DF937B018C010E94E719EB017F
:103430000FC00E94E7196C1B7D0B83E0683E780784
:1034400038F00894E108F10801091109C851DC4F6E
:10345000E114F1040105110561F7DF91CF911F918E
:103460000F91FF90EF900895789484B5826084BDA9
:1034700084B5816084BD85B5826085BD85B5816078
:1034800085BDEEE6F0E0808181608083E1E8F0E0D8
:103490001082808182608083808181608083E0E807
:1034A000F0E0808181608083E1EBF0E080818460E6
:1034B0008083E0EBF0E0808181608083EAE7F0E0E8
:1034C000808184608083808182608083808181604C
:1034D00080838081806880831092C100089583304A
:1034E00071F0843028F48130A1F0823021F514C0CD
:1034F0008630B1F08730D1F08430E9F404C0809197
:1035000080008F7703C0809180008F7D8093800042
:10351000089584B58F7702C084B58F7D84BD0895EA
:103520008091B0008F778093B00008958091B000B3
:103530008F7D8093B000089590E0FC01E451FF4F2F
:103540002491FC01E852FF4FE491EE23C1F0F0E03A
:10355000EE0FFF1FE654FF4F85919491DC01662327
:1035600041F49FB7F8948C91209582238C939FBF50
:1035700008959FB7F8948C91822B8C939FBF0895E8
:103580000F931F93DF93CF930F92CDB7DEB7282F02
:1035900030E0F901E050FF4F8491F901E451FF4F11
:1035A000149128523F4FF90104910023D9F0882348
:1035B00021F069830E946F1A6981E02FF0E0EE0F1D
:1035C000FF1FEC53FF4F85919491DC019FB7F89456
:1035D000662321F48C911095812302C08C91812B5C
:1035E0008C939FBF0F90CF91DF911F910F91089502
:1035F000CF93DF930E94341A0E94A806CBE5DCE14A
:103600000E944D0B2097E1F30E945B1CF9CF2F9293
:103610003F924F925F926F927F928F929F92AF9262
:10362000BF92CF92DF92EF92FF920F931F93DF939F
:10363000CF93CDB7DEB73B014C0119012A016D894B
:103640007E898F89988D6A197B098C099D09621A78
:10365000730A840A950AA40193010E94B01EE2181D
:10366000F30804091509A80197010E94101F2A0DEB
:103670003B1D4C1D5D1DB901CA01CF91DF911F910A
:103680000F91FF90EF90DF90CF90BF90AF909F9001
:103690008F907F906F905F904F903F902F90089504
:1036A000CF92DF92EF92FF920F931F93CF93DF930E
:1036B0006C017B018A01C0E0D0E00FC0D7016D91A1
:1036C0007D01D601ED91FC910190F081E02DC601C4
:1036D0000995C80FD91F015010400115110571F748
:1036E000CE01DF91CF911F910F91FF90EF90DF906E
:1036F000CF900895FC0184859585FC01E05CFF4F27
:10370000208131818E5B9F4FFC0180819181281B3C
:10371000390B2F733070C9010895FC01848595859C
:10372000FC01E05CFF4F40815181FC01EE5BFF4FEB
:10373000208131814217530741F00190F081E02D43
:10374000E80FF91F208130E002C02FEF3FEFC901E1
:103750000895FC0184859585FC01E05CFF4F408164
:103760005181FC01EE5BFF4F2081318142175307ED
:1037700071F0A081B181A80FB91F2C918081918136
:1037800001968F7390709183808330E002C02FEF99
:103790003FEFC9010895DC011E968D919C911F9702
:1037A000FC01E05CFF4F8E5B9F4F40815181DC014B
:1037B0002D913C91119742175307B9F708951F9324
:1037C000FC01162F26853785D901A05CBF4F8D914E
:1037D0009C91019660E470E00E94DB1ED901AE5B13
:1037E000BF4F4D915C91119784179507D1F3D90183
:1037F000A05CBF4F0D90BC91A02DA20FB31F1C93D6
:10380000A685B785A05CBF4F11969C938E93A68921
:10381000B7892C9181E090E0058C02C0880F991F38
:103820000A94E2F7282B2C9381E090E01F910895F1
:10383000FB01E05CFF4F208131812F5F3F4F2F73F1
:103840003070DB01AE5BBF4F4D915C911197241737
:10385000350739F0A081B181A60FB71F8C93318352
:103860002083089508951F920F920FB60F9211248E
:103870002F933F934F935F936F937F938F939F9378
:10388000AF93BF93EF93FF938091C6006DEB77E00A
:103890000E94181CFF91EF91BF91AF919F918F9162
:1038A0007F916F915F914F913F912F910F900FBE3C
:1038B0000F901F90189585E498E00E947A1B00975E
:1038C00011F00E94321C08951F920F920FB60F92B2
:1038D00011242F933F935F936F937F938F939F93C5
:1038E000AF93BF93EF93FF9320914108309142082B
:1038F00080914308909144082817390731F480914A
:10390000C1008F7D8093C10016C0E0914308F09103
:103910004408EF5FF74F208180914308909144085D
:10392000019660E470E00E94DB1E9093440880934F
:1039300043082093C600FF91EF91BF91AF919F91F3
:103940008F917F916F915F913F912F910F900FBE5B
:103950000F901F901895DF92EF92FF920F931F9395
:10396000CF93DF93EC017A018B01DD24D3944030B7
:1039700081EE580780E0680780E0780749F4DD248D
:10398000EC89FD89108260E874E88EE190E00FC058
:10399000EC89FD8981E090E00E8C02C0880F991FB0
:1039A0000A94E2F7808360E079E08DE390E0A8017B
:1039B00097010E94EE1E21503040404050405695E5
:1039C00047953795279580E12030380710F0DD20A6
:1039D000B1F6E889F9893083EA89FB892083EE8989
:1039E000FF89408181E090E09C010A8C02C0220F97
:1039F000331F0A94E2F7422B4083EE89FF8940810E
:103A00009C010B8C02C0220F331F0A94E2F7422B59
:103A10004083EE89FF8940819C010C8C02C0220FFB
:103A2000331F0A94E2F7422B4083EE89FF892081FD
:103A30000D8C02C0880F991F0A94E2F780958223AB
:103A40008083DF91CF911F910F91FF90EF90DF90D6
:103A50000895109248081092470888EE93E0A0E07D
:103A6000B0E08093490890934A08A0934B08B09324
:103A70004C08E7E4F8E081E792E0929382938DEBC3
:103A800097E09587848781E098E09787868785EC23
:103A900090E0918B808B84EC90E0938B828B80EC18
:103AA00090E0958B848B81EC90E0978B868B86ECF5
:103AB00090E0918F808F84E0828F83E0838F87E016
:103AC000848F85E0858F81E0868F0895D4D008F4B7
:103AD00081E008950CD00AC102D140F0F9D030F055
:103AE00021F45F3F19F0EBC0511134C1EEC00FD18A
:103AF00098F39923C9F35523B1F3951B550BBB27B5
:103B0000AA2762177307840738F09F5F5F4F220F61
:103B1000331F441FAA1FA9F333D00E2E3AF0E0E85A
:103B200030D091505040E695001CCAF729D0FE2FA6
:103B300027D0660F771F881FBB1F26173707480738
:103B4000AB07B0E809F0BB0B802DBF01FF279358EE
:103B50005F4F2AF09E3F510568F0B1C0FBC05F3F48
:103B6000ECF3983EDCF3869577956795B795F795D6
:103B70009F5FC9F7880F911D9695879597F90895CE
:103B8000E1E0660F771F881FBB1F6217730784076A
:103B9000BA0720F0621B730B840BBA0BEE1F88F779
:103BA000E0950895BCD088F09F5790F0B92F9927E1
:103BB000B751A0F0D1F0660F771F881F991F1AF038
:103BC000BA95C9F712C0B13081F0C3D0B1E0089501
:103BD000C0C0672F782F8827B85F39F0B93FCCF382
:103BE000869577956795B395D9F73EF4909580952E
:103BF000709561957F4F8F4F9F4F0895E89409C04E
:103C000097FB3EF490958095709561957F4F8F4F0F
:103C10009F4F9923A9F0F92F96E9BB279395F69525
:103C2000879577956795B795F111F8CFFAF4BB0FA3
:103C300011F460FF1BC06F5F7F4F8F4F9F4F16C007
:103C4000882311F096E911C0772321F09EE8872F91
:103C5000762F05C0662371F096E8862F70E060E04D
:103C60002AF09A95660F771F881FDAF7880F9695C6
:103C7000879597F90895990F0008550FAA0BE0E86A
:103C8000FEEF16161706E807F907C0F0121613061E
:103C9000E407F50798F0621B730B840B950B39F45E
:103CA0000A2661F0232B242B252B21F408950A26C4
:103CB00009F4A140A6958FEF811D811D089597F904
:103CC0009F6780E870E060E008959FEF80EC0895C2
:103CD00000240A94161617061806090608950024EB
:103CE0000A9412161306140605060895092E039465
:103CF000000C11F4882352F0BB0F40F4BF2B11F4D9
:103D000060FF04C06F5F7F4F8F4F9F4F089557FD37
:103D10009058440F551F59F05F3F71F04795880F39
:103D200097FB991F61F09F3F79F0879508951216D0
:103D300013061406551FF2CF4695F1DF08C016167C
:103D400017061806991FF1CF86957105610508942D
:103D50000895E894BB2766277727CB0197F9089544
:103D6000629FD001739FF001829FE00DF11D649F5F
:103D7000E00DF11D929FF00D839FF00D749FF00DEB
:103D8000659FF00D9927729FB00DE11DF91F639F8C
:103D9000B00DE11DF91FBD01CF0111240895991B3C
:103DA00079E004C0991F961708F0961B881F7A9532
:103DB000C9F78095089597FB092E07260AD077FD4D
:103DC00004D049D006D000201AF4709561957F4F39
:103DD0000895F6F7909581959F4F0895A1E21A2EC8
:103DE000AA1BBB1BFD010DC0AA1FBB1FEE1FFF1F9F
:103DF000A217B307E407F50720F0A21BB30BE40BEF
:103E0000F50B661F771F881F991F1A9469F7609535
:103E10007095809590959B01AC01BD01CF010895EF
:103E200097FB092E05260ED057FD04D0D7DF0AD008
:103E3000001C38F450954095309521953F4F4F4FD9
:103E40005F4F0895F6F790958095709561957F4F37
:103E50008F4F9F4F0895AA1BBB1B51E107C0AA1F9C
:103E6000BB1FA617B70710F0A61BB70B881F991F1B
:103E70005A95A9F780959095BC01CD010895EE0F54
:103E8000FF1F0590F491E02D0994CF93DF938230CA
:103E9000910510F482E090E0E0916608F0916708E7
:103EA00040E050E020E030E026C06081718168177A
:103EB0007907E0F06817790781F4828193812115F1
:103EC000310531F0D90113969C938E9312972BC034
:103ED000909367088093660826C04115510519F034
:103EE0006417750718F4AB01E901DF019F017281C6
:103EF0006381E72FF62F3097C1F64115510501F187
:103F0000481B590B4430510580F412968D919C91B9
:103F10001397209719F09B838A8304C090936708B6
:103F200080936608FD01329646C0FD01E40FF51F3F
:103F3000819391934250504011965C934E933BC0B5
:103F400020916408309165082115310541F42091D4
:103F5000D9013091DA0130936508209364082091EB
:103F6000DB013091DC012115310541F42DB73EB75D
:103F70004091D7015091D801241B350BE091640882
:103F8000F0916508E217F307A0F42E1B3F0B2817EA
:103F9000390778F0AC014E5F5F4F2417350748F0C2
:103FA0004E0F5F1F5093650840936408819391936F
:103FB00002C0E0E0F0E0CF01DF91CF910895CF9310
:103FC000DF93009709F491C0FC01329713821282AB
:103FD00060916608709167086115710581F4208110
:103FE0003181280F391F80916408909165088217EC
:103FF000930799F5F0936508E093640876C0DB01B8
:1040000080E090E002C0CD01D901AE17BF0748F4AF
:1040100012962D913C91139721153105A1F7CD01F1
:1040200021C0B383A283EF01499159919E01240FCE
:10403000351FA217B30779F42D913C911197240FE6
:10404000351F2E5F3F4F3183208312962D913C9177
:10405000139733832283009729F4F0936708E09342
:10406000660843C0DC011396FC93EE9312974D91C2
:104070005D91A40FB51FEA17FB0769F42081318118
:10408000240F351F2E5F3F4FEC0139832883228197
:1040900033813B832A83E0E0F0E002C0FB01BC01F6
:1040A000DB0112968D919C9113970097B9F79B01B4
:1040B0002E5F3F4F8D919C911197820F931F4091DE
:1040C0006408509165084817590779F4309729F426
:1040D000109267081092660802C013821282225062
:1040E00030403093650820936408DF91CF910895A4
:1040F000A0E0B0E0EEE7F0E20C9478218C01CB0177
:104100000115110529F40E94451F082F192FB5C06C
:10411000D80112979801260F371F2A173B0708F47A
:10412000AAC0ED90FC901197E616F706D0F045E096
:10413000E416F10408F4A1C0A7014450504046170A
:10414000570708F49AC0A70142505040461B570B2E
:10415000F901419351936D937C93CF010E94DF1F2E
:104160008CC05B01AE18BF0848018E0C9F1CE0910B
:104170006608F0916708CC24DD24C0E0D0E041C09F
:10418000E815F90599F560817181AB014E5F5F4FCC
:104190004A155B0558F1AB014A195B09CC24DD24B3
:1041A0006894C1F8C40ED51E8280A380E5E0CE16C7
:1041B000D10448F0F9018282A38251834083119691
:1041C0009C938E9309C0C7010296860F971F119684
:1041D0009C938E93E82DFA2D209719F0FB83EA83A8
:1041E0004CC0F0936708E093660847C04081518156
:1041F000C416D50608F46A01EF0152814381E52F08
:10420000F42F309709F0BCCF4091640850916508B5
:1042100048155905E9F4C816D906D0F44091DB01D8
:104220005091DC014115510541F44DB75EB76091E5
:10423000D7017091D801461B570B24173507D8F4C6
:10424000309365082093640811969C938E9315C053
:104250000E94451FC82EE6016E01D92EE601209767
:1042600051F08C2DB801A7010E946121C8010E9464
:10427000DF1F860102C000E010E0C801CDB7DEB745
:10428000ECE00C949421FC0188279927E894219173
:104290002032E9F3293010F02E30C8F32B3241F0F0
:1042A0002D3239F4689404C00E946A21820F911D56
:1042B000219120532A30C0F31EF4909581959F4F91
:1042C0000895FB01DC0102C001900D924150504065
:1042D000D8F708957AE0979F902D879F802D910DB4
:1042E000112408952F923F924F925F926F927F9286
:1042F0008F929F92AF92BF92CF92DF92EF92FF92F6
:104300000F931F93CF93DF93CDB7DEB7CA1BDB0BA1
:104310000FB6F894DEBF0FBECDBF09942A88398846
:1043200048885F846E847D848C849B84AA84B9844D
:10433000C884DF80EE80FD800C811B81AA81B98159
:10434000CE0FD11D0FB6F894DEBF0FBECDBFED016D
:10435000089511E0CAE1D1E004C0FE010E94411FAE
:0C4360002296CC31D107C9F7F894FFCFAA
:10436C007374645F6D7367732F54696D6500726F3E
:10437C007373657269616C5F6D7367732F546F70C3
:10438C006963496E666F00726F7373657269616CF5
:10439C005F6D7367732F4C6F67007374645F6D731D
:1043AC0067732F55496E74313600736572766F31B1
:1043BC0000736572766F320070776D5F6475726131
:1043CC0074696F6E006C65616B0068656164696E21
:1043DC006700677073006E65772067707320646187
:1043EC0074610061626F757420746F207370696EF4
:1043FC000070616E7473004750524D430047504734
:10440C004741004E004E4E45004E4500454E45007E
:10441C004500455345005345005353450053005345
:10442C00535700535700575357005700574E5700D8
:10443C004E57004E4E570020006808000008000937
:10444C00000A000F0000000000630900000000B328
:10445C00024601C70100000000B800DB0043010068
:10446C000000003602000000001B03350418027225
:10447C006F7373657269616C5F6D7367732F5265CF
:10448C007175657374506172616D00000000001BE2
:10449C000226023302000000009902AD02B00200B5
:1044AC000000000F04CA01150200007A440000004D
:1044BC0000E512501B2C120B125712461200000072
:1044CC0000FB16C9169B16A416B816C816000000D9
:0E44DC0000DF1B501B7A1BA91B8D1BCB1B0086
:00000001FF
