:100000000C94E1000C9409010C9409010C94521B0E
:100010000C94761B0C949A1B0C9409010C94090106
:100020000C9409010C9409010C9409010C94B81268
:100030000C9409010C9409010C946D090C940901AC
:100040000C940D200C9409010C94A5230C94D62338
:100050000C9409010C9409010C9409010C940901F8
:100060000C94B71E0C940901084AD73B3BCE016E95
:1000700084BCBFFDC12F3D6C74319ABD56833DDAFF
:100080003D00C77F11BED9E4BB4C3E916BAAAABE0E
:10009000000000803F00C201000100110011000CAF
:1000A0000000E100000A0025002500210000960064
:1000B000001900390039003600127A00001F00468E
:1000C00000460044008070000022004D004D004AB0
:1000D00000004B00003600750075007200403800CB
:1000E000004A009C009C009900802500007200ECF2
:1000F00000EC00E900C0120000E900DA01DA01D7E3
:100100000160090000D701B603B603B303B00400D1
:1001100000B3036E076E076B072C010000DC0EC1F5
:100120001DC11DBE1D00000000240027002A000084
:10013000000000250028002B0000000000230026FE
:10014000002900040404040404040402020202025C
:10015000020303030303030102040810204080018B
:10016000020408102001020408102000000007000B
:100170000201000003040600000000000000004926
:100180004E46494E4954594E414ECDCCCC3D0AD7EE
:10019000233C17B7D13877CC2B329595E6241FB185
:1001A0004F0A000020410000C84200401C4620BC0D
:1001B000BE4CCA1B0E5AAEC59D74C60FDF1D9B24D4
:1001C000CB0F11241FBECFEFD8E0DEBFCDBF13E0B1
:1001D000A0E0B1E0E4EEF9E502C005900D92AC3B81
:1001E000B107D9F71AE0ACEBB3E001C01D92A33719
:1001F000B107E1F711E0C0ECD1E004C02297FE01A5
:100200000E94BA28CA3BD107C9F70E9429220C9440
:10021000E52C0C940000FC01DB01328123819481E8
:1002200085813C9311962C93119712969C9312976B
:1002300013968C9313973681278190858185149628
:100240003C93149715962C93159716969C93169796
:1002500017968C93179788E090E00895FC01DB01D6
:1002600011962C91119730E040E050E0542F432F2D
:10027000322F222712966C91129770E080E090E066
:10028000CB0177276627262B372B482B592B6C91D0
:1002900070E080E090E0262B372B482B592B1396EB
:1002A0006C91139770E080E090E0962F8827772775
:1002B0006627262B372B482B592B228333834483E5
:1002C000558315962C91159730E040E050E0542F5F
:1002D000432F322F222716966C91169770E080E0FC
:1002E00090E0CB0177276627262B372B482B592BFD
:1002F00014966C91149770E080E090E0262B372BD9
:10030000482B592B17968C9190E0A0E0B0E0B82FC5
:10031000AA2799278827282B392B4A2B5B2B268342
:1003200037834087518788E090E0089580E091E02E
:100330000895AF92BF92CF92DF92EF92FF920F9308
:100340001F93CF93DF935C01FB01318120E080811B
:1003500090E0822B932BD50113969C938E9312974A
:1003600082819381A481B5818B010B5F1F4FE801CE
:1003700066E070E026E0C22ED12CE12CF12CC80EF4
:10038000D91EEA1EFB1E04C0298129936F5F7F4F8F
:100390009B0140E050E02C153D054E055F05A0F3A4
:1003A000AC014A5F5F4F4E0F5F1F9A0121503040F2
:1003B000E9011882E5011D830C83EA01C880D98018
:1003C000EA80FB80BC01665F7F4FEC012996CE0F6F
:1003D000DF1F8B01CB01AA2797FDA095BA2F8C0DAB
:1003E0009D1DAE1DBF1D04C0298129930F5F1F4FA6
:1003F000980140E050E0281739074A075B07A0F34F
:10040000C60ED71EDF01AC0DBD1D11971C926150A9
:1004100070406E0F7F1FF50177836683C601DF9101
:10042000CF911F910F91FF90EF90DF90CF90BF90F1
:10043000AF9008958EE091E008958F929F92AF92D1
:10044000BF92CF92DF92EF92FF920F931F93CF93C1
:10045000DF936C01FB018081D60112968C93129779
:10046000E180F28003811481AB014C5F5F4FEA01B0
:1004700025E030E065E0862E912CA12CB12C8E0C6D
:100480009F1CA01EB11E04C0898189932F5F3F4F1E
:10049000C901A0E0B0E088159905AA05BB05A0F345
:1004A00097012B5F3F4FE20FF31F31971082F60148
:1004B00054834383C901DF91CF911F910F91FF9026
:1004C000EF90DF90CF90BF90AF909F908F90089566
:1004D00087E291E0089583E393E00895FC01DB0156
:1004E000928183819C9311968C93119782E090E086
:1004F0000895FB01518140E0208130E0242B352B11
:10050000FC013383228382E090E008958AE391E046
:1005100008958F929F92AF92BF92CF92DF92EF9207
:10052000FF920F931F93CF93DF934C01DB01ED906C
:10053000FD900D911C911397AB014D5F5F4FFA0138
:1005400024E030E084E0A82EB12CC12CD12CAE0CDC
:10055000BF1CC01ED11E04C0818181932F5F3F4FFD
:10056000C901A0E0B0E08A159B05AC05BD05A0F36C
:10057000E7012496FB01EC0FFD1FDF0111971C9290
:10058000D40113965C934E931297818190E0A0E082
:10059000B0E0BA2FA92F982F8827228130E040E0C1
:1005A00050E0A90133272227822B932BA42BB52BB4
:1005B000208130E040E050E0822B932BA42BB52B20
:1005C000238130E040E050E0522F44273327222798
:1005D000822B932BA42BB52BF40184839583A683C4
:1005E000B7832496FB01EC0FFD1F218130E040E032
:1005F00050E0542F432F322F2227828190E0A0E039
:10060000B0E0DC0199278827282B392B4A2B5B2B5C
:10061000A080BB24CC24DD242A293B294C295D2938
:10062000838190E0A0E0B0E0B82FAA27992788271F
:10063000282B392B4A2B5B2BD40118962D933D93F5
:100640004D935C931B972496CE01DF91CF911F9120
:100650000F91FF90EF90DF90CF90BF90AF909F9061
:100660008F9008958AE491E00895CF92DF92EF92FF
:10067000FF920F931F93DF93CF9300D0CDB7DEB7D8
:100680006C018B01DC0112968C911297FB01808327
:1006900011821282138220E094E0E92EF12C3CE0DA
:1006A00018C0239FA0011124F60187859089840F2B
:1006B000951FFC0140815181FA0140815181BD01AA
:1006C00029833A83FA010995E80EF91E29812F5FE3
:1006D0003A81D60112968C91D801AE0DBF1D281714
:1006E00000F3F60131892289938984893C9311961C
:1006F0002C93119712969C93129713968C931397A1
:1007000097012C5F3F4FC9010F900F90CF91DF9160
:100710001F910F91FF90EF90DF90CF90089587E6A3
:1007200091E008950F931F93CF93DF938C01EB011A
:1007300002960E9435039C01FE01E80FF91FD801C3
:1007400057968C9180832F5F3F4FDE01A20FB31F1E
:100750001C922F5F3F4FDE01A20FB31F1C922F5F31
:100760003F4FC20FD31F18822F5F3F4F40E011C091
:10077000842F90E0880F991FE801AA8DBB8DA80FE8
:10078000B91F9C9111968C91928383832E5F3F4F6A
:100790004F5F3296D80157968C915797481740F380
:1007A000C901DF91CF911F910F91089581E891E0E8
:1007B0000895CF92DF92EF92FF920F931F93CF9302
:1007C000DF93EC01E62ECA012C81222309F448C0F4
:1007D000DA01ED91FC919E01255F3F4F0190F08180
:1007E000E02DB90109952FEF2D832E83EF82188616
:1007F00089871A86FE01379642E050E020E030E01B
:10080000BC016B5F7F4F05C0A1912A0F311D4F5F67
:100810005F4F64177507C4F7FE01E80FF91F2095B5
:1008200023878C01095F1F4FCA80DB8065E0E62EBD
:10083000F12CEC0EFD1EC0E0D0E00EC0F601808170
:100840009181D7016D917D01DC01ED91FC910190C9
:10085000F081E02D09952196C017D1077CF302C0E5
:1008600000E010E0C801DF91CF911F910F91FF9040
:10087000EF90DF90CF9008950F931F93CF93DF9366
:10088000EC018C010A5F1F4FC8010E947902EA85C2
:10089000FB85C8010995DF91CF911F910F910895B4
:1008A00081E090E008958AE391E00895AF92BF92CD
:1008B000CF92DF92EF92FF920F931F93CF93DF932C
:1008C0008C01EB01DC0112969C91129713968C918E
:1008D00013979883898314966C91149715967C913D
:1008E000DB01FD0101900020E9F73197EA1BFB0BCA
:1008F000CF01A0E0B0E08A839B83AC83BD839E01DF
:100900002A5F3F4FC901AF010E94E62A2A813B813D
:1009100076E0E72EF12CE20EF31EEC0EFD1EF80140
:1009200066817781DB01FD0101900020E9F73197B5
:10093000EA1BFB0B5F01CC24DD24D701AD92BD92F5
:10094000CD92DC9213978901065F1F4FC00FD11F14
:10095000CE01AF010E94E62AD7012D913C9111975B
:10096000200F311FC901DF91CF911F910F91FF908F
:10097000EF90DF90CF90BF90AF9008956F927F92ED
:100980008F929F92AF92BF92CF92DF92FF920F937E
:100990001F93CF93DF938C01EB01DC0112968C91B6
:1009A0001297888319821A821B826B0140E024E02F
:1009B00030E021C0842F90E0880F991F880F991F85
:1009C000F801A781B085A80FB91F6C9111965C91B1
:1009D000119712969C91129713968C91D6016C9355
:1009E00011965C93119712969C93129713968C9381
:1009F0002C5F3F4F4F5FE4E0F0E0CE0EDF1ED801EA
:100A000012968C9112974817A8F2FE01E20FF31F7D
:100A100019968C9180832F5F3F4FDE01A20FB31F89
:100A20001C922F5F3F4FDE01A20FB31F1C922F5F5E
:100A30003F4FDE01A20FB31F1C922F5F3F4F6F018C
:100A400040E021C0842F90E0880F991F880F991FE4
:100A5000F801A685B785A80FB91F6C9111965C9116
:100A6000119712969C91129713968C91D6016C93C4
:100A700011965C93119712969C93129713968C93F0
:100A80002C5F3F4F4F5FE4E0F0E0CE0EDF1ED80159
:100A900019968C9119974817A8F2FE01E20FF31FDF
:100AA00050968C91509780832F5F3F4FFE01E20F4D
:100AB000F31F10822F5F3F4FFE01E20FF31F1082E2
:100AC0002F5F3F4FFE01E20FF31F10822F5F3F4F5A
:100AD000FF2433C05E01A20EB31E8F2D90E0880F5D
:100AE000991FD8015396ED91FC915497E80FF91F87
:100AF00060817181DB01FD0101900020E9F73197F0
:100B0000EA1BFB0B3F0188249924D5016D927D924D
:100B10008D929C921397A4E0CA2ED12CC20ED31EA4
:100B20009E012C0D3D1DC901AF010E94E62AF50171
:100B3000208131812C0D3D1DF394D80150968C916C
:100B40005097F81638F2C901DF91CF911F910F919C
:100B5000FF90DF90CF90BF90AF909F908F907F904D
:100B60006F9008950F931F93CF93DF93EC018B0148
:100B70006A817B81DB01FD0101900020E9F731975B
:100B8000EA1BFB0B9F0140E050E0D8012D933D9301
:100B90004D935D93CD01AF010E94E62AF8012081BB
:100BA00031812C5F3F4F5C814D819E818F81E20FAF
:100BB000F31F50834183928383832C5F3F4F58857B
:100BC00049859A858B85F801E20FF31F5083418395
:100BD000928383832C5F3F4FC901DF91CF911F9197
:100BE0000F910895CF93DF93FC01EB0182818883FD
:100BF00063817481DB01FD0101900020E9F73197E9
:100C0000EA1BFB0BCF01A0E0B0E089839A83AB83A2
:100C1000BC839E012B5F3F4FC901AF010E94E62AB2
:100C200029813A812B5F3F4FC901DF91CF91089510
:100C30006F927F928F929F92AF92BF92CF92DF92EC
:100C4000EF92FF920F931F93CF93DF93EC015B0121
:100C5000DB010C918A81801760F4602F70E0660FD1
:100C6000771F660F771F8F8198850E94F1298F83E8
:100C700098870A83F50160E034E0C32ED12C8E0101
:100C80000D5F1F4F45C0818190E0A0E0B0E0BA2F1A
:100C9000A92F982F8827228130E040E050E0A90159
:100CA00033272227822B932BA42BB52B208130E0D6
:100CB00040E050E0822B932BA42BB52B238130E016
:100CC00040E050E0522F442733272227822B932BDA
:100CD000A42BB52B8B839C83AD83BE8384E090E0F3
:100CE000C80ED91E862F90E0880F991F880F991F74
:100CF0002F813885280F391FD8016D907D908D90F8
:100D00009C90D9016D927D928D929C9213976F5F0A
:100D100034968A81681708F4B6CF85010C0D1D1D25
:100D2000F80180808985881560F4682D70E0660F71
:100D3000771F660F771F8E859F850E94F1298E870A
:100D40009F8784E090E0C80ED91E8986F80160E094
:100D50008E01065F1F4F45C0818190E0A0E0B0E0AA
:100D6000BA2FA92F982F8827228130E040E050E049
:100D7000A90133272227822B932BA42BB52B20816B
:100D800030E040E050E0822B932BA42BB52B238145
:100D900030E040E050E0522F442733272227822BB7
:100DA000932BA42BB52B8A879B87AC87BD87A4E0A8
:100DB000B0E0CA0EDB1E862F90E0880F991F880FC7
:100DC000991F2E853F85280F391FD8016D907D9082
:100DD0008D909C90D9016D927D928D929C921397EB
:100DE0006F5F34968985681708F4B6CFF501EC0D6E
:100DF000FD1D00818889801750F4602F70E0660F18
:100E0000771F8B899C890E94F1298B8B9C8BF60123
:100E10003496088B7724A1E18A2E912C8C0E9D1E8E
:100E200041C0D501AE0FBF1FCD90DD90ED90FC907D
:100E3000DF0114963396EA0DFB1D8D019D014427B9
:100E400037FD4095542F2C0D3D1D4E1D5F1D04C0D8
:100E5000818181930F5F1F4FB80180E090E062179E
:100E6000730784079507A0F3CA0EDB1EC5018C0D1E
:100E70009D1D0197FC0110821197AA0DBB1DBA8B15
:100E8000A98BF601872D90E0880F991F2B893C894B
:100E9000280F391FD4018D919C91D90111969C93F3
:100EA0008E9373948889781608F4BBCFCF01DF91B5
:100EB000CF911F910F91FF90EF90DF90CF90BF9057
:100EC000AF909F908F907F906F900895AF92BF9258
:100ED000CF92DF92EF92FF920F931F93DF93CF9306
:100EE00000D0CDB7DEB75C018B01DB01EC90FC01DB
:100EF00082818E1578F46CE0FE2DF69FB0011124EE
:100F0000D5011F968D919C9150970E94F129F50172
:100F10008787908BD5011296EC92129720E094E08F
:100F2000C92ED12C83E0E82EF12CEA0CFB1C3CE00E
:100F30001BC0C701BF0129833A830E948902C80EE2
:100F4000D91E29813A81239FC0011124D5011F9602
:100F5000ED91FC915097E80FF91FD7018CE00D90AF
:100F600001928150E1F72F5FF5018281F801EC0DCC
:100F7000FD1D2817F0F2818190E0A0E0B0E0BA2FCB
:100F8000A92F982F8827228130E040E050E0A90166
:100F900033272227822B932BA42BB52B208130E0E3
:100FA00040E050E0822B932BA42BB52B238130E023
:100FB00040E050E0522F442733272227822B932BE7
:100FC000A42BB52BF501818B928BA38BB48B96014F
:100FD0002C5F3F4FC9010F900F90CF91DF911F9170
:100FE0000F91FF90EF90DF90CF90BF90AF9008955A
:100FF000BF92CF92DF92EF92FF920F931F93CF9306
:10100000DF93EC018B0102960E9466077C01080FBA
:10101000191FD801BC908F898B1550F46B2D70E08F
:10102000660F771F8A8D9B8D0E94F1298A8F9B8F77
:1010300097012C5F3F4FBF8AF80160E0AE01485E28
:101040005F4F1AC0D380CC24828190E08C299D29E7
:10105000998F888F2E5F3F4F862F90E0880F991FC2
:101060000A8D1B8D080F191FDA018D919C91D801F3
:1010700011969C938E936F5F32968F89681710F349
:10108000C901DF91CF911F910F91FF90EF90DF90F9
:10109000CF90BF900895FC016281738188E097E052
:1010A0000E944A140895FC016281738185E097E0F3
:1010B0000E944A140895CF93DF93FC0186819781A3
:1010C000EC01A881B9816481758142815381ED91E0
:1010D000FC910995DF91CF910895CF93DF938130F3
:1010E000910509F0D2C08DE093E09093BD03809309
:1010F000BC038EE49AE09093BF038093BE0380E02C
:1011000091EEA0E0B0E08093C0039093C103A09360
:10111000C203B093C30387E293E09093C503809327
:10112000C4038EEB93E09093C7038093C6031092A1
:10113000C8038DE293E090938306809382060E9419
:10114000552060939B0670939C0680939D06909318
:101150009E06C3E5D3E0D093A006C0939F06D0932C
:10116000A406C093A306D093A806C093A706D09365
:10117000AC06C093AB06D093B006C093AF068DE526
:1011800093E09093B4068093B30687E693E0909340
:10119000B6068093B50681E793E09093B9068093F5
:1011A000B8068FEC96E00E94AE1485E097E00E94AE
:1011B000761388E097E00E9476138BE097E063E077
:1011C00042E020E00E940C1C87E297E06BE077E0B1
:1011D0000E947F128BE793E09093680780936707E4
:1011E000D0936E07C0936D072BE931E030936C0705
:1011F00020936B0723E538E0309372072093710743
:101200009093740780937307D0937A07C0937907FC
:1012100082EA91E090937807809377078BE498E0D7
:1012200090937E0780937D0789EA91E090938007F1
:1012300080937F078FE996E09093820780938107E0
:1012400086EB91E0909388078093870783EA96E086
:1012500090938A07809389078BEB91E09093900796
:1012600080938F0783EB96E090939207809391078A
:1012700084EC91E0909398078093970787EA96E033
:1012800090939A078093990706C0009721F48BE00A
:1012900097E00E940F1DDF91CF910895FC014281DC
:1012A000538164817581808191810E941D240895FC
:1012B000882359F08FEA87BD80916E008260809309
:1012C0006E0081E080936607089580916E008D7FA7
:1012D00080936E001092660708951F920F920FB6CA
:1012E0000F9211242F933F934F935F936F937F93AC
:1012F0008F939F93AF93BF93EF93FF9387E297E012
:101300000E94B711882311F08093C600FF91EF91DE
:10131000BF91AF919F918F917F916F915F914F910D
:101320003F912F910F900FBE0F901F901895DB01EA
:10133000FC01E75BFD4F20E030E041915191411508
:101340005105B1F4F901EE0FFF1FE80FF91FE75B3C
:10135000FD4FB183A08323583F4F15963C932E93A6
:101360001497089617969C938E93169781E008958C
:101370002F5F3F4F2931310501F780E008958EEB53
:1013800093E00E944E0910926A061092690610922C
:101390006C0610926B061092700610926F061092F7
:1013A0006E0610926D0610927406109273068EE40B
:1013B0009AE06CEC71E00E94D9228091000360E019
:1013C0000E94CD218091060360E00E94CD218DE036
:1013D00061E00E94CD21609102037091030385E0DA
:1013E00097E00E940F14609104037091050388E058
:1013F00097E00E940F1485E499E00E94A71D8FECEE
:1014000096E063E042E00E948C198FEC96E00E9427
:101410003F1580E090E0A2E0B4EC8093F306909357
:10142000F406A093F506B093F60680E090E8AEE0EF
:10143000B4EC8093F7069093F806A093F906B09366
:10144000FA0680E090E8A0E4B4EC8093FB06909369
:10145000FC06A093FD06B093FE0680E090E0A7E0B6
:10146000B4E48093E7069093E806A093E906B0936E
:10147000EA0680E090E0AAEFB3E48093EB06909355
:10148000EC06A093ED06B093EE0680E090E0A4E3B6
:10149000B3E48093EF069093F006A093F106B09327
:1014A000F2068EE49AE040E052EC61E070E00E94C7
:1014B0001D2487E297E060E875E20E948E1287E2C1
:1014C00097E067ED71E00E94A41287E297E069E07F
:1014D00072E00E94A41287E297E06AE172E00E9443
:1014E000A41281E00E9458098EE49AE040E855E297
:1014F00060E070E00E941D2468EE73E080E090E000
:101500000E9489208CEB93E06FE777E00E949709B7
:101510008CEB93E067E977E00E9497098CEB93E00E
:1015200067E877E00E9497098CEB93E06FE877E03B
:101530000E949709809173069091740689319105F4
:10154000ACF4FC01EE0FFF1FE95CF94F27E637E032
:10155000318320839C012C593F4F30936A0720939D
:1015600069070196909374068093730680917306C1
:101570009091740689319105ACF4FC01EE0FFF1FC8
:10158000E95CF94F23E737E0318320839C012C5934
:101590003F4F30937607209375070196909374061A
:1015A000809373060895DF93CF9300D000D00F92FD
:1015B000CDB7DEB725E833E03A8329836B835D83BB
:1015C0004C83089665E070E0AE014F5F5F4F0E946C
:1015D000D9030F900F900F900F900F90CF91DF9144
:1015E0000895AB0161E00E94D30A08950F931F9301
:1015F000DF93CF93CDB7DEB72A970FB6F894DEBF4F
:101600000FBECDBF8C018DE193E09A8389831B824D
:101610001C821D821E821F82188619861A86C801A6
:1016200008966AE070E0AE014F5F5F4F0E94D903F9
:101630000E945520F801EB5DFE4F60837183828329
:1016400093832A960FB6F894DEBF0FBECDBFCF911D
:10165000DF911F910F9108958F929F92AF92BF9249
:10166000CF92DF92EF92FF920F931F93DF93CF936E
:10167000CDB7DEB728970FB6F894DEBF0FBECDBF4B
:101680008C0181E0D8011C968C9383E193E09A83CE
:10169000898389E4E82E82E0F82EE00EF11EBBE794
:1016A000AB2EB2E0BB2EA00EB11EA8E08A2E912C6C
:1016B000800E911E6E010894C11CD11CD701ED91C2
:1016C000FD917D013097C9F0848195819C838B8346
:1016D000808191819E838D8382819381DC01ED9154
:1016E000FC910480F581E02D099598878F83C401D2
:1016F00060E070E0A6010E94D903EA14FB04F1F651
:10170000FBE7EF2EF2E0FF2EE00EF11EEDEAAE2E2B
:10171000E2E0BE2EA00EB11E78E0C72ED12CC00E86
:10172000D11E8E010F5F1F4FF701A191B1917F0173
:101730001097E1F012968D919C9113979C838B8367
:1017400014968D919C9115979E838D83ED91FC91BC
:1017500011970480F581E02DCD01099598878F833D
:10176000C60161E070E0A8010E94D903EA14FB04FD
:10177000D9F628960FB6F894DEBF0FBECDBFCF9135
:10178000DF911F910F91FF90EF90DF90CF90BF906E
:10179000AF909F908F900895AF92BF92CF92DF92BB
:1017A000EF92FF920F931F93CF93DF93EC015B01B6
:1017B0000E94552029E2C22E21E0D22ECC0EDD1E41
:1017C000F501E080F180028113810894E108F108BD
:1017D0000109110928EE33E040E050E00E9467283B
:1017E000E21AF30A040B150BF601E082F182028380
:1017F0001383C35DDE4FF501E480F5800681178118
:1018000020E03AEC4AE95BE3E20EF31E041F151FE9
:1018100020E432E44FE050E00E942928E61AF70A5B
:10182000080B190BE882F9820A831B83C601BE01EB
:101830000E94BA19DF91CF911F910F91FF90EF9005
:10184000DF90CF90BF90AF900895AF92BF92CF92AC
:10185000DF92EF92FF920F931F93DF93CF93CDB759
:10186000DEB72A970FB6F894DEBF0FBECDBF5C017E
:101870006B018DE193E09A8389831B821C821D8218
:101880001E821F82188619861A860E9455207B01A7
:101890008C01F501EB5DFE4F80819181A281B381C6
:1018A000E81AF90A0A0B1B0BCE010196B6010E9439
:1018B0002E01C801B70128EE33E040E050E00E945D
:1018C00067287B018C018B819C81AD81BE81820F59
:1018D000931FA41FB51F8B839C83AD83BE83C80158
:1018E000B70120E432E44FE050E00E9429289B0138
:1018F000AC018F819885A985BA85820F931FA41F9B
:10190000B51F8F839887A987BA87C501BE016D5F10
:101910007F4F0E94CC0B0E945520F501E354FD4FF0
:1019200060837183828393832A960FB6F894DEBF17
:101930000FBECDBFCF91DF911F910F91FF90EF9020
:10194000DF90CF90BF90AF9008952F923F924F922B
:101950005F926F927F928F929F92AF92BF92CF923F
:10196000DF92EF92FF920F931F93DF93CF93CDB748
:10197000DEB760970FB6F894DEBF0FBECDBF988B71
:101980008F870E9455206B017C01EF85F889E35415
:10199000FD4F80819181A281B381A7019601281B0F
:1019A000390B4A0B5B0BDA01C901893F3AE2930715
:1019B00030E0A30730E0B30728F0AF85B8891C9664
:1019C0001C921C97EF85F889E355FD4F808191812A
:1019D000009781F0AF85B889AF53BD4F8D919D9130
:1019E0000D90BC91A02D8C159D05AE05BF0510F482
:1019F0001182108215EB612E12E0712EEF85F889AD
:101A00006E0E7F1E8F0103551D4FB1EB8B2EB2E082
:101A10009B2E8E0E9F1EA1E34A2EA1E05A2E4E0E43
:101A20005F1EEA53FD4FFA83E9832F8538892B53D4
:101A30003D4F3C832B834F85588947545D4F5E83D0
:101A40004D838F85988983549D4F98878F837FEA34
:101A5000A72E72E0B72EAF85B889AA0EBB1E63EB26
:101A6000262E62E0362E2A0E3B1EAF53BD4FBA879C
:101A7000A987A70196012C5E3F4F4F4F5F4F2B87E1
:101A80003C874D875E87C8010F851889988B8F87A3
:101A9000D80112968D919C911397DC01ED91FC91E8
:101AA0000680F781E02D09959C0197FDF6C0F301B2
:101AB00080819181820F931F91838083AF85B88944
:101AC0004D915C91119746305105C9F4F101808127
:101AD0009181F801E80FF91FEF5CFE4F208301961A
:101AE000D10111969C938E93F5018081918101978C
:101AF00091838083009761F6E7E0F0E04AC04115EA
:101B00005105A9F42F3F310519F6E1E0F0E0AF856A
:101B1000B889ED93FC932B853C854D855E85A98521
:101B2000BA852D933D934D935C931397B1CF41307C
:101B3000510581F42F3F310539F422E030E0EF8583
:101B4000F88931832083A4CFAF85B88911961C9280
:101B50001E929ECF4230510571F4F40131832083EF
:101B6000E3E0F0E0AF85B889ED93FC93D3011196E3
:101B70003C932E938DCF4330510589F4322F222789
:101B8000F40180819181280F391F31832083E4E0A3
:101B9000F0E0AF85B8891196FC93EE9379CF44308D
:101BA000510551F4D50111963C932E93F101118208
:101BB0001082E5E0F0E0EDCF45305105D1F4322F51
:101BC0002227D5018D919C911197280F391F1196CD
:101BD0003C932E9346E050E0EF85F8895183408393
:101BE0002115310509F054CF87E090E0918380837F
:101BF0004FCF4730510509F04BCF60E071E00E94B4
:101C000054288F3F910509F043C0D401ED91FC9118
:101C100011973097A1F4C8010E94F60AC8010E94EA
:101C20002C0BED81FE81C082D182E282F382AF81F2
:101C3000B885CD92DD92ED92FC92139729C0EA30DF
:101C4000F10529F4C801B2010E94250C21C0E4303D
:101C5000F10551F489819A81B2010E94180621E0B0
:101C6000EB81FC81208314C0E456F040EE0FFF1F8F
:101C7000E00FF11FE558FD4F80819181009741F001
:101C8000DC01ED91FC910190F081E02DB20109950C
:101C9000EF85F88911821082FBCE188B0F87D8014F
:101CA0001C968C911C97882309F107541D4FF8014D
:101CB00080819181A281B381A7019601281B390BF4
:101CC0004A0B5B0BDA01C901853C39E0930730E030
:101CD000A30730E0B30750F08F8598890E94F60A79
:101CE000D801CD92DD92ED92FC92139760960FB6DB
:101CF000F894DEBF0FBECDBFCF91DF911F910F9142
:101D0000FF90EF90DF90CF90BF90AF909F908F901B
:101D10007F906F905F904F903F902F900895CF925B
:101D2000DF92EF92FF920F931F93DF93CF93CDB784
:101D3000DEB72C970FB6F894DEBF0FBECDBF8CEB8D
:101D400093E069E272E00E94F10A8EE49AE062E3B5
:101D500072E00E94D9228CEB93E00E94A50C8EE4E5
:101D60009AE06BE372E00E94D9228CEB93E069E485
:101D700072E00E94F10A8091000361E020E432E405
:101D80004FE050E00E94EB207093A2066093A10602
:101D9000809106030E947F21909398068093970676
:101DA000823091051CF08DE061E002C08DE060E0C2
:101DB0000E94F1218EE49AE067E572E00E94D92248
:101DC0008FEC96E00E94FE1680E090E0DC018983B3
:101DD0009A83AB83BC8320E030E040E85FEB2D8347
:101DE0003E834F83588789879A87AB87BC878FEC60
:101DF00096E0CC24DA80EB80FC8000E01E812F810D
:101E0000388540E05A856B857C850E943818909310
:101E1000AA068093A9068EE49AE062E672E00E9428
:101E2000D92280916607882359F487E297E00E94BF
:101E3000B711682F882321F08EE49AE00E94BC221B
:101E40008EE49AE06FE672E00E94D92287E297E082
:101E50000E94AE12882361F087E297E00E94B112DF
:101E6000BC0187E297E00E94D00F882309F47FC06D
:101E70008EE49AE068E772E00E94D922E0909B0627
:101E8000F0909C0600919D0610919E060E945520A0
:101E90006E157F058007910750F40E9455206093CE
:101EA0009B0670939C0680939D0690939E060E94CD
:101EB000552020919B0630919C0640919D065091A3
:101EC0009E06621B730B840B950B613D27E0720726
:101ED00020E0820720E0920710F10E9455206093D5
:101EE0009B0670939C0680939D0690939E0660913E
:101EF0002F077091300780913107909132070E942F
:101F00000B26609399066091330770913407809196
:101F10003507909136070E940B2660939A068EE44F
:101F20009AE063E872E00E94D9228FE797E00E946E
:101F30005B0887E897E00E945B0887E997E00E94CA
:101F40005B088FE897E00E945B088EE49AE06FE8F8
:101F500072E00E94D92261E070E080E090E00E948F
:101F600089208EE49AE06FE872E00E94D9222C96D4
:101F70000FB6F894DEBF0FBECDBFCF91DF911F919A
:101F80000F91FF90EF90DF90CF90089581E090E067
:101F90000E946D08089580E090E00E946D08089509
:101FA0004F925F926F927F928F929F92AF92BF9269
:101FB000CF92DF92EF92FF920F931F93CF93DF9315
:101FC000EC018B01FB0101900020E9F73197E61B42
:101FD000F70BDB01AE0FBF1F14978C918A3249F4C7
:101FE00021E0349701C02F5F822F90E08E179F076A
:101FF000D0F3C80168E972E00E94FA2A009709F458
:10200000C8C0C8016CE270E00E94EF2A2C0108945D
:10201000411C511CC2010E94BC2A3B014C010E9480
:102020001026F62EE72E182F092F20E137E240E088
:1020300050E00E946728288344E6A42EB12CC12CCE
:10204000D12CA60195010E94672829836F2D7E2D32
:10205000812F902FA60195010E9467286A83C401F1
:10206000B30120E030E040E85FE30E94802620E0FA
:1020700030E04AE754E40E947A270E9410267F83CA
:102080006E83C2016CE270E00E94EF2A8C010F5F48
:102090001F4FC8010E94BC2A688779878A879B875F
:1020A000C8016CE270E00E94EF2AFC0101962181D8
:1020B0002E3411F0233511F428A704C02C3209F076
:1020C00044C118A66CE270E00E94EF2A8C010F5FF9
:1020D0001F4FC8010E94BC2A6C877D878E879F870F
:1020E000C8016CE270E00E94EF2AFC010196218198
:1020F000273511F0253411F429A704C02C3209F03A
:1021000024C119A66CE270E00E94EF2A8C010F5FD7
:102110001F4FC8010E94C02A8CA7C8016CE270E062
:102120000E94EF2A8C010F5F1F4FC8010E94C02A36
:102130008DA7C8016CE270E00E94EF2A8C010F5F4E
:102140001F4FC8010E94BC2A6CA37DA38EA39FA32E
:10215000C8016CE270E00E94EF2A8C010F5F1F4FF4
:10216000C8010E94BC2A6C8B7D8B8E8B9F8BC80113
:102170006CE270E00E94EF2A01966CE270E00E942F
:10218000EF2A01960E94BC2A688B798B8A8B9B8BE5
:10219000DAC0C8016FE972E00E94FA2A009709F4D8
:1021A000D4C0C8016CE270E00E94EF2A2C010894B0
:1021B000411C511CC2010E94BC2A3B014C010E94DF
:1021C0001026F62EE72E8C0120E137E240E050E0A9
:1021D0000E946728288334E6A32EB12CC12CD12C71
:1021E000A60195010E94672829836F2D7E2DC801C5
:1021F000A60195010E9467286A83C401B30120E00B
:1022000030E040E85FE30E94802620E030E04AE7CB
:1022100054E40E947A270E9410267F836E83C201B5
:102220006CE270E00E94EF2AFC01019621812134CA
:1022300019F421E02BA704C0263509F086C01BA69F
:102240006CE270E00E94EF2A8C010F5F1F4FC80103
:102250000E94BC2A688779878A879B87C8016CE2BD
:1022600070E00E94EF2AFC01019621812E3411F0CA
:10227000233511F428A704C02C3209F066C018A633
:102280006CE270E00E94EF2A8C010F5F1F4FC801C3
:102290000E94BC2A6C877D878E879F87C8016CE26D
:1022A00070E00E94EF2AFC0101962181273511F090
:1022B000253411F429A704C02C3209F046C019A610
:1022C0006CE270E00E94EF2A8C010F5F1F4FC80183
:1022D0000E94BC2A688F798F8A8F9B8FC8016CE21D
:1022E00070E00E94EF2A8C010F5F1F4FC8010E940F
:1022F000BC2A6C8F7D8F8E8F9F8FC8016CE270E03F
:102300000E94EF2A01960E94BC2A0E941026F62EF7
:10231000E72E8C0120E137E240E050E00E94672880
:102320002D8324E6A22EB12CC12CD12CA60195011F
:102330000E9467282C836F2D7E2DC801A601950170
:102340000E9467286B8381E001C080E0DF91CF911C
:102350001F910F91FF90EF90DF90CF90BF90AF90C3
:102360009F908F907F906F905F904F900895CF9344
:10237000DF93EC018AAD882309F075C08BAD9CAD6D
:10238000009769F0DC01ED91FC910480F581E02D6E
:102390000995009709F467C08BAD9CAD0EC08DAD5B
:1023A0009EADDC01ED91FC910480F581E02D099555
:1023B000009709F458C08DAD9EADDC01ED91FC9104
:1023C0000680F781E02D0995843261F490918F08A1
:1023D000E0919008F0919108E90FF11D10821092A0
:1023E0008F082DC08A3059F590918F08E0919008A0
:1023F000F0919108E90FF11D1082409190085091E1
:10240000910827E138E0B7E04F395B0749F4309392
:1024100091082093900850939308409392080AC023
:102420004FE957E0509391084093900830939308F8
:102430002093920810928F0891E0909394089091C5
:102440008F08E0919008F0919108E90FF11D8083C9
:102450009F5F90938F0890918F08983728F097E7A7
:1024600090938F0801C080E0DF91CF910895FC0127
:1024700014AE13AE16AE15AE1092940812AE1092B2
:102480008F088FE997E0909391088093900887E1F7
:1024900098E0909393088093920815A614A615824D
:1024A0001482138212821182108212A611A610A623
:1024B00013A61782168220E030E0A90124A335A3D9
:1024C00046A357A320A331A342A353A3248F358F40
:1024D000468F578F208F318F428F538F248B358BB0
:1024E000468B578B208B318B428B538B24873587C0
:1024F00046875787208731874287538708950F93F0
:102500001F93CF93DF93EC018B010E9437121CAF16
:102510000BAFDF91CF911F910F910895FC0183AD17
:1025200094ADAB0160E070E0009719F00E94391C97
:1025300004C085AD96AD0E941D246AE070E080E085
:1025400090E00E9489200895FC0183AD94AD00972E
:1025500011F485AD96AD0E94D9220895809194081A
:10256000089510929408809192089091930808958C
:102570001F920F920FB60F9211242F933F934F93F8
:102580005F936F937F938F939F93AF93BF93EF93DB
:10259000FF938091BA0887FF05C0109285001092C2
:1025A00084002BC02091BA08332727FD30958091F5
:1025B000950890E02817390704F58091BA08992703
:1025C00087FD9095FC01EE0FFF1FE80FF91FEA56FB
:1025D000F74F808186FF11C08091BA08992787FD47
:1025E0009095FC01EE0FFF1FE80FF91FEA56F74F19
:1025F00080818F7360E00E94F1218091BA088F5F23
:102600008093BA082091BA08332727FD309580912E
:10261000950890E0281739070CF04EC08091BA0851
:102620008C300CF049C080918400909185002091FD
:10263000BA08332727FD3095F901EE0FFF1FE20F8F
:10264000F31FEA56F74F21813281820F931F909337
:102650008900809388008091BA08992787FD90951A
:10266000FC01EE0FFF1FE80FF91FEA56F74F8081BC
:1026700086FF2BC08091BA08992787FD9095FC01B1
:10268000EE0FFF1FE80FF91FEA56F74F80818F7397
:1026900061E00E94F12119C080E49CE905C08091AD
:1026A000840090918500049690938900809388001F
:1026B0008FEF8093BA0809C08091840090918500C3
:1026C0002CE98434920740F3EACFFF91EF91BF9158
:1026D000AF919F918F917F916F915F914F913F91BA
:1026E0002F910F900FBE0F901F901895FC018091B5
:1026F00095088C3090F480838F5F8093950880815B
:1027000090E0FC01EE0FFF1FE80FF91FEA56F74FAC
:1027100088EB9BE09283818308958FEF80830895F7
:10272000DF92EF92FF920F931F93CF93DF93EC0111
:10273000D62E8A01790188818C3008F064C0862FFA
:1027400061E00E94CD214881842F90E0FC01EE0FD2
:10275000FF1FE80FF91FEA56F74F9D2D9F738081E9
:10276000807C892B808380E292E0801B910B24E0A7
:1027700030E0B9010E945428698380E699E08E19FF
:102780009F09B9010E9454286A83842F6CE00E943B
:10279000482890E09C01220F331F280F391F220F79
:1027A000331F220F331F40E050E0BA01620F731F46
:1027B000FB01EE0FFF1FE60FF71FEA56F74F608190
:1027C00066FD15C04F5F5F4F4C30510571F724C057
:1027D0001092800082E08093810010928500109218
:1027E0008400B19A80916F00826080936F0088812D
:1027F00090E0FC01EE0FFF1FE80FF91FEA56F74FBC
:102800008081806480838881DF91CF911F910F91B7
:10281000FF90EF90DF9008950097D1F2E8CF40E26B
:1028200052E020E639E00E9490130895FC012081D7
:102830002C3078F54181552747FD509588E890E088
:10284000841B950B880F991F880F991F68177907AC
:1028500084F04281552747FD509588E592E0841B1E
:10286000950B880F991F880F991F681779070CF42B
:10287000CB014FB7F89430E0F901EE0FFF1FE20FE4
:10288000F31FEA56F74F0297880F991F92838183AF
:102890004FBF0895AF92BF92CF92DF92EF92FF9217
:1028A0000F931F93CF93DF93EC0182E060327807A0
:1028B0000CF046C077FD04C0653B710524F405C0EB
:1028C00060E070E002C064EB70E000D000D08827C8
:1028D00077FD8095982F4981552747FD509528E829
:1028E00030E0241B350B220F331F220F331F5901F9
:1028F000CC24B7FCC094DC2C4A81552747FD509569
:1029000028E532E0241B350B220F331F220F331F23
:10291000442737FD4095542FEDB7FEB7218332830E
:102920004383548320E030E0A901B4EBEB2EF12C7B
:10293000012D112D0E9438220F900F900F900F90B3
:10294000CE010E941614DF91CF911F910F91FF903D
:10295000EF90DF90CF90BF90AF900895FC0180E0A2
:1029600090E0A7E0B4E4808F918FA28FB38F80E0D6
:1029700090E0AAEFB3E4848F958FA68FB78F80E0A5
:1029800090E0A4E3B3E480A391A3A2A3B3A320E0C7
:1029900030E042E054EC24A335A346A357A320E043
:1029A00030E84EE054EC20A731A742A753A720E01F
:1029B00030E840E454EC24A735A746A757A783E0A6
:1029C00081AB88E182AB14AA13AA15AA0895CF920D
:1029D000DF92FF920F931F93DF93CF930F92CDB7A8
:1029E000DEB76C01F62E05E419E0C801F60162A914
:1029F00049830E94C21DC8016F2D0E94771DC80126
:102A00004981642F0E94771DC8010E94CF1DF601E5
:102A100080AB0F90CF91DF911F910F91FF90DF90CE
:102A2000CF900895CF92DF92FF920F931F93DF9381
:102A3000CF930F92CDB7DEB78C01F62E85E4C82E6A
:102A400089E0D82EC6016EE170E049830E94CC1D5A
:102A5000C6016F2D0E94771DC6014981642F0E9417
:102A6000771DC6010E94CF1DF80180AB0F90CF915A
:102A7000DF911F910F91FF90DF90CF900895CF933A
:102A8000DF93EC0160E247E20E94E714CE0162E0CE
:102A900040E00E941215DF91CF9108950F931F938C
:102AA000CF93DF938C01EB0177FF34C02FEF6D3FA5
:102AB0007207D9F03FEF6E3F73072CF48FEF6C3F36
:102AC000780741F517C0EFEF6E3F7E0749F0FFEF43
:102AD0006F3F7F07F9F4FC0181A9882381F415C0B9
:102AE000FC0181A9882371F413C0FC0181A988230A
:102AF00061F405C0F80181A9882351F403C0C7E03F
:102B0000D0E008C0C8E0D0E005C0C5E0D0E002C019
:102B1000C6E0D0E085E499E06EE170E00E94CC1D53
:102B200085E499E06C2F0E94771D85E499E00E946E
:102B3000CF1DF80180AB85E499E06EE170E041E0E3
:102B400050E00E94BF1D85E499E00E94201D082FDF
:102B500085E499E00E94CF1D802FDF91CF911F91D6
:102B60000F910895CF92DF92EF92FF920F931F93F0
:102B7000CF93DF93EC0185E499E06AA90E94C21D1E
:102B800085E499E068EA0E94771D85E499E00E9457
:102B9000CF1D88AB85E499E06AA946E00E94B21D8A
:102BA0000E9455208B011DAA10C08BA99CA90097DB
:102BB00061F00E945520601B710B8BA99CA98617A0
:102BC000970718F481E08DAB64C085E499E00E941A
:102BD000171D863091054CF385E499E00E94201D75
:102BE000D82E85E499E00E94201DC82E85E499E046
:102BF0000E94201DF82E85E499E00E94201DE82EF9
:102C000085E499E00E94201D082F85E499E00E9448
:102C1000201D182F3C2D20E06D2D70E0622B732BB2
:102C200034E0759567953A95E1F7882777FD8095AB
:102C3000982F0E943E26688379838A839B839E2DEA
:102C400080E06F2D70E0682B792B24E075956795F7
:102C50002A95E1F7882777FD8095982F0E943E26D8
:102C60006C837D838E839F83912F80E0602F70E043
:102C7000682B792B94E0759567959A95E1F78827ED
:102C800077FD8095982F0E943E26688779878A87EE
:102C90009B87DF91CF911F910F91FF90EF90DF9075
:102CA000CF900895CF92DF92EF92FF920F931F93F0
:102CB000CF93DF93EC0185E499E06EE170E00E9430
:102CC000CC1D85E499E063E00E94771D85E499E0DE
:102CD0000E94CF1D88AB85E499E06EE170E046E08C
:102CE00050E00E94BF1D0E9455208B011DAA10C0FC
:102CF0008BA99CA9009761F00E945520601B710B65
:102D00008BA99CA98617970718F481E08DAB6DC03D
:102D100085E499E00E94171D863091054CF385E407
:102D200099E00E94201DC82E85E499E00E94201D94
:102D3000D82E89A98823A9F485E499E00E94201D52
:102D4000E82E85E499E00E94201DF82E85E499E0A4
:102D50000E94201D182F85E499E00E94201D082F55
:102D600014C085E499E00E94201D182F85E499E0A5
:102D70000E94201D082F85E499E00E94201DE82E66
:102D800085E499E00E94201DF82E3C2D20E06D2D59
:102D900070E0622B732B882777FD8095982F0E9417
:102DA0003E266C877D878E879F879E2D80E06F2DC6
:102DB00070E0682B792B882777FD8095982F0E94EB
:102DC0003E26688B798B8A8B9B8B912F80E0602FBE
:102DD00070E0682B792B882777FD8095982F0E94CB
:102DE0003E266C8B7D8B8E8B9F8BDF91CF911F91BD
:102DF0000F91FF90EF90DF90CF900895CF93DF93E6
:102E0000EC010E94B215CE010E945216DF91CF91C3
:102E100008952F923F924F925F926F927F928F927E
:102E20009F92AF92BF92CF92DF92EF92FF920F9359
:102E30001F93DF93CF9300D000D000D0CDB7DEB783
:102E40008C017E836D831A01DB0118964D905D9095
:102E50006D907C901B97FC01C084D184E284F38444
:102E6000C301B20124813581468157810E947A27AE
:102E70004B015C01C701B601AD81BE8114962D9155
:102E80003D914D915C9117970E947A279B01AC016F
:102E9000C501B4010E94D824F1016083718382834B
:102EA0009383AD81BE818D919D910D90BC91A02D9C
:102EB00089839A83AB83BC83F80180809180A28050
:102EC000B380C701B60129813A814B815C810E94A0
:102ED0007A276B017C01C501B401A30192010E9414
:102EE0007A279B01AC01C701B6010E94D824D10109
:102EF00014966D937D938D939C931797C501B401A0
:102F0000ED81FE8124813581468157810E947A2797
:102F10006B017C0169817A818B819C81D801149637
:102F20002D913D914D915C9117970E947A279B01BD
:102F3000AC01C701B6010E94D824F10160877187F6
:102F40008287938726960FB6F894DEBF0FBECDBF5B
:102F5000CF91DF911F910F91FF90EF90DF90CF9075
:102F6000BF90AF909F908F907F906F905F904F90A9
:102F70003F902F900895CF92DF92EF92FF920F93A0
:102F80001F93CF93DF93EC018B01688179818A8154
:102F90009B81F80120813181428153810E947A27EF
:102FA0006B017C016C817D818E819F81F801248180
:102FB0003581468157810E947A279B01AC01C70168
:102FC000B6010E94D9246B017C01688579858A85C8
:102FD0009B85F80120853185428553850E947A279B
:102FE0009B01AC01C701B6010E94D924DF91CF91AA
:102FF0001F910F91FF90EF90DF90CF900895EF9287
:10300000FF920F931F93CF93DF93EC01BE010E94B9
:10301000BB170E94E1277B018C01688179818A813D
:103020009B81A80197010E94A325688379838A83E5
:103030009B836C817D818E819F81A80197010E9475
:10304000A3256C837D838E839F83688579858A859C
:103050009B85A80197010E94A325688779878A87A5
:103060009B87DF91CF911F910F91FF90EF90089573
:103070006F927F928F929F92AF92BF92CF92DF9288
:10308000EF92FF920F931F93DF93CF93CDB7DEB7ED
:10309000E0970FB6F894DEBF0FBECDBF5C01CDA2A6
:1030A000DEA2EFA2F8A609A71AA72BA73CA74DA757
:1030B0005EA76FA778ABFC01E4A0F5A006A117A15D
:1030C0006485758586859785A80197010E94D82417
:1030D0003B014C01F501608D718D828D938DA801AE
:1030E00097010E94D8249B01AC01C401B3010E9446
:1030F000A3259B01AC010E94D92420E030E040E8E8
:103100005FE30E94D824F5016487758786879787D7
:10311000E0A4F1A402A513A560897189828993892D
:10312000A80197010E94D8243B014C01F501648D50
:10313000758D868D978DA80197010E94D8249B01DB
:10314000AC01C401B3010E94A3259B01AC010E9404
:10315000D92420E030E040E85FE30E94D824F50164
:10316000608B718B828B938BE4A4F5A406A517A5C5
:103170006489758986899789A80197010E94D82456
:103180003B014C01F50160A171A182A193A1A801AD
:1031900097010E94D8249B01AC01C401B3010E9495
:1031A000A3259B01AC010E94D92420E030E040E837
:1031B0005FE30E94D824F501648B758B868B978B17
:1031C000DE0111968CE001900D928150E1F77E01B5
:1031D0000894E11CF11CC7010E94FF178E01035FD8
:1031E0001F4FC5010C96B701A8010E940917C8011D
:1031F0000E94FF1759E1C52ED12CCC0EDD1EC70150
:10320000B801A6010E94091745E2A42EB12CAC0E0C
:10321000BD1EC801B5010E94BB177B018C01C60110
:10322000B5010E94BB179B01AC01C801B7010E9408
:103230004C2520E030E044E353E40E947A272BED54
:103240003FE049E450E40E94A325A62EC72EE82EB5
:10325000092F20E030E0A9010E946F2787FD0BC0F5
:103260006A2D7C2D8E2D902F20E030E040E05FE332
:103270000E94D9240AC06A2D7C2D8E2D902F20E02B
:1032800030E040E05FE30E94D8240E940B2677FFE5
:1032900002C068597E4FCB01E0960FB6F894DEBFAE
:1032A0000FBECDBFCF91DF911F910F91FF90EF9097
:1032B000DF90CF90BF90AF909F908F907F906F9056
:1032C0000895CF93DF93EC0185E499E068E170E025
:1032D0000E94CC1D85E499E060E20E94771D85E4A0
:1032E00099E00E94CF1D88AB85E499E068E170E029
:1032F00041E050E00E94BF1D85E499E00E94171D47
:10330000009731F085E499E00E94201D80E001C023
:1033100081E0DF91CF910895CF93DF93EC0169AB0A
:10332000623018F0623071F40AC0442331F0413049
:1033300031F00E946119813011F088E101C089E10A
:103340008AAB15C00E946119813029F489E18AABEA
:1033500082E089AB0CC088E18AABCE016FE070E0FF
:103360000E944E1591E08C3309F090E099ABDF910B
:10337000CF910895CF92DF92EF92FF920F931F9318
:10338000CF93DF93EC016B01FB016081718182813E
:10339000938120E03AEC4AE95BE30E9467287B01D5
:1033A0008C0188819981AA81BB81820F931FA41F00
:1033B000B51F88839983AA83BB83F601E082F182DB
:1033C00002831383DF91CF911F910F91FF90EF90B4
:1033D000DF90CF9008952091BB083091BC0828174A
:1033E0003907B1F49091FE088091FD08981781F09B
:1033F000E091FE08F0E0E354F74F20818091FE0851
:1034000090E001968F7390708093FE0830E002C0C8
:103410002FEF3FEFC90108952091BB083091BC0800
:103420002817390779F48091FD082091FE0890E073
:10343000805C9F4F821B910960E470E00E945428D9
:103440009C0102C020E030E0C90108952091BB0832
:103450003091BC082817390749F48FB7F8941092B7
:10346000FD089091FD089093FE088FBF089520916C
:10347000BB083091BC082817390781F49091FE08E9
:103480008091FD08981751F0E091FE08F0E0E354B8
:10349000F74F2081332727FD309502C02FEF3FEFF4
:1034A000C901089520E001972FEF8F3F9207D9F7C8
:1034B0000895FC018091BB089091BC088E179F076E
:1034C00091F0838D8E7F838F8FB7F8941092FD08D3
:1034D0009091FD089093FE08F093BC08E093BB0820
:1034E0008FBF81E0089580E00895EF92FF920F93DF
:1034F0001F93CF93DF93EC018B8DEE85FF859D8528
:1035000081FF04C08081892329F445C080818923FB
:1035100009F041C08B899C890E94521A08E010E092
:10352000EE24E394FF248D899E890E94521AEE8531
:10353000FF8580819D85892311F0FE2803C08E2D93
:103540008095F822EE0C0150104069F78F89988D14
:103550000E94521A8B8D81FDF0948091FD0820917C
:10356000FE0890E001968F73907030E08217930709
:1035700079F0E091FD08F0E0E354F74FF08280919C
:10358000FD0890E001968F7390708093FD0803C052
:103590008B8D81608B8FDF91CF911F910F91FF9069
:1035A000EF900895FC01A189B2899089662329F4DE
:1035B0002C91892F8095822302C08C91892B8C932A
:1035C0000895DF92EF92FF920F931F93CF93DF93B3
:1035D000EC01E62E898D9A8D009739F481E090E018
:1035E0009B838A8320E030E04BC0DFB6F8948B8D5C
:1035F00061E081FF60E0CE010E94D21A898D9A8D30
:1036000005960E94521A8B8D81FF19C008E010E0C8
:10361000FF24F3948F2D8E2119F0CE0160E002C0BB
:10362000CE0161E00E94D21A898D9A8D0E94521AB1
:10363000FF0C0150104071F7CE0160E018C008E0A7
:1036400010E0FF24F3948F2D8E2119F0CE0161E05C
:1036500002C0CE0160E00E94D21A898D9A8D0E942C
:10366000521AFF0C0150104071F7CE0161E00E9428
:10367000D21ADFBE898D9A8D0E94521A21E030E065
:10368000C901DF91CF911F910F91FF90EF90DF90D3
:1036900008958091BB089091BC08009711F00E949A
:1036A000751A08951F920F920FB60F9211242F933F
:1036B0003F934F935F936F937F938F939F93AF93BA
:1036C000BF93EF93FF930E94491BFF91EF91BF912E
:1036D000AF919F918F917F916F915F914F913F91AA
:1036E0002F910F900FBE0F901F9018951F920F9261
:1036F0000FB60F9211242F933F934F935F936F93C5
:103700007F938F939F93AF93BF93EF93FF930E9409
:10371000491BFF91EF91BF91AF919F918F917F9145
:103720006F915F914F913F912F910F900FBE0F902E
:103730001F9018951F920F920FB60F9211242F937E
:103740003F934F935F936F937F938F939F93AF9329
:10375000BF93EF93FF930E94491BFF91EF91BF919D
:10376000AF919F918F917F916F915F914F913F9119
:103770002F910F900FBE0F901F9018951F93CF930E
:10378000DF93EC01162F862F61E00E94CD21812F5F
:1037900061E00E94F121812F90E0FC01E95AFE4F87
:1037A000E491E88BFC01ED5BFE4FE491F0E0EE0F5D
:1037B000FF1FE15DFE4F85919491898B9A8BDF917C
:1037C000CF911F9108951F93CF93DF93EC01162F94
:1037D000862F60E00E94CD218B8D81FD04C0812F5A
:1037E00061E00E94F1211C87812F90E0FC01E95AE1
:1037F000FE4FE491ED87FC01ED5BFE4FE491F0E0BC
:10380000EE0FFF1FE75CFE4F859194918E879F8797
:10381000DF91CF911F9108951F93CF93DF93EC0118
:10382000162F1B821A8288EE93E0A0E0B0E08C8312
:103830009D83AE83BF838FE893E0998388831C8A3E
:103840001B8A1E8A1D8A188E1F8A1A8E198E8B8DCE
:103850002170220F8C7F822B8B8FCE01642F0E94D0
:10386000BE1BCE01612F0E94E31BDF91CF911F9100
:103870000895EF92FF920F931F93CF93DF93EC0184
:103880007A018B011A8E198E188E1F8A1E8A1D8A44
:103890001C8A1B8A40E050E09A01220F331F240F3C
:1038A000351F220F331F220F331FF901EB56FF4F35
:1038B00085919591A591B4918E159F05A007B107AB
:1038C000E9F4F901E756FF4F859194918B8B9C8B1E
:1038D000F901E556FF4F859194918D8B9E8BF901EF
:1038E000E356FF4F859194918F8B988F21563F4FD0
:1038F000F90185919491898F9A8F06C04F5F5F4F30
:103900004C30510509F0C8CF8F89988D009709F484
:1039100048C09C85963108F040C0209168009830DE
:1039200020F09E3020F082E003C084E001C081E0FE
:10393000822B809368004C85483048F04E3060F010
:103940004631C8F1A0E0B0E0E0E0F0E009C0ADE64B
:10395000B0E0EDE6F0E004C0ABE6B0E0EBE6F0E0AE
:103960005081483040F481E090E002C0880F991FF8
:103970004A95E2F710C0242F30E04E3018F428505A
:10398000304002C02E50304081E090E002C0880FED
:10399000991F2A95E2F7852B8C93898D9A8D0E9429
:1039A000521ACE010E94591ADF91CF911F910F91A7
:1039B000FF90EF900895ACE6B0E0ECE6F0E0D0CFF9
:1039C000FC014485463150F5483028F04E3030F047
:1039D000ECE6F0E005C0EDE6F0E002C0EBE6F0E07A
:1039E0005081483040F481E090E002C0880F991F78
:1039F0004A95E2F710C0242F30E04E3018F42850DA
:103A0000304002C02E50304081E090E002C0880F6C
:103A1000991F2A95E2F780958523808308952FE8E2
:103A200033E0FC01318320830E94E01C0895209143
:103A3000200930E080911F09281B3109C901089530
:103A400080911F0990912009891750F4E82FF0E028
:103A5000E150F74F208130E08F5F80931F0902C053
:103A60002FEF3FEFC9010895E0911F0980912009D0
:103A7000E81730F4F0E0E150F74F208130E002C069
:103A80002FEF3FEFC90108950895CF92DF92EF9293
:103A9000FF920F931F93CF93DF936C01CB01EA0149
:103AA000209144092223B1F0E62EF92E00E010E027
:103AB0000DC0D7016D917D01D601ED91FC91019072
:103AC000F081E02DC60109950F5F1F4F0C171D07F0
:103AD00080F303C0642F0E94851ECE01DF91CF9139
:103AE0001F910F91FF90EF90DF90CF900895DF939B
:103AF000CF930F92CDB7DEB769832091440922237B
:103B0000D1F020914309203240F021E030E0FC0167
:103B10003383228320E030E015C080914209E82FF2
:103B2000F0E0EE5DF64F998190838F5F80934209BC
:103B30008093430905C0CE01019661E00E94851E75
:103B400021E030E0C9010F90CF91DF9108951092EC
:103B50001F091092200910924209109243090E94F5
:103B6000F61D0895862F413208F040E26FEF78E0AD
:103B70000E940F1E10921F098093200908950E9431
:103B8000B21D089581E08093440960932109109249
:103B900042091092430908950E94C21D0895809120
:103BA000210962E279E04091430921E00E94451E2B
:103BB00010924209109243091092440908951092FC
:103BC00048091092470988EE93E0A0E0B0E08093A6
:103BD000490990934A09A0934B09B0934C098FE986
:103BE00093E09093460980934509089510927509D2
:103BF00082E161E00E94F12183E161E00E94F12114
:103C0000E9EBF0E080818E7F808380818D7F8083EF
:103C100088E48093B80085E48093BC000895413225
:103C200088F5909175099923E1F791E090937509D2
:103C30009FEF9093740910925209942F9150909392
:103C40005309880F81608093510985EE8093BC00F1
:103C5000809175098130E1F380915209841710F445
:103C600040915209E4E5F9E0262F372FD901242F9E
:103C700030E02E0F3F1F02C081918D93E217F307B2
:103C8000D9F701C040E0842F08954132B0F59091FA
:103C900075099923E1F792E0909375099FEF90934E
:103CA00074091092520940935309DB01E4E5F9E0ED
:103CB00050E04E0F5F1F02C09D919193E417F507EE
:103CC000D9F790E0880F991F8093510985EE809372
:103CD000BC00222321F0809175098230E1F38091AC
:103CE00074098F3F61F080917409803251F08091A6
:103CF0007409803341F483E0089581E0089580E001
:103D0000089582E0089584E008956132A0F420913E
:103D10007509243091F460939A09DC01EDE9F9E02A
:103D200070E06E0F7F1F02C08D918193E617F70739
:103D3000D9F780E0089581E0089582E0089588230E
:103D400011F085EC01C085E88093BC00089585EDF5
:103D50008093BC008091BC0084FDFCCF109275095B
:103D6000089585EC8093BC001092750908951F9208
:103D70000F920FB60F9211242F933F934F935F939F
:103D80006F937F938F939F93AF93BF93EF93FF9323
:103D90008091B90090E0887F90708036910509F499
:103DA000C2C081369105E4F58832910509F47EC0E0
:103DB00089329105C4F48031910509F472C08131D2
:103DC000910544F4009709F413C18830910509F076
:103DD00013C167C08831910509F468C0803291052C
:103DE00009F00AC178C08034910509F48AC0813491
:103DF00091054CF48033910509F46FC08833910527
:103E000009F0FAC06EC08035910509F46EC088359E
:103E1000910509F47BC08834910509F0EDC0EAC032
:103E20008839910509F4DAC089399105ECF48837AD
:103E3000910509F478C0893791054CF488369105CD
:103E400009F471C08037910509F0D6C06CC088387C
:103E5000910509F4C3C08039910509F46AC080381E
:103E6000910509F0C9C065C0803B910509F48EC079
:103E7000813B91054CF4803A910509F46CC0883A75
:103E8000910509F0B9C082C0803C910509F4AAC02F
:103E9000883C910509F4A6C0883B910509F0ACC0A7
:103EA0008AC0809151098093BB0013C09091520940
:103EB00080915309981708F09DC080915209E82F0E
:103EC000F0E0EC5AF64F90819093BB008F5F8093A7
:103ED000520981E084C080E201C080E380937409CC
:103EE00089C088E3809374094EC0809152099091F3
:103EF000BB00E82FF0E0EC5AF64F90838F5F809381
:103F00005209909152098091530965C080915209DC
:103F10009091BB00E82FF0E0EC5AF64F90838F5F52
:103F20008093520967C083E08093750910927609E7
:103F3000D0CF80917609803208F050C08091760908
:103F40009091BB00E82FF0E0E958F64F90838F5F27
:103F500080937609BECF80917609803230F4E0916B
:103F60007609F0E0E958F64F10820E94A71E609192
:103F70007609E0919709F091980987E799E070E058
:103F80000995109276090E94B11E36C084E0809394
:103F900075091092990910929A09E0919B09F09184
:103FA0009C09099580919A09882329F481E08093DE
:103FB0009A0910929D0980919909E82FF0E0E35643
:103FC000F64F90819093BB008F5F809399099091F9
:103FD000990980919A09981708F47BCF80E00E9494
:103FE0009F1E0AC081E00E949F1E1092750904C0A6
:103FF000109274090E94A71EFF91EF91BF91AF919B
:104000009F918F917F916F915F914F913F912F91F0
:104010000F900FBE0F901F9018951F920F920FB622
:104020000F9211242F933F938F939F93AF93BF933E
:104030008091C1099091C209A091C309B091C409AE
:104040003091C5090196A11DB11D232F2D5F2D377C
:1040500020F02D570196A11DB11D2093C509809315
:10406000C1099093C209A093C309B093C409809178
:10407000BD099091BE09A091BF09B091C0090196F8
:10408000A11DB11D8093BD099093BE09A093BF09E6
:10409000B093C009BF91AF919F918F913F912F91A4
:1040A0000F900FBE0F901F9018958FB7F894209126
:1040B000C1093091C2094091C3095091C4098FBF11
:1040C000B901CA0108959FB7F8942091BD093091B4
:1040D000BE094091BF095091C00986B5A89B06C092
:1040E0008F3F21F02F5F3F4F4F4F5F4F9FBF542FA8
:1040F000432F322F2227280F311D411D511D82E0F1
:10410000220F331F441F551F8A95D1F7B901CA01E9
:104110000895EF92FF920F931F93CF93DF937B014C
:104120008C010E946320EB010FC00E9463206C1B76
:104130007D0B83E0683E780738F00894E108F108C9
:1041400001091109C851DC4FE114F1040105110501
:1041500061F7DF91CF911F910F91FF90EF9008953C
:10416000789484B5826084BD84B5816084BD85B552
:10417000826085BD85B5816085BDEEE6F0E0808119
:1041800081608083E1E8F0E010828081826080833A
:10419000808181608083E0E8F0E0808181608083BD
:1041A000E1EBF0E0808184608083E0EBF0E08081EF
:1041B00081608083EAE7F0E0808184608083808191
:1041C0008260808380818160808380818068808339
:1041D0001092C10008958F929F92AF92BF92CF929A
:1041E000DF92EF92FF920F931F9390E0FC01E95A48
:1041F000FE4F94908D5B9E4FFC01E490662311F47A
:10420000882401C0892CCA01B90120E83EE340E0BE
:1042100050E00E9429280E94672859016A0180E025
:1042200090E0DC016E2D70E0FB01EE0FFF1FE75CFC
:10423000FE4F2591349109C08A159B05AC05BD053B
:1042400009F44DC00196A11DB11DF901408149211C
:10425000481591F30AC08A159B05AC05BD0509F404
:104260003EC00196A11DB11D07C0660F771F675C98
:104270007E4FFB0125913491F90140814921481578
:1042800051F720E030E0A901FB01659174910FC066
:1042900079018A01E80EF91E0A1F1B1FEA14FB04AC
:1042A0000C051D05E1F02F5F3F4F4F4F5F4FFB01A6
:1042B000E081E921E81561F3CA01B90128E032E59E
:1042C00040E050E00E9429286058714C8F4F9F4F6A
:1042D00020E83EE340E050E00E94672803C020E071
:1042E00030E0A901B901CA011F910F91FF90EF9031
:1042F000DF90CF90BF90AF909F908F9008958E30B9
:1043000008F08E508770909108039295990F990F3D
:10431000907C982B90937C0080917A0080648093AD
:104320007A0080917A0086FDFCCF20917800309150
:104330007900932F80E030E0282B392BC9010895B4
:10434000833071F0843028F48130A1F0823021F57F
:1043500014C08630B1F08730D1F08430E9F404C065
:10436000809180008F7703C0809180008F7D809343
:104370008000089584B58F7702C084B58F7D84BD99
:1043800008958091B0008F778093B0000895809158
:10439000B0008F7D8093B000089590E0FC01E95A51
:1043A000FE4F2491FC01ED5BFE4FE491EE23C1F042
:1043B000F0E0EE0FFF1FEB5DFE4F85919491DC0165
:1043C000662341F49FB7F8948C91209582238C93B7
:1043D0009FBF08959FB7F8948C91822B8C939FBFB9
:1043E00008950F931F93DF93CF930F92CDB7DEB74E
:1043F000282F30E0F901E559FE4F8491F901E95A7F
:10440000FE4F14912D5B3E4FF90104910023D9F02A
:10441000882321F069830E94A0216981E02FF0E0C8
:10442000EE0FFF1FE15DFE4F85919491DC019FB778
:10443000F894662321F48C911095812302C08C910D
:10444000812B8C939FBF0F90CF91DF911F910F9184
:104450000895CF93DF930E94B0200E94BF09CDEC56
:10446000D3E20E948F0E2097E1F30E94CD23F9CF73
:104470002F923F924F925F926F927F928F929F9274
:10448000AF92BF92CF92DF92EF92FF920F931F9362
:10449000DF93CF93CDB7DEB73B014C0119012A0161
:1044A0006D897E898F89988D6A197B098C099D0990
:1044B000621A730A840A950AA40193010E942928AA
:1044C000E218F30804091509A80197010E94892838
:1044D0002A0D3B1D4C1D5D1DB901CA01CF91DF9115
:1044E0001F910F91FF90EF90DF90CF90BF90AF9012
:1044F0009F908F907F906F905F904F903F902F9004
:104500000895CF92DF92EF92FF920F931F93CF9374
:10451000DF936C017B018A01C0E0D0E00FC0D701BE
:104520006D917D01D601ED91FC910190F081E02D1E
:10453000C6010995C80FD91F01501040011511057A
:1045400071F7CE01DF91CF911F910F91FF90EF9006
:10455000DF90CF900895DB010D900020E9F7AD01C9
:1045600041505040461B570BDC01ED91FC910280FD
:10457000F381E02D09950895DC01ED91FC91019006
:10458000F081E02D099508950F931F93CF93DF934A
:10459000EC016DE00E94BC228C01CE016AE00E9419
:1045A000BC22080F191FC801DF91CF911F910F91F5
:1045B00008950F931F93CF93DF93EC010E94AB22DA
:1045C0008C01CE010E94C422080F191FC801DF917F
:1045D000CF911F910F910895FC0184859585FC0171
:1045E000E05CFF4F208131818E5B9F4FFC01808119
:1045F0009181281B390B2F733070C9010895FC017C
:1046000084859585FC01E05CFF4F40815181FC0170
:10461000EE5BFF4F208131814217530741F001903B
:10462000F081E02DE80FF91F208130E002C02FEF6C
:104630003FEFC9010895FC0184859585FC01E05C8C
:10464000FF4F40815181FC01EE5BFF4F20813181A2
:104650004217530771F0A081B181A80FB91F2C91A7
:104660008081918101968F7390709183808330E077
:1046700002C02FEF3FEFC9010895DC011E968D9116
:104680009C911F97FC01E05CFF4F8E5B9F4F408128
:104690005181DC012D913C91119742175307B9F7D5
:1046A00008951F93FC01162F26853785D901A05C3C
:1046B000BF4F8D919C91019660E470E00E94542858
:1046C000D901AE5BBF4F4D915C911197841795074F
:1046D000D1F3D901A05CBF4F0D90BC91A02DA20FCA
:1046E000B31F1C93A685B785A05CBF4F11969C9302
:1046F0008E93A689B7892C9181E090E0058C02C049
:10470000880F991F0A94E2F7282B2C9381E090E000
:104710001F910895FB01E05CFF4F208131812F5FE5
:104720003F4F2F733070DB01AE5BBF4F4D915C91FB
:1047300011972417350739F0A081B181A60FB71F53
:104740008C9331832083089508951F920F920FB6A2
:104750000F9211242F933F934F935F936F937F9307
:104760008F939F93AF93BF93EF93FF938091C60076
:1047700066EC79E00E948A23FF91EF91BF91AF919F
:104780009F918F917F916F915F914F913F912F9169
:104790000F900FBE0F901F9018958EE49AE00E9424
:1047A000EC22009711F00E94A42308951F920F920B
:1047B0000FB60F9211242F933F935F936F937F93C4
:1047C0008F939F93AF93BF93EF93FF9320914A0AE8
:1047D00030914B0A80914C0A90914D0A2817390765
:1047E00031F48091C1008F7D8093C10016C0E091AB
:1047F0004C0AF0914D0AE65FF54F208180914C0AFA
:1048000090914D0A019660E470E00E9454289093C4
:104810004D0A80934C0A2093C600FF91EF91BF91FF
:10482000AF919F918F917F916F915F913F912F9168
:104830000F900FBE0F901F901895DF92EF92FF928E
:104840000F931F93CF93DF93EC017A018B01DD244B
:10485000D394403081EE580780E0680780E0780705
:1048600049F4DD24EC89FD89108260E874E88EE16A
:1048700090E00FC0EC89FD8981E090E00E8C02C0D1
:10488000880F991F0A94E2F7808360E079E08DE356
:1048900090E0A80197010E946728215030404040D5
:1048A0005040569547953795279580E12030380739
:1048B00010F0DD20B1F6E889F9893083EA89FB89B7
:1048C0002083EE89FF89408181E090E09C010A8C81
:1048D00002C0220F331F0A94E2F7422B4083EE8975
:1048E000FF8940819C010B8C02C0220F331F0A9468
:1048F000E2F7422B4083EE89FF8940819C010C8CBA
:1049000002C0220F331F0A94E2F7422B4083EE8944
:10491000FF8920810D8C02C0880F991F0A94E2F74D
:10492000809582238083DF91CF911F910F91FF901B
:10493000EF90DF9008951092510A1092500A88EE7D
:1049400093E0A0E0B0E08093520A9093530AA093C2
:10495000540AB093550AE0E5FAE08FEA93E09293A7
:10496000829386EC99E0958784878AE09AE097871E
:10497000868785EC90E0918B808B84EC90E0938B24
:10498000828B80EC90E0958B848B81EC90E0978B10
:10499000868B86EC90E0918F808F84E0828F83E01D
:1049A000838F87E0848F85E0858F81E0868F0895EF
:1049B0005058BB27AA270ED058C249D230F04ED249
:1049C00020F031F49F3F11F41EF419C20EF4E0956B
:1049D000E7FB01C2E92F5AD280F3BA1762077307C7
:1049E0008407950718F071F49EF572C20EF4E095F5
:1049F0000B2EBA2FA02D0B01B90190010C01CA0199
:104A0000A0011124FF27591B99F0593F50F4503E43
:104A100068F11A16F040A22F232F342F4427585F35
:104A2000F3CF469537952795A795F0405395C9F74D
:104A30007EF41F16BA0B620B730B840BBAF0915005
:104A4000A1F0FF0FBB1F661F771F881FC2F70EC0A4
:104A5000BA0F621F731F841F48F487957795679577
:104A6000B795F7959E3F08F0B3CF9395880F08F060
:104A70009927EE0F979587950895E9D158F080E82A
:104A800091E009F49EEFEAD128F040E851E059F4B2
:104A90005EEF09C0B4C11CC2E92FE078F7D168F31A
:104AA000092E052AC1F3261737074807590738F09A
:104AB0000E2E07F8E02569F0E025E0640AC0EF63F8
:104AC00007F8009407FADB01B9019D01DC01CA0176
:104AD000AD01EF9347D0C9D10AD05F91552331F092
:104AE0002BED3FE049E450FD49EC63CF0895DF939F
:104AF000DD27B92FBF7740E85FE316161706480792
:104B00005B0710F4D92FEFD19F938F937F936F930F
:104B100096D2E8E6F0E076D1A8D12F913F914F915F
:104B20005F91F4D1DD2349F09058A2EA2AED3FE0ED
:104B300049EC5FE3D0785D274DDFDF9196C127D147
:104B400008F481E008950CD090C188D140F07FD165
:104B500030F021F45F3F19F03EC15111BAC14FC18D
:104B600095D198F39923C9F35523B1F3951B550BB0
:104B7000BB27AA2762177307840738F09F5F5F4F30
:104B8000220F331F441FAA1FA9F333D00E2E3AF071
:104B9000E0E830D091505040E695001CCAF729D08B
:104BA000FE2F27D0660F771F881FBB1F26173707DA
:104BB0004807AB07B0E809F0BB0B802DBF01FF270A
:104BC00093585F4F2AF09E3F510568F004C181C1A0
:104BD0005F3FECF3983EDCF3869577956795B79544
:104BE000F7959F5FC9F7880F911D9695879597F95F
:104BF0000895E1E0660F771F881FBB1F62177307D8
:104C00008407BA0720F0621B730B840BBA0BEE1FEC
:104C100088F7E095089504D06894B1115AC10895B9
:104C20003DD188F09F5790F0B92F9927B751A0F048
:104C3000D1F0660F771F881F991F1AF0BA95C9F730
:104C400012C0B13081F044D1B1E0089541C1672F65
:104C5000782F8827B85F39F0B93FCCF386957795E0
:104C60006795B395D9F73EF49095809570956195C9
:104C70007F4F8F4F9F4F0895E89409C097FB3EF4F4
:104C800090958095709561957F4F8F4F9F4F992399
:104C9000A9F0F92F96E9BB279395F6958795779517
:104CA0006795B795F111F8CFFAF4BB0F11F460FFD7
:104CB0001BC06F5F7F4F8F4F9F4F16C0882311F02F
:104CC00096E911C0772321F09EE8872F762F05C043
:104CD000662371F096E8862F70E060E02AF09A95DE
:104CE000660F771F881FDAF7880F9695879597F9D3
:104CF0000895ADD018F011F0B1D038F480C0E9C0FB
:104D0000E92FC4D0B0F35523C9F3E7FB621773074B
:104D100084079507A8F199F3E92FFF2788232AF044
:104D20003197660F771F881FDAF7952F5527442391
:104D300032F091505040220F331F441FD2F7BB274F
:104D4000E91BF50B621B730B840BB109C1F222F452
:104D5000620F731F841FB11D31972AF0660F771FF2
:104D6000881FBB1FEFCF915050405AF041F088236D
:104D700032F0660F771F881F91505040C1F793950E
:104D800030C08695779567959F5FD9F7F8CF990FD3
:104D90000008550FAA0BE0E8FEEF16161706E80705
:104DA000F907C0F012161306E407F50798F0621B26
:104DB000730B840B950B39F40A2661F0232B242BFB
:104DC000252B21F408950A2609F4A140A6958FEF1A
:104DD000811D811D089597F99F6780E870E060E06C
:104DE00008959F3F31F0915020F48795779567950E
:104DF000B795880F911D9695879597F908959FEF20
:104E000080EC0895DF93CF931F930F93FF92EF925F
:104E1000DF927B018C01689405C0DA2EEF0176D019
:104E2000FE01E894A5912591359145915591AEF3F8
:104E3000EF01D0DDFE019701A801DA9479F7DF9048
:104E4000EF90FF900F911F91CF91DF910895002473
:104E50000A941616170618060906089500240A94DF
:104E600012161306140605060895092E0394000C65
:104E700011F4882352F0BB0F40F4BF2B11F460FFF4
:104E800004C06F5F7F4F8F4F9F4F089557FD90581D
:104E9000440F551F59F05F3F71F04795880F97FBFE
:104EA000991F61F09F3F79F08795089512161306B8
:104EB0001406551FF2CF4695F1DF08C016161706E7
:104EC0001806991FF1CF869571056105089408951C
:104ED000E894BB2766277727CB0197F9089557DF1A
:104EE00008F48FEF08959B01AC0160E070E080E86A
:104EF0009FE329CE0BD0B9CFAADF28F0AFDF18F09F
:104F0000952309F068CF7BCF1124E3CFBFDFA0F357
:104F1000959FD1F3950F50E0551F629FF001729F4E
:104F2000BB27F00DB11D639FAA27F00DB11DAA1F6D
:104F3000649F6627B00DA11D661F829F2227B00DBA
:104F4000A11D621F739FB00DA11D621F839FA00D45
:104F5000611D221F749F3327A00D611D231F849F95
:104F6000600D211D822F762F6A2F11249F575040EC
:104F70008AF0E1F088234AF0EE0FFF1FBB1F661F87
:104F8000771F881F91505040A9F79E3F510570F040
:104F900022CF9FCF5F3FECF3983EDCF38695779569
:104FA0006795B795F795E7959F5FC1F7FE2B880F3B
:104FB000911D9695879597F9089511F40EF41FCFDA
:104FC00010CF6CDFD0F39923D9F3CEF39F57550B55
:104FD00087FF38D00024A0E640EA9001805856951B
:104FE000979528F4805C660F771F881F20F026179E
:104FF0003707480730F4621B730B840B20293129D3
:105000004A2BA69517940794202531254A2758F74F
:10501000660F771F881F20F026173707480730F4E0
:10502000620B730B840B200D311D411DA09581F780
:10503000B901842F9158880F9695879508959B0103
:10504000AC0158CF91505040660F771F881FD2F7A0
:105050000895629FD001739FF001829FE00DF11DC2
:10506000649FE00DF11D929FF00D839FF00D749FE2
:10507000F00D659FF00D9927729FB00DE11DF91F8E
:10508000639FB00DE11DF91FBD01CF0111240895EB
:10509000991B79E004C0991F961708F0961B881F8A
:1050A0007A95C9F78095089597FB092E07260AD0AF
:1050B00077FD04D049D006D000201AF47095619590
:1050C0007F4F0895F6F7909581959F4F0895A1E23F
:1050D0001A2EAA1BBB1BFD010DC0AA1FBB1FEE1F72
:1050E000FF1FA217B307E407F50720F0A21BB30BBD
:1050F000E40BF50B661F771F881F991F1A9469F739
:1051000060957095809590959B01AC01BD01CF0194
:10511000089597FB092E05260ED057FD04D0D7DF42
:105120000AD0001C38F450954095309521953F4F9A
:105130004F4F5F4F0895F6F7909580957095619564
:105140007F4F8F4F9F4F0895AA1BBB1B51E107C094
:10515000AA1FBB1FA617B70710F0A61BB70B881F07
:10516000991F5A95A9F780959095BC01CD01089596
:10517000EE0FFF1F0590F491E02D0994CF93DF937C
:105180008230910510F482E090E0E0916F0AF09196
:10519000700A40E050E020E030E026C0608171817C
:1051A00068177907E0F06817790781F482819381A5
:1051B0002115310531F0D90113969C938E931297E6
:1051C0002BC09093700A80936F0A26C04115510539
:1051D00019F06417750718F4AB01E901DF019F01AD
:1051E00072816381E72FF62F3097C1F64115510583
:1051F00001F1481B590B4430510580F412968D91F2
:105200009C911397209719F09B838A8304C09093F5
:10521000700A80936F0AFD01329646C0FD01E40FCB
:10522000F51F819391934250504011965C934E9399
:105230003BC020916D0A30916E0A2115310541F471
:105240002091FC023091FD0230936E0A20936D0A8A
:105250002091FE023091FF022115310541F42DB756
:105260003EB74091FA025091FB02241B350BE091AE
:105270006D0AF0916E0AE217F307A0F42E1B3F0BA4
:105280002817390778F0AC014E5F5F4F24173507B8
:1052900048F04E0F5F1F50936E0A40936D0A819342
:1052A000919302C0E0E0F0E0CF01DF91CF9108954B
:1052B000CF93DF93009709F491C0FC0132971382DA
:1052C000128260916F0A7091700A6115710581F404
:1052D00020813181280F391F80916D0A90916E0ACB
:1052E0008217930799F5F0936E0AE0936D0A76C0E2
:1052F000DB0180E090E002C0CD01D901AE17BF070D
:1053000048F412962D913C91139721153105A1F780
:10531000CD0121C0B383A283EF01499159919E0130
:10532000240F351FA217B30779F42D913C911197E3
:10533000240F351F2E5F3F4F3183208312962D910E
:105340003C91139733832283009729F4F093700ADA
:10535000E0936F0A43C0DC011396FC93EE9312971F
:105360004D915D91A40FB51FEA17FB0769F42081E9
:105370003181240F351F2E5F3F4FEC013983288385
:10538000228133813B832A83E0E0F0E002C0FB010D
:10539000BC01DB0112968D919C9113970097B9F790
:1053A0009B012E5F3F4F8D919C911197820F931F10
:1053B00040916D0A50916E0A4817590779F4309759
:1053C00029F41092700A10926F0A02C0138212829E
:1053D0002250304030936E0A20936D0ADF91CF91B6
:1053E0000895A0E0B0E0E7EFF9E20C94B42C8C0152
:1053F000CB010115110529F40E94BE28082F192F91
:10540000B5C0D80112979801260F371F2A173B07FE
:1054100008F4AAC0ED90FC901197E616F706D0F0BC
:1054200045E0E416F10408F4A1C0A701445050403F
:105430004617570708F49AC0A70142505040461B30
:10544000570BF901419351936D937C93CF010E94C7
:1054500058298CC05B01AE18BF0848018E0C9F1CF8
:10546000E0916F0AF091700ACC24DD24C0E0D0E016
:1054700041C0E815F90599F560817181AB014E5F76
:105480005F4F4A155B0558F1AB014A195B09CC2403
:10549000DD246894C1F8C40ED51E8280A380E5E0A7
:1054A000CE16D10448F0F9018282A3825183408351
:1054B00011969C938E9309C0C7010296860F971F81
:1054C00011969C938E93E82DFA2D209719F0FB836B
:1054D000EA834CC0F093700AE0936F0A47C04081A2
:1054E0005181C416D50608F46A01EF015281438147
:1054F000E52FF42F309709F0BCCF40916D0A509101
:105500006E0A48155905E9F4C816D906D0F4409139
:10551000FE025091FF024115510541F44DB75EB7AF
:105520006091FA027091FB02461B570B2417350756
:10553000D8F430936E0A20936D0A11969C938E9343
:1055400015C00E94BE28C82EE6016E01D92EE601C4
:10555000209751F08C2DB801A7010E94E62AC801BE
:105560000E945829860102C000E010E0C801CDB7B2
:10557000DEB7ECE00C94D02C662777270C941C2B1C
:10558000FC0188279927E89421912032E9F32930FA
:1055900010F02E30C8F32B3241F02D3239F46894DC
:1055A00004C00E94142B820F911D219120532A3098
:1055B000C0F31EF4909581959F4F08959111B3C14A
:1055C000803219F089508550D0F70895FB01DC0135
:1055D00002C001900D9241505040D8F70895FC014F
:1055E0008191861721F08823D9F79927089531975B
:1055F000CF010895FB0151915523A9F0BF01DC01B2
:105600004D9145174111E1F759F4CD01019000206A
:1056100049F04D9140154111C9F3FB014111EFCF04
:1056200081E090E0019708957AE0979F902D879F01
:10563000802D910D11240895A1E0B0E0E2E2FBE29B
:105640000C94B22C5B016115710521F0DB018C9388
:1056500011969C93482F592F6A01F601E1906F0132
:105660008F018E2D90E00E94DE2A0097B1F7FE2D6B
:10567000FD3229F4D601ED908D0121E007C0BE2D49
:10568000BB3219F4F601E1908F0120E06801089423
:10569000C108D108C6016FE771E043E050E02983FB
:1056A0000E94962C2981009711F572E0E72EF12CCB
:1056B000E00EF11EC70162E871E045E050E00E9493
:1056C000962C2981009729F467E0E62EF12CE00E54
:1056D000F11EA114B10421F0D5011196FC92EE92B5
:1056E00020FF0FC130E020E090E88FEF12C1C6012B
:1056F00067E871E043E050E029830E94962C2981FD
:10570000009731F060E070E0CB01662477240AC096
:10571000A114B10409F4F9C00E5F1F4FF501118304
:105720000083F3C03E2D30533A30A0F52260E22FC3
:10573000F0E0AF014870507022FF07C041155105DD
:1057400071F50894611C711C2AC04115510519F0AE
:105750000894610871086B017C0152E0CC0CDD1CDF
:10576000EE1CFF1C5A95D1F76C0D7D1D8E1D9F1DE3
:10577000660F771F881F991F630F711D811D911D73
:105780006839F9E97F07F9E98F07F9E19F0738F0F0
:10579000246005C03E3F39F423FD3FC02860D80196
:1057A000ED908D01BFCF353311F03531B1F5F801F2
:1057B00031913D3211F4206102C03B3241F4D801F5
:1057C00011963C911197319642E050E002C041E0C1
:1057D00050E030533A3020F08F01041B150B1DC0F0
:1057E00040E050E0BCE040385B075CF4DA01AA0F0F
:1057F000BB1FAA0FBB1F4A0F5B1F440F551F430F50
:10580000511D319130538F013A3060F324FF03C0B2
:10581000509541955F4F640E751EC22EDD2421FF09
:1058200008C0A114B10429F001501040F501118302
:1058300000830E943C267B018C01F3E0CF22DD2413
:1058400033E0C316D10421F417FB109517F9109516
:10585000C801B70120E030E0A9010E949F258823FC
:1058600009F44AC077FE09C04EE9C42E41E0D42EA7
:10587000709461947108739404C036EBC32E31E0C8
:10588000D32E26E0822E912C90E2A92EB12C0FC0AF
:10589000F6012591359145915491C801B7010E94B7
:1058A0007A27E62EF72E082F192F6A187B086A141C
:1058B0007B0474F7B594A794089481089108811427
:1058C000910429F08CEF9FEFC80ED91EF0CFB701DD
:1058D000C801282F220F292F221F2F3F39F020E047
:1058E00030E0A9010E949F25882331F482E290E0F4
:1058F0009093720A8093710A3E2D2F2D902F812F45
:1059000008C030E020E090E803C030E020E090ECF8
:105910008FE7F901AC016F2F722F852F942F2196FD
:10592000EEE00C94CE2C992788270895FB01DC012A
:105930004150504088F08D9181341CF08B350CF42F
:10594000805E659161341CF06B350CF4605E861BE3
:10595000611171F3990B0895881BFCCF2F923F9230
:105960004F925F926F927F928F929F92AF92BF926F
:10597000CF92DF92EF92FF920F931F93CF93DF931B
:10598000CDB7DEB7CA1BDB0B0FB6F894DEBF0FBE78
:10599000CDBF09942A88398848885F846E847D84C5
:1059A0008C849B84AA84B984C884DF80EE80FD80C7
:1059B0000C811B81AA81B981CE0FD11D0FB6F8943D
:1059C000DEBF0FBECDBFED01089511E0C0ECD1E008
:1059D00004C0FE010E94BA282296C23CD107C9F732
:0459E000F894FFCF69
:1059E4007374645F6D7367732F54696D6500726FB0
:1059F4007373657269616C5F6D7367732F546F7035
:105A04006963496E666F00726F7373657269616C66
:105A14005F6D7367732F4C6F67007374645F6D738E
:105A240067732F55496E743136007374645F6D73F8
:105A340067732F4D756C7469417272617944696D35
:105A4400656E73696F6E007374645F6D7367732F33
:105A54004D756C746941727261794C61796F7574BA
:105A6400007374645F6D7367732F55496E743136B8
:105A74004D756C7469417272617900736572766FE9
:105A84003100736572766F320070776D5F64757282
:105A94006174696F6E006C65616B006C6F63617437
:105AA400696F6E0068656164696E6700736574741C
:105AB400696E672075700024504D544B3331342C7B
:105AC400302C312C302C312C302C302C302C302CF0
:105AD400302C302C302C302C302C302C302C302CE2
